******************************************************************************
                  TI ARM Linker PC v5.2.8                      
******************************************************************************
>> Linked Fri Nov 04 08:11:39 2016

OUTPUT FILE NAME:   <Quadcopter.out>
ENTRY POINT SYMBOL: "_c_int00"  address: 0000b585


MEMORY CONFIGURATION

         name            origin    length      used     unused   attr    fill
----------------------  --------  ---------  --------  --------  ----  --------
  MAIN                  00000000   00040000  0001183e  0002e7c2  R  X
  INFO                  00200000   00004000  00000000  00004000  R  X
  SRAM_CODE             01000000   00010000  00000000  00010000  RW X
  SRAM_DATA             20000000   00010000  000080eb  00007f15  RW  


SEGMENT ALLOCATION MAP

run origin  load origin   length   init length attrs members
----------  ----------- ---------- ----------- ----- -------
00000000    00000000    00011848   00011848    r-x
  00000000    00000000    0000003c   0000003c    r-- .resetVecs
  00000040    00000040    0000ef5a   0000ef5a    r-x .text
  0000efa0    0000efa0    000023e0   000023e0    r-- .const
  00011380    00011380    000004c8   000004c8    r-- .cinit
20000000    20000000    00004f01   00000000    rw-
  20000000    20000000    00000140   00000000    rw- .vecs
  20000140    20000140    00004dc1   00000000    rw- .data
20005000    20005000    000021ea   00000000    rw-
  20005000    20005000    000021ea   00000000    rw- .bss
2000f000    2000f000    00001000   00000000    rw-
  2000f000    2000f000    00001000   00000000    rw- .stack


SECTION ALLOCATION MAP

 output                                  attributes/
section   page    origin      length       input sections
--------  ----  ----------  ----------   ----------------
.text      0    00000040    0000ef5a     
                  00000040    00000aae     quadcopter.obj (.text:sensorPIDFxn)
                  00000aee    00000002     power_tirtos_MSP432P401R.aem4f : PowerMSP432_tirtos.oem4f (.text:PowerMSP432_initPolicy)
                  00000af0    00000598     rtsv7M4_T_le_v4SPD16_eabi.lib : pow.obj (.text)
                  00001088    00000548     sysbios.aem4f : BIOS.obj (.text:xdc_runtime_System_doPrint__I)
                  000015d0    000004a4                   : BIOS.obj (.text:ti_sysbios_family_arm_m3_Hwi_excDumpRegs__I)
                  00001a74    00000456     rtsv7M4_T_le_v4SPD16_eabi.lib : fmodf.obj (.text)
                  00001eca    00000002                                   : i_div0.obj (.text)
                  00001ecc    0000042c     sysbios.aem4f : BIOS.obj (.text:ti_sysbios_knl_Event_pend__E)
                  000022f8    000003c4     rtsv7M4_T_le_v4SPD16_eabi.lib : xexp.obj (.text)
                  000026bc    000003b8     sysbios.aem4f : BIOS.obj (.text:ti_sysbios_heaps_HeapMem_free__E)
                  00002a74    00000374                   : BIOS.obj (.text:ti_sysbios_knl_Semaphore_pend__E)
                  00002de8    00000358                   : BIOS.obj (.text:ti_sysbios_heaps_HeapMem_alloc__E)
                  00003140    0000032c                   : BIOS.obj (.text:ti_sysbios_knl_Task_Instance_init__E)
                  0000346c    00000004     msp432p4xx_driverlib.lib : cpu.o (.text:CPU_wfi)
                  00003470    0000031d     quadcopter.obj (.text:main)
                  0000378d    00000001     --HOLE-- [fill = 0]
                  0000378e    00000002     sysbios.aem4f : BIOS.obj (.text:ti_sysbios_BIOS_linkedWithIncorrectBootLibrary__E)
                  00003790    000002fb     quadcopter.obj (.text:calibrateSystemFxn)
                  00003a8b    00000001     --HOLE-- [fill = 0]
                  00003a8c    000002e4     sysbios.aem4f : BIOS.obj (.text:ti_sysbios_knl_Task_Instance_finalize__E)
                  00003d70    000002b8     quadcopter_pem4f.oem4f (.text:xdc_runtime_System_printfExtend__I)
                  00004028    00000264     drivers_MSP432P401R.aem4f : PowerMSP432.oem4f (.text:Power_sleep)
                  0000428c    00000260                               : UARTMSP432.oem4f (.text:UARTMSP432_open)
                  000044ec    00000248     sysbios.aem4f : BIOS.obj (.text:ti_sysbios_knl_Task_sleep__E)
                  00004734    000001f4     rtsv7M4_T_le_v4SPD16_eabi.lib : ull_div_t2.obj (.text)
                  00004928    000001f4     sysbios.aem4f : BIOS.obj (.text:ti_sysbios_heaps_HeapMem_Instance_init__E)
                  00004b1c    000001e8                   : BIOS.obj (.text:ti_sysbios_family_arm_m3_Hwi_excFillContext__I)
                  00004d04    000001e4     rtsv7M4_T_le_v4SPD16_eabi.lib : xlog.obj (.text)
                  00004ee8    000001c4     sysbios.aem4f : BIOS.obj (.text:ti_sysbios_knl_Clock_Instance_init__E)
                  000050ac    000001bc                   : BIOS.obj (.text:ti_sysbios_knl_Mailbox_Instance_init__E)
                  00005268    000001b8     rtsv7M4_T_le_v4SPD16_eabi.lib : atan2f.obj (.text)
                  00005420    000001b6                                   : fd_add_t2.obj (.text)
                  000055d6    00000002     --HOLE-- [fill = 0]
                  000055d8    000001a4     sysbios.aem4f : BIOS.obj (.text:ti_sysbios_knl_Event_post__E)
                  0000577c    000001a0     msp432p4xx_driverlib.lib : pcm.o (.text:__PCM_setPowerStateAdvanced)
                  0000591c    00000190     sysbios.aem4f : BIOS.obj (.text:ti_sysbios_knl_Semaphore_post__E)
                  00005aac    00000190                   : BIOS.obj (.text:xdc_runtime_Core_createObject__I)
                  00005c3c    0000017c                   : BIOS.obj (.text:ti_sysbios_family_arm_m3_Hwi_excBusFault__I)
                  00005db8    00000178     drivers_MSP432P401R.aem4f : I2CMSP432.oem4f (.text:I2CMSP432_open)
                  00005f30    00000170     sysbios.aem4f : BIOS.obj (.text:ti_sysbios_knl_Clock_workFunc__E)
                  000060a0    00000168                   : BIOS.obj (.text:ti_sysbios_family_arm_m3_Hwi_excUsageFault__I)
                  00006208    00000160     rtsv7M4_T_le_v4SPD16_eabi.lib : xfsin.obj (.text)
                  00006368    0000015f     quadcopter.obj (.text:rxFxn)
                  000064c7    00000001     --HOLE-- [fill = 0]
                  000064c8    0000015c     sysbios.aem4f : BIOS.obj (.text:ti_sysbios_family_arm_m3_Hwi_dispatchC__I)
                  00006624    0000015c                   : BIOS.obj (.text:xdc_runtime_Startup_startMods__I)
                  00006780    00000154                   : BIOS.obj (.text:ti_sysbios_family_arm_m3_Hwi_excMemFault__I)
                  000068d4    00000154                   : BIOS.obj (.text:xdc_runtime_Error_policyDefault__E)
                  00006a28    0000014c                   : BIOS.obj (.text:ti_sysbios_knl_Swi_run__I)
                  00006b74    00000144                   : BIOS.obj (.text:ti_sysbios_family_arm_m3_Hwi_excHandlerMax__I)
                  00006cb8    00000140     drivers_MSP432P401R.aem4f : GPIOMSP432.oem4f (.text:GPIO_setConfig)
                  00006df8    00000138     sysbios.aem4f : BIOS.obj (.text:xdc_runtime_Core_constructObject__I)
                  00006f30    00000136     rtsv7M4_T_le_v4SPD16_eabi.lib : fd_div_t2.obj (.text)
                  00007066    00000002     --HOLE-- [fill = 0]
                  00007068    00000134                                   : tanf.obj (.text)
                  0000719c    0000011c                                   : atanf.obj (.text)
                  000072b8    0000011a                                   : xdunscal.obj (.text)
                  000073d2    00000118     drivers_MSP432P401R.aem4f : I2CMSP432.oem4f (.text:I2CMSP432_hwiIntFxn)
                  000074ea    000000fc     rtsv7M4_T_le_v4SPD16_eabi.lib : fd_mul_t2.obj (.text)
                  000075e6    00000002     --HOLE-- [fill = 0]
                  000075e8    000000fc     sysbios.aem4f : BIOS.obj (.text:ti_sysbios_knl_Task_startCore__E)
                  000076e4    000000f8                   : BIOS.obj (.text:ti_sysbios_knl_Task_schedule__I)
                  000077dc    000000f4                   : BIOS.obj (.text:ti_sysbios_knl_Semaphore_Instance_init__E)
                  000078d0    000000f4                   : BIOS.obj (.text:ti_sysbios_knl_Task_checkStacks__E)
                  000079c4    000000f0     drivers_MSP432P401R.aem4f : PowerMSP432.oem4f (.text:initPerfControl)
                  00007ab4    000000f0     sysbios.aem4f : BIOS.obj (.text:ti_sysbios_gates_GateMutex_enter__E)
                  00007ba4    00000004     tirtosport.aem4f : HwiP_tirtos.oem4f (.text:HwiP_disable)
                  00007ba8    000000ee     quadcopter.obj (.text:getPID)
                  00007c96    00000002     --HOLE-- [fill = 0]
                  00007c98    000000ec     sysbios.aem4f : m3_Hwi_asm.obj (.text:ti_sysbios_family_arm_m3_Hwi_dispatch__I)
                  00007d84    000000e2     drivers_MSP432P401R.aem4f : PWMTimerMSP432.oem4f (.text:initHw)
                  00007e66    00000002     --HOLE-- [fill = 0]
                  00007e68    000000e0     msp432p4xx_driverlib.lib : cs.o (.text:CS_initClockSignal)
                  00007f48    000000dc                              : pcm.o (.text:__PCM_setPowerModeAdvanced)
                  00008024    000000dc     sysbios.aem4f : BIOS.obj (.text:ti_sysbios_family_arm_m3_Hwi_excHardFault__I)
                  00008100    000000dc                   : BIOS.obj (.text:ti_sysbios_knl_Clock_Instance_finalize__E)
                  000081dc    000000da                   : BIOS.obj (.text:xdc_runtime_Text_putSite__E)
                  000082b6    00000002     --HOLE-- [fill = 0]
                  000082b8    000000cc                   : BIOS.obj (.text:ti_sysbios_knl_Swi_post__E)
                  00008384    000000c8                   : BIOS.obj (.text:ti_sysbios_family_arm_m3_Hwi_Instance_init__E)
                  0000844c    000000c4                   : BIOS.obj (.text:ti_sysbios_family_arm_m3_Hwi_excDebugMon__I)
                  00008510    000000c4                   : BIOS.obj (.text:ti_sysbios_family_arm_m3_Hwi_initNVIC__E)
                  000085d4    000000c4                   : BIOS.obj (.text:xdc_runtime_Text_putMod__E)
                  00008698    000000c0     rtsv7M4_T_le_v4SPD16_eabi.lib : xdint.obj (.text)
                  00008758    000000c0     sysbios.aem4f : BIOS.obj (.text:ti_sysbios_knl_Task_blockI__E)
                  00008818    000000c0                   : BIOS.obj (.text:ti_sysbios_knl_Task_unblockI__E)
                  000088d8    000000b5                   : BIOS.obj (.text:xdc_runtime_System_formatNum__I)
                  0000898d    00000001     --HOLE-- [fill = 0]
                  0000898e    000000b2     msp432p4xx_driverlib.lib : timer_a.o (.text:privateTimer_AProcessClockSourceDivider)
                  00008a40    000000b0     drivers_MSP432P401R.aem4f : UARTMSP432.oem4f (.text:UARTMSP432_readPolling)
                  00008af0    000000b0     msp432p4xx_driverlib.lib : pcm.o (.text:__PCM_setCoreVoltageLevelAdvanced)
                  00008ba0    000000b0     sysbios.aem4f : BIOS.obj (.text:ti_sysbios_knl_Task_exit__E)
                  00008c50    000000ac     drivers_MSP432P401R.aem4f : PWMTimerMSP432.oem4f (.text:PWMTimerMSP432_open)
                  00008cfc    000000ac     sysbios.aem4f : BIOS.obj (.text:ti_sysbios_knl_Task_postInit__I)
                  00008da8    000000a4     drivers_MSP432P401R.aem4f : UARTMSP432.oem4f (.text:UARTMSP432_control)
                  00008e4c    000000a0     auto_init.aem4f : auto_init.oem4f (.text)
                  00008eec    00000004     msp432p4xx_driverlib.lib : i2c.o (.text:I2C_setSlaveAddress)
                  00008ef0    0000009f     quadcopter.obj (.text:initSensors)
                  00008f8f    00000001     --HOLE-- [fill = 0]
                  00008f90    0000009c     drivers_MSP432P401R.aem4f : UARTMSP432.oem4f (.text:readTaskBlocking)
                  0000902c    0000009c     rtsv7M4_T_le_v4SPD16_eabi.lib : memcpy_t2.obj (.text)
                  000090c8    0000009c     sysbios.aem4f : BIOS.obj (.text:ti_sysbios_knl_Swi_restoreHwi__E)
                  00009164    00000004     drivers_MSP432P401R.aem4f : List.oem4f (.text:List_head)
                  00009168    0000009a     SensorMpu9250.obj (.text:sensorMagInit$5)
                  00009202    00000002     --HOLE-- [fill = 0]
                  00009204    00000098     sysbios.aem4f : BIOS.obj (.text:ti_sysbios_family_arm_msp432_Timer_setNextTick__E)
                  0000929c    00000004     drivers_MSP432P401R.aem4f : List.oem4f (.text:List_next)
                  000092a0    00000094     SensorMpu9250.obj (.text:SensorMpu9250_reset)
                  00009334    00000094     msp432p4xx_driverlib.lib : uart.o (.text:UART_initModule)
                  000093c8    00000092     drivers_MSP432P401R.aem4f : I2CMSP432.oem4f (.text:I2CMSP432_cancel)
                  0000945a    00000092                               : PWMTimerMSP432.oem4f (.text:PWMTimerMSP432_setPeriod)
                  000094ec    00000004                               : PowerMSP432.oem4f (.text:PowerMSP432_getNumPerfLevels)
                  000094f0    00000090     quadcopter.obj (.text:getMagnitude)
                  00009580    00000090     sysbios.aem4f : BIOS.obj (.text:ti_sysbios_knl_Mailbox_Instance_finalize__E)
                  00009610    00000090                   : BIOS.obj (.text:ti_sysbios_knl_Mailbox_post__E)
                  000096a0    00000090                   : BIOS.obj (.text:xdc_runtime_Text_visitRope2__I)
                  00009730    0000008c     drivers_MSP432P401R.aem4f : I2CMSP432.oem4f (.text:I2CMSP432_transfer)
                  000097bc    0000008c     sysbios.aem4f : m3_TaskSupport_asm.obj (.text:ti_sysbios_family_arm_m3_TaskSupport_buildTaskStack)
                  00009848    0000008b                   : BIOS.obj (.text:xdc_runtime_Text_putLab__E)
                  000098d3    00000005     --HOLE-- [fill = 0]
                  000098d8    0000008a     SensorMpu9250.obj (.text:SensorMpu9250_irqPinConfig)
                  00009962    0000008a     drivers_MSP432P401R.aem4f : UARTMSP432.oem4f (.text:UARTMSP432_close)
                  000099ec    00000004     --HOLE-- [fill = 0]
                  000099f0    00000088     SensorMpu9250.obj (.text:SensorMpu9250_gyroSetDLPF)
                  00009a78    00000086     rtsv7M4_T_le_v4SPD16_eabi.lib : fd_cmp_t2.obj (.text:__aeabi_cdcmple)
                  00009afe    00000086                                   : fd_cmp_t2.obj (.text:__aeabi_cdrcmple)
                  00009b84    00000084     drivers_MSP432P401R.aem4f : PWMTimerMSP432.oem4f (.text:PWMTimerMSP432_setDuty)
                  00009c08    00000084                               : UARTMSP432.oem4f (.text:initHw)
                  00009c8c    00000084     sysbios.aem4f : BIOS.obj (.text:ti_sysbios_family_arm_m3_Hwi_postInit__I)
                  00009d10    00000084     drivers_MSP432P401R.aem4f : UARTMSP432.oem4f (.text:writeData)
                  00009d94    00000004     --HOLE-- [fill = 0]
                  00009d98    00000082     SensorMpu9250.obj (.text:SensorMpu9250_test)
                  00009e1a    00000082     drivers_MSP432P401R.aem4f : UARTMSP432.oem4f (.text:readIsrTextCallback)
                  00009e9c    00000082     sysbios.aem4f : BIOS.obj (.text:xdc_runtime_Core_assignParams__I)
                  00009f1e    00000002     --HOLE-- [fill = 0]
                  00009f20    00000080                   : BIOS.obj (.text:ti_sysbios_knl_Task_Module_startup__E)
                  00009fa0    0000007e                   : BIOS.obj (.text:ti_sysbios_knl_Mailbox_pend__E)
                  0000a01e    0000007e                   : BIOS.obj (.text:xdc_runtime_Core_deleteObject__I)
                  0000a09c    0000007c     msp432p4xx_driverlib.lib : pcm.o (.text:PCM_gotoLPM3)
                  0000a118    0000007c     sysbios.aem4f : BIOS.obj (.text:ti_sysbios_family_arm_msp432_Timer_periodicStub__E)
                  0000a194    0000007c                   : BIOS.obj (.text:xdc_runtime_Error_print__E)
                  0000a210    0000007c                   : BIOS.obj (.text:xdc_runtime_Memory_alloc__E)
                  0000a28c    0000007a     drivers_MSP432P401R.aem4f : UARTMSP432.oem4f (.text:UARTMSP432_write)
                  0000a306    0000007a                               : UARTMSP432.oem4f (.text:readTaskCallback)
                  0000a380    0000007a     rtsv7M4_T_le_v4SPD16_eabi.lib : memset_t2.obj (.text)
                  0000a3fa    00000002     --HOLE-- [fill = 0]
                  0000a3fc    00000078     sysbios.aem4f : BIOS.obj (.text:ti_sysbios_knl_Clock_start__E)
                  0000a474    00000004     --HOLE-- [fill = 0]
                  0000a478    00000074     SensorI2C.obj (.text:SensorI2C_select)
                  0000a4ec    00000074     drivers_MSP432P401R.aem4f : UARTMSP432.oem4f (.text:readIsrTextBlocking)
                  0000a560    00000074     sysbios.aem4f : BIOS.obj (.text:ti_sysbios_family_arm_m3_Hwi_getStackInfo__E)
                  0000a5d4    00000074                   : BIOS.obj (.text:xdc_runtime_Startup_exec__E)
                  0000a648    00000070                   : BIOS.obj (.text:ti_sysbios_family_arm_m3_Hwi_disableInterrupt__E)
                  0000a6b8    00000070                   : BIOS.obj (.text:ti_sysbios_family_arm_msp432_Timer_initDevice__I)
                  0000a728    00000070                   : BIOS.obj (.text:ti_sysbios_family_arm_msp432_init_Boot_configureClocksHigh)
                  0000a798    00000070                   : BIOS.obj (.text:ti_sysbios_heaps_HeapMem_getStats__E)
                  0000a808    00000070                   : BIOS.obj (.text:ti_sysbios_knl_Clock_logTick__E)
                  0000a878    00000070                   : BIOS.obj (.text:ti_sysbios_knl_Mailbox_Module_startup__E)
                  0000a8e8    00000070                   : BIOS.obj (.text:ti_sysbios_knl_Swi_Module_startup__E)
                  0000a958    00000070                   : BIOS.obj (.text:ti_sysbios_knl_Swi_schedule__I)
                  0000a9c8    0000006e     rtsv7M4_T_le_v4SPD16_eabi.lib : fd_tos_t2.obj (.text)
                  0000aa36    00000002     --HOLE-- [fill = 0]
                  0000aa38    0000006c     sysbios.aem4f : BIOS.obj (.text:ti_sysbios_family_arm_m3_Hwi_enableInterrupt__E)
                  0000aaa4    0000006c                   : BIOS.obj (.text:ti_sysbios_family_arm_m3_Timer_getExpiredCounts__E)
                  0000ab10    0000006c                   : BIOS.obj (.text:ti_sysbios_knl_Swi_runLoop__I)
                  0000ab7c    00000004     --HOLE-- [fill = 0]
                  0000ab80    0000006a     SensorMpu9250.obj (.text:SensorMpu9250_accSetRange)
                  0000abea    00000006     drivers_MSP432P401R.aem4f : I2CMSP432.oem4f (.text:I2CMSP432_control)
                  0000abf0    0000006a     SensorMpu9250.obj (.text:SensorMpu9250_gyroSetRange)
                  0000ac5a    0000006a     rtsv7M4_T_le_v4SPD16_eabi.lib : copy_decompress_rle.obj (.text)
                  0000acc4    0000006a     sysbios.aem4f : BIOS.obj (.text:ti_sysbios_family_arm_m3_TaskSupport_start__E)
                  0000ad2e    00000068     drivers_MSP432P401R.aem4f : I2CMSP432.oem4f (.text:primeTransfer)
                  0000ad96    00000002     --HOLE-- [fill = 0]
                  0000ad98    00000068     rtsv7M4_T_le_v4SPD16_eabi.lib : trgmsg.obj (.text)
                  0000ae00    00000068     sysbios.aem4f : BIOS.obj (.text:ti_sysbios_family_arm_msp432_Timer_start__E)
                  0000ae68    00000066     drivers_MSP432P401R.aem4f : I2CMSP432.oem4f (.text:I2CMSP432_close)
                  0000aece    00000064                               : UARTMSP432.oem4f (.text:UARTMSP432_writePolling)
                  0000af32    00000002     --HOLE-- [fill = 0]
                  0000af34    00000064     sysbios.aem4f : BIOS.obj (.text:ti_sysbios_family_arm_m3_Timer_getHandle__E)
                  0000af98    00000064                   : BIOS.obj (.text:xdc_runtime_Assert_raise__I)
                  0000affc    00000062     tirtosport.aem4f : HwiP_tirtos.oem4f (.text:HwiP_create)
                  0000b05e    00000002     --HOLE-- [fill = 0]
                  0000b060    00000060     SensorI2C.obj (.text:SensorI2C_open)
                  0000b0c0    00000060     sysbios.aem4f : BIOS.obj (.text:ti_sysbios_family_arm_m3_Hwi_Module_startup__E)
                  0000b120    00000060                   : BIOS.obj (.text:ti_sysbios_family_arm_m3_Timer_setPeriod__E)
                  0000b180    00000060                   : BIOS.obj (.text:xdc_runtime_Text_xprintf__I)
                  0000b1e0    0000005c     drivers_MSP432P401R.aem4f : GPIOMSP432.oem4f (.text:GPIO_init)
                  0000b23c    00000004     --HOLE-- [fill = 0]
                  0000b240    0000005c     SensorI2C.obj (.text:SensorI2C_writeReg)
                  0000b29c    00000004     --HOLE-- [fill = 0]
                  0000b2a0    0000005c     quadcopter_pem4f.oem4f (.text:ti_sysbios_family_arm_m3_Hwi_construct)
                  0000b2fc    00000004     --HOLE-- [fill = 0]
                  0000b300    0000005c     quadcopter_pem4f.oem4f (.text:ti_sysbios_knl_Mailbox_construct)
                  0000b35c    0000005c     sysbios.aem4f : BIOS.obj (.text:ti_sysbios_knl_Task_allBlockedFunction__I)
                  0000b3b8    0000005c                   : BIOS.obj (.text:xdc_runtime_Error_setX__E)
                  0000b414    0000005c                   : BIOS.obj (.text:xdc_runtime_SysMin_flush__E)
                  0000b470    0000005a     tirtosport.aem4f : ClockP_tirtos.oem4f (.text:ClockP_create)
                  0000b4ca    00000006     msp432p4xx_driverlib.lib : i2c.o (.text:I2C_getEnabledInterruptStatus)
                  0000b4d0    0000005a     SensorMpu9250.obj (.text:sensorMpu9250WakeUp$5)
                  0000b52a    00000058     tirtosport.aem4f : SemaphoreP_tirtos.oem4f (.text:SemaphoreP_create)
                  0000b582    00000002     --HOLE-- [fill = 0]
                  0000b584    00000058     boot.aem4f : boot.oem4f (.text)
                  0000b5dc    00000004     --HOLE-- [fill = 0]
                  0000b5e0    00000058     SensorMpu9250.obj (.text:sensorMagEnable$5)
                  0000b638    00000058     sysbios.aem4f : m3_Hwi_asm_switch.obj (.text:ti_sysbios_family_arm_m3_Hwi_initStacks__E)
                  0000b690    00000058                   : BIOS.obj (.text:ti_sysbios_family_arm_msp432_Timer_Module_startup__E)
                  0000b6e8    00000058                   : BIOS.obj (.text:ti_sysbios_family_arm_msp432_Timer_startup__E)
                  0000b740    00000058                   : BIOS.obj (.text:ti_sysbios_knl_Mailbox_postInit__I)
                  0000b798    00000058                   : BIOS.obj (.text:xdc_runtime_Core_assignLabel__I)
                  0000b7f0    00000056     quadcopter_pem4f.oem4f (.text:ti_sysbios_knl_Task_construct)
                  0000b846    00000002     --HOLE-- [fill = 0]
                  0000b848    00000054     drivers_MSP432P401R.aem4f : GPIOMSP432.oem4f (.text:GPIO_hwiIntFxn)
                  0000b89c    00000054                               : GPIOMSP432.oem4f (.text:GPIO_setCallback)
                  0000b8f0    00000054                               : PWMTimerMSP432.oem4f (.text:PWMTimerMSP432_stop)
                  0000b944    00000054                               : I2CMSP432.oem4f (.text:initHw)
                  0000b998    00000054     rtsv7M4_T_le_v4SPD16_eabi.lib : trgdrv.obj (.text)
                  0000b9ec    00000054     sysbios.aem4f : BIOS.obj (.text:ti_sysbios_family_arm_msp432_Timer_getCount__E)
                  0000ba40    00000054                   : BIOS.obj (.text:ti_sysbios_heaps_HeapMem_init__I)
                  0000ba94    00000053                   : BIOS.obj (.text:xdc_runtime_Text_printVisFxn__I)
                  0000bae7    00000001     --HOLE-- [fill = 0]
                  0000bae8    00000052     SensorMpu9250.obj (.text:SensorMpu9250_accRead)
                  0000bb3a    00000006     msp432p4xx_driverlib.lib : i2c.o (.text:I2C_getInterruptStatus)
                  0000bb40    00000052     SensorMpu9250.obj (.text:SensorMpu9250_gyroRead)
                  0000bb92    00000006     msp432p4xx_driverlib.lib : i2c.o (.text:I2C_masterReceiveMultiByteNext)
                  0000bb98    00000052     SensorMpu9250.obj (.text:SensorMpu9250_irqConfig)
                  0000bbea    00000052     drivers_MSP432P401R.aem4f : UARTMSP432.oem4f (.text:UARTMSP432_writeCancel)
                  0000bc3c    00000050                               : GPIOMSP432.oem4f (.text:GPIO_write)
                  0000bc8c    00000050     msp432p4xx_driverlib.lib : pcm.o (.text:PCM_shutdownDevice)
                  0000bcdc    00000050     drivers_MSP432P401R.aem4f : PWMTimerMSP432.oem4f (.text:PWMTimerMSP432_close)
                  0000bd2c    00000050     sysbios.aem4f : BIOS.obj (.text:ti_sysbios_family_arm_m3_Timer_start__E)
                  0000bd7c    00000050                   : BIOS.obj (.text:xdc_runtime_System_atexit__E)
                  0000bdcc    0000004c     msp432p4xx_driverlib.lib : gpio.o (.text:GPIO_setAsPeripheralModuleFunctionOutputPin)
                  0000be18    0000004c     SensorMpu9250.obj (.text:SensorMpu9250_accReadRange)
                  0000be64    00000004     --HOLE-- [fill = 0]
                  0000be68    0000004c     SensorMpu9250.obj (.text:SensorMpu9250_irqClear)
                  0000beb4    0000004c     rtsv7M4_T_le_v4SPD16_eabi.lib : cpy_tbl.obj (.text)
                  0000bf00    0000004c     sysbios.aem4f : BIOS.obj (.text:ti_sysbios_family_arm_m3_Hwi_excReserved__I)
                  0000bf4c    0000004c                   : BIOS.obj (.text:ti_sysbios_family_arm_m3_Timer_initDevice__I)
                  0000bf98    0000004c                   : BIOS.obj (.text:xdc_runtime_SysMin_putch__E)
                  0000bfe4    00000048     msp432p4xx_driverlib.lib : gpio.o (.text:GPIO_setAsPeripheralModuleFunctionInputPin)
                  0000c02c    00000048                              : timer_a.o (.text:Timer_A_generatePWM)
                  0000c074    00000048     rtsv7M4_T_le_v4SPD16_eabi.lib : fd_toi_t2.obj (.text)
                  0000c0bc    00000048     sysbios.aem4f : BIOS.obj (.text:ti_sysbios_family_arm_m3_Hwi_Instance_finalize__E)
                  0000c104    00000046     drivers_MSP432P401R.aem4f : RingBuf.oem4f (.text:RingBuf_put)
                  0000c14a    00000046                               : UARTMSP432.oem4f (.text:readIsrBinaryBlocking)
                  0000c190    00000046     quadcopter.obj (.text:sampleDataFxn)
                  0000c1d6    00000002     --HOLE-- [fill = 0]
                  0000c1d8    00000044     drivers_MSP432P401R.aem4f : PowerMSP432.oem4f (.text:Power_init)
                  0000c21c    00000044     rtsv7M4_T_le_v4SPD16_eabi.lib : exit.obj (.text)
                  0000c260    00000044                                   : fd_tou_t2.obj (.text)
                  0000c2a4    00000004     --HOLE-- [fill = 0]
                  0000c2a8    00000044     SensorMpu9250.obj (.text:sensorMpuSleep$5)
                  0000c2ec    00000044     sysbios.aem4f : BIOS.obj (.text:ti_sysbios_family_arm_m3_Hwi_excSvCall__I)
                  0000c330    00000044                   : BIOS.obj (.text:ti_sysbios_hal_Hwi_checkStack)
                  0000c374    00000044                   : BIOS.obj (.text:xdc_runtime_Text_cordText__E)
                  0000c3b8    00000042     drivers_MSP432P401R.aem4f : UARTMSP432.oem4f (.text:UARTMSP432_hwiIntFxn)
                  0000c3fa    00000042                               : I2CMSP432.oem4f (.text:completeTransfer)
                  0000c43c    00000040     msp432p4xx_driverlib.lib : flash.o (.text:FlashCtl_disableReadBuffering)
                  0000c47c    00000040                              : i2c.o (.text:I2C_masterSendMultiByteFinish)
                  0000c4bc    00000040     drivers_MSP432P401R.aem4f : PWMTimerMSP432.oem4f (.text:PWMTimerMSP432_start)
                  0000c4fc    00000040                               : RingBuf.oem4f (.text:RingBuf_get)
                  0000c53c    00000040                               : UARTMSP432.oem4f (.text:UARTMSP432_read)
                  0000c57c    00000040                               : PowerMSP432.oem4f (.text:notify)
                  0000c5bc    00000040     rtsv7M4_T_le_v4SPD16_eabi.lib : u_divt2.obj (.text)
                  0000c5fc    00000040     sysbios.aem4f : BIOS.obj (.text:ti_sysbios_family_arm_m3_Timer_periodicStub__I)
                  0000c63c    00000040                   : BIOS.obj (.text:ti_sysbios_family_arm_msp432_Timer_stop__E)
                  0000c67c    00000040                   : BIOS.obj (.text:ti_sysbios_knl_Swi_restore__E)
                  0000c6bc    00000040                   : BIOS.obj (.text:xdc_runtime_System_putchar__I)
                  0000c6fc    0000003e     msp432p4xx_driverlib.lib : i2c.o (.text:I2C_initMaster)
                  0000c73a    0000003e     sysbios.aem4f : BIOS.obj (.text:ti_sysbios_knl_Clock_addI__E)
                  0000c778    0000003e                   : BIOS.obj (.text:ti_sysbios_knl_Event_checkEvents__I)
                  0000c7b6    0000003e                   : BIOS.obj (.text:ti_sysbios_knl_Event_pendTimeout__I)
                  0000c7f4    0000003e                   : BIOS.obj (.text:ti_sysbios_knl_Semaphore_pendTimeout__I)
                  0000c832    0000003c     power_tirtos_MSP432P401R.aem4f : PowerMSP432_tirtos.oem4f (.text:PowerMSP432_sleepPolicy)
                  0000c86e    00000002     --HOLE-- [fill = 0]
                  0000c870    0000003c     SensorI2C.obj (.text:SensorI2C_write)
                  0000c8ac    00000004     --HOLE-- [fill = 0]
                  0000c8b0    0000003c     SensorI2C.obj (.text:SensorI2C_writeRead)
                  0000c8ec    0000003c     drivers_MSP432P401R.aem4f : PWMTimerMSP432.oem4f (.text:getPeriodCounts)
                  0000c928    0000003c     rtsv7M4_T_le_v4SPD16_eabi.lib : signal.obj (.text)
                  0000c964    0000003c     sysbios.aem4f : BIOS.obj (.text:ti_sysbios_family_arm_m3_Hwi_excNoIsr__I)
                  0000c9a0    0000003c                   : BIOS.obj (.text:ti_sysbios_family_arm_m3_Hwi_setPriority__E)
                  0000c9dc    0000003c                   : BIOS.obj (.text:ti_sysbios_family_arm_m3_TimestampProvider_get32__E)
                  0000ca18    0000003c                   : BIOS.obj (.text:ti_sysbios_family_arm_msp432_ClockFreqs_setFrequency__E)
                  0000ca54    0000003c                   : BIOS.obj (.text:ti_sysbios_knl_Task_processVitalTaskFlag__I)
                  0000ca90    0000003c                   : BIOS.obj (.text:xdc_runtime_SysMin_abort__E)
                  0000cacc    0000003c                   : BIOS.obj (.text:xdc_runtime_System_processAtExit__E)
                  0000cb08    0000003a     quadcopter.obj (.text:mpu9250IntHdr)
                  0000cb42    0000003a     drivers_MSP432P401R.aem4f : UARTMSP432.oem4f (.text:readIsrBinaryCallback)
                  0000cb7c    00000004     --HOLE-- [fill = 0]
                  0000cb80    0000003a     quadcopter.obj (.text:startSampling)
                  0000cbba    0000003a     sysbios.aem4f : BIOS.obj (.text:ti_sysbios_knl_Queue_put__E)
                  0000cbf4    00000038     drivers_MSP432P401R.aem4f : I2C.oem4f (.text:I2C_init)
                  0000cc2c    00000038                               : PWM.oem4f (.text:PWM_init)
                  0000cc64    00000038                               : UART.oem4f (.text:UART_init)
                  0000cc9c    00000038                               : PWMTimerMSP432.oem4f (.text:getDutyCounts)
                  0000ccd4    00000038                               : I2CMSP432.oem4f (.text:perfChangeNotifyFxn)
                  0000cd0c    00000038     rtsv7M4_T_le_v4SPD16_eabi.lib : fs_tod_t2.obj (.text)
                  0000cd44    00000038     sysbios.aem4f : BIOS.obj (.text:ti_sysbios_family_arm_m3_Hwi_clearInterrupt__E)
                  0000cd7c    00000038                   : BIOS.obj (.text:ti_sysbios_family_arm_m3_Hwi_excNmi__I)
                  0000cdb4    00000038                   : BIOS.obj (.text:xdc_runtime_Error_raiseX__E)
                  0000cdec    00000038                   : BIOS.obj (.text:xdc_runtime_Registry_findById__E)
                  0000ce24    00000036     drivers_MSP432P401R.aem4f : UARTMSP432.oem4f (.text:UARTMSP432_readCancel)
                  0000ce5a    00000036                               : UARTMSP432.oem4f (.text:perfChangeNotifyFxn)
                  0000ce90    00000034     msp432p4xx_driverlib.lib : flash.o (.text:FlashCtl_enableReadBuffering)
                  0000cec4    00000004     --HOLE-- [fill = 0]
                  0000cec8    00000034     SensorMpu9250.obj (.text:SensorMpu9250_accSetDLPF)
                  0000cefc    00000004     --HOLE-- [fill = 0]
                  0000cf00    00000034     quadcopter_pem4f.oem4f (.text:ti_sysbios_BIOS_startFunc__I)
                  0000cf34    00000034     sysbios.aem4f : BIOS.obj (.text:ti_sysbios_family_arm_m3_Hwi_excHandler__I)
                  0000cf68    00000034     quadcopter_pem4f.oem4f (.text:ti_sysbios_knl_Clock_construct)
                  0000cf9c    00000034     sysbios.aem4f : BIOS.obj (.text:ti_sysbios_knl_Queue_get__E)
                  0000cfd0    00000034                   : BIOS.obj (.text:xdc_runtime_Memory_valloc__E)
                  0000d004    00000004     --HOLE-- [fill = 0]
                  0000d008    00000032     quadcopter_pem4f.oem4f (.text:ti_sysbios_BIOS_atExitFunc__I)
                  0000d03a    00000006     drivers_MSP432P401R.aem4f : PWMTimerMSP432.oem4f (.text:PWMTimerMSP432_control)
                  0000d040    00000032     quadcopter_pem4f.oem4f (.text:ti_sysbios_gates_GateHwi_Object__create__S)
                  0000d072    00000006     msp432p4xx_driverlib.lib : uart.o (.text:UART_getInterruptStatus)
                  0000d078    00000032     quadcopter_pem4f.oem4f (.text:ti_sysbios_gates_GateMutex_Object__create__S)
                  0000d0aa    00000006     msp432p4xx_driverlib.lib : uart.o (.text:UART_queryStatusFlags)
                  0000d0b0    00000032     quadcopter_pem4f.oem4f (.text:ti_sysbios_heaps_HeapMem_Object__create__S)
                  0000d0e2    00000006     sysbios.aem4f : BIOS.obj (.text:__xdc__init)
                  0000d0e8    00000032     quadcopter_pem4f.oem4f (.text:ti_sysbios_knl_Semaphore_construct)
                  0000d11a    00000002     --HOLE-- [fill = 0]
                  0000d11c    00000030     msp432p4xx_driverlib.lib : gpio.o (.text:GPIO_getEnabledInterruptStatus)
                  0000d14c    00000030                              : gpio.o (.text:GPIO_setAsInputPinWithPullDownResistor)
                  0000d17c    00000030                              : gpio.o (.text:GPIO_setAsInputPinWithPullUpResistor)
                  0000d1ac    00000030     drivers_MSP432P401R.aem4f : GPIOMSP432.oem4f (.text:GPIO_toggle)
                  0000d1dc    00000030                               : I2C.oem4f (.text:I2C_open)
                  0000d20c    00000030                               : PWM.oem4f (.text:PWM_open)
                  0000d23c    00000030                               : UART.oem4f (.text:UART_open)
                  0000d26c    00000030     rtsv7M4_T_le_v4SPD16_eabi.lib : xferaise.obj (.text)
                  0000d29c    00000004     --HOLE-- [fill = 0]
                  0000d2a0    00000030     SensorMpu9250.obj (.text:sensorMpu9250BypassConfig$5)
                  0000d2d0    00000030     sysbios.aem4f : BIOS.obj (.text:ti_sysbios_family_arm_m3_Timer_Module_startup__E)
                  0000d300    00000030                   : BIOS.obj (.text:ti_sysbios_family_arm_m3_Timer_startup__E)
                  0000d330    00000030                   : BIOS.obj (.text:ti_sysbios_knl_Idle_run__E)
                  0000d360    00000030                   : BIOS.obj (.text:ti_sysbios_knl_Task_restore__E)
                  0000d390    0000002e     SensorMpu9250.obj (.text:SensorMpu9250_setSamplingRate)
                  0000d3be    0000002e     rtsv7M4_T_le_v4SPD16_eabi.lib : i_tofd_t2.obj (.text)
                  0000d3ec    0000002e     sysbios.aem4f : BIOS.obj (.text:ti_sysbios_hal_Hwi_initStack)
                  0000d41a    00000006     rtsv7M4_T_le_v4SPD16_eabi.lib : copy_decompress_rle.obj (.text:decompress:rle24)
                  0000d420    0000002e     quadcopter_pem4f.oem4f (.text:ti_sysbios_knl_Event_construct)
                  0000d44e    00000002     --HOLE-- [fill = 0]
                  0000d450    0000002e     quadcopter_pem4f.oem4f (.text:ti_sysbios_knl_Queue_construct)
                  0000d47e    0000002e     sysbios.aem4f : BIOS.obj (.text:ti_sysbios_knl_Task_getMode__E)
                  0000d4ac    0000002c     msp432p4xx_driverlib.lib : gpio.o (.text:GPIO_setAsInputPin)
                  0000d4d8    0000002c                              : pcm.o (.text:PCM_getCoreVoltageLevel)
                  0000d504    0000002c     power_tirtos_MSP432P401R.aem4f : PowerMSP432_tirtos.oem4f (.text:PowerMSP432_updateFreqs)
                  0000d530    0000002c     drivers_MSP432P401R.aem4f : PowerMSP432.oem4f (.text:Power_releaseConstraint)
                  0000d55c    0000002c                               : PowerMSP432.oem4f (.text:Power_setConstraint)
                  0000d588    0000002c     SensorMpu9250.obj (.text:sensorMpu9250SelectAxes$5)
                  0000d5b4    0000002c     sysbios.aem4f : BIOS.obj (.text:ti_sysbios_family_arm_m3_Hwi_getHandle__E)
                  0000d5e0    0000002c                   : BIOS.obj (.text:ti_sysbios_family_arm_m3_Hwi_plug__E)
                  0000d60c    0000002c                   : BIOS.obj (.text:ti_sysbios_family_arm_m3_Timer_postInit__I)
                  0000d638    0000002c                   : BIOS.obj (.text:ti_sysbios_family_arm_msp432_Timer_postInit__I)
                  0000d664    00000004     --HOLE-- [fill = 0]
                  0000d668    0000002c     quadcopter_pem4f.oem4f (.text:ti_sysbios_knl_Clock_doTick__I)
                  0000d694    0000002a     msp432p4xx_driverlib.lib : pcm.o (.text:PCM_getPowerMode)
                  0000d6be    00000002     --HOLE-- [fill = 0]
                  0000d6c0    0000002a     SensorMpu9250.obj (.text:SensorMpu9250_powerOn)
                  0000d6ea    0000002a     drivers_MSP432P401R.aem4f : UARTMSP432.oem4f (.text:findBaudDividerIndex)
                  0000d714    0000002a     sysbios.aem4f : BIOS.obj (.text:ti_sysbios_knl_Queue_enqueue__E)
                  0000d73e    0000002a                   : BIOS.obj (.text:ti_sysbios_knl_Task_sleepTimeout__I)
                  0000d768    00000028     msp432p4xx_driverlib.lib : flash.o (.text:FlashCtl_setWaitState)
                  0000d790    00000028     drivers_MSP432P401R.aem4f : GPIOMSP432.oem4f (.text:GPIO_disableInt)
                  0000d7b8    00000028                               : GPIOMSP432.oem4f (.text:GPIO_enableInt)
                  0000d7e0    00000028     msp432p4xx_driverlib.lib : pcm.o (.text:PCM_gotoLPM0)
                  0000d808    00000028     SensorMpu9250.obj (.text:SensorMpu9250_enable)
                  0000d830    00000028     quadcopter_pem4f.oem4f (.text:ti_sysbios_BIOS_registerRTSLock__I)
                  0000d858    00000028     sysbios.aem4f : BIOS.obj (.text:ti_sysbios_knl_Clock_startI__E)
                  0000d880    00000028                   : BIOS.obj (.text:xdc_runtime_Error_check__E)
                  0000d8a8    00000028                   : BIOS.obj (.text:xdc_runtime_SysMin_Module_startup__E)
                  0000d8d0    00000028                   : BIOS.obj (.text:xdc_runtime_Text_ropeText__E)
                  0000d8f8    00000026     drivers_MSP432P401R.aem4f : List.oem4f (.text:List_put)
                  0000d91e    00000002     --HOLE-- [fill = 0]
                  0000d920    00000026     SensorMpu9250.obj (.text:SensorMpu9250_init)
                  0000d946    00000026     rtsv7M4_T_le_v4SPD16_eabi.lib : raise.obj (.text)
                  0000d96c    00000026     sysbios.aem4f : m3_Hwi_asm.obj (.text:ti_sysbios_family_arm_m3_Hwi_pendSV__I)
                  0000d992    00000006     rtsv7M4_T_le_v4SPD16_eabi.lib : cosf.obj (.text)
                  0000d998    00000026     quadcopter_pem4f.oem4f (.text:ti_sysbios_gates_GateMutex_Object__delete__S)
                  0000d9be    00000026     sysbios.aem4f : BIOS.obj (.text:xdc_runtime_System_avprintf__E)
                  0000d9e4    00000026                   : BIOS.obj (.text:xdc_runtime_System_vprintf__E)
                  0000da0a    00000002     --HOLE-- [fill = 0]
                  0000da0c    00000024     msp432p4xx_driverlib.lib : cs.o (.text:CS_setDCOCenteredFrequency)
                  0000da30    00000024                              : gpio.o (.text:GPIO_setAsOutputPin)
                  0000da54    00000024                              : i2c.o (.text:I2C_masterSendMultiByteNext)
                  0000da78    00000024                              : rtc_c.o (.text:RTC_C_holdClock)
                  0000da9c    00000024                              : rtc_c.o (.text:RTC_C_startClock)
                  0000dac0    00000024                              : uart.o (.text:UART_disableInterrupt)
                  0000dae4    00000024                              : uart.o (.text:UART_receiveData)
                  0000db08    00000024                              : uart.o (.text:UART_transmitData)
                  0000db2c    00000004     --HOLE-- [fill = 0]
                  0000db30    00000024     quadcopter_pem4f.oem4f (.text:ti_sysbios_BIOS_removeRTSLock__I)
                  0000db54    00000024     sysbios.aem4f : BIOS.obj (.text:ti_sysbios_BIOS_setThreadType__E)
                  0000db78    00000024                   : BIOS.obj (.text:ti_sysbios_family_arm_m3_TimestampProvider_Module_startup__E)
                  0000db9c    00000024                   : BIOS.obj (.text:ti_sysbios_gates_GateMutex_Instance_init__E)
                  0000dbc0    00000024                   : BIOS.obj (.text:ti_sysbios_heaps_HeapMem_restore__E)
                  0000dbe4    00000024                   : BIOS.obj (.text:ti_sysbios_knl_Clock_Module_startup__E)
                  0000dc08    00000024                   : BIOS.obj (.text:ti_sysbios_knl_Queue_dequeue__E)
                  0000dc2c    00000024                   : BIOS.obj (.text:ti_sysbios_knl_Task_restoreHwi__E)
                  0000dc50    00000024                   : BIOS.obj (.text:xdc_runtime_Memory_free__E)
                  0000dc74    00000004     --HOLE-- [fill = 0]
                  0000dc78    00000022     quadcopter_pem4f.oem4f (.text:ti_sysbios_BIOS_errorRaiseHook__I)
                  0000dc9a    00000006     rtsv7M4_T_le_v4SPD16_eabi.lib : sinf.obj (.text)
                  0000dca0    00000022     quadcopter_pem4f.oem4f (.text:ti_sysbios_BIOS_rtsLock__I)
                  0000dcc2    00000006     --HOLE-- [fill = 0]
                  0000dcc8    00000022     quadcopter_pem4f.oem4f (.text:ti_sysbios_family_arm_m3_Hwi_Object__get__S)
                  0000dcea    00000006     --HOLE-- [fill = 0]
                  0000dcf0    00000022     quadcopter_pem4f.oem4f (.text:ti_sysbios_heaps_HeapMem_Object__get__S)
                  0000dd12    00000006     --HOLE-- [fill = 0]
                  0000dd18    00000022     quadcopter_pem4f.oem4f (.text:ti_sysbios_knl_Clock_Object__destruct__S)
                  0000dd3a    00000022     sysbios.aem4f : BIOS.obj (.text:ti_sysbios_knl_Event_Instance_init__E)
                  0000dd5c    00000004     --HOLE-- [fill = 0]
                  0000dd60    00000022     quadcopter_pem4f.oem4f (.text:ti_sysbios_knl_Semaphore_Object__destruct__S)
                  0000dd82    00000006     --HOLE-- [fill = 0]
                  0000dd88    00000022     quadcopter_pem4f.oem4f (.text:ti_sysbios_knl_Swi_Object__get__S)
                  0000ddaa    00000022     sysbios.aem4f : BIOS.obj (.text:xdc_runtime_Memory_calloc__E)
                  0000ddcc    00000004     --HOLE-- [fill = 0]
                  0000ddd0    00000022     quadcopter_pem4f.oem4f (.text:xdc_runtime_SysMin_output__I)
                  0000ddf2    00000022     sysbios.aem4f : BIOS.obj (.text:xdc_runtime_System_vsnprintf__E)
                  0000de14    00000020     msp432p4xx_driverlib.lib : gpio.o (.text:GPIO_interruptEdgeSelect)
                  0000de34    00000020     drivers_MSP432P401R.aem4f : PowerMSP432.oem4f (.text:PowerMSP432_getFreqs)
                  0000de54    00000020                               : PowerMSP432.oem4f (.text:Power_unregisterNotify)
                  0000de74    00000020                               : RingBuf.oem4f (.text:RingBuf_peek)
                  0000de94    00000020     rtsv7M4_T_le_v4SPD16_eabi.lib : feraiseexcept.obj (.text)
                  0000deb4    00000004     --HOLE-- [fill = 0]
                  0000deb8    00000020     quadcopter_pem4f.oem4f (.text:ti_sysbios_family_arm_m3_Hwi_Object__destruct__S)
                  0000ded8    00000020     sysbios.aem4f : m3_Hwi_asm.obj (.text:ti_sysbios_family_arm_m3_Hwi_excHandlerAsm__I)
                  0000def8    00000020                   : BIOS.obj (.text:ti_sysbios_family_arm_m3_Timer_stop__E)
                  0000df18    00000020     quadcopter_pem4f.oem4f (.text:ti_sysbios_gates_GateHwi_Object__delete__S)
                  0000df38    00000020     sysbios.aem4f : BIOS.obj (.text:ti_sysbios_gates_GateMutex_leave__E)
                  0000df58    00000020     quadcopter_pem4f.oem4f (.text:ti_sysbios_heaps_HeapMem_Object__delete__S)
                  0000df78    00000020     sysbios.aem4f : BIOS.obj (.text:ti_sysbios_knl_Task_disable__E)
                  0000df98    00000020                   : BIOS.obj (.text:ti_sysbios_knl_Task_enter__I)
                  0000dfb8    00000020                   : BIOS.obj (.text:ti_sysbios_knl_Task_unblock__E)
                  0000dfd8    00000020                   : BIOS.obj (.text:xdc_runtime_SysMin_exit__E)
                  0000dff8    0000001e     drivers_MSP432P401R.aem4f : PWMTimerMSP432.oem4f (.text:corroboratePeriod)
                  0000e016    0000001e     sysbios.aem4f : m3_Hwi_asm_switch.obj (.text:ti_sysbios_family_xxx_Hwi_switchAndRunFunc)
                  0000e034    0000001e                   : BIOS.obj (.text:ti_sysbios_knl_Queue_remove__E)
                  0000e052    00000006     --HOLE-- [fill = 0]
                  0000e058    0000001c     MSP_EXP432P401R.obj (.text:MSP_EXP432P401R_initUART)
                  0000e074    0000001c     msp432p4xx_driverlib.lib : pcm.o (.text:PCM_enableRudeMode)
                  0000e090    0000001c     drivers_MSP432P401R.aem4f : PowerMSP432.oem4f (.text:Power_registerNotify)
                  0000e0ac    00000004     --HOLE-- [fill = 0]
                  0000e0b0    0000001c     quadcopter.obj (.text:startBlinkLED)
                  0000e0cc    0000001c     sysbios.aem4f : BIOS.obj (.text:ti_sysbios_BIOS_setCpuFreq__E)
                  0000e0e8    0000001c     quadcopter_pem4f.oem4f (.text:ti_sysbios_knl_Queue_Object__destruct__S)
                  0000e104    0000001c     sysbios.aem4f : BIOS.obj (.text:ti_sysbios_knl_Swi_disable__E)
                  0000e120    0000001c     quadcopter_pem4f.oem4f (.text:ti_sysbios_knl_Task_Object__get__S)
                  0000e13c    0000001c     sysbios.aem4f : BIOS.obj (.text:ti_sysbios_knl_Task_enabled__E)
                  0000e158    0000001c                   : BIOS.obj (.text:xdc_runtime_System_abort__E)
                  0000e174    0000001c                   : BIOS.obj (.text:xdc_runtime_System_exit__E)
                  0000e190    0000001a     drivers_MSP432P401R.aem4f : List.oem4f (.text:List_remove)
                  0000e1aa    00000006     --HOLE-- [fill = 0]
                  0000e1b0    0000001a     quadcopter_pem4f.oem4f (.text:ti_sysbios_BIOS_rtsUnlock__I)
                  0000e1ca    00000006     --HOLE-- [fill = 0]
                  0000e1d0    0000001a     quadcopter_pem4f.oem4f (.text:ti_sysbios_family_arm_m3_Hwi_Handle__label__S)
                  0000e1ea    0000001a     sysbios.aem4f : BIOS.obj (.text:ti_sysbios_family_arm_m3_TaskSupport_checkStack__E)
                  0000e204    00000004     --HOLE-- [fill = 0]
                  0000e208    0000001a     quadcopter_pem4f.oem4f (.text:ti_sysbios_gates_GateHwi_Handle__label__S)
                  0000e222    00000006     --HOLE-- [fill = 0]
                  0000e228    0000001a     quadcopter_pem4f.oem4f (.text:ti_sysbios_gates_GateMutex_Handle__label__S)
                  0000e242    00000006     --HOLE-- [fill = 0]
                  0000e248    0000001a     quadcopter_pem4f.oem4f (.text:ti_sysbios_heaps_HeapMem_Handle__label__S)
                  0000e262    0000001a     sysbios.aem4f : BIOS.obj (.text:ti_sysbios_knl_Semaphore_Instance_finalize__E)
                  0000e27c    00000004     --HOLE-- [fill = 0]
                  0000e280    0000001a     quadcopter_pem4f.oem4f (.text:ti_sysbios_knl_Swi_Handle__label__S)
                  0000e29a    00000006     --HOLE-- [fill = 0]
                  0000e2a0    0000001a     quadcopter_pem4f.oem4f (.text:ti_sysbios_knl_Task_Handle__label__S)
                  0000e2ba    00000006     --HOLE-- [fill = 0]
                  0000e2c0    0000001a     quadcopter_pem4f.oem4f (.text:xdc_runtime_System_aprintf__E)
                  0000e2da    00000006     --HOLE-- [fill = 0]
                  0000e2e0    0000001a     quadcopter_pem4f.oem4f (.text:xdc_runtime_System_printf__E)
                  0000e2fa    00000002     --HOLE-- [fill = 0]
                  0000e2fc    00000018     msp432p4xx_driverlib.lib : gpio.o (.text:GPIO_clearInterruptFlag)
                  0000e314    00000018                              : gpio.o (.text:GPIO_disableInterrupt)
                  0000e32c    00000018                              : gpio.o (.text:GPIO_getInputPinValue)
                  0000e344    00000018                              : gpio.o (.text:GPIO_setDriveStrengthLow)
                  0000e35c    00000018                              : gpio.o (.text:GPIO_setOutputLowOnPin)
                  0000e374    00000018                              : i2c.o (.text:I2C_masterIsStartSent)
                  0000e38c    00000018     drivers_MSP432P401R.aem4f : UART.oem4f (.text:UART_Params_init)
                  0000e3a4    00000018     msp432p4xx_driverlib.lib : wdt_a.o (.text:WDT_A_holdTimer)
                  0000e3bc    00000018     drivers_MSP432P401R.aem4f : PWMTimerMSP432.oem4f (.text:corroborateDuty)
                  0000e3d4    00000004     --HOLE-- [fill = 0]
                  0000e3d8    00000018     quadcopter.obj (.text:gpioDebounceFxn0)
                  0000e3f0    00000018     rtsv7M4_T_le_v4SPD16_eabi.lib : args_main.obj (.text)
                  0000e408    00000018                                   : log.obj (.text)
                  0000e420    00000018     quadcopter_pem4f.oem4f (.text:ti_sysbios_family_arm_m3_Hwi_Module__startupDone__F)
                  0000e438    00000018     sysbios.aem4f : BIOS.obj (.text:ti_sysbios_family_arm_m3_Hwi_switchFromBootStack__E)
                  0000e450    00000018                   : m3_TaskSupport_asm.obj (.text:ti_sysbios_family_arm_m3_TaskSupport_swap__E)
                  0000e468    00000018     quadcopter_pem4f.oem4f (.text:ti_sysbios_family_arm_msp432_Timer_Module__startupDone__F)
                  0000e480    00000018     sysbios.aem4f : BIOS.obj (.text:ti_sysbios_gates_GateMutex_Instance_State_sem$22)
                  0000e498    00000018                   : BIOS.obj (.text:ti_sysbios_gates_GateMutex_Instance_finalize__E)
                  0000e4b0    00000018                   : BIOS.obj (.text:ti_sysbios_knl_Event_Instance_State_pendQ$4)
                  0000e4c8    00000018                   : BIOS.obj (.text:ti_sysbios_knl_Mailbox_Instance_State_dataQue$5)
                  0000e4e0    00000018                   : BIOS.obj (.text:ti_sysbios_knl_Mailbox_Instance_State_dataSem$5)
                  0000e4f8    00000018                   : BIOS.obj (.text:ti_sysbios_knl_Mailbox_Instance_State_freeQue$5)
                  0000e510    00000018                   : BIOS.obj (.text:ti_sysbios_knl_Mailbox_Instance_State_freeSem$5)
                  0000e528    00000018                   : BIOS.obj (.text:ti_sysbios_knl_Queue_empty__E)
                  0000e540    00000018                   : BIOS.obj (.text:ti_sysbios_knl_Semaphore_Instance_State_pendQ$7)
                  0000e558    00000016     tirtosport.aem4f : ClockP_tirtos.oem4f (.text:ClockP_delete)
                  0000e56e    00000016                      : HwiP_tirtos.oem4f (.text:HwiP_delete)
                  0000e584    00000016                      : SemaphoreP_tirtos.oem4f (.text:SemaphoreP_delete)
                  0000e59a    00000006     --HOLE-- [fill = 0]
                  0000e5a0    00000016     SensorMpu9250.obj (.text:SensorMpu9250_Callback$5)
                  0000e5b6    00000016     msp432p4xx_driverlib.lib : uart.o (.text:UART_enableInterrupt)
                  0000e5cc    00000004     --HOLE-- [fill = 0]
                  0000e5d0    00000016     quadcopter_pem4f.oem4f (.text:ti_sysbios_BIOS_exitFunc__I)
                  0000e5e6    00000016     sysbios.aem4f : BIOS.obj (.text:ti_sysbios_family_arm_m3_Hwi_Handle_name$17)
                  0000e5fc    00000016                   : BIOS.obj (.text:ti_sysbios_family_arm_msp432_Timer_getMaxTicks__E)
                  0000e612    00000016                   : BIOS.obj (.text:ti_sysbios_knl_Queue_Instance_init__E)
                  0000e628    00000016                   : BIOS.obj (.text:ti_sysbios_knl_Semaphore_Params_init$5)
                  0000e63e    00000016                   : BIOS.obj (.text:ti_sysbios_knl_Swi_Handle_name$17)
                  0000e654    00000016                   : BIOS.obj (.text:ti_sysbios_knl_Task_Handle_name$17)
                  0000e66a    00000002     --HOLE-- [fill = 0]
                  0000e66c    00000014     msp432p4xx_driverlib.lib : gpio.o (.text:GPIO_enableInterrupt)
                  0000e680    00000014     drivers_MSP432P401R.aem4f : GPIOMSP432.oem4f (.text:GPIO_read)
                  0000e694    00000014     msp432p4xx_driverlib.lib : gpio.o (.text:GPIO_setDriveStrengthHigh)
                  0000e6a8    00000014                              : gpio.o (.text:GPIO_setOutputHighOnPin)
                  0000e6bc    00000014                              : gpio.o (.text:GPIO_toggleOutputOnPin)
                  0000e6d0    00000014     drivers_MSP432P401R.aem4f : PWM.oem4f (.text:PWM_Params_init)
                  0000e6e4    00000014                               : PowerMSP432.oem4f (.text:Power_idleFunc)
                  0000e6f8    00000014     SensorMpu9250.obj (.text:SensorMpu9250_powerIsOn)
                  0000e70c    00000014     msp432p4xx_driverlib.lib : wdt_a.o (.text:WDT_A_startTimer)
                  0000e720    00000014     rtsv7M4_T_le_v4SPD16_eabi.lib : _lock.obj (.text)
                  0000e734    00000014                                   : strlen.obj (.text)
                  0000e748    00000014     sysbios.aem4f : BIOS.obj (.text:ti_sysbios_BIOS_exit__E)
                  0000e75c    00000014                   : BIOS.obj (.text:ti_sysbios_family_arm_msp432_Timer_setPeriod__E)
                  0000e770    00000014                   : BIOS.obj (.text:ti_sysbios_gates_GateHwi_enter__E)
                  0000e784    00000014                   : BIOS.obj (.text:ti_sysbios_hal_Hwi_Module_startup__E)
                  0000e798    00000014                   : BIOS.obj (.text:ti_sysbios_hal_Hwi_getStackInfo__E)
                  0000e7ac    00000014                   : BIOS.obj (.text:ti_sysbios_knl_Clock_Module_State_clockQ$1)
                  0000e7c0    00000014                   : BIOS.obj (.text:ti_sysbios_knl_Mailbox_getNumPendingMsgs__E)
                  0000e7d4    00000014                   : BIOS.obj (.text:ti_sysbios_knl_Queue_elemClear__E)
                  0000e7e8    00000014                   : BIOS.obj (.text:ti_sysbios_knl_Task_Module_State_inactiveQ$10)
                  0000e7fc    00000014                   : BIOS.obj (.text:xdc_runtime_Error_init__E)
                  0000e810    00000014                   : BIOS.obj (.text:xdc_runtime_Gate_leaveSystem__E)
                  0000e824    00000012     tirtosport.aem4f : ClockP_tirtos.oem4f (.text:ClockP_start)
                  0000e836    00000002     --HOLE-- [fill = 0]
                  0000e838    00000012     MSP_EXP432P401R.obj (.text:MSP_EXP432P401R_initI2C)
                  0000e84a    00000012     drivers_MSP432P401R.aem4f : RingBuf.oem4f (.text:RingBuf_construct)
                  0000e85c    00000012     tirtosport.aem4f : SemaphoreP_tirtos.oem4f (.text:SemaphoreP_pend)
                  0000e86e    00000002     --HOLE-- [fill = 0]
                  0000e870    00000012     SensorMpu9250.obj (.text:SensorMpu9250_powerOff)
                  0000e882    00000006     --HOLE-- [fill = 0]
                  0000e888    00000012     quadcopter.obj (.text:constrain)
                  0000e89a    00000006     --HOLE-- [fill = 0]
                  0000e8a0    00000012     MSP_EXP432P401R.obj (.text:dmaErrorHwi$2)
                  0000e8b2    00000012     sysbios.aem4f : BIOS.obj (.text:ti_sysbios_gates_GateHwi_leave__E)
                  0000e8c4    00000012                   : BIOS.obj (.text:ti_sysbios_knl_Clock_setPeriod__E)
                  0000e8d6    00000012                   : BIOS.obj (.text:ti_sysbios_knl_Clock_setTimeout__E)
                  0000e8e8    00000012     quadcopter_pem4f.oem4f (.text:xdc_runtime_Startup_exec__I)
                  0000e8fa    00000002     --HOLE-- [fill = 0]
                  0000e8fc    00000010     msp432p4xx_driverlib.lib : dma.o (.text:DMA_clearErrorStatus)
                  0000e90c    00000010                              : gpio.o (.text:GPIO_getInterruptStatus)
                  0000e91c    00000010     drivers_MSP432P401R.aem4f : I2C.oem4f (.text:I2C_Params_init)
                  0000e92c    00000010     msp432p4xx_driverlib.lib : i2c.o (.text:I2C_masterReceiveMultiByteStop)
                  0000e93c    00000010                              : i2c.o (.text:I2C_masterReceiveStart)
                  0000e94c    00000010                              : i2c.o (.text:I2C_masterSendStart)
                  0000e95c    00000010                              : pcm.o (.text:PCM_gotoLPM4)
                  0000e96c    00000004     --HOLE-- [fill = 0]
                  0000e970    00000010     quadcopter.obj (.text:periodicSampleFxn)
                  0000e980    00000010     drivers_MSP432P401R.aem4f : UARTMSP432.oem4f (.text:readBlockingTimeout)
                  0000e990    00000010     sysbios.aem4f : BIOS.obj (.text:ti_sysbios_BIOS_getThreadType__E)
                  0000e9a0    00000010                   : BIOS.obj (.text:ti_sysbios_BIOS_start__E)
                  0000e9b0    00000010                   : BIOS.obj (.text:ti_sysbios_family_arm_m3_Hwi_Object_get$17)
                  0000e9c0    00000010     quadcopter_pem4f.oem4f (.text:ti_sysbios_family_arm_m3_Hwi_Params__init__S)
                  0000e9d0    00000010     sysbios.aem4f : BIOS.obj (.text:ti_sysbios_family_arm_m3_Hwi_doSwiRestore__I)
                  0000e9e0    00000010                   : BIOS.obj (.text:ti_sysbios_family_arm_m3_Hwi_restoreFxn__E)
                  0000e9f0    00000010                   : m3_TaskSupport_asm.obj (.text:ti_sysbios_family_arm_m3_TaskSupport_glue)
                  0000ea00    00000010                   : BIOS.obj (.text:ti_sysbios_family_arm_m3_TimestampProvider_startTimer__E)
                  0000ea10    00000010                   : BIOS.obj (.text:ti_sysbios_family_arm_msp432_init_Boot_disableWatchdog)
                  0000ea20    00000010                   : BIOS.obj (.text:ti_sysbios_heaps_HeapMem_Object_get$23)
                  0000ea30    00000010     quadcopter_pem4f.oem4f (.text:ti_sysbios_knl_Clock_Params__init__S)
                  0000ea40    00000010     sysbios.aem4f : BIOS.obj (.text:ti_sysbios_knl_Clock_stop__E)
                  0000ea50    00000010     quadcopter_pem4f.oem4f (.text:ti_sysbios_knl_Mailbox_Object__get__S)
                  0000ea60    00000010     sysbios.aem4f : BIOS.obj (.text:ti_sysbios_knl_Mailbox_Object_get$5)
                  0000ea70    00000010     quadcopter_pem4f.oem4f (.text:ti_sysbios_knl_Mailbox_Params__init__S)
                  0000ea80    00000010     sysbios.aem4f : BIOS.obj (.text:ti_sysbios_knl_Queue_Object_get$10)
                  0000ea90    00000010     quadcopter_pem4f.oem4f (.text:ti_sysbios_knl_Semaphore_Params__init__S)
                  0000eaa0    00000010     sysbios.aem4f : BIOS.obj (.text:ti_sysbios_knl_Swi_Object_get$8)
                  0000eab0    00000010                   : BIOS.obj (.text:ti_sysbios_knl_Swi_enabled__E)
                  0000eac0    00000010                   : BIOS.obj (.text:ti_sysbios_knl_Task_Object_get$10)
                  0000ead0    00000010     quadcopter_pem4f.oem4f (.text:ti_sysbios_knl_Task_Params__init__S)
                  0000eae0    00000010     sysbios.aem4f : BIOS.obj (.text:xdc_runtime_Gate_enterSystem__E)
                  0000eaf0    00000010                   : BIOS.obj (.text:xdc_runtime_SysMin_ready__E)
                  0000eb00    00000010                   : BIOS.obj (.text:xdc_runtime_System_aprintf_va__F)
                  0000eb10    00000010                   : BIOS.obj (.text:xdc_runtime_System_printf_va__F)
                  0000eb20    00000010     quadcopter_pem4f.oem4f (.text:xdc_runtime_Text_visitRope__I)
                  0000eb30    0000000e     tirtosport.aem4f : HwiP_tirtos.oem4f (.text:HwiP_Params_init)
                  0000eb3e    0000000e     msp432p4xx_driverlib.lib : i2c.o (.text:I2C_clearInterruptFlag)
                  0000eb4c    0000000e                              : i2c.o (.text:I2C_disableInterrupt)
                  0000eb5a    0000000e                              : i2c.o (.text:I2C_setMode)
                  0000eb68    0000000e                              : timer_a.o (.text:Timer_A_setCompareValue)
                  0000eb76    0000000e                              : uart.o (.text:UART_clearInterruptFlag)
                  0000eb84    0000000e     rtsv7M4_T_le_v4SPD16_eabi.lib : copy_decompress_none.obj (.text:decompress:none)
                  0000eb92    00000006     --HOLE-- [fill = 0]
                  0000eb98    0000000e     quadcopter.obj (.text:gpioButtonFxn0)
                  0000eba6    0000000e     sysbios.aem4f : BIOS.obj (.text:ti_sysbios_family_arm_m3_Hwi_doTaskRestore__I)
                  0000ebb4    0000000e                   : BIOS.obj (.text:ti_sysbios_family_arm_m3_Timer_getPeriod__E)
                  0000ebc2    0000000e                   : BIOS.obj (.text:ti_sysbios_knl_Queue_head__E)
                  0000ebd0    0000000e                   : BIOS.obj (.text:ti_sysbios_knl_Queue_next__E)
                  0000ebde    0000000e                   : BIOS.obj (.text:ti_sysbios_knl_Swi_postInit__I)
                  0000ebec    0000000e                   : BIOS.obj (.text:xdc_runtime_Error_getSite__E)
                  0000ebfa    0000000e                   : BIOS.obj (.text:xdc_runtime_System_Module_startup__E)
                  0000ec08    0000000c     quadcopter_pem4f.oem4f (.text:.bootCodeSection:ti_sysbios_family_arm_msp432_init_Boot_init__I)
                  0000ec14    0000000c     msp432p4xx_driverlib.lib : cpu.o (.text:CPU_cpsid)
                  0000ec20    0000000c                              : cpu.o (.text:CPU_cpsie)
                  0000ec2c    0000000c                              : dma.o (.text:DMA_getErrorStatus)
                  0000ec38    0000000c                              : i2c.o (.text:I2C_disableModule)
                  0000ec44    0000000c                              : i2c.o (.text:I2C_enableModule)
                  0000ec50    0000000c                              : pcm.o (.text:PCM_getPowerState)
                  0000ec5c    0000000c     drivers_MSP432P401R.aem4f : PowerMSP432.oem4f (.text:Power_getConstraintMask)
                  0000ec68    0000000c                               : PowerMSP432.oem4f (.text:Power_getPerformanceLevel)
                  0000ec74    00000004     --HOLE-- [fill = 0]
                  0000ec78    0000000c     SensorI2C.obj (.text:SensorI2C_deselect)
                  0000ec84    0000000c     msp432p4xx_driverlib.lib : timer_a.o (.text:Timer_A_stopTimer)
                  0000ec90    0000000c     drivers_MSP432P401R.aem4f : UARTMSP432.oem4f (.text:UARTMSP432_init)
                  0000ec9c    0000000c     msp432p4xx_driverlib.lib : uart.o (.text:UART_disableModule)
                  0000eca8    0000000c                              : uart.o (.text:UART_enableModule)
                  0000ecb4    0000000c     rtsv7M4_T_le_v4SPD16_eabi.lib : copy_zero_init.obj (.text:decompress:ZI)
                  0000ecc0    0000000c     sysbios.aem4f : BIOS.obj (.text:ti_sysbios_family_arm_m3_Hwi_disableFxn__E)
                  0000eccc    0000000c                   : BIOS.obj (.text:ti_sysbios_family_arm_m3_TaskSupport_getStackAlignment__E)
                  0000ecd8    0000000c                   : BIOS.obj (.text:ti_sysbios_family_arm_m3_Timer_getTickCount__E)
                  0000ece4    0000000c                   : BIOS.obj (.text:ti_sysbios_gates_GateHwi_Instance_init__E)
                  0000ecf0    0000000c                   : BIOS.obj (.text:ti_sysbios_gates_GateHwi_query__E)
                  0000ecfc    0000000c                   : BIOS.obj (.text:ti_sysbios_gates_GateMutex_query__E)
                  0000ed08    0000000c                   : BIOS.obj (.text:ti_sysbios_heaps_HeapMem_isBlocking__E)
                  0000ed14    0000000c                   : BIOS.obj (.text:ti_sysbios_knl_Clock_handle$10)
                  0000ed20    0000000c                   : BIOS.obj (.text:ti_sysbios_knl_Clock_handle$4)
                  0000ed2c    0000000c                   : BIOS.obj (.text:ti_sysbios_knl_Clock_handle$7)
                  0000ed38    0000000c                   : BIOS.obj (.text:ti_sysbios_knl_Clock_removeI__E)
                  0000ed44    0000000c                   : BIOS.obj (.text:ti_sysbios_knl_Idle_loop__E)
                  0000ed50    0000000c     quadcopter_pem4f.oem4f (.text:ti_sysbios_knl_Queue_Object__get__S)
                  0000ed5c    0000000c     sysbios.aem4f : BIOS.obj (.text:ti_sysbios_knl_Queue_struct$4)
                  0000ed68    0000000c                   : BIOS.obj (.text:ti_sysbios_knl_Queue_struct$5)
                  0000ed74    0000000c                   : BIOS.obj (.text:ti_sysbios_knl_Queue_struct$7)
                  0000ed80    0000000c                   : BIOS.obj (.text:ti_sysbios_knl_Semaphore_struct$22)
                  0000ed8c    0000000c                   : BIOS.obj (.text:ti_sysbios_knl_Semaphore_struct$5)
                  0000ed98    0000000c                   : BIOS.obj (.text:ti_sysbios_knl_Swi_self__E)
                  0000eda4    0000000c                   : BIOS.obj (.text:ti_sysbios_knl_Task_handle$10)
                  0000edb0    0000000c                   : BIOS.obj (.text:ti_sysbios_knl_Task_self__E)
                  0000edbc    0000000c                   : BIOS.obj (.text:xdc_iargToPtr$39)
                  0000edc8    0000000c                   : BIOS.obj (.text:xdc_runtime_Memory_getMaxDefaultTypeAlign__E)
                  0000edd4    0000000c                   : BIOS.obj (.text:xdc_runtime_Startup_rtsDone__E)
                  0000ede0    0000000c                   : BIOS.obj (.text:xdc_runtime_System_exitStd__E)
                  0000edec    0000000c                   : BIOS.obj (.text:xdc_uargToPtr$10)
                  0000edf8    0000000c                   : BIOS.obj (.text:xdc_uargToPtr$23)
                  0000ee04    0000000c                   : BIOS.obj (.text:xdc_uargToPtr$4)
                  0000ee10    0000000c                   : BIOS.obj (.text:xdc_uargToPtr$7)
                  0000ee1c    0000000a     tirtosport.aem4f : ClockP_tirtos.oem4f (.text:ClockP_stop)
                  0000ee26    0000000a     drivers_MSP432P401R.aem4f : I2CMSP432.oem4f (.text:I2CMSP432_init)
                  0000ee30    0000000a                               : I2C.oem4f (.text:I2C_close)
                  0000ee3a    0000000a                               : I2C.oem4f (.text:I2C_transfer)
                  0000ee44    0000000a                               : PWM.oem4f (.text:PWM_setDuty)
                  0000ee4e    0000000a                               : PWM.oem4f (.text:PWM_start)
                  0000ee58    0000000a     tirtosport.aem4f : SemaphoreP_tirtos.oem4f (.text:SemaphoreP_post)
                  0000ee62    0000000a     drivers_MSP432P401R.aem4f : UART.oem4f (.text:UART_read)
                  0000ee6c    0000000a     sysbios.aem4f : BIOS.obj (.text:ti_sysbios_family_arm_m3_TimestampProvider_rolloverFunc__E)
                  0000ee76    0000000a                   : BIOS.obj (.text:ti_sysbios_knl_Swi_startup__E)
                  0000ee80    0000000a                   : BIOS.obj (.text:ti_sysbios_knl_Task_startup__E)
                  0000ee8a    00000006     --HOLE-- [fill = 0]
                  0000ee90    0000000a     quadcopter_pem4f.oem4f (.text:xdc_runtime_IHeap_alloc)
                  0000ee9a    00000006     --HOLE-- [fill = 0]
                  0000eea0    0000000a     quadcopter_pem4f.oem4f (.text:xdc_runtime_IHeap_free)
                  0000eeaa    00000008     tirtosport.aem4f : ClockP_tirtos.oem4f (.text:ClockP_Params_init)
                  0000eeb2    00000008     msp432p4xx_driverlib.lib : i2c.o (.text:I2C_enableInterrupt)
                  0000eeba    00000008                              : pcm.o (.text:PCM_setPowerMode)
                  0000eec2    00000008                              : pcm.o (.text:PCM_setPowerState)
                  0000eeca    00000008     drivers_MSP432P401R.aem4f : PWMTimerMSP432.oem4f (.text:PWMTimerMSP432_init)
                  0000eed2    00000008     tirtosport.aem4f : SemaphoreP_tirtos.oem4f (.text:SemaphoreP_Params_init)
                  0000eeda    00000008     msp432p4xx_driverlib.lib : timer_a.o (.text:Timer_A_startCounter)
                  0000eee2    00000008     drivers_MSP432P401R.aem4f : I2CMSP432.oem4f (.text:blockingTransferCallback)
                  0000eeea    00000008                               : UARTMSP432.oem4f (.text:readSemCallback)
                  0000eef2    00000008     sysbios.aem4f : BIOS.obj (.text:ti_sysbios_family_arm_m3_Hwi_startup__E)
                  0000eefa    00000008                   : BIOS.obj (.text:ti_sysbios_hal_Hwi_startup__E)
                  0000ef02    00000008                   : BIOS.obj (.text:ti_sysbios_hal_Hwi_switchFromBootStack__E)
                  0000ef0a    00000008     drivers_MSP432P401R.aem4f : UARTMSP432.oem4f (.text:writeSemCallback)
                  0000ef12    00000008     sysbios.aem4f : BIOS.obj (.text:xdc_runtime_System_abortStd__E)
                  0000ef1a    00000008                   : BIOS.obj (.text:xdc_runtime_System_flush__E)
                  0000ef22    00000008                   : BIOS.obj (.text:xdc_runtime_Timestamp_get32__E)
                  0000ef2a    00000006     --HOLE-- [fill = 0]
                  0000ef30    00000006     quadcopter.obj (.text:blinkLED)
                  0000ef36    00000002     --HOLE-- [fill = 0]
                  0000ef38    00000004     quadcopter_pem4f.oem4f (.text:ti_sysbios_BIOS_RtsGateProxy_enter__E)
                  0000ef3c    00000004     --HOLE-- [fill = 0]
                  0000ef40    00000004     quadcopter_pem4f.oem4f (.text:ti_sysbios_BIOS_RtsGateProxy_leave__E)
                  0000ef44    00000004     --HOLE-- [fill = 0]
                  0000ef48    00000004     quadcopter_pem4f.oem4f (.text:ti_sysbios_family_arm_m3_Hwi_destruct)
                  0000ef4c    00000004     --HOLE-- [fill = 0]
                  0000ef50    00000004     quadcopter_pem4f.oem4f (.text:ti_sysbios_family_arm_m3_TaskSupport_Module__startupDone__S)
                  0000ef54    00000004     --HOLE-- [fill = 0]
                  0000ef58    00000004     quadcopter_pem4f.oem4f (.text:ti_sysbios_heaps_HeapMem_Module_GateProxy_enter__E)
                  0000ef5c    00000004     --HOLE-- [fill = 0]
                  0000ef60    00000004     quadcopter_pem4f.oem4f (.text:ti_sysbios_heaps_HeapMem_Module_GateProxy_leave__E)
                  0000ef64    00000004     --HOLE-- [fill = 0]
                  0000ef68    00000004     quadcopter_pem4f.oem4f (.text:ti_sysbios_knl_Clock_TimerProxy_getMaxTicks__E)
                  0000ef6c    00000004     --HOLE-- [fill = 0]
                  0000ef70    00000004     quadcopter_pem4f.oem4f (.text:ti_sysbios_knl_Clock_destruct)
                  0000ef74    00000004     --HOLE-- [fill = 0]
                  0000ef78    00000004     quadcopter_pem4f.oem4f (.text:ti_sysbios_knl_Queue_destruct)
                  0000ef7c    00000004     --HOLE-- [fill = 0]
                  0000ef80    00000004     quadcopter_pem4f.oem4f (.text:ti_sysbios_knl_Semaphore_destruct)
                  0000ef84    00000004     --HOLE-- [fill = 0]
                  0000ef88    00000004     quadcopter_pem4f.oem4f (.text:xdc_runtime_System_Module_GateProxy_enter__E)
                  0000ef8c    00000004     --HOLE-- [fill = 0]
                  0000ef90    00000004     quadcopter_pem4f.oem4f (.text:xdc_runtime_System_Module_GateProxy_leave__E)
                  0000ef94    00000004     --HOLE-- [fill = 0]
                  0000ef98    00000002     quadcopter_pem4f.oem4f (.text:ti_sysbios_BIOS_nullFunc__I)

.const     0    0000efa0    000023e0     
                  0000efa0    000018d5     quadcopter_pem4f.oem4f (.const:xdc_runtime_Text_charTab__A)
                  00010875    00000001     quadcopter_pem4f.oem4f (.const:xdc_runtime_Error_policy__C)
                  00010876    000000cc     quadcopter_pem4f.oem4f (.const:xdc_runtime_Text_nodeTab__A)
                  00010942    00000002     quadcopter_pem4f.oem4f (.const:ti_sysbios_family_arm_m3_Hwi_Module__id__C)
                  00010944    00000070     MSP_EXP432P401R.obj (.const:uartMSP432Baudrates)
                  000109b4    00000048     quadcopter_pem4f.oem4f (.const:.string)
                  000109fc    00000048     MSP_EXP432P401R.obj (.const:uartMSP432HWAttrs)
                  00010a44    0000003c     MSP_EXP432P401R.obj (.const:PWM_config)
                  00010a80    0000003c     quadcopter_pem4f.oem4f (.const:ti_sysbios_knl_Task_Object__PARAMS__C)
                  00010abc    00000004     quadcopter_pem4f.oem4f (.const:ti_sysbios_family_arm_m3_Hwi_E_NMI__C)
                  00010ac0    00000038     rtsv7M4_T_le_v4SPD16_eabi.lib : xlog.obj (.const:p$45)
                  00010af8    00000034     quadcopter_pem4f.oem4f (.const:ti_sysbios_knl_Mailbox_Object__PARAMS__C)
                  00010b2c    00000030     MSP_EXP432P401R.obj (.const:pwmTimerMSP432HWAttrs)
                  00010b5c    00000030     rtsv7M4_T_le_v4SPD16_eabi.lib : xdint.obj (.const)
                  00010b8c    00000030     quadcopter_pem4f.oem4f (.const:ti_sysbios_family_arm_m3_Hwi_Object__PARAMS__C)
                  00010bbc    0000002c     rtsv7M4_T_le_v4SPD16_eabi.lib : xfatan.obj (.const)
                  00010be8    0000002c     quadcopter_pem4f.oem4f (.const:xdc_runtime_Startup_sfxnTab__A)
                  00010c14    00000028     drivers_MSP432P401R.aem4f : UARTMSP432.oem4f (.const:UARTMSP432_fxnTable)
                  00010c3c    00000028                               : PWMTimerMSP432.oem4f (.const)
                  00010c64    00000004     quadcopter_pem4f.oem4f (.const:ti_sysbios_family_arm_m3_Hwi_E_alreadyDefined__C)
                  00010c68    00000028     rtsv7M4_T_le_v4SPD16_eabi.lib : xexp.obj (.const)
                  00010c90    00000028     quadcopter_pem4f.oem4f (.const:ti_sysbios_heaps_HeapMem_Module__FXNS__C)
                  00010cb8    00000024     MSP_EXP432P401R.obj (.const)
                  00010cdc    00000024     MSP_EXP432P401R.obj (.const:UART_config)
                  00010d00    00000024     drivers_MSP432P401R.aem4f : UART.oem4f (.const:UART_defaultParams)
                  00010d24    00000024                               : UARTMSP432.oem4f (.const)
                  00010d48    00000024     quadcopter_pem4f.oem4f (.const:ti_sysbios_gates_GateHwi_Module__FXNS__C)
                  00010d6c    00000024     quadcopter_pem4f.oem4f (.const:ti_sysbios_gates_GateMutex_Module__FXNS__C)
                  00010d90    00000024     quadcopter_pem4f.oem4f (.const:ti_sysbios_heaps_HeapMem_Object__PARAMS__C)
                  00010db4    00000024     quadcopter_pem4f.oem4f (.const:ti_sysbios_knl_Clock_Object__PARAMS__C)
                  00010dd8    00000024     quadcopter_pem4f.oem4f (.const:ti_sysbios_knl_Semaphore_Object__PARAMS__C)
                  00010dfc    00000020     drivers_MSP432P401R.aem4f : I2CMSP432.oem4f (.const)
                  00010e1c    00000020     quadcopter_pem4f.oem4f (.const:ti_sysbios_family_arm_m3_Hwi_Object__DESC__C)
                  00010e3c    00000020     quadcopter_pem4f.oem4f (.const:ti_sysbios_gates_GateHwi_Object__DESC__C)
                  00010e5c    00000020     quadcopter_pem4f.oem4f (.const:ti_sysbios_gates_GateMutex_Object__DESC__C)
                  00010e7c    00000020     quadcopter_pem4f.oem4f (.const:ti_sysbios_heaps_HeapMem_Object__DESC__C)
                  00010e9c    00000020     quadcopter_pem4f.oem4f (.const:ti_sysbios_knl_Clock_Object__DESC__C)
                  00010ebc    00000020     quadcopter_pem4f.oem4f (.const:ti_sysbios_knl_Event_Object__DESC__C)
                  00010edc    00000020     quadcopter_pem4f.oem4f (.const:ti_sysbios_knl_Mailbox_Object__DESC__C)
                  00010efc    00000020     quadcopter_pem4f.oem4f (.const:ti_sysbios_knl_Queue_Object__DESC__C)
                  00010f1c    00000020     quadcopter_pem4f.oem4f (.const:ti_sysbios_knl_Semaphore_Object__DESC__C)
                  00010f3c    00000020     quadcopter_pem4f.oem4f (.const:ti_sysbios_knl_Task_Object__DESC__C)
                  00010f5c    00000018     MSP_EXP432P401R.obj (.const:I2C_config)
                  00010f74    00000018     drivers_MSP432P401R.aem4f : PWM.oem4f (.const)
                  00010f8c    00000018     rtsv7M4_T_le_v4SPD16_eabi.lib : xfsin.obj (.const)
                  00010fa4    00000018     quadcopter_pem4f.oem4f (.const:ti_sysbios_gates_GateHwi_Object__PARAMS__C)
                  00010fbc    00000018     quadcopter_pem4f.oem4f (.const:ti_sysbios_gates_GateMutex_Object__PARAMS__C)
                  00010fd4    00000018     quadcopter_pem4f.oem4f (.const:ti_sysbios_knl_Event_Object__PARAMS__C)
                  00010fec    00000018     quadcopter_pem4f.oem4f (.const:ti_sysbios_knl_Queue_Object__PARAMS__C)
                  00011004    00000016     quadcopter_pem4f.oem4f (.const:xdc_runtime_Startup_sfxnRts__A)
                  0001101a    00000002     quadcopter_pem4f.oem4f (.const:ti_sysbios_family_arm_m3_Hwi_Module__loggerDefined__C)
                  0001101c    00000014     MSP_EXP432P401R.obj (.const:GPIOMSP432_config)
                  00011030    00000010     drivers_MSP432P401R.aem4f : I2C.oem4f (.const)
                  00011040    00000010     MSP_EXP432P401R.obj (.const:i2cMSP432HWAttrs)
                  00011050    0000000c     drivers_MSP432P401R.aem4f : GPIOMSP432.oem4f (.const:.string)
                  0001105c    0000000c     rtsv7M4_T_le_v4SPD16_eabi.lib : tanf.obj (.const)
                  00011068    0000000c     quadcopter_pem4f.oem4f (.const:xdc_runtime_Startup_firstFxns__A)
                  00011074    00000008     quadcopter_pem4f.oem4f (.const:ti_sysbios_family_arm_m3_Hwi_excHookFuncs__A)
                  0001107c    00000008     quadcopter_pem4f.oem4f (.const:ti_sysbios_knl_Idle_funcList__A)
                  00011084    00000008     quadcopter_pem4f.oem4f (.const:ti_sysbios_knl_Idle_funcList__C)
                  0001108c    00000008     quadcopter_pem4f.oem4f (.const:xdc_runtime_Startup_firstFxns__C)
                  00011094    00000008     quadcopter_pem4f.oem4f (.const:xdc_runtime_Startup_lastFxns__C)
                  0001109c    00000005     drivers_MSP432P401R.aem4f : UARTMSP432.oem4f (.const:.string)
                  000110a1    00000001     --HOLE-- [fill = 0]
                  000110a2    00000002     quadcopter_pem4f.oem4f (.const:ti_sysbios_family_arm_m3_Timer_Module__id__C)
                  000110a4    00000004     quadcopter_pem4f.oem4f (.const:ti_sysbios_family_arm_m3_Hwi_E_busFault__C)
                  000110a8    00000004     quadcopter_pem4f.oem4f (.const:ti_sysbios_family_arm_m3_Hwi_E_debugMon__C)
                  000110ac    00000004     quadcopter_pem4f.oem4f (.const:ti_sysbios_family_arm_m3_Hwi_E_hardFault__C)
                  000110b0    00000004     quadcopter_pem4f.oem4f (.const:ti_sysbios_family_arm_m3_Hwi_E_memFault__C)
                  000110b4    00000004     quadcopter_pem4f.oem4f (.const:ti_sysbios_family_arm_m3_Hwi_E_noIsr__C)
                  000110b8    00000004     quadcopter_pem4f.oem4f (.const:ti_sysbios_family_arm_m3_Hwi_E_reserved__C)
                  000110bc    00000004     quadcopter_pem4f.oem4f (.const:ti_sysbios_family_arm_m3_Hwi_E_svCall__C)
                  000110c0    00000004     quadcopter_pem4f.oem4f (.const:ti_sysbios_family_arm_m3_Hwi_E_usageFault__C)
                  000110c4    00000004     quadcopter_pem4f.oem4f (.const:ti_sysbios_family_arm_m3_Hwi_LD_end__C)
                  000110c8    00000004     quadcopter_pem4f.oem4f (.const:ti_sysbios_family_arm_m3_Hwi_LM_begin__C)
                  000110cc    00000004     quadcopter_pem4f.oem4f (.const:ti_sysbios_family_arm_m3_Hwi_Module__diagsEnabled__C)
                  000110d0    00000004     quadcopter_pem4f.oem4f (.const:ti_sysbios_family_arm_m3_Hwi_Module__diagsIncluded__C)
                  000110d4    00000004     quadcopter_pem4f.oem4f (.const:ti_sysbios_family_arm_m3_Hwi_Module__diagsMask__C)
                  000110d8    00000004     quadcopter_pem4f.oem4f (.const:ti_sysbios_family_arm_m3_Hwi_Module__loggerFxn1__C)
                  000110dc    00000004     quadcopter_pem4f.oem4f (.const:ti_sysbios_family_arm_m3_Hwi_Module__loggerFxn8__C)
                  000110e0    00000004     quadcopter_pem4f.oem4f (.const:ti_sysbios_family_arm_m3_Hwi_Module__loggerObj__C)
                  000110e4    00000004     quadcopter_pem4f.oem4f (.const:ti_sysbios_family_arm_m3_Hwi_NUM_INTERRUPTS__C)
                  000110e8    00000004     quadcopter_pem4f.oem4f (.const:ti_sysbios_family_arm_m3_Hwi_Object__count__C)
                  000110ec    00000004     quadcopter_pem4f.oem4f (.const:ti_sysbios_family_arm_m3_Hwi_ccr__C)
                  000110f0    00000004     quadcopter_pem4f.oem4f (.const:ti_sysbios_family_arm_m3_Hwi_excHandlerFunc__C)
                  000110f4    00000004     quadcopter_pem4f.oem4f (.const:ti_sysbios_family_arm_m3_Hwi_excHookFuncs__C)
                  000110f8    00000004     quadcopter_pem4f.oem4f (.const:ti_sysbios_family_arm_m3_Hwi_nullIsrFunc__C)
                  000110fc    00000004     quadcopter_pem4f.oem4f (.const:ti_sysbios_family_arm_m3_Hwi_priGroup__C)
                  00011100    00000004     quadcopter_pem4f.oem4f (.const:ti_sysbios_family_arm_m3_TaskSupport_stackAlignment__C)
                  00011104    00000004     quadcopter_pem4f.oem4f (.const:ti_sysbios_family_arm_m3_Timer_E_cannotSupport__C)
                  00011108    00000004     quadcopter_pem4f.oem4f (.const:ti_sysbios_family_arm_m3_Timer_Module__diagsEnabled__C)
                  0001110c    00000004     quadcopter_pem4f.oem4f (.const:ti_sysbios_family_arm_m3_Timer_Module__diagsIncluded__C)
                  00011110    00000004     quadcopter_pem4f.oem4f (.const:ti_sysbios_family_arm_m3_Timer_Module__diagsMask__C)
                  00011114    00000004     quadcopter_pem4f.oem4f (.const:ti_sysbios_family_arm_m3_Timer_startupNeeded__C)
                  00011118    00000004     quadcopter_pem4f.oem4f (.const:ti_sysbios_family_arm_msp432_Timer_numTimerDevices__C)
                  0001111c    00000004     quadcopter_pem4f.oem4f (.const:ti_sysbios_family_arm_msp432_Timer_startupNeeded__C)
                  00011120    00000004     quadcopter_pem4f.oem4f (.const:ti_sysbios_gates_GateMutex_A_badContext__C)
                  00011124    00000004     quadcopter_pem4f.oem4f (.const:ti_sysbios_gates_GateMutex_Instance_State_sem__O)
                  00011128    00000004     quadcopter_pem4f.oem4f (.const:ti_sysbios_gates_GateMutex_Module__diagsEnabled__C)
                  0001112c    00000004     quadcopter_pem4f.oem4f (.const:ti_sysbios_gates_GateMutex_Module__diagsIncluded__C)
                  00011130    00000004     quadcopter_pem4f.oem4f (.const:ti_sysbios_gates_GateMutex_Module__diagsMask__C)
                  00011134    00000004     quadcopter_pem4f.oem4f (.const:ti_sysbios_hal_Hwi_E_stackOverflow__C)
                  00011138    00000004     quadcopter_pem4f.oem4f (.const:ti_sysbios_heaps_HeapMem_A_align__C)
                  0001113c    00000004     quadcopter_pem4f.oem4f (.const:ti_sysbios_heaps_HeapMem_A_heapSize__C)
                  00011140    00000004     quadcopter_pem4f.oem4f (.const:ti_sysbios_heaps_HeapMem_A_invalidFree__C)
                  00011144    00000004     quadcopter_pem4f.oem4f (.const:ti_sysbios_heaps_HeapMem_A_zeroBlock__C)
                  00011148    00000004     quadcopter_pem4f.oem4f (.const:ti_sysbios_heaps_HeapMem_E_memory__C)
                  0001114c    00000004     quadcopter_pem4f.oem4f (.const:ti_sysbios_heaps_HeapMem_Module__diagsEnabled__C)
                  00011150    00000004     quadcopter_pem4f.oem4f (.const:ti_sysbios_heaps_HeapMem_Module__diagsIncluded__C)
                  00011154    00000004     quadcopter_pem4f.oem4f (.const:ti_sysbios_heaps_HeapMem_Module__diagsMask__C)
                  00011158    00000004     quadcopter_pem4f.oem4f (.const:ti_sysbios_heaps_HeapMem_Module__gateObj__C)
                  0001115c    00000004     quadcopter_pem4f.oem4f (.const:ti_sysbios_heaps_HeapMem_Object__count__C)
                  00011160    00000004     quadcopter_pem4f.oem4f (.const:ti_sysbios_heaps_HeapMem_reqAlign__C)
                  00011164    00000004     quadcopter_pem4f.oem4f (.const:ti_sysbios_knl_Clock_A_badThreadType__C)
                  00011168    00000004     quadcopter_pem4f.oem4f (.const:ti_sysbios_knl_Clock_A_clockDisabled__C)
                  0001116c    00000004     quadcopter_pem4f.oem4f (.const:ti_sysbios_knl_Clock_LM_begin__C)
                  00011170    00000004     quadcopter_pem4f.oem4f (.const:ti_sysbios_knl_Clock_LM_tick__C)
                  00011174    00000004     quadcopter_pem4f.oem4f (.const:ti_sysbios_knl_Clock_LW_delayed__C)
                  00011178    00000004     quadcopter_pem4f.oem4f (.const:ti_sysbios_knl_Clock_Module_State_clockQ__O)
                  0001117c    00000004     quadcopter_pem4f.oem4f (.const:ti_sysbios_knl_Clock_Module__diagsEnabled__C)
                  00011180    00000004     quadcopter_pem4f.oem4f (.const:ti_sysbios_knl_Clock_Module__diagsIncluded__C)
                  00011184    00000004     quadcopter_pem4f.oem4f (.const:ti_sysbios_knl_Clock_Module__diagsMask__C)
                  00011188    00000004     quadcopter_pem4f.oem4f (.const:ti_sysbios_knl_Clock_Module__loggerFxn1__C)
                  0001118c    00000004     quadcopter_pem4f.oem4f (.const:ti_sysbios_knl_Clock_Module__loggerFxn2__C)
                  00011190    00000004     quadcopter_pem4f.oem4f (.const:ti_sysbios_knl_Clock_Module__loggerObj__C)
                  00011194    00000004     quadcopter_pem4f.oem4f (.const:ti_sysbios_knl_Clock_tickPeriod__C)
                  00011198    00000004     quadcopter_pem4f.oem4f (.const:ti_sysbios_knl_Event_A_badContext__C)
                  0001119c    00000004     quadcopter_pem4f.oem4f (.const:ti_sysbios_knl_Event_A_eventInUse__C)
                  000111a0    00000004     quadcopter_pem4f.oem4f (.const:ti_sysbios_knl_Event_A_nullEventId__C)
                  000111a4    00000004     quadcopter_pem4f.oem4f (.const:ti_sysbios_knl_Event_A_nullEventMasks__C)
                  000111a8    00000004     quadcopter_pem4f.oem4f (.const:ti_sysbios_knl_Event_A_pendTaskDisabled__C)
                  000111ac    00000004     quadcopter_pem4f.oem4f (.const:ti_sysbios_knl_Event_Instance_State_pendQ__O)
                  000111b0    00000004     quadcopter_pem4f.oem4f (.const:ti_sysbios_knl_Event_LM_pend__C)
                  000111b4    00000004     quadcopter_pem4f.oem4f (.const:ti_sysbios_knl_Event_LM_post__C)
                  000111b8    00000004     quadcopter_pem4f.oem4f (.const:ti_sysbios_knl_Event_Module__diagsEnabled__C)
                  000111bc    00000004     quadcopter_pem4f.oem4f (.const:ti_sysbios_knl_Event_Module__diagsIncluded__C)
                  000111c0    00000004     quadcopter_pem4f.oem4f (.const:ti_sysbios_knl_Event_Module__diagsMask__C)
                  000111c4    00000004     quadcopter_pem4f.oem4f (.const:ti_sysbios_knl_Event_Module__loggerFxn4__C)
                  000111c8    00000004     quadcopter_pem4f.oem4f (.const:ti_sysbios_knl_Event_Module__loggerFxn8__C)
                  000111cc    00000004     quadcopter_pem4f.oem4f (.const:ti_sysbios_knl_Event_Module__loggerObj__C)
                  000111d0    00000004     quadcopter_pem4f.oem4f (.const:ti_sysbios_knl_Mailbox_A_invalidBufSize__C)
                  000111d4    00000004     quadcopter_pem4f.oem4f (.const:ti_sysbios_knl_Mailbox_Instance_State_dataQue__O)
                  000111d8    00000004     quadcopter_pem4f.oem4f (.const:ti_sysbios_knl_Mailbox_Instance_State_dataSem__O)
                  000111dc    00000004     quadcopter_pem4f.oem4f (.const:ti_sysbios_knl_Mailbox_Instance_State_freeQue__O)
                  000111e0    00000004     quadcopter_pem4f.oem4f (.const:ti_sysbios_knl_Mailbox_Instance_State_freeSem__O)
                  000111e4    00000004     quadcopter_pem4f.oem4f (.const:ti_sysbios_knl_Mailbox_Module__diagsEnabled__C)
                  000111e8    00000004     quadcopter_pem4f.oem4f (.const:ti_sysbios_knl_Mailbox_Module__diagsIncluded__C)
                  000111ec    00000004     quadcopter_pem4f.oem4f (.const:ti_sysbios_knl_Mailbox_Module__diagsMask__C)
                  000111f0    00000004     quadcopter_pem4f.oem4f (.const:ti_sysbios_knl_Mailbox_Object__count__C)
                  000111f4    00000004     quadcopter_pem4f.oem4f (.const:ti_sysbios_knl_Mailbox_maxTypeAlign__C)
                  000111f8    00000004     quadcopter_pem4f.oem4f (.const:ti_sysbios_knl_Semaphore_A_badContext__C)
                  000111fc    00000004     quadcopter_pem4f.oem4f (.const:ti_sysbios_knl_Semaphore_A_noEvents__C)
                  00011200    00000004     quadcopter_pem4f.oem4f (.const:ti_sysbios_knl_Semaphore_A_overflow__C)
                  00011204    00000004     quadcopter_pem4f.oem4f (.const:ti_sysbios_knl_Semaphore_A_pendTaskDisabled__C)
                  00011208    00000004     quadcopter_pem4f.oem4f (.const:ti_sysbios_knl_Semaphore_Instance_State_pendQ__O)
                  0001120c    00000004     quadcopter_pem4f.oem4f (.const:ti_sysbios_knl_Semaphore_LM_pend__C)
                  00011210    00000004     quadcopter_pem4f.oem4f (.const:ti_sysbios_knl_Semaphore_LM_post__C)
                  00011214    00000004     quadcopter_pem4f.oem4f (.const:ti_sysbios_knl_Semaphore_Module__diagsEnabled__C)
                  00011218    00000004     quadcopter_pem4f.oem4f (.const:ti_sysbios_knl_Semaphore_Module__diagsIncluded__C)
                  0001121c    00000004     quadcopter_pem4f.oem4f (.const:ti_sysbios_knl_Semaphore_Module__diagsMask__C)
                  00011220    00000004     quadcopter_pem4f.oem4f (.const:ti_sysbios_knl_Semaphore_Module__loggerFxn2__C)
                  00011224    00000004     quadcopter_pem4f.oem4f (.const:ti_sysbios_knl_Semaphore_Module__loggerFxn4__C)
                  00011228    00000004     quadcopter_pem4f.oem4f (.const:ti_sysbios_knl_Semaphore_Module__loggerObj__C)
                  0001122c    00000004     quadcopter_pem4f.oem4f (.const:ti_sysbios_knl_Swi_LD_end__C)
                  00011230    00000004     quadcopter_pem4f.oem4f (.const:ti_sysbios_knl_Swi_LM_begin__C)
                  00011234    00000004     quadcopter_pem4f.oem4f (.const:ti_sysbios_knl_Swi_LM_post__C)
                  00011238    00000004     quadcopter_pem4f.oem4f (.const:ti_sysbios_knl_Swi_Module__diagsEnabled__C)
                  0001123c    00000004     quadcopter_pem4f.oem4f (.const:ti_sysbios_knl_Swi_Module__diagsIncluded__C)
                  00011240    00000004     quadcopter_pem4f.oem4f (.const:ti_sysbios_knl_Swi_Module__diagsMask__C)
                  00011244    00000004     quadcopter_pem4f.oem4f (.const:ti_sysbios_knl_Swi_Module__loggerFxn1__C)
                  00011248    00000004     quadcopter_pem4f.oem4f (.const:ti_sysbios_knl_Swi_Module__loggerFxn4__C)
                  0001124c    00000004     quadcopter_pem4f.oem4f (.const:ti_sysbios_knl_Swi_Module__loggerObj__C)
                  00011250    00000004     quadcopter_pem4f.oem4f (.const:ti_sysbios_knl_Swi_Object__count__C)
                  00011254    00000004     quadcopter_pem4f.oem4f (.const:ti_sysbios_knl_Swi_numConstructedSwis__C)
                  00011258    00000004     quadcopter_pem4f.oem4f (.const:ti_sysbios_knl_Task_A_badPriority__C)
                  0001125c    00000004     quadcopter_pem4f.oem4f (.const:ti_sysbios_knl_Task_A_badTaskState__C)
                  00011260    00000004     quadcopter_pem4f.oem4f (.const:ti_sysbios_knl_Task_A_badThreadType__C)
                  00011264    00000004     quadcopter_pem4f.oem4f (.const:ti_sysbios_knl_Task_A_badTimeout__C)
                  00011268    00000004     quadcopter_pem4f.oem4f (.const:ti_sysbios_knl_Task_A_noPendElem__C)
                  0001126c    00000004     quadcopter_pem4f.oem4f (.const:ti_sysbios_knl_Task_A_sleepTaskDisabled__C)
                  00011270    00000004     quadcopter_pem4f.oem4f (.const:ti_sysbios_knl_Task_A_taskDisabled__C)
                  00011274    00000004     quadcopter_pem4f.oem4f (.const:ti_sysbios_knl_Task_E_spOutOfBounds__C)
                  00011278    00000004     quadcopter_pem4f.oem4f (.const:ti_sysbios_knl_Task_E_stackOverflow__C)
                  0001127c    00000004     quadcopter_pem4f.oem4f (.const:ti_sysbios_knl_Task_LD_block__C)
                  00011280    00000004     quadcopter_pem4f.oem4f (.const:ti_sysbios_knl_Task_LD_exit__C)
                  00011284    00000004     quadcopter_pem4f.oem4f (.const:ti_sysbios_knl_Task_LD_ready__C)
                  00011288    00000004     quadcopter_pem4f.oem4f (.const:ti_sysbios_knl_Task_LM_sleep__C)
                  0001128c    00000004     quadcopter_pem4f.oem4f (.const:ti_sysbios_knl_Task_LM_switch__C)
                  00011290    00000004     quadcopter_pem4f.oem4f (.const:ti_sysbios_knl_Task_Module_State_inactiveQ__O)
                  00011294    00000004     quadcopter_pem4f.oem4f (.const:ti_sysbios_knl_Task_Module__diagsEnabled__C)
                  00011298    00000004     quadcopter_pem4f.oem4f (.const:ti_sysbios_knl_Task_Module__diagsIncluded__C)
                  0001129c    00000004     quadcopter_pem4f.oem4f (.const:ti_sysbios_knl_Task_Module__diagsMask__C)
                  000112a0    00000004     quadcopter_pem4f.oem4f (.const:ti_sysbios_knl_Task_Module__loggerFxn2__C)
                  000112a4    00000004     quadcopter_pem4f.oem4f (.const:ti_sysbios_knl_Task_Module__loggerFxn4__C)
                  000112a8    00000004     quadcopter_pem4f.oem4f (.const:ti_sysbios_knl_Task_Module__loggerObj__C)
                  000112ac    00000004     quadcopter_pem4f.oem4f (.const:ti_sysbios_knl_Task_Object__count__C)
                  000112b0    00000004     quadcopter_pem4f.oem4f (.const:ti_sysbios_knl_Task_allBlockedFunc__C)
                  000112b4    00000004     quadcopter_pem4f.oem4f (.const:ti_sysbios_knl_Task_defaultStackHeap__C)
                  000112b8    00000004     quadcopter_pem4f.oem4f (.const:ti_sysbios_knl_Task_defaultStackSize__C)
                  000112bc    00000004     quadcopter_pem4f.oem4f (.const:ti_sysbios_knl_Task_numConstructedTasks__C)
                  000112c0    00000004     quadcopter_pem4f.oem4f (.const:xdc_runtime_Assert_E_assertFailed__C)
                  000112c4    00000004     quadcopter_pem4f.oem4f (.const:xdc_runtime_Core_A_initializedParams__C)
                  000112c8    00000004     quadcopter_pem4f.oem4f (.const:xdc_runtime_Core_Module__diagsEnabled__C)
                  000112cc    00000004     quadcopter_pem4f.oem4f (.const:xdc_runtime_Core_Module__diagsIncluded__C)
                  000112d0    00000004     quadcopter_pem4f.oem4f (.const:xdc_runtime_Core_Module__diagsMask__C)
                  000112d4    00000004     quadcopter_pem4f.oem4f (.const:xdc_runtime_Error_E_memory__C)
                  000112d8    00000004     quadcopter_pem4f.oem4f (.const:xdc_runtime_Error_Module__diagsEnabled__C)
                  000112dc    00000004     quadcopter_pem4f.oem4f (.const:xdc_runtime_Error_Module__diagsIncluded__C)
                  000112e0    00000004     quadcopter_pem4f.oem4f (.const:xdc_runtime_Error_Module__diagsMask__C)
                  000112e4    00000004     quadcopter_pem4f.oem4f (.const:xdc_runtime_Error_Module__loggerFxn8__C)
                  000112e8    00000004     quadcopter_pem4f.oem4f (.const:xdc_runtime_Error_Module__loggerObj__C)
                  000112ec    00000004     quadcopter_pem4f.oem4f (.const:xdc_runtime_Error_policyFxn__C)
                  000112f0    00000004     quadcopter_pem4f.oem4f (.const:xdc_runtime_Error_raiseHook__C)
                  000112f4    00000004     quadcopter_pem4f.oem4f (.const:xdc_runtime_IGateProvider_Interface__BASE__C)
                  000112f8    00000004     quadcopter_pem4f.oem4f (.const:xdc_runtime_IHeap_Interface__BASE__C)
                  000112fc    00000004     quadcopter_pem4f.oem4f (.const:xdc_runtime_IModule_Interface__BASE__C)
                  00011300    00000004     quadcopter_pem4f.oem4f (.const:xdc_runtime_Log_L_error__C)
                  00011304    00000004     quadcopter_pem4f.oem4f (.const:xdc_runtime_Memory_defaultHeapInstance__C)
                  00011308    00000004     quadcopter_pem4f.oem4f (.const:xdc_runtime_Startup_execImpl__C)
                  0001130c    00000004     quadcopter_pem4f.oem4f (.const:xdc_runtime_Startup_lastFxns__A)
                  00011310    00000004     quadcopter_pem4f.oem4f (.const:xdc_runtime_Startup_maxPasses__C)
                  00011314    00000004     quadcopter_pem4f.oem4f (.const:xdc_runtime_Startup_sfxnRts__C)
                  00011318    00000004     quadcopter_pem4f.oem4f (.const:xdc_runtime_Startup_sfxnTab__C)
                  0001131c    00000004     quadcopter_pem4f.oem4f (.const:xdc_runtime_SysMin_bufSize__C)
                  00011320    00000004     quadcopter_pem4f.oem4f (.const:xdc_runtime_SysMin_outputFunc__C)
                  00011324    00000004     quadcopter_pem4f.oem4f (.const:xdc_runtime_System_Module__gateObj__C)
                  00011328    00000004     quadcopter_pem4f.oem4f (.const:xdc_runtime_System_abortFxn__C)
                  0001132c    00000004     quadcopter_pem4f.oem4f (.const:xdc_runtime_System_exitFxn__C)
                  00011330    00000004     quadcopter_pem4f.oem4f (.const:xdc_runtime_System_extendFxn__C)
                  00011334    00000004     quadcopter_pem4f.oem4f (.const:xdc_runtime_System_maxAtexitHandlers__C)
                  00011338    00000004     quadcopter_pem4f.oem4f (.const:xdc_runtime_Text_charTab__C)
                  0001133c    00000004     quadcopter_pem4f.oem4f (.const:xdc_runtime_Text_nameEmpty__C)
                  00011340    00000004     quadcopter_pem4f.oem4f (.const:xdc_runtime_Text_nameStatic__C)
                  00011344    00000004     quadcopter_pem4f.oem4f (.const:xdc_runtime_Text_nameUnknown__C)
                  00011348    00000004     quadcopter_pem4f.oem4f (.const:xdc_runtime_Text_nodeTab__C)
                  0001134c    00000004     quadcopter_pem4f.oem4f (.const:xdc_runtime_Text_visitRopeFxn__C)
                  00011350    00000002     quadcopter_pem4f.oem4f (.const:ti_sysbios_family_arm_m3_TimestampProvider_configTimer__C)
                  00011352    00000002     quadcopter_pem4f.oem4f (.const:ti_sysbios_gates_GateMutex_Module__id__C)
                  00011354    00000002     quadcopter_pem4f.oem4f (.const:ti_sysbios_hal_Hwi_Module__id__C)
                  00011356    00000002     quadcopter_pem4f.oem4f (.const:ti_sysbios_heaps_HeapMem_Module__id__C)
                  00011358    00000002     quadcopter_pem4f.oem4f (.const:ti_sysbios_knl_Clock_Module__id__C)
                  0001135a    00000002     quadcopter_pem4f.oem4f (.const:ti_sysbios_knl_Clock_Module__loggerDefined__C)
                  0001135c    00000002     quadcopter_pem4f.oem4f (.const:ti_sysbios_knl_Event_Module__id__C)
                  0001135e    00000002     quadcopter_pem4f.oem4f (.const:ti_sysbios_knl_Event_Module__loggerDefined__C)
                  00011360    00000002     quadcopter_pem4f.oem4f (.const:ti_sysbios_knl_Mailbox_Module__id__C)
                  00011362    00000002     quadcopter_pem4f.oem4f (.const:ti_sysbios_knl_Semaphore_Module__id__C)
                  00011364    00000002     quadcopter_pem4f.oem4f (.const:ti_sysbios_knl_Semaphore_Module__loggerDefined__C)
                  00011366    00000002     quadcopter_pem4f.oem4f (.const:ti_sysbios_knl_Swi_Module__id__C)
                  00011368    00000002     quadcopter_pem4f.oem4f (.const:ti_sysbios_knl_Swi_Module__loggerDefined__C)
                  0001136a    00000002     quadcopter_pem4f.oem4f (.const:ti_sysbios_knl_Task_Module__id__C)
                  0001136c    00000002     quadcopter_pem4f.oem4f (.const:ti_sysbios_knl_Task_Module__loggerDefined__C)
                  0001136e    00000002     quadcopter_pem4f.oem4f (.const:xdc_runtime_Core_Module__id__C)
                  00011370    00000002     quadcopter_pem4f.oem4f (.const:xdc_runtime_Error_Module__loggerDefined__C)
                  00011372    00000002     quadcopter_pem4f.oem4f (.const:xdc_runtime_Error_maxDepth__C)
                  00011374    00000002     quadcopter_pem4f.oem4f (.const:xdc_runtime_Memory_Module__id__C)
                  00011376    00000002     quadcopter_pem4f.oem4f (.const:xdc_runtime_SysMin_flushAtExit__C)
                  00011378    00000002     quadcopter_pem4f.oem4f (.const:xdc_runtime_Text_charCnt__C)
                  0001137a    00000002     quadcopter_pem4f.oem4f (.const:xdc_runtime_Text_isLoaded__C)
                  0001137c    00000002     quadcopter_pem4f.oem4f (.const:xdc_runtime_Text_registryModsLastId__C)
                  0001137e    00000002     quadcopter_pem4f.oem4f (.const:xdc_runtime_Text_unnamedModsLastId__C)

.cinit     0    00011380    000004c8     
                  00011380    00000492     (.cinit..data.load) [load image, compression = rle]
                  00011812    00000002     --HOLE-- [fill = 0]
                  00011814    0000000c     (__TI_handler_table)
                  00011820    00000008     (.cinit..bss.load) [load image, compression = zero_init]
                  00011828    00000008     (.cinit..vecs.load) [load image, compression = zero_init]
                  00011830    00000018     (__TI_cinit_table)

.resetVecs 
*          0    00000000    0000003c     
                  00000000    0000003c     quadcopter_pem4f.oem4f (.resetVecs)

.vecs      0    20000000    00000140     UNINITIALIZED
                  20000000    00000140     quadcopter_pem4f.oem4f (.vecs)

.data      0    20000140    00004dc1     UNINITIALIZED
                  20000140    000045d0     quadcopter.obj (.data)
                  20004710    00000150     quadcopter_pem4f.oem4f (.data)
                  20004860    000000b0     rtsv7M4_T_le_v4SPD16_eabi.lib : signal.obj (.data:sigtable$39)
                  20004910    0000009c     drivers_MSP432P401R.aem4f : PowerMSP432.oem4f (.data:PowerMSP432_perfLevels)
                  200049ac    00000080                               : PWMTimerMSP432.oem4f (.data:pwmTimerStatus)
                  20004a2c    00000004                               : I2C.oem4f (.data)
                  20004a30    00000080     rtsv7M4_T_le_v4SPD16_eabi.lib : xvalues.obj (.data)
                  20004ab0    00000080     quadcopter_pem4f.oem4f (.data:ti_sysbios_knl_Swi_Module_State_0_readyQ__A)
                  20004b30    00000080     quadcopter_pem4f.oem4f (.data:ti_sysbios_knl_Task_Module_State_0_readyQ__A)
                  20004bb0    00000068     rtsv7M4_T_le_v4SPD16_eabi.lib : xfvalues.obj (.data)
                  20004c18    0000004c     quadcopter_pem4f.oem4f (.data:ti_sysbios_family_arm_msp432_Timer_Object__table__V)
                  20004c64    0000004c     quadcopter_pem4f.oem4f (.data:ti_sysbios_knl_Task_Object__table__V)
                  20004cb0    00000044     quadcopter_pem4f.oem4f (.data:ti_sysbios_knl_Task_Module__state__V)
                  20004cf4    00000038     quadcopter_pem4f.oem4f (.data:ti_sysbios_gates_GateMutex_Object__table__V)
                  20004d2c    00000034     quadcopter_pem4f.oem4f (.data:ti_sysbios_family_arm_m3_Hwi_Module__state__V)
                  20004d60    00000030     msp432p4xx_driverlib.lib : gpio.o (.data:GPIO_PORT_TO_BASE)
                  20004d90    00000030     quadcopter_pem4f.oem4f (.data:ti_sysbios_family_arm_m3_Hwi_Object__table__V)
                  20004dc0    00000030     quadcopter_pem4f.oem4f (.data:ti_sysbios_family_arm_m3_Timer_Object__table__V)
                  20004df0    00000030     quadcopter_pem4f.oem4f (.data:ti_sysbios_knl_Swi_Object__table__V)
                  20004e20    0000002c     quadcopter_pem4f.oem4f (.data:ti_sysbios_knl_Clock_Module__state__V)
                  20004e4c    00000028     MSP_EXP432P401R.obj (.data)
                  20004e74    00000028     drivers_MSP432P401R.aem4f : PowerMSP432.oem4f (.data:PowerMSP432_module)
                  20004e9c    00000024     quadcopter_pem4f.oem4f (.data:ti_sysbios_BIOS_Module__state__V)
                  20004ec0    00000018     SensorMpu9250.obj (.data)
                  20004ed8    00000008     rtsv7M4_T_le_v4SPD16_eabi.lib : _lock.obj (.data)
                  20004ee0    00000008                                   : exit.obj (.data)
                  20004ee8    00000008                                   : feraiseexcept.obj (.data)
                  20004ef0    00000004     drivers_MSP432P401R.aem4f : PWM.oem4f (.data)
                  20004ef4    00000004                               : UART.oem4f (.data)
                  20004ef8    00000004     rtsv7M4_T_le_v4SPD16_eabi.lib : errno.obj (.data)
                  20004efc    00000004                                   : stkdepth_vars.obj (.data)
                  20004f00    00000001     drivers_MSP432P401R.aem4f : GPIOMSP432.oem4f (.data)

.TI.persistent 
*          0    20000140    00000000     UNINITIALIZED

.bss       0    20005000    000021ea     UNINITIALIZED
                  20005000    00001000     quadcopter_pem4f.oem4f (.bss:ti_sysbios_heaps_HeapMem_Instance_State_0_buf__A)
                  20006000    00000800     quadcopter_pem4f.oem4f (.bss:xdc_runtime_SysMin_Module_State_0_outbuf__A)
                  20006800    00000400     quadcopter_pem4f.oem4f (.bss:taskStackSection)
                  20006c00    00000140     quadcopter_pem4f.oem4f (.bss:ti_sysbios_family_arm_m3_Hwi_dispatchTable)
                  20006d40    00000120     rtsv7M4_T_le_v4SPD16_eabi.lib : trgmsg.obj (.bss:__CIOBUF_)
                  20006e60    00000100     MSP_EXP432P401R.obj (.bss:uartMSP432Objects)
                  20006f60    00000100     MSP_EXP432P401R.obj (.bss:uartMSP432RingBuffer)
                  20007060    00000050     SensorI2C.obj (.bss)
                  200070b0    00000048     MSP_EXP432P401R.obj (.bss:i2cMSP432Objects)
                  200070f8    00000008     (.common:parmbuf$24)
                  20007100    00000080     MSP_EXP432P401R.obj (.bss:dmaControlTable$2)
                  20007180    00000030     drivers_MSP432P401R.aem4f : GPIOMSP432.oem4f (.bss:gpioCallbackInfo)
                  200071b0    00000030     MSP_EXP432P401R.obj (.bss:pwmTimerMSP432Objects)
                  200071e0    00000008     (.common:udmaMSP432Object)
                  200071e8    00000001     (.common:interface$4)
                  200071e9    00000001     (.common:slaveAddr$4)

.TI.noinit 
*          0    20005000    00000000     UNINITIALIZED

.stack     0    2000f000    00001000     UNINITIALIZED
                  2000f000    00001000     --HOLE--

.bootVecs 
*          0    00000000    00000008     DSECT
                  00000000    00000008     boot.aem4f : boot.oem4f (.bootVecs)

xdc.meta   0    00000000    000000df     COPY SECTION
                  00000000    000000df     quadcopter_pem4f.oem4f (xdc.meta)


LINKER GENERATED COPY TABLES

__TI_cinit_table @ 00011830 records: 3, size/record: 8, table size: 24
	.data: load addr=00011380, load size=00000492 bytes, run addr=20000140, run size=00004dc1 bytes, compression=rle
	.bss: load addr=00011820, load size=00000008 bytes, run addr=20005000, run size=000021ea bytes, compression=zero_init
	.vecs: load addr=00011828, load size=00000008 bytes, run addr=20000000, run size=00000140 bytes, compression=zero_init


LINKER GENERATED HANDLER TABLE

__TI_handler_table @ 00011814 records: 3, size/record: 4, table size: 12
	index: 0, handler: __TI_decompress_rle24
	index: 1, handler: __TI_decompress_none
	index: 2, handler: __TI_zero_init


GLOBAL SYMBOLS: SORTED ALPHABETICALLY BY Name 

address   name                                                        
-------   ----                                                        
0000c21d  C$$EXIT                                                     
0000adc7  C$$IO$$                                                     
0000ec15  CPU_cpsid                                                   
0000ec21  CPU_cpsie                                                   
0000346d  CPU_wfi                                                     
00007e69  CS_initClockSignal                                          
0000da0d  CS_setDCOCenteredFrequency                                  
0000eeab  ClockP_Params_init                                          
0000b471  ClockP_create                                               
0000e559  ClockP_delete                                               
0000e825  ClockP_start                                                
0000e825  ClockP_startFromISR                                         
0000ee1d  ClockP_stop                                                 
0000ee1d  ClockP_stopFromISR                                          
0000e8fd  DMA_clearErrorStatus                                        
0000ec2d  DMA_getErrorStatus                                          
0000c43d  FlashCtl_disableReadBuffering                               
0000ce91  FlashCtl_enableReadBuffering                                
0000d769  FlashCtl_setWaitState                                       
0001101c  GPIOMSP432_config                                           
0000e2fd  GPIO_clearInterruptFlag                                     
0000d791  GPIO_disableInt                                             
0000e315  GPIO_disableInterrupt                                       
0000d7b9  GPIO_enableInt                                              
0000e66d  GPIO_enableInterrupt                                        
0000d11d  GPIO_getEnabledInterruptStatus                              
0000e32d  GPIO_getInputPinValue                                       
0000e90d  GPIO_getInterruptStatus                                     
0000b849  GPIO_hwiIntFxn                                              
0000b1e1  GPIO_init                                                   
0000de15  GPIO_interruptEdgeSelect                                    
0000e681  GPIO_read                                                   
0000d4ad  GPIO_setAsInputPin                                          
0000d14d  GPIO_setAsInputPinWithPullDownResistor                      
0000d17d  GPIO_setAsInputPinWithPullUpResistor                        
0000da31  GPIO_setAsOutputPin                                         
0000bfe5  GPIO_setAsPeripheralModuleFunctionInputPin                  
0000bdcd  GPIO_setAsPeripheralModuleFunctionOutputPin                 
0000b89d  GPIO_setCallback                                            
00006cb9  GPIO_setConfig                                              
0000e695  GPIO_setDriveStrengthHigh                                   
0000e345  GPIO_setDriveStrengthLow                                    
0000e6a9  GPIO_setOutputHighOnPin                                     
0000e35d  GPIO_setOutputLowOnPin                                      
0000d1ad  GPIO_toggle                                                 
0000e6bd  GPIO_toggleOutputOnPin                                      
0000bc3d  GPIO_write                                                  
0000b999  HOSTwrite                                                   
0000eb31  HwiP_Params_init                                            
0000affd  HwiP_create                                                 
0000e56f  HwiP_delete                                                 
00007ba5  HwiP_disable                                                
0000e9e1  HwiP_restore                                                
000093c9  I2CMSP432_cancel                                            
0000ae69  I2CMSP432_close                                             
0000abeb  I2CMSP432_control                                           
00010dfc  I2CMSP432_fxnTable                                          
000073d3  I2CMSP432_hwiIntFxn                                         
0000ee27  I2CMSP432_init                                              
00005db9  I2CMSP432_open                                              
00009731  I2CMSP432_transfer                                          
0000e91d  I2C_Params_init                                             
0000eb3f  I2C_clearInterruptFlag                                      
0000ee31  I2C_close                                                   
00010f5c  I2C_config                                                  
00011030  I2C_defaultParams                                           
0000eb4d  I2C_disableInterrupt                                        
0000ec39  I2C_disableModule                                           
0000eeb3  I2C_enableInterrupt                                         
0000ec45  I2C_enableModule                                            
0000b4cb  I2C_getEnabledInterruptStatus                               
0000bb3b  I2C_getInterruptStatus                                      
0000cbf5  I2C_init                                                    
0000c6fd  I2C_initMaster                                              
0000e375  I2C_masterIsStartSent                                       
0000bb93  I2C_masterReceiveMultiByteNext                              
0000e92d  I2C_masterReceiveMultiByteStop                              
0000e93d  I2C_masterReceiveStart                                      
0000c47d  I2C_masterSendMultiByteFinish                               
0000da55  I2C_masterSendMultiByteNext                                 
0000e94d  I2C_masterSendStart                                         
0000d1dd  I2C_open                                                    
0000eb5b  I2C_setMode                                                 
00008eed  I2C_setSlaveAddress                                         
0000ee3b  I2C_transfer                                                
00009165  List_head                                                   
0000929d  List_next                                                   
0000d8f9  List_put                                                    
0000e191  List_remove                                                 
0000e839  MSP_EXP432P401R_initI2C                                     
0000e059  MSP_EXP432P401R_initUART                                    
0000e075  PCM_enableRudeMode                                          
0000d4d9  PCM_getCoreVoltageLevel                                     
0000d695  PCM_getPowerMode                                            
0000ec51  PCM_getPowerState                                           
0000d7e1  PCM_gotoLPM0                                                
0000a09d  PCM_gotoLPM3                                                
0000e95d  PCM_gotoLPM4                                                
0000eebb  PCM_setPowerMode                                            
0000eec3  PCM_setPowerState                                           
0000bc8d  PCM_shutdownDevice                                          
0000bcdd  PWMTimerMSP432_close                                        
0000d03b  PWMTimerMSP432_control                                      
00010c3c  PWMTimerMSP432_fxnTable                                     
0000eecb  PWMTimerMSP432_init                                         
00008c51  PWMTimerMSP432_open                                         
00009b85  PWMTimerMSP432_setDuty                                      
0000945b  PWMTimerMSP432_setPeriod                                    
0000c4bd  PWMTimerMSP432_start                                        
0000b8f1  PWMTimerMSP432_stop                                         
0000e6d1  PWM_Params_init                                             
00010a44  PWM_config                                                  
00010f74  PWM_defaultParams                                           
0000cc2d  PWM_init                                                    
0000d20d  PWM_open                                                    
0000ee45  PWM_setDuty                                                 
0000ee4f  PWM_start                                                   
00010ccc  PowerMSP432_config                                          
0000de35  PowerMSP432_getFreqs                                        
000094ed  PowerMSP432_getNumPerfLevels                                
00000aef  PowerMSP432_initPolicy                                      
20004e74  PowerMSP432_module                                          
20004910  PowerMSP432_perfLevels                                      
0000c833  PowerMSP432_sleepPolicy                                     
0000d505  PowerMSP432_updateFreqs                                     
0000ec5d  Power_getConstraintMask                                     
0000ec69  Power_getPerformanceLevel                                   
0000e6e5  Power_idleFunc                                              
0000c1d9  Power_init                                                  
0000e091  Power_registerNotify                                        
0000d531  Power_releaseConstraint                                     
0000d55d  Power_setConstraint                                         
00004029  Power_sleep                                                 
0000de55  Power_unregisterNotify                                      
0000da79  RTC_C_holdClock                                             
0000da9d  RTC_C_startClock                                            
0000e84b  RingBuf_construct                                           
0000c4fd  RingBuf_get                                                 
0000de75  RingBuf_peek                                                
0000c105  RingBuf_put                                                 
UNDEFED   SHT$$INIT_ARRAY$$Base                                       
UNDEFED   SHT$$INIT_ARRAY$$Limit                                      
0000eed3  SemaphoreP_Params_init                                      
0000b52b  SemaphoreP_create                                           
0000e585  SemaphoreP_delete                                           
0000e85d  SemaphoreP_pend                                             
0000ee59  SemaphoreP_post                                             
0000ee59  SemaphoreP_postFromClock                                    
0000ee59  SemaphoreP_postFromISR                                      
0000ec79  SensorI2C_deselect                                          
0000b061  SensorI2C_open                                              
0000a479  SensorI2C_select                                            
0000c871  SensorI2C_write                                             
0000c8b1  SensorI2C_writeRead                                         
0000b241  SensorI2C_writeReg                                          
0000bae9  SensorMpu9250_accRead                                       
0000be19  SensorMpu9250_accReadRange                                  
0000cec9  SensorMpu9250_accSetDLPF                                    
0000ab81  SensorMpu9250_accSetRange                                   
0000d809  SensorMpu9250_enable                                        
0000bb41  SensorMpu9250_gyroRead                                      
000099f1  SensorMpu9250_gyroSetDLPF                                   
0000abf1  SensorMpu9250_gyroSetRange                                  
0000d921  SensorMpu9250_init                                          
0000be69  SensorMpu9250_irqClear                                      
0000bb99  SensorMpu9250_irqConfig                                     
000098d9  SensorMpu9250_irqPinConfig                                  
0000e6f9  SensorMpu9250_powerIsOn                                     
0000e871  SensorMpu9250_powerOff                                      
0000d6c1  SensorMpu9250_powerOn                                       
000092a1  SensorMpu9250_reset                                         
0000d391  SensorMpu9250_setSamplingRate                               
00009d99  SensorMpu9250_test                                          
0000c02d  Timer_A_generatePWM                                         
0000eb69  Timer_A_setCompareValue                                     
0000eedb  Timer_A_startCounter                                        
0000ec85  Timer_A_stopTimer                                           
00009963  UARTMSP432_close                                            
00008da9  UARTMSP432_control                                          
00010c14  UARTMSP432_fxnTable                                         
0000c3b9  UARTMSP432_hwiIntFxn                                        
0000ec91  UARTMSP432_init                                             
0000428d  UARTMSP432_open                                             
0000c53d  UARTMSP432_read                                             
0000ce25  UARTMSP432_readCancel                                       
00008a41  UARTMSP432_readPolling                                      
0000a28d  UARTMSP432_write                                            
0000bbeb  UARTMSP432_writeCancel                                      
0000aecf  UARTMSP432_writePolling                                     
0000e38d  UART_Params_init                                            
0000eb77  UART_clearInterruptFlag                                     
00010cdc  UART_config                                                 
00010d00  UART_defaultParams                                          
0000dac1  UART_disableInterrupt                                       
0000ec9d  UART_disableModule                                          
0000e5b7  UART_enableInterrupt                                        
0000eca9  UART_enableModule                                           
0000d073  UART_getInterruptStatus                                     
0000cc65  UART_init                                                   
00009335  UART_initModule                                             
0000d23d  UART_open                                                   
0000d0ab  UART_queryStatusFlags                                       
0000ee63  UART_read                                                   
0000dae5  UART_receiveData                                            
0000db09  UART_transmitData                                           
00010cc4  UDMAMSP432_config                                           
4000480c  WDTCTL_SYM                                                  
0000e3a5  WDT_A_holdTimer                                             
0000e70d  WDT_A_startTimer                                            
20004a30  _Denorm                                                     
00008699  _Dint                                                       
000072b9  _Dunscale                                                   
20004aa0  _Eps                                                        
20004ef8  _Errno                                                      
000022f9  _Exp                                                        
20004bb0  _FDenorm                                                    
20004bc0  _FEps                                                       
20004c08  _FInf                                                       
20004be8  _FNan                                                       
20004bf8  _FRteps                                                     
00006209  _FSin                                                       
20004bd0  _FSnan                                                      
20004be0  _FXbig                                                      
20004be4  _FZero                                                      
20004ee8  _Fenv                                                       
0000d26d  _Feraise                                                    
20004a40  _Hugeval                                                    
20004a80  _Inf                                                        
00004d05  _Log                                                        
20004a90  _Nan                                                        
20004a60  _Rteps                                                      
20004a50  _Snan                                                       
20004eec  _Tls_setup__Fenv                                            
20004a70  _Xbig                                                       
20004a78  _Zero                                                       
00000000  __ASM__                                                     
20006d40  __CIOBUF_                                                   
0000005b  __ISA__                                                     
0000006e  __PLAT__                                                    
20010000  __STACK_END                                                 
00001000  __STACK_SIZE                                                
00000091  __TARG__                                                    
00011830  __TI_CINIT_Base                                             
00011848  __TI_CINIT_Limit                                            
00011814  __TI_Handler_Table_Base                                     
00011820  __TI_Handler_Table_Limit                                    
00008e4d  __TI_auto_init                                              
20004ee0  __TI_cleanup_ptr                                            
0000eb85  __TI_decompress_none                                        
0000d41b  __TI_decompress_rle24                                       
20004ee4  __TI_dtors_ptr                                              
0000adcb  __TI_readmsg                                                
00011380  __TI_static_base__                                          
0000ad99  __TI_writemsg                                               
0000ecb5  __TI_zero_init                                              
000000b7  __TRDR__                                                    
00009a79  __aeabi_cdcmpeq                                             
00009a79  __aeabi_cdcmple                                             
00009aff  __aeabi_cdrcmple                                            
0000a9c9  __aeabi_d2f                                                 
0000c075  __aeabi_d2iz                                                
0000c261  __aeabi_d2uiz                                               
0000542b  __aeabi_dadd                                                
00006f31  __aeabi_ddiv                                                
000074eb  __aeabi_dmul                                                
00005421  __aeabi_dsub                                                
0000cd0d  __aeabi_f2d                                                 
0000d3bf  __aeabi_i2d                                                 
00001ecb  __aeabi_idiv0                                               
0000a381  __aeabi_memclr                                              
0000a381  __aeabi_memclr4                                             
0000a381  __aeabi_memclr8                                             
0000902d  __aeabi_memcpy                                              
0000902d  __aeabi_memcpy4                                             
0000902d  __aeabi_memcpy8                                             
0000a383  __aeabi_memset                                              
0000a383  __aeabi_memset4                                             
0000a383  __aeabi_memset8                                             
0000c5bd  __aeabi_uidiv                                               
0000c5bd  __aeabi_uidivmod                                            
00004735  __aeabi_uldivmod                                            
ffffffff  __binit__                                                   
ffffffff  __c_args__                                                  
2000f000  __stack                                                     
0000d0e3  __xdc__init                                                 
2000485c  __xdc__init__addr                                           
0000e3f1  _args_main                                                  
0000b585  _c_int00                                                    
20004ed8  _lock                                                       
0000e721  _nop                                                        
0000e729  _register_lock                                              
0000e723  _register_unlock                                            
20004edc  _unlock                                                     
0000c221  abort                                                       
00005269  atan2f                                                      
0000719d  atanf                                                       
ffffffff  binit                                                       
0000ef31  blinkLED                                                    
00003791  calibrateSystemFxn                                          
2000014c  clk0Handle                                                  
200001f8  clk0Struct                                                  
20000150  clk1Handle                                                  
2000021c  clk1Struct                                                  
20000154  clk2Handle                                                  
20000240  clk2Struct                                                  
0000e889  constrain                                                   
0000beb5  copy_in                                                     
0000d993  cosf                                                        
20000158  dataRdyEvt                                                  
200001ac  dataRdyStruct                                               
0000c229  exit                                                        
0000de95  feraiseexcept                                               
00001a75  fmodf                                                       
000094f1  getMagnitude                                                
00007ba9  getPID                                                      
0000eb99  gpioButtonFxn0                                              
20004e64  gpioCallbackFunctions                                       
0000e3d9  gpioDebounceFxn0                                            
20004e4c  gpioPinConfigs                                              
20000164  hDisplaySerial                                              
00011040  i2cMSP432HWAttrs                                            
200070b0  i2cMSP432Objects                                            
00008ef1  initSensors                                                 
0000e409  log                                                         
00003471  main                                                        
20004efc  main_func_sp                                                
0000902d  memcpy                                                      
0000a389  memset                                                      
20000170  motorBL                                                     
20000174  motorBR                                                     
20000168  motorFL                                                     
2000016c  motorFR                                                     
0000cb09  mpu9250IntHdr                                               
20000144  mpuCalibSem                                                 
200001c0  mpuCalibStruct                                              
0000df79  osi_TaskDisable                                             
0000e9a1  osi_start                                                   
0000e971  periodicSampleFxn                                           
20000148  pidRdySem                                                   
200001dc  pidRdyStruct                                                
00000af1  pow                                                         
00010b2c  pwmTimerMSP432HWAttrs                                       
200071b0  pwmTimerMSP432Objects                                       
0000d947  raise                                                       
2000015c  rawDataMbx                                                  
2000058a  rawDataMbxBuf                                               
200003a4  rawDataMbxStruct                                            
20000160  rcDataMbx                                                   
2000047c  rcDataMbxBuf                                                
20000410  rcDataMbxStruct                                             
00006369  rxFxn                                                       
0000c191  sampleDataFxn                                               
00000041  sensorPIDFxn                                                
0000c929  signal                                                      
0000dc9b  sinf                                                        
0000e0b1  startBlinkLED                                               
0000cb81  startSampling                                               
0000e735  strlen                                                      
00007069  tanf                                                        
20000710  task0Stack                                                  
20000264  task0Struct                                                 
20001710  task1Stack                                                  
200002b4  task1Struct                                                 
20002710  task2Stack                                                  
20000304  task2Struct                                                 
20003710  task3Stack                                                  
20000354  task3Struct                                                 
20004e9c  ti_sysbios_BIOS_Module__state__V                            
0000e229  ti_sysbios_BIOS_RtsGateProxy_Handle__label__S               
0000d999  ti_sysbios_BIOS_RtsGateProxy_Object__delete__S              
0000ef39  ti_sysbios_BIOS_RtsGateProxy_enter__E                       
0000ef41  ti_sysbios_BIOS_RtsGateProxy_leave__E                       
0000ecfd  ti_sysbios_BIOS_RtsGateProxy_query__E                       
0000d009  ti_sysbios_BIOS_atExitFunc__I                               
0000dc79  ti_sysbios_BIOS_errorRaiseHook__I                           
0000e5d1  ti_sysbios_BIOS_exitFunc__I                                 
0000e749  ti_sysbios_BIOS_exit__E                                     
0000e991  ti_sysbios_BIOS_getThreadType__E                            
0000378f  ti_sysbios_BIOS_linkedWithIncorrectBootLibrary__E           
0000ef99  ti_sysbios_BIOS_nullFunc__I                                 
0000d831  ti_sysbios_BIOS_registerRTSLock__I                          
0000db31  ti_sysbios_BIOS_removeRTSLock__I                            
0000dca1  ti_sysbios_BIOS_rtsLock__I                                  
0000e1b1  ti_sysbios_BIOS_rtsUnlock__I                                
0000e0cd  ti_sysbios_BIOS_setCpuFreq__E                               
0000db55  ti_sysbios_BIOS_setThreadType__E                            
0000cf01  ti_sysbios_BIOS_startFunc__I                                
0000e9a1  ti_sysbios_BIOS_start__E                                    
00010abc  ti_sysbios_family_arm_m3_Hwi_E_NMI__C                       
00010c64  ti_sysbios_family_arm_m3_Hwi_E_alreadyDefined__C            
000110a4  ti_sysbios_family_arm_m3_Hwi_E_busFault__C                  
000110a8  ti_sysbios_family_arm_m3_Hwi_E_debugMon__C                  
000110ac  ti_sysbios_family_arm_m3_Hwi_E_hardFault__C                 
000110b0  ti_sysbios_family_arm_m3_Hwi_E_memFault__C                  
000110b4  ti_sysbios_family_arm_m3_Hwi_E_noIsr__C                     
000110b8  ti_sysbios_family_arm_m3_Hwi_E_reserved__C                  
000110bc  ti_sysbios_family_arm_m3_Hwi_E_svCall__C                    
000110c0  ti_sysbios_family_arm_m3_Hwi_E_usageFault__C                
0000e1d1  ti_sysbios_family_arm_m3_Hwi_Handle__label__S               
0000c0bd  ti_sysbios_family_arm_m3_Hwi_Instance_finalize__E           
00008385  ti_sysbios_family_arm_m3_Hwi_Instance_init__E               
000110c4  ti_sysbios_family_arm_m3_Hwi_LD_end__C                      
000110c8  ti_sysbios_family_arm_m3_Hwi_LM_begin__C                    
20004718  ti_sysbios_family_arm_m3_Hwi_Module_State_0_excActive__A    
2000471c  ti_sysbios_family_arm_m3_Hwi_Module_State_0_excContext__A   
20004720  ti_sysbios_family_arm_m3_Hwi_Module_State_0_excStack__A     
000110cc  ti_sysbios_family_arm_m3_Hwi_Module__diagsEnabled__C        
000110d0  ti_sysbios_family_arm_m3_Hwi_Module__diagsIncluded__C       
000110d4  ti_sysbios_family_arm_m3_Hwi_Module__diagsMask__C           
00010942  ti_sysbios_family_arm_m3_Hwi_Module__id__C                  
0001101a  ti_sysbios_family_arm_m3_Hwi_Module__loggerDefined__C       
000110d8  ti_sysbios_family_arm_m3_Hwi_Module__loggerFxn1__C          
000110dc  ti_sysbios_family_arm_m3_Hwi_Module__loggerFxn8__C          
000110e0  ti_sysbios_family_arm_m3_Hwi_Module__loggerObj__C           
20004710  ti_sysbios_family_arm_m3_Hwi_Module__root__V                
0000e421  ti_sysbios_family_arm_m3_Hwi_Module__startupDone__F         
0000e421  ti_sysbios_family_arm_m3_Hwi_Module__startupDone__S         
20004d2c  ti_sysbios_family_arm_m3_Hwi_Module__state__V               
0000b0c1  ti_sysbios_family_arm_m3_Hwi_Module_startup__E              
000110e4  ti_sysbios_family_arm_m3_Hwi_NUM_INTERRUPTS__C              
00010e1c  ti_sysbios_family_arm_m3_Hwi_Object__DESC__C                
00010b8c  ti_sysbios_family_arm_m3_Hwi_Object__PARAMS__C              
000110e8  ti_sysbios_family_arm_m3_Hwi_Object__count__C               
0000deb9  ti_sysbios_family_arm_m3_Hwi_Object__destruct__S            
0000dcc9  ti_sysbios_family_arm_m3_Hwi_Object__get__S                 
20004d90  ti_sysbios_family_arm_m3_Hwi_Object__table__V               
0000e9c1  ti_sysbios_family_arm_m3_Hwi_Params__init__S                
000110ec  ti_sysbios_family_arm_m3_Hwi_ccr__C                         
0000cd45  ti_sysbios_family_arm_m3_Hwi_clearInterrupt__E              
0000b2a1  ti_sysbios_family_arm_m3_Hwi_construct                      
0000ef49  ti_sysbios_family_arm_m3_Hwi_destruct                       
0000ecc1  ti_sysbios_family_arm_m3_Hwi_disableFxn__E                  
0000a649  ti_sysbios_family_arm_m3_Hwi_disableInterrupt__E            
000064c9  ti_sysbios_family_arm_m3_Hwi_dispatchC__I                   
20006c00  ti_sysbios_family_arm_m3_Hwi_dispatchTable                  
00007c99  ti_sysbios_family_arm_m3_Hwi_dispatch__I                    
0000e9d1  ti_sysbios_family_arm_m3_Hwi_doSwiRestore__I                
0000eba7  ti_sysbios_family_arm_m3_Hwi_doTaskRestore__I               
0000aa39  ti_sysbios_family_arm_m3_Hwi_enableInterrupt__E             
00005c3d  ti_sysbios_family_arm_m3_Hwi_excBusFault__I                 
0000844d  ti_sysbios_family_arm_m3_Hwi_excDebugMon__I                 
000015d1  ti_sysbios_family_arm_m3_Hwi_excDumpRegs__I                 
00004b1d  ti_sysbios_family_arm_m3_Hwi_excFillContext__I              
0000ded9  ti_sysbios_family_arm_m3_Hwi_excHandlerAsm__I               
000110f0  ti_sysbios_family_arm_m3_Hwi_excHandlerFunc__C              
00006b75  ti_sysbios_family_arm_m3_Hwi_excHandlerMax__I               
0000cf35  ti_sysbios_family_arm_m3_Hwi_excHandler__I                  
00008025  ti_sysbios_family_arm_m3_Hwi_excHardFault__I                
00011074  ti_sysbios_family_arm_m3_Hwi_excHookFuncs__A                
000110f4  ti_sysbios_family_arm_m3_Hwi_excHookFuncs__C                
00006781  ti_sysbios_family_arm_m3_Hwi_excMemFault__I                 
0000cd7d  ti_sysbios_family_arm_m3_Hwi_excNmi__I                      
0000c965  ti_sysbios_family_arm_m3_Hwi_excNoIsr__I                    
0000bf01  ti_sysbios_family_arm_m3_Hwi_excReserved__I                 
0000c2ed  ti_sysbios_family_arm_m3_Hwi_excSvCall__I                   
000060a1  ti_sysbios_family_arm_m3_Hwi_excUsageFault__I               
0000d5b5  ti_sysbios_family_arm_m3_Hwi_getHandle__E                   
0000a561  ti_sysbios_family_arm_m3_Hwi_getStackInfo__E                
00008511  ti_sysbios_family_arm_m3_Hwi_initNVIC__E                    
0000b639  ti_sysbios_family_arm_m3_Hwi_initStacks__E                  
000110f8  ti_sysbios_family_arm_m3_Hwi_nullIsrFunc__C                 
e000e000  ti_sysbios_family_arm_m3_Hwi_nvic                           
0000d96d  ti_sysbios_family_arm_m3_Hwi_pendSV__I                      
0000d5e1  ti_sysbios_family_arm_m3_Hwi_plug__E                        
00009c8d  ti_sysbios_family_arm_m3_Hwi_postInit__I                    
000110fc  ti_sysbios_family_arm_m3_Hwi_priGroup__C                    
20000000  ti_sysbios_family_arm_m3_Hwi_ramVectors                     
00000000  ti_sysbios_family_arm_m3_Hwi_resetVectors                   
0000e9e1  ti_sysbios_family_arm_m3_Hwi_restoreFxn__E                  
0000d991  ti_sysbios_family_arm_m3_Hwi_return                         
0000c9a1  ti_sysbios_family_arm_m3_Hwi_setPriority__E                 
0000eef3  ti_sysbios_family_arm_m3_Hwi_startup__E                     
0000e439  ti_sysbios_family_arm_m3_Hwi_switchFromBootStack__E         
0000ef51  ti_sysbios_family_arm_m3_TaskSupport_Module__startupDone__S 
000097bd  ti_sysbios_family_arm_m3_TaskSupport_buildTaskStack         
0000e1eb  ti_sysbios_family_arm_m3_TaskSupport_checkStack__E          
0000eccd  ti_sysbios_family_arm_m3_TaskSupport_getStackAlignment__E   
0000e9f1  ti_sysbios_family_arm_m3_TaskSupport_glue                   
00011100  ti_sysbios_family_arm_m3_TaskSupport_stackAlignment__C      
0000acc5  ti_sysbios_family_arm_m3_TaskSupport_start__E               
0000e451  ti_sysbios_family_arm_m3_TaskSupport_swap__E                
00011104  ti_sysbios_family_arm_m3_Timer_E_cannotSupport__C           
00011108  ti_sysbios_family_arm_m3_Timer_Module__diagsEnabled__C      
0001110c  ti_sysbios_family_arm_m3_Timer_Module__diagsIncluded__C     
00011110  ti_sysbios_family_arm_m3_Timer_Module__diagsMask__C         
000110a2  ti_sysbios_family_arm_m3_Timer_Module__id__C                
20004724  ti_sysbios_family_arm_m3_Timer_Module__root__V              
2000472c  ti_sysbios_family_arm_m3_Timer_Module__state__V             
0000d2d1  ti_sysbios_family_arm_m3_Timer_Module_startup__E            
20004dc0  ti_sysbios_family_arm_m3_Timer_Object__table__V             
0000aaa5  ti_sysbios_family_arm_m3_Timer_getExpiredCounts__E          
0000af35  ti_sysbios_family_arm_m3_Timer_getHandle__E                 
0000ebb5  ti_sysbios_family_arm_m3_Timer_getPeriod__E                 
0000ecd9  ti_sysbios_family_arm_m3_Timer_getTickCount__E              
0000bf4d  ti_sysbios_family_arm_m3_Timer_initDevice__I                
0000c5fd  ti_sysbios_family_arm_m3_Timer_periodicStub__I              
0000d60d  ti_sysbios_family_arm_m3_Timer_postInit__I                  
0000b121  ti_sysbios_family_arm_m3_Timer_setPeriod__E                 
0000bd2d  ti_sysbios_family_arm_m3_Timer_start__E                     
00011114  ti_sysbios_family_arm_m3_Timer_startupNeeded__C             
0000d301  ti_sysbios_family_arm_m3_Timer_startup__E                   
0000def9  ti_sysbios_family_arm_m3_Timer_stop__E                      
20004738  ti_sysbios_family_arm_m3_TimestampProvider_Module__state__V 
0000db79  ti_sysbios_family_arm_m3_TimestampProvider_Module_startup__E
00011350  ti_sysbios_family_arm_m3_TimestampProvider_configTimer__C   
0000c9dd  ti_sysbios_family_arm_m3_TimestampProvider_get32__E         
0000ee6d  ti_sysbios_family_arm_m3_TimestampProvider_rolloverFunc__E  
0000ea01  ti_sysbios_family_arm_m3_TimestampProvider_startTimer__E    
2000473c  ti_sysbios_family_arm_msp432_ClockFreqs_Module__state__V    
0000ca19  ti_sysbios_family_arm_msp432_ClockFreqs_setFrequency__E     
20004750  ti_sysbios_family_arm_msp432_Timer_Module_State_0_device__A 
20004770  ti_sysbios_family_arm_msp432_Timer_Module_State_0_handles__A
20004748  ti_sysbios_family_arm_msp432_Timer_Module__root__V          
0000e469  ti_sysbios_family_arm_msp432_Timer_Module__startupDone__F   
0000e469  ti_sysbios_family_arm_msp432_Timer_Module__startupDone__S   
20004780  ti_sysbios_family_arm_msp432_Timer_Module__state__V         
0000b691  ti_sysbios_family_arm_msp432_Timer_Module_startup__E        
20004c18  ti_sysbios_family_arm_msp432_Timer_Object__table__V         
0000b9ed  ti_sysbios_family_arm_msp432_Timer_getCount__E              
0000e5fd  ti_sysbios_family_arm_msp432_Timer_getMaxTicks__E           
0000a6b9  ti_sysbios_family_arm_msp432_Timer_initDevice__I            
00011118  ti_sysbios_family_arm_msp432_Timer_numTimerDevices__C       
0000a119  ti_sysbios_family_arm_msp432_Timer_periodicStub__E          
0000d639  ti_sysbios_family_arm_msp432_Timer_postInit__I              
00009205  ti_sysbios_family_arm_msp432_Timer_setNextTick__E           
0000e75d  ti_sysbios_family_arm_msp432_Timer_setPeriod__E             
0000ae01  ti_sysbios_family_arm_msp432_Timer_start__E                 
0001111c  ti_sysbios_family_arm_msp432_Timer_startupNeeded__C         
0000b6e9  ti_sysbios_family_arm_msp432_Timer_startup__E               
0000c63d  ti_sysbios_family_arm_msp432_Timer_stop__E                  
0000a729  ti_sysbios_family_arm_msp432_init_Boot_configureClocksHigh  
0000ea11  ti_sysbios_family_arm_msp432_init_Boot_disableWatchdog      
0000ec09  ti_sysbios_family_arm_msp432_init_Boot_init__I              
0000e017  ti_sysbios_family_xxx_Hwi_switchAndRunFunc                  
0000e209  ti_sysbios_gates_GateHwi_Handle__label__S                   
0000ece5  ti_sysbios_gates_GateHwi_Instance_init__E                   
00010d48  ti_sysbios_gates_GateHwi_Module__FXNS__C                    
2000478c  ti_sysbios_gates_GateHwi_Module__root__V                    
00010e3c  ti_sysbios_gates_GateHwi_Object__DESC__C                    
00010fa4  ti_sysbios_gates_GateHwi_Object__PARAMS__C                  
0000d041  ti_sysbios_gates_GateHwi_Object__create__S                  
0000df19  ti_sysbios_gates_GateHwi_Object__delete__S                  
20004794  ti_sysbios_gates_GateHwi_Object__table__V                   
0000e771  ti_sysbios_gates_GateHwi_enter__E                           
0000e8b3  ti_sysbios_gates_GateHwi_leave__E                           
0000ecf1  ti_sysbios_gates_GateHwi_query__E                           
00011120  ti_sysbios_gates_GateMutex_A_badContext__C                  
0000e229  ti_sysbios_gates_GateMutex_Handle__label__S                 
00011124  ti_sysbios_gates_GateMutex_Instance_State_sem__O            
0000e499  ti_sysbios_gates_GateMutex_Instance_finalize__E             
0000db9d  ti_sysbios_gates_GateMutex_Instance_init__E                 
00010d6c  ti_sysbios_gates_GateMutex_Module__FXNS__C                  
00011128  ti_sysbios_gates_GateMutex_Module__diagsEnabled__C          
0001112c  ti_sysbios_gates_GateMutex_Module__diagsIncluded__C         
00011130  ti_sysbios_gates_GateMutex_Module__diagsMask__C             
00011352  ti_sysbios_gates_GateMutex_Module__id__C                    
20004798  ti_sysbios_gates_GateMutex_Module__root__V                  
00010e5c  ti_sysbios_gates_GateMutex_Object__DESC__C                  
00010fbc  ti_sysbios_gates_GateMutex_Object__PARAMS__C                
0000d079  ti_sysbios_gates_GateMutex_Object__create__S                
0000d999  ti_sysbios_gates_GateMutex_Object__delete__S                
20004cf4  ti_sysbios_gates_GateMutex_Object__table__V                 
00007ab5  ti_sysbios_gates_GateMutex_enter__E                         
0000df39  ti_sysbios_gates_GateMutex_leave__E                         
0000ecfd  ti_sysbios_gates_GateMutex_query__E                         
00011134  ti_sysbios_hal_Hwi_E_stackOverflow__C                       
0000e1d1  ti_sysbios_hal_Hwi_HwiProxy_Handle__label__S                
0000e421  ti_sysbios_hal_Hwi_HwiProxy_Module__startupDone__S          
0000e9c1  ti_sysbios_hal_Hwi_HwiProxy_Params__init__S                 
0000cd45  ti_sysbios_hal_Hwi_HwiProxy_clearInterrupt__E               
0000a649  ti_sysbios_hal_Hwi_HwiProxy_disableInterrupt__E             
0000ecc1  ti_sysbios_hal_Hwi_HwiProxy_disable__E                      
0000aa39  ti_sysbios_hal_Hwi_HwiProxy_enableInterrupt__E              
0000a561  ti_sysbios_hal_Hwi_HwiProxy_getStackInfo__E                 
0000e9e1  ti_sysbios_hal_Hwi_HwiProxy_restore__E                      
0000eef3  ti_sysbios_hal_Hwi_HwiProxy_startup__E                      
0000e439  ti_sysbios_hal_Hwi_HwiProxy_switchFromBootStack__E          
00011354  ti_sysbios_hal_Hwi_Module__id__C                            
200047a0  ti_sysbios_hal_Hwi_Module__root__V                          
0000e785  ti_sysbios_hal_Hwi_Module_startup__E                        
0000c331  ti_sysbios_hal_Hwi_checkStack                               
0000e799  ti_sysbios_hal_Hwi_getStackInfo__E                          
0000d3ed  ti_sysbios_hal_Hwi_initStack                                
0000eefb  ti_sysbios_hal_Hwi_startup__E                               
0000ef03  ti_sysbios_hal_Hwi_switchFromBootStack__E                   
00011138  ti_sysbios_heaps_HeapMem_A_align__C                         
0001113c  ti_sysbios_heaps_HeapMem_A_heapSize__C                      
00011140  ti_sysbios_heaps_HeapMem_A_invalidFree__C                   
00011144  ti_sysbios_heaps_HeapMem_A_zeroBlock__C                     
00011148  ti_sysbios_heaps_HeapMem_E_memory__C                        
0000e249  ti_sysbios_heaps_HeapMem_Handle__label__S                   
20005000  ti_sysbios_heaps_HeapMem_Instance_State_0_buf__A            
00004929  ti_sysbios_heaps_HeapMem_Instance_init__E                   
0000e229  ti_sysbios_heaps_HeapMem_Module_GateProxy_Handle__label__S  
0000d999  ti_sysbios_heaps_HeapMem_Module_GateProxy_Object__delete__S 
0000ef59  ti_sysbios_heaps_HeapMem_Module_GateProxy_enter__E          
0000ef61  ti_sysbios_heaps_HeapMem_Module_GateProxy_leave__E          
0000ecfd  ti_sysbios_heaps_HeapMem_Module_GateProxy_query__E          
00010c90  ti_sysbios_heaps_HeapMem_Module__FXNS__C                    
0001114c  ti_sysbios_heaps_HeapMem_Module__diagsEnabled__C            
00011150  ti_sysbios_heaps_HeapMem_Module__diagsIncluded__C           
00011154  ti_sysbios_heaps_HeapMem_Module__diagsMask__C               
00011158  ti_sysbios_heaps_HeapMem_Module__gateObj__C                 
00011356  ti_sysbios_heaps_HeapMem_Module__id__C                      
200047a8  ti_sysbios_heaps_HeapMem_Module__root__V                    
00010e7c  ti_sysbios_heaps_HeapMem_Object__DESC__C                    
00010d90  ti_sysbios_heaps_HeapMem_Object__PARAMS__C                  
0001115c  ti_sysbios_heaps_HeapMem_Object__count__C                   
0000d0b1  ti_sysbios_heaps_HeapMem_Object__create__S                  
0000df59  ti_sysbios_heaps_HeapMem_Object__delete__S                  
0000dcf1  ti_sysbios_heaps_HeapMem_Object__get__S                     
200047b0  ti_sysbios_heaps_HeapMem_Object__table__V                   
00002de9  ti_sysbios_heaps_HeapMem_alloc__E                           
000026bd  ti_sysbios_heaps_HeapMem_free__E                            
0000a799  ti_sysbios_heaps_HeapMem_getStats__E                        
0000ba41  ti_sysbios_heaps_HeapMem_init__I                            
0000ed09  ti_sysbios_heaps_HeapMem_isBlocking__E                      
00011160  ti_sysbios_heaps_HeapMem_reqAlign__C                        
0000dbc1  ti_sysbios_heaps_HeapMem_restore__E                         
00011164  ti_sysbios_knl_Clock_A_badThreadType__C                     
00011168  ti_sysbios_knl_Clock_A_clockDisabled__C                     
00008101  ti_sysbios_knl_Clock_Instance_finalize__E                   
00004ee9  ti_sysbios_knl_Clock_Instance_init__E                       
0001116c  ti_sysbios_knl_Clock_LM_begin__C                            
00011170  ti_sysbios_knl_Clock_LM_tick__C                             
00011174  ti_sysbios_knl_Clock_LW_delayed__C                          
00011178  ti_sysbios_knl_Clock_Module_State_clockQ__O                 
0001117c  ti_sysbios_knl_Clock_Module__diagsEnabled__C                
00011180  ti_sysbios_knl_Clock_Module__diagsIncluded__C               
00011184  ti_sysbios_knl_Clock_Module__diagsMask__C                   
00011358  ti_sysbios_knl_Clock_Module__id__C                          
0001135a  ti_sysbios_knl_Clock_Module__loggerDefined__C               
00011188  ti_sysbios_knl_Clock_Module__loggerFxn1__C                  
0001118c  ti_sysbios_knl_Clock_Module__loggerFxn2__C                  
00011190  ti_sysbios_knl_Clock_Module__loggerObj__C                   
200047c8  ti_sysbios_knl_Clock_Module__root__V                        
20004e20  ti_sysbios_knl_Clock_Module__state__V                       
0000dbe5  ti_sysbios_knl_Clock_Module_startup__E                      
00010e9c  ti_sysbios_knl_Clock_Object__DESC__C                        
00010db4  ti_sysbios_knl_Clock_Object__PARAMS__C                      
0000dd19  ti_sysbios_knl_Clock_Object__destruct__S                    
0000ea31  ti_sysbios_knl_Clock_Params__init__S                        
0000e469  ti_sysbios_knl_Clock_TimerProxy_Module__startupDone__S      
0000ef69  ti_sysbios_knl_Clock_TimerProxy_getMaxTicks__E              
0000b6e9  ti_sysbios_knl_Clock_TimerProxy_startup__E                  
0000c73b  ti_sysbios_knl_Clock_addI__E                                
0000cf69  ti_sysbios_knl_Clock_construct                              
0000ef71  ti_sysbios_knl_Clock_destruct                               
0000d669  ti_sysbios_knl_Clock_doTick__I                              
0000a809  ti_sysbios_knl_Clock_logTick__E                             
0000ed39  ti_sysbios_knl_Clock_removeI__E                             
0000e8c5  ti_sysbios_knl_Clock_setPeriod__E                           
0000e8d7  ti_sysbios_knl_Clock_setTimeout__E                          
0000d859  ti_sysbios_knl_Clock_startI__E                              
0000a3fd  ti_sysbios_knl_Clock_start__E                               
0000ea41  ti_sysbios_knl_Clock_stop__E                                
00011194  ti_sysbios_knl_Clock_tickPeriod__C                          
00005f31  ti_sysbios_knl_Clock_workFunc__E                            
00011198  ti_sysbios_knl_Event_A_badContext__C                        
0001119c  ti_sysbios_knl_Event_A_eventInUse__C                        
000111a0  ti_sysbios_knl_Event_A_nullEventId__C                       
000111a4  ti_sysbios_knl_Event_A_nullEventMasks__C                    
000111a8  ti_sysbios_knl_Event_A_pendTaskDisabled__C                  
000111ac  ti_sysbios_knl_Event_Instance_State_pendQ__O                
0000dd3b  ti_sysbios_knl_Event_Instance_init__E                       
000111b0  ti_sysbios_knl_Event_LM_pend__C                             
000111b4  ti_sysbios_knl_Event_LM_post__C                             
000111b8  ti_sysbios_knl_Event_Module__diagsEnabled__C                
000111bc  ti_sysbios_knl_Event_Module__diagsIncluded__C               
000111c0  ti_sysbios_knl_Event_Module__diagsMask__C                   
0001135c  ti_sysbios_knl_Event_Module__id__C                          
0001135e  ti_sysbios_knl_Event_Module__loggerDefined__C               
000111c4  ti_sysbios_knl_Event_Module__loggerFxn4__C                  
000111c8  ti_sysbios_knl_Event_Module__loggerFxn8__C                  
000111cc  ti_sysbios_knl_Event_Module__loggerObj__C                   
200047d0  ti_sysbios_knl_Event_Module__root__V                        
00010ebc  ti_sysbios_knl_Event_Object__DESC__C                        
00010fd4  ti_sysbios_knl_Event_Object__PARAMS__C                      
0000c779  ti_sysbios_knl_Event_checkEvents__I                         
0000d421  ti_sysbios_knl_Event_construct                              
0000c7b7  ti_sysbios_knl_Event_pendTimeout__I                         
00001ecd  ti_sysbios_knl_Event_pend__E                                
000055d9  ti_sysbios_knl_Event_post__E                                
0001107c  ti_sysbios_knl_Idle_funcList__A                             
00011084  ti_sysbios_knl_Idle_funcList__C                             
0000ed45  ti_sysbios_knl_Idle_loop__E                                 
0000d331  ti_sysbios_knl_Idle_run__E                                  
000111d0  ti_sysbios_knl_Mailbox_A_invalidBufSize__C                  
000111d4  ti_sysbios_knl_Mailbox_Instance_State_dataQue__O            
000111d8  ti_sysbios_knl_Mailbox_Instance_State_dataSem__O            
000111dc  ti_sysbios_knl_Mailbox_Instance_State_freeQue__O            
000111e0  ti_sysbios_knl_Mailbox_Instance_State_freeSem__O            
00009581  ti_sysbios_knl_Mailbox_Instance_finalize__E                 
000050ad  ti_sysbios_knl_Mailbox_Instance_init__E                     
000111e4  ti_sysbios_knl_Mailbox_Module__diagsEnabled__C              
000111e8  ti_sysbios_knl_Mailbox_Module__diagsIncluded__C             
000111ec  ti_sysbios_knl_Mailbox_Module__diagsMask__C                 
00011360  ti_sysbios_knl_Mailbox_Module__id__C                        
200047d8  ti_sysbios_knl_Mailbox_Module__root__V                      
0000a879  ti_sysbios_knl_Mailbox_Module_startup__E                    
00010edc  ti_sysbios_knl_Mailbox_Object__DESC__C                      
00010af8  ti_sysbios_knl_Mailbox_Object__PARAMS__C                    
000111f0  ti_sysbios_knl_Mailbox_Object__count__C                     
0000ea51  ti_sysbios_knl_Mailbox_Object__get__S                       
0000ea71  ti_sysbios_knl_Mailbox_Params__init__S                      
0000b301  ti_sysbios_knl_Mailbox_construct                            
0000e7c1  ti_sysbios_knl_Mailbox_getNumPendingMsgs__E                 
000111f4  ti_sysbios_knl_Mailbox_maxTypeAlign__C                      
00009fa1  ti_sysbios_knl_Mailbox_pend__E                              
0000b741  ti_sysbios_knl_Mailbox_postInit__I                          
00009611  ti_sysbios_knl_Mailbox_post__E                              
0000e613  ti_sysbios_knl_Queue_Instance_init__E                       
200047e0  ti_sysbios_knl_Queue_Module__root__V                        
00010efc  ti_sysbios_knl_Queue_Object__DESC__C                        
00010fec  ti_sysbios_knl_Queue_Object__PARAMS__C                      
0000e0e9  ti_sysbios_knl_Queue_Object__destruct__S                    
0000ed51  ti_sysbios_knl_Queue_Object__get__S                         
0000d451  ti_sysbios_knl_Queue_construct                              
0000dc09  ti_sysbios_knl_Queue_dequeue__E                             
0000ef79  ti_sysbios_knl_Queue_destruct                               
0000e7d5  ti_sysbios_knl_Queue_elemClear__E                           
0000e529  ti_sysbios_knl_Queue_empty__E                               
0000d715  ti_sysbios_knl_Queue_enqueue__E                             
0000cf9d  ti_sysbios_knl_Queue_get__E                                 
0000ebc3  ti_sysbios_knl_Queue_head__E                                
0000ebd1  ti_sysbios_knl_Queue_next__E                                
0000cbbb  ti_sysbios_knl_Queue_put__E                                 
0000e035  ti_sysbios_knl_Queue_remove__E                              
000111f8  ti_sysbios_knl_Semaphore_A_badContext__C                    
000111fc  ti_sysbios_knl_Semaphore_A_noEvents__C                      
00011200  ti_sysbios_knl_Semaphore_A_overflow__C                      
00011204  ti_sysbios_knl_Semaphore_A_pendTaskDisabled__C              
00011208  ti_sysbios_knl_Semaphore_Instance_State_pendQ__O            
0000e263  ti_sysbios_knl_Semaphore_Instance_finalize__E               
000077dd  ti_sysbios_knl_Semaphore_Instance_init__E                   
0001120c  ti_sysbios_knl_Semaphore_LM_pend__C                         
00011210  ti_sysbios_knl_Semaphore_LM_post__C                         
00011214  ti_sysbios_knl_Semaphore_Module__diagsEnabled__C            
00011218  ti_sysbios_knl_Semaphore_Module__diagsIncluded__C           
0001121c  ti_sysbios_knl_Semaphore_Module__diagsMask__C               
00011362  ti_sysbios_knl_Semaphore_Module__id__C                      
00011364  ti_sysbios_knl_Semaphore_Module__loggerDefined__C           
00011220  ti_sysbios_knl_Semaphore_Module__loggerFxn2__C              
00011224  ti_sysbios_knl_Semaphore_Module__loggerFxn4__C              
00011228  ti_sysbios_knl_Semaphore_Module__loggerObj__C               
200047e8  ti_sysbios_knl_Semaphore_Module__root__V                    
00010f1c  ti_sysbios_knl_Semaphore_Object__DESC__C                    
00010dd8  ti_sysbios_knl_Semaphore_Object__PARAMS__C                  
0000dd61  ti_sysbios_knl_Semaphore_Object__destruct__S                
0000ea91  ti_sysbios_knl_Semaphore_Params__init__S                    
0000d0e9  ti_sysbios_knl_Semaphore_construct                          
0000ef81  ti_sysbios_knl_Semaphore_destruct                           
0000c7f5  ti_sysbios_knl_Semaphore_pendTimeout__I                     
00002a75  ti_sysbios_knl_Semaphore_pend__E                            
0000591d  ti_sysbios_knl_Semaphore_post__E                            
0000e281  ti_sysbios_knl_Swi_Handle__label__S                         
0001122c  ti_sysbios_knl_Swi_LD_end__C                                
00011230  ti_sysbios_knl_Swi_LM_begin__C                              
00011234  ti_sysbios_knl_Swi_LM_post__C                               
20004ab0  ti_sysbios_knl_Swi_Module_State_0_readyQ__A                 
00011238  ti_sysbios_knl_Swi_Module__diagsEnabled__C                  
0001123c  ti_sysbios_knl_Swi_Module__diagsIncluded__C                 
00011240  ti_sysbios_knl_Swi_Module__diagsMask__C                     
00011366  ti_sysbios_knl_Swi_Module__id__C                            
00011368  ti_sysbios_knl_Swi_Module__loggerDefined__C                 
00011244  ti_sysbios_knl_Swi_Module__loggerFxn1__C                    
00011248  ti_sysbios_knl_Swi_Module__loggerFxn4__C                    
0001124c  ti_sysbios_knl_Swi_Module__loggerObj__C                     
200047f0  ti_sysbios_knl_Swi_Module__root__V                          
200047f8  ti_sysbios_knl_Swi_Module__state__V                         
0000a8e9  ti_sysbios_knl_Swi_Module_startup__E                        
00011250  ti_sysbios_knl_Swi_Object__count__C                         
0000dd89  ti_sysbios_knl_Swi_Object__get__S                           
20004df0  ti_sysbios_knl_Swi_Object__table__V                         
0000e105  ti_sysbios_knl_Swi_disable__E                               
0000eab1  ti_sysbios_knl_Swi_enabled__E                               
00011254  ti_sysbios_knl_Swi_numConstructedSwis__C                    
0000ebdf  ti_sysbios_knl_Swi_postInit__I                              
000082b9  ti_sysbios_knl_Swi_post__E                                  
000090c9  ti_sysbios_knl_Swi_restoreHwi__E                            
0000c67d  ti_sysbios_knl_Swi_restore__E                               
0000ab11  ti_sysbios_knl_Swi_runLoop__I                               
00006a29  ti_sysbios_knl_Swi_run__I                                   
0000a959  ti_sysbios_knl_Swi_schedule__I                              
0000ed99  ti_sysbios_knl_Swi_self__E                                  
0000ee77  ti_sysbios_knl_Swi_startup__E                               
00011258  ti_sysbios_knl_Task_A_badPriority__C                        
0001125c  ti_sysbios_knl_Task_A_badTaskState__C                       
00011260  ti_sysbios_knl_Task_A_badThreadType__C                      
00011264  ti_sysbios_knl_Task_A_badTimeout__C                         
00011268  ti_sysbios_knl_Task_A_noPendElem__C                         
0001126c  ti_sysbios_knl_Task_A_sleepTaskDisabled__C                  
00011270  ti_sysbios_knl_Task_A_taskDisabled__C                       
00011274  ti_sysbios_knl_Task_E_spOutOfBounds__C                      
00011278  ti_sysbios_knl_Task_E_stackOverflow__C                      
0000e2a1  ti_sysbios_knl_Task_Handle__label__S                        
20006800  ti_sysbios_knl_Task_Instance_State_0_stack__A               
00003a8d  ti_sysbios_knl_Task_Instance_finalize__E                    
00003141  ti_sysbios_knl_Task_Instance_init__E                        
0001127c  ti_sysbios_knl_Task_LD_block__C                             
00011280  ti_sysbios_knl_Task_LD_exit__C                              
00011284  ti_sysbios_knl_Task_LD_ready__C                             
00011288  ti_sysbios_knl_Task_LM_sleep__C                             
0001128c  ti_sysbios_knl_Task_LM_switch__C                            
2000481c  ti_sysbios_knl_Task_Module_State_0_idleTask__A              
20004b30  ti_sysbios_knl_Task_Module_State_0_readyQ__A                
00011290  ti_sysbios_knl_Task_Module_State_inactiveQ__O               
00011294  ti_sysbios_knl_Task_Module__diagsEnabled__C                 
00011298  ti_sysbios_knl_Task_Module__diagsIncluded__C                
0001129c  ti_sysbios_knl_Task_Module__diagsMask__C                    
0001136a  ti_sysbios_knl_Task_Module__id__C                           
0001136c  ti_sysbios_knl_Task_Module__loggerDefined__C                
000112a0  ti_sysbios_knl_Task_Module__loggerFxn2__C                   
000112a4  ti_sysbios_knl_Task_Module__loggerFxn4__C                   
000112a8  ti_sysbios_knl_Task_Module__loggerObj__C                    
20004814  ti_sysbios_knl_Task_Module__root__V                         
20004cb0  ti_sysbios_knl_Task_Module__state__V                        
00009f21  ti_sysbios_knl_Task_Module_startup__E                       
00010f3c  ti_sysbios_knl_Task_Object__DESC__C                         
00010a80  ti_sysbios_knl_Task_Object__PARAMS__C                       
000112ac  ti_sysbios_knl_Task_Object__count__C                        
0000e121  ti_sysbios_knl_Task_Object__get__S                          
20004c64  ti_sysbios_knl_Task_Object__table__V                        
0000ead1  ti_sysbios_knl_Task_Params__init__S                         
0000ef51  ti_sysbios_knl_Task_SupportProxy_Module__startupDone__S     
0000e1eb  ti_sysbios_knl_Task_SupportProxy_checkStack__E              
0000eccd  ti_sysbios_knl_Task_SupportProxy_getStackAlignment__E       
0000acc5  ti_sysbios_knl_Task_SupportProxy_start__E                   
0000e451  ti_sysbios_knl_Task_SupportProxy_swap__E                    
000112b0  ti_sysbios_knl_Task_allBlockedFunc__C                       
0000b35d  ti_sysbios_knl_Task_allBlockedFunction__I                   
00008759  ti_sysbios_knl_Task_blockI__E                               
000078d1  ti_sysbios_knl_Task_checkStacks__E                          
0000b7f1  ti_sysbios_knl_Task_construct                               
000112b4  ti_sysbios_knl_Task_defaultStackHeap__C                     
000112b8  ti_sysbios_knl_Task_defaultStackSize__C                     
0000df79  ti_sysbios_knl_Task_disable__E                              
0000e13d  ti_sysbios_knl_Task_enabled__E                              
0000df99  ti_sysbios_knl_Task_enter__I                                
00008ba1  ti_sysbios_knl_Task_exit__E                                 
0000d47f  ti_sysbios_knl_Task_getMode__E                              
000112bc  ti_sysbios_knl_Task_numConstructedTasks__C                  
00008cfd  ti_sysbios_knl_Task_postInit__I                             
0000ca55  ti_sysbios_knl_Task_processVitalTaskFlag__I                 
0000dc2d  ti_sysbios_knl_Task_restoreHwi__E                           
0000d361  ti_sysbios_knl_Task_restore__E                              
000076e5  ti_sysbios_knl_Task_schedule__I                             
0000edb1  ti_sysbios_knl_Task_self__E                                 
0000d73f  ti_sysbios_knl_Task_sleepTimeout__I                         
000044ed  ti_sysbios_knl_Task_sleep__E                                
000075e9  ti_sysbios_knl_Task_startCore__E                            
0000ee81  ti_sysbios_knl_Task_startup__E                              
0000e45d  ti_sysbios_knl_Task_swapReturn                              
00008819  ti_sysbios_knl_Task_unblockI__E                             
0000dfb9  ti_sysbios_knl_Task_unblock__E                              
00010944  uartMSP432Baudrates                                         
000109fc  uartMSP432HWAttrs                                           
20006e60  uartMSP432Objects                                           
20006f60  uartMSP432RingBuffer                                        
00010cb8  udmaMSP432HWAttrs                                           
200071e0  udmaMSP432Object                                            
000112c0  xdc_runtime_Assert_E_assertFailed__C                        
0000af99  xdc_runtime_Assert_raise__I                                 
000112c4  xdc_runtime_Core_A_initializedParams__C                     
000112c8  xdc_runtime_Core_Module__diagsEnabled__C                    
000112cc  xdc_runtime_Core_Module__diagsIncluded__C                   
000112d0  xdc_runtime_Core_Module__diagsMask__C                       
0001136e  xdc_runtime_Core_Module__id__C                              
0000b799  xdc_runtime_Core_assignLabel__I                             
00009e9d  xdc_runtime_Core_assignParams__I                            
00006df9  xdc_runtime_Core_constructObject__I                         
00005aad  xdc_runtime_Core_createObject__I                            
0000a01f  xdc_runtime_Core_deleteObject__I                            
000112d4  xdc_runtime_Error_E_memory__C                               
000112d8  xdc_runtime_Error_Module__diagsEnabled__C                   
000112dc  xdc_runtime_Error_Module__diagsIncluded__C                  
000112e0  xdc_runtime_Error_Module__diagsMask__C                      
00011370  xdc_runtime_Error_Module__loggerDefined__C                  
000112e4  xdc_runtime_Error_Module__loggerFxn8__C                     
000112e8  xdc_runtime_Error_Module__loggerObj__C                      
20004820  xdc_runtime_Error_Module__state__V                          
0000d881  xdc_runtime_Error_check__E                                  
0000ebed  xdc_runtime_Error_getSite__E                                
0000e7fd  xdc_runtime_Error_init__E                                   
00011372  xdc_runtime_Error_maxDepth__C                               
000068d5  xdc_runtime_Error_policyDefault__E                          
000112ec  xdc_runtime_Error_policyFxn__C                              
00010875  xdc_runtime_Error_policy__C                                 
0000a195  xdc_runtime_Error_print__E                                  
000112f0  xdc_runtime_Error_raiseHook__C                              
0000cdb5  xdc_runtime_Error_raiseX__E                                 
0000b3b9  xdc_runtime_Error_setX__E                                   
0000eae1  xdc_runtime_Gate_enterSystem__E                             
0000e811  xdc_runtime_Gate_leaveSystem__E                             
000112f4  xdc_runtime_IGateProvider_Interface__BASE__C                
000112f8  xdc_runtime_IHeap_Interface__BASE__C                        
000112fc  xdc_runtime_IModule_Interface__BASE__C                      
00011300  xdc_runtime_Log_L_error__C                                  
0000e209  xdc_runtime_Main_Module_GateProxy_Handle__label__S          
0000df19  xdc_runtime_Main_Module_GateProxy_Object__delete__S         
0000ecf1  xdc_runtime_Main_Module_GateProxy_query__E                  
0000e249  xdc_runtime_Memory_HeapProxy_Handle__label__S               
0000df59  xdc_runtime_Memory_HeapProxy_Object__delete__S              
0000ee91  xdc_runtime_Memory_HeapProxy_alloc__E                       
0000eea1  xdc_runtime_Memory_HeapProxy_free__E                        
00011374  xdc_runtime_Memory_Module__id__C                            
20004824  xdc_runtime_Memory_Module__state__V                         
0000a211  xdc_runtime_Memory_alloc__E                                 
0000ddab  xdc_runtime_Memory_calloc__E                                
00011304  xdc_runtime_Memory_defaultHeapInstance__C                   
0000dc51  xdc_runtime_Memory_free__E                                  
0000edc9  xdc_runtime_Memory_getMaxDefaultTypeAlign__E                
0000cfd1  xdc_runtime_Memory_valloc__E                                
20004828  xdc_runtime_Registry_Module__state__V                       
0000cded  xdc_runtime_Registry_findById__E                            
20004830  xdc_runtime_Startup_Module__state__V                        
00000001  xdc_runtime_Startup__EXECFXN__C                             
00000001  xdc_runtime_Startup__RESETFXN__C                            
00011308  xdc_runtime_Startup_execImpl__C                             
0000a5d5  xdc_runtime_Startup_exec__E                                 
0000e8e9  xdc_runtime_Startup_exec__I                                 
00011068  xdc_runtime_Startup_firstFxns__A                            
0001108c  xdc_runtime_Startup_firstFxns__C                            
0001130c  xdc_runtime_Startup_lastFxns__A                             
00011094  xdc_runtime_Startup_lastFxns__C                             
00011310  xdc_runtime_Startup_maxPasses__C                            
0000ec09  xdc_runtime_Startup_reset__I                                
0000edd5  xdc_runtime_Startup_rtsDone__E                              
00011004  xdc_runtime_Startup_sfxnRts__A                              
00011314  xdc_runtime_Startup_sfxnRts__C                              
00010be8  xdc_runtime_Startup_sfxnTab__A                              
00011318  xdc_runtime_Startup_sfxnTab__C                              
00006625  xdc_runtime_Startup_startMods__I                            
20006000  xdc_runtime_SysMin_Module_State_0_outbuf__A                 
20004838  xdc_runtime_SysMin_Module__state__V                         
0000d8a9  xdc_runtime_SysMin_Module_startup__E                        
0000ca91  xdc_runtime_SysMin_abort__E                                 
0001131c  xdc_runtime_SysMin_bufSize__C                               
0000dfd9  xdc_runtime_SysMin_exit__E                                  
00011376  xdc_runtime_SysMin_flushAtExit__C                           
0000b415  xdc_runtime_SysMin_flush__E                                 
00011320  xdc_runtime_SysMin_outputFunc__C                            
0000ddd1  xdc_runtime_SysMin_output__I                                
0000bf99  xdc_runtime_SysMin_putch__E                                 
0000eaf1  xdc_runtime_SysMin_ready__E                                 
0000e209  xdc_runtime_System_Module_GateProxy_Handle__label__S        
0000df19  xdc_runtime_System_Module_GateProxy_Object__delete__S       
0000ef89  xdc_runtime_System_Module_GateProxy_enter__E                
0000ef91  xdc_runtime_System_Module_GateProxy_leave__E                
0000ecf1  xdc_runtime_System_Module_GateProxy_query__E                
20004844  xdc_runtime_System_Module_State_0_atexitHandlers__A         
00011324  xdc_runtime_System_Module__gateObj__C                       
2000484c  xdc_runtime_System_Module__state__V                         
0000ebfb  xdc_runtime_System_Module_startup__E                        
0000ca91  xdc_runtime_System_SupportProxy_abort__E                    
0000dfd9  xdc_runtime_System_SupportProxy_exit__E                     
0000b415  xdc_runtime_System_SupportProxy_flush__E                    
0000bf99  xdc_runtime_System_SupportProxy_putch__E                    
0000eaf1  xdc_runtime_System_SupportProxy_ready__E                    
00011328  xdc_runtime_System_abortFxn__C                              
0000ef13  xdc_runtime_System_abortStd__E                              
0000e159  xdc_runtime_System_abort__E                                 
0000e2c1  xdc_runtime_System_aprintf__E                               
0000eb01  xdc_runtime_System_aprintf_va__F                            
0000bd7d  xdc_runtime_System_atexit__E                                
0000d9bf  xdc_runtime_System_avprintf__E                              
00001089  xdc_runtime_System_doPrint__I                               
0001132c  xdc_runtime_System_exitFxn__C                               
0000ede1  xdc_runtime_System_exitStd__E                               
0000e175  xdc_runtime_System_exit__E                                  
00011330  xdc_runtime_System_extendFxn__C                             
0000ef1b  xdc_runtime_System_flush__E                                 
000088d9  xdc_runtime_System_formatNum__I                             
00011334  xdc_runtime_System_maxAtexitHandlers__C                     
00003d71  xdc_runtime_System_printfExtend__I                          
0000e2e1  xdc_runtime_System_printf__E                                
0000eb11  xdc_runtime_System_printf_va__F                             
0000cacd  xdc_runtime_System_processAtExit__E                         
0000c6bd  xdc_runtime_System_putchar__I                               
0000d9e5  xdc_runtime_System_vprintf__E                               
0000ddf3  xdc_runtime_System_vsnprintf__E                             
20004854  xdc_runtime_Text_Module__state__V                           
00011378  xdc_runtime_Text_charCnt__C                                 
0000efa0  xdc_runtime_Text_charTab__A                                 
00011338  xdc_runtime_Text_charTab__C                                 
0000c375  xdc_runtime_Text_cordText__E                                
0001137a  xdc_runtime_Text_isLoaded__C                                
0001133c  xdc_runtime_Text_nameEmpty__C                               
00011340  xdc_runtime_Text_nameStatic__C                              
00011344  xdc_runtime_Text_nameUnknown__C                             
00010876  xdc_runtime_Text_nodeTab__A                                 
00011348  xdc_runtime_Text_nodeTab__C                                 
0000ba95  xdc_runtime_Text_printVisFxn__I                             
00009849  xdc_runtime_Text_putLab__E                                  
000085d5  xdc_runtime_Text_putMod__E                                  
000081dd  xdc_runtime_Text_putSite__E                                 
0001137c  xdc_runtime_Text_registryModsLastId__C                      
0000d8d1  xdc_runtime_Text_ropeText__E                                
0001137e  xdc_runtime_Text_unnamedModsLastId__C                       
000096a1  xdc_runtime_Text_visitRope2__I                              
0001134c  xdc_runtime_Text_visitRopeFxn__C                            
0000eb21  xdc_runtime_Text_visitRope__I                               
0000b181  xdc_runtime_Text_xprintf__I                                 
0000c9dd  xdc_runtime_Timestamp_SupportProxy_get32__E                 
0000ef23  xdc_runtime_Timestamp_get32__E                              


GLOBAL SYMBOLS: SORTED BY Symbol Address 

address   name                                                        
-------   ----                                                        
00000000  __ASM__                                                     
00000000  ti_sysbios_family_arm_m3_Hwi_resetVectors                   
00000001  xdc_runtime_Startup__EXECFXN__C                             
00000001  xdc_runtime_Startup__RESETFXN__C                            
00000041  sensorPIDFxn                                                
0000005b  __ISA__                                                     
0000006e  __PLAT__                                                    
00000091  __TARG__                                                    
000000b7  __TRDR__                                                    
00000aef  PowerMSP432_initPolicy                                      
00000af1  pow                                                         
00001000  __STACK_SIZE                                                
00001089  xdc_runtime_System_doPrint__I                               
000015d1  ti_sysbios_family_arm_m3_Hwi_excDumpRegs__I                 
00001a75  fmodf                                                       
00001ecb  __aeabi_idiv0                                               
00001ecd  ti_sysbios_knl_Event_pend__E                                
000022f9  _Exp                                                        
000026bd  ti_sysbios_heaps_HeapMem_free__E                            
00002a75  ti_sysbios_knl_Semaphore_pend__E                            
00002de9  ti_sysbios_heaps_HeapMem_alloc__E                           
00003141  ti_sysbios_knl_Task_Instance_init__E                        
0000346d  CPU_wfi                                                     
00003471  main                                                        
0000378f  ti_sysbios_BIOS_linkedWithIncorrectBootLibrary__E           
00003791  calibrateSystemFxn                                          
00003a8d  ti_sysbios_knl_Task_Instance_finalize__E                    
00003d71  xdc_runtime_System_printfExtend__I                          
00004029  Power_sleep                                                 
0000428d  UARTMSP432_open                                             
000044ed  ti_sysbios_knl_Task_sleep__E                                
00004735  __aeabi_uldivmod                                            
00004929  ti_sysbios_heaps_HeapMem_Instance_init__E                   
00004b1d  ti_sysbios_family_arm_m3_Hwi_excFillContext__I              
00004d05  _Log                                                        
00004ee9  ti_sysbios_knl_Clock_Instance_init__E                       
000050ad  ti_sysbios_knl_Mailbox_Instance_init__E                     
00005269  atan2f                                                      
00005421  __aeabi_dsub                                                
0000542b  __aeabi_dadd                                                
000055d9  ti_sysbios_knl_Event_post__E                                
0000591d  ti_sysbios_knl_Semaphore_post__E                            
00005aad  xdc_runtime_Core_createObject__I                            
00005c3d  ti_sysbios_family_arm_m3_Hwi_excBusFault__I                 
00005db9  I2CMSP432_open                                              
00005f31  ti_sysbios_knl_Clock_workFunc__E                            
000060a1  ti_sysbios_family_arm_m3_Hwi_excUsageFault__I               
00006209  _FSin                                                       
00006369  rxFxn                                                       
000064c9  ti_sysbios_family_arm_m3_Hwi_dispatchC__I                   
00006625  xdc_runtime_Startup_startMods__I                            
00006781  ti_sysbios_family_arm_m3_Hwi_excMemFault__I                 
000068d5  xdc_runtime_Error_policyDefault__E                          
00006a29  ti_sysbios_knl_Swi_run__I                                   
00006b75  ti_sysbios_family_arm_m3_Hwi_excHandlerMax__I               
00006cb9  GPIO_setConfig                                              
00006df9  xdc_runtime_Core_constructObject__I                         
00006f31  __aeabi_ddiv                                                
00007069  tanf                                                        
0000719d  atanf                                                       
000072b9  _Dunscale                                                   
000073d3  I2CMSP432_hwiIntFxn                                         
000074eb  __aeabi_dmul                                                
000075e9  ti_sysbios_knl_Task_startCore__E                            
000076e5  ti_sysbios_knl_Task_schedule__I                             
000077dd  ti_sysbios_knl_Semaphore_Instance_init__E                   
000078d1  ti_sysbios_knl_Task_checkStacks__E                          
00007ab5  ti_sysbios_gates_GateMutex_enter__E                         
00007ba5  HwiP_disable                                                
00007ba9  getPID                                                      
00007c99  ti_sysbios_family_arm_m3_Hwi_dispatch__I                    
00007e69  CS_initClockSignal                                          
00008025  ti_sysbios_family_arm_m3_Hwi_excHardFault__I                
00008101  ti_sysbios_knl_Clock_Instance_finalize__E                   
000081dd  xdc_runtime_Text_putSite__E                                 
000082b9  ti_sysbios_knl_Swi_post__E                                  
00008385  ti_sysbios_family_arm_m3_Hwi_Instance_init__E               
0000844d  ti_sysbios_family_arm_m3_Hwi_excDebugMon__I                 
00008511  ti_sysbios_family_arm_m3_Hwi_initNVIC__E                    
000085d5  xdc_runtime_Text_putMod__E                                  
00008699  _Dint                                                       
00008759  ti_sysbios_knl_Task_blockI__E                               
00008819  ti_sysbios_knl_Task_unblockI__E                             
000088d9  xdc_runtime_System_formatNum__I                             
00008a41  UARTMSP432_readPolling                                      
00008ba1  ti_sysbios_knl_Task_exit__E                                 
00008c51  PWMTimerMSP432_open                                         
00008cfd  ti_sysbios_knl_Task_postInit__I                             
00008da9  UARTMSP432_control                                          
00008e4d  __TI_auto_init                                              
00008eed  I2C_setSlaveAddress                                         
00008ef1  initSensors                                                 
0000902d  __aeabi_memcpy                                              
0000902d  __aeabi_memcpy4                                             
0000902d  __aeabi_memcpy8                                             
0000902d  memcpy                                                      
000090c9  ti_sysbios_knl_Swi_restoreHwi__E                            
00009165  List_head                                                   
00009205  ti_sysbios_family_arm_msp432_Timer_setNextTick__E           
0000929d  List_next                                                   
000092a1  SensorMpu9250_reset                                         
00009335  UART_initModule                                             
000093c9  I2CMSP432_cancel                                            
0000945b  PWMTimerMSP432_setPeriod                                    
000094ed  PowerMSP432_getNumPerfLevels                                
000094f1  getMagnitude                                                
00009581  ti_sysbios_knl_Mailbox_Instance_finalize__E                 
00009611  ti_sysbios_knl_Mailbox_post__E                              
000096a1  xdc_runtime_Text_visitRope2__I                              
00009731  I2CMSP432_transfer                                          
000097bd  ti_sysbios_family_arm_m3_TaskSupport_buildTaskStack         
00009849  xdc_runtime_Text_putLab__E                                  
000098d9  SensorMpu9250_irqPinConfig                                  
00009963  UARTMSP432_close                                            
000099f1  SensorMpu9250_gyroSetDLPF                                   
00009a79  __aeabi_cdcmpeq                                             
00009a79  __aeabi_cdcmple                                             
00009aff  __aeabi_cdrcmple                                            
00009b85  PWMTimerMSP432_setDuty                                      
00009c8d  ti_sysbios_family_arm_m3_Hwi_postInit__I                    
00009d99  SensorMpu9250_test                                          
00009e9d  xdc_runtime_Core_assignParams__I                            
00009f21  ti_sysbios_knl_Task_Module_startup__E                       
00009fa1  ti_sysbios_knl_Mailbox_pend__E                              
0000a01f  xdc_runtime_Core_deleteObject__I                            
0000a09d  PCM_gotoLPM3                                                
0000a119  ti_sysbios_family_arm_msp432_Timer_periodicStub__E          
0000a195  xdc_runtime_Error_print__E                                  
0000a211  xdc_runtime_Memory_alloc__E                                 
0000a28d  UARTMSP432_write                                            
0000a381  __aeabi_memclr                                              
0000a381  __aeabi_memclr4                                             
0000a381  __aeabi_memclr8                                             
0000a383  __aeabi_memset                                              
0000a383  __aeabi_memset4                                             
0000a383  __aeabi_memset8                                             
0000a389  memset                                                      
0000a3fd  ti_sysbios_knl_Clock_start__E                               
0000a479  SensorI2C_select                                            
0000a561  ti_sysbios_family_arm_m3_Hwi_getStackInfo__E                
0000a561  ti_sysbios_hal_Hwi_HwiProxy_getStackInfo__E                 
0000a5d5  xdc_runtime_Startup_exec__E                                 
0000a649  ti_sysbios_family_arm_m3_Hwi_disableInterrupt__E            
0000a649  ti_sysbios_hal_Hwi_HwiProxy_disableInterrupt__E             
0000a6b9  ti_sysbios_family_arm_msp432_Timer_initDevice__I            
0000a729  ti_sysbios_family_arm_msp432_init_Boot_configureClocksHigh  
0000a799  ti_sysbios_heaps_HeapMem_getStats__E                        
0000a809  ti_sysbios_knl_Clock_logTick__E                             
0000a879  ti_sysbios_knl_Mailbox_Module_startup__E                    
0000a8e9  ti_sysbios_knl_Swi_Module_startup__E                        
0000a959  ti_sysbios_knl_Swi_schedule__I                              
0000a9c9  __aeabi_d2f                                                 
0000aa39  ti_sysbios_family_arm_m3_Hwi_enableInterrupt__E             
0000aa39  ti_sysbios_hal_Hwi_HwiProxy_enableInterrupt__E              
0000aaa5  ti_sysbios_family_arm_m3_Timer_getExpiredCounts__E          
0000ab11  ti_sysbios_knl_Swi_runLoop__I                               
0000ab81  SensorMpu9250_accSetRange                                   
0000abeb  I2CMSP432_control                                           
0000abf1  SensorMpu9250_gyroSetRange                                  
0000acc5  ti_sysbios_family_arm_m3_TaskSupport_start__E               
0000acc5  ti_sysbios_knl_Task_SupportProxy_start__E                   
0000ad99  __TI_writemsg                                               
0000adc7  C$$IO$$                                                     
0000adcb  __TI_readmsg                                                
0000ae01  ti_sysbios_family_arm_msp432_Timer_start__E                 
0000ae69  I2CMSP432_close                                             
0000aecf  UARTMSP432_writePolling                                     
0000af35  ti_sysbios_family_arm_m3_Timer_getHandle__E                 
0000af99  xdc_runtime_Assert_raise__I                                 
0000affd  HwiP_create                                                 
0000b061  SensorI2C_open                                              
0000b0c1  ti_sysbios_family_arm_m3_Hwi_Module_startup__E              
0000b121  ti_sysbios_family_arm_m3_Timer_setPeriod__E                 
0000b181  xdc_runtime_Text_xprintf__I                                 
0000b1e1  GPIO_init                                                   
0000b241  SensorI2C_writeReg                                          
0000b2a1  ti_sysbios_family_arm_m3_Hwi_construct                      
0000b301  ti_sysbios_knl_Mailbox_construct                            
0000b35d  ti_sysbios_knl_Task_allBlockedFunction__I                   
0000b3b9  xdc_runtime_Error_setX__E                                   
0000b415  xdc_runtime_SysMin_flush__E                                 
0000b415  xdc_runtime_System_SupportProxy_flush__E                    
0000b471  ClockP_create                                               
0000b4cb  I2C_getEnabledInterruptStatus                               
0000b52b  SemaphoreP_create                                           
0000b585  _c_int00                                                    
0000b639  ti_sysbios_family_arm_m3_Hwi_initStacks__E                  
0000b691  ti_sysbios_family_arm_msp432_Timer_Module_startup__E        
0000b6e9  ti_sysbios_family_arm_msp432_Timer_startup__E               
0000b6e9  ti_sysbios_knl_Clock_TimerProxy_startup__E                  
0000b741  ti_sysbios_knl_Mailbox_postInit__I                          
0000b799  xdc_runtime_Core_assignLabel__I                             
0000b7f1  ti_sysbios_knl_Task_construct                               
0000b849  GPIO_hwiIntFxn                                              
0000b89d  GPIO_setCallback                                            
0000b8f1  PWMTimerMSP432_stop                                         
0000b999  HOSTwrite                                                   
0000b9ed  ti_sysbios_family_arm_msp432_Timer_getCount__E              
0000ba41  ti_sysbios_heaps_HeapMem_init__I                            
0000ba95  xdc_runtime_Text_printVisFxn__I                             
0000bae9  SensorMpu9250_accRead                                       
0000bb3b  I2C_getInterruptStatus                                      
0000bb41  SensorMpu9250_gyroRead                                      
0000bb93  I2C_masterReceiveMultiByteNext                              
0000bb99  SensorMpu9250_irqConfig                                     
0000bbeb  UARTMSP432_writeCancel                                      
0000bc3d  GPIO_write                                                  
0000bc8d  PCM_shutdownDevice                                          
0000bcdd  PWMTimerMSP432_close                                        
0000bd2d  ti_sysbios_family_arm_m3_Timer_start__E                     
0000bd7d  xdc_runtime_System_atexit__E                                
0000bdcd  GPIO_setAsPeripheralModuleFunctionOutputPin                 
0000be19  SensorMpu9250_accReadRange                                  
0000be69  SensorMpu9250_irqClear                                      
0000beb5  copy_in                                                     
0000bf01  ti_sysbios_family_arm_m3_Hwi_excReserved__I                 
0000bf4d  ti_sysbios_family_arm_m3_Timer_initDevice__I                
0000bf99  xdc_runtime_SysMin_putch__E                                 
0000bf99  xdc_runtime_System_SupportProxy_putch__E                    
0000bfe5  GPIO_setAsPeripheralModuleFunctionInputPin                  
0000c02d  Timer_A_generatePWM                                         
0000c075  __aeabi_d2iz                                                
0000c0bd  ti_sysbios_family_arm_m3_Hwi_Instance_finalize__E           
0000c105  RingBuf_put                                                 
0000c191  sampleDataFxn                                               
0000c1d9  Power_init                                                  
0000c21d  C$$EXIT                                                     
0000c221  abort                                                       
0000c229  exit                                                        
0000c261  __aeabi_d2uiz                                               
0000c2ed  ti_sysbios_family_arm_m3_Hwi_excSvCall__I                   
0000c331  ti_sysbios_hal_Hwi_checkStack                               
0000c375  xdc_runtime_Text_cordText__E                                
0000c3b9  UARTMSP432_hwiIntFxn                                        
0000c43d  FlashCtl_disableReadBuffering                               
0000c47d  I2C_masterSendMultiByteFinish                               
0000c4bd  PWMTimerMSP432_start                                        
0000c4fd  RingBuf_get                                                 
0000c53d  UARTMSP432_read                                             
0000c5bd  __aeabi_uidiv                                               
0000c5bd  __aeabi_uidivmod                                            
0000c5fd  ti_sysbios_family_arm_m3_Timer_periodicStub__I              
0000c63d  ti_sysbios_family_arm_msp432_Timer_stop__E                  
0000c67d  ti_sysbios_knl_Swi_restore__E                               
0000c6bd  xdc_runtime_System_putchar__I                               
