******************************************************************************
                  TI ARM Linker PC v5.2.7                      
******************************************************************************
>> Linked Thu Sep 22 17:33:01 2016

OUTPUT FILE NAME:   <Quadcopter_Controller.out>
ENTRY POINT SYMBOL: "ResetISR"  address: 0000b061


MEMORY CONFIGURATION

         name            origin    length      used     unused   attr    fill
----------------------  --------  ---------  --------  --------  ----  --------
  FLASH                 00000000   00020000  000112c3  0000ed3d  R  X
  SRAM                  20000000   00005000  00003e3f  000011c1  RW X


SEGMENT ALLOCATION MAP

run origin  load origin   length   init length attrs members
----------  ----------- ---------- ----------- ----- -------
00000000    00000000    00011270   00011270    r-x
  00000000    00000000    0000003c   0000003c    r-- .resetVecs
  0000003c    0000003c    0000d552   0000d552    r-x .text
  0000d590    0000d590    0000375d   0000375d    r-- .const
  00010cf0    00010cf0    00000580   00000580    r-- .cinit
0001ffa8    0001ffa8    00000058   00000058    r--
  0001ffa8    0001ffa8    00000058   00000058    r-- .ccfg
20000000    20000000    00003640   00000000    rw-
  20000000    20000000    000000c8   00000000    rw- .vecs
  200000c8    200000c8    00002d6f   00000000    rw- .bss
  20002e38    20002e38    00000808   00000000    rw- .data
20004800    20004800    00000800   00000000    rw-
  20004800    20004800    00000800   00000000    rw- .stack


SECTION ALLOCATION MAP

 output                                  attributes/
section   page    origin      length       input sections
--------  ----  ----------  ----------   ----------------
.text      0    0000003c    0000d552     
                  0000003c    00000550     sysbios.aem3 : BIOS.obj (.text:xdc_runtime_System_doPrint__I)
                  0000058c    000004a4                  : BIOS.obj (.text:ti_sysbios_family_arm_m3_Hwi_excDumpRegs__I)
                  00000a30    000003b8                  : BIOS.obj (.text:ti_sysbios_heaps_HeapMem_free__E)
                  00000de8    000003b0     quadcopterController.obj (.text:RFTransmitFxn)
                  00001198    0000037c     rf_singleMode_cc13xxware.aem3 : RFCC26XX_singleMode.oem3 (.text:fsmActiveState)
                  00001514    00000374     sysbios.aem3 : BIOS.obj (.text:ti_sysbios_knl_Semaphore_pend__E)
                  00001888    00000358                  : BIOS.obj (.text:ti_sysbios_heaps_HeapMem_alloc__E)
                  00001be0    0000032c                  : BIOS.obj (.text:ti_sysbios_knl_Task_Instance_init__E)
                  00001f0c    00000310     quadcopterController.obj (.text:calibrationFxn)
                  0000221c    000002e4     sysbios.aem3 : BIOS.obj (.text:ti_sysbios_knl_Task_Instance_finalize__E)
                  00002500    000002d8     quadcopterController.obj (.text:main)
                  000027d8    000002d4     rtsv7M3_T_le_eabi.lib : trgdrv.obj (.text)
                  00002aac    00000254     EasyLink.obj (.text:EasyLink_init)
                  00002d00    00000248     sysbios.aem3 : BIOS.obj (.text:ti_sysbios_knl_Task_sleep__E)
                  00002f48    00000230     driverlib.lib : sys_ctrl.obj (.text:NOROM_SysCtrlSetRechargeBeforePowerDown)
                  00003178    00000228     drivers_cc13xxware.aem3 : PowerCC26XX.oem3 (.text:Power_sleep)
                  000033a0    000001f4     rtsv7M3_T_le_eabi.lib : ull_div_t2.obj (.text)
                  00003594    000001f4     sysbios.aem3 : BIOS.obj (.text:ti_sysbios_heaps_HeapMem_Instance_init__E)
                  00003788    000001ec     drivers_cc13xxware.aem3 : PowerCC26XX_calibrateRCOSC.oem3 (.text:calibrateRcoscHf1)
                  00003974    000001e8     sysbios.aem3 : BIOS.obj (.text:ti_sysbios_family_arm_m3_Hwi_excFillContext__I)
                  00003b5c    000001dc     quadcopterController_pem3.oem3 (.text:xdc_runtime_System_printfExtend__I)
                  00003d38    000001c4     drivers_cc13xxware.aem3 : PINCC26XX.oem3 (.text:PIN_init)
                  00003efc    000001c4     sysbios.aem3 : BIOS.obj (.text:ti_sysbios_knl_Clock_Instance_init__E)
                  000040c0    000001bc                  : BIOS.obj (.text:ti_sysbios_knl_Mailbox_Instance_init__E)
                  0000427c    000001b6     rtsv7M3_T_le_eabi.lib : fd_add_t2.obj (.text)
                  00004432    00000002     rf_singleMode_cc13xxware.aem3 : RFCC26XX_singleMode.oem3 (.text:defaultErrCb)
                  00004434    000001b4     sysbios.aem3 : BIOS.obj (.text:ti_sysbios_knl_Swi_Instance_init__E)
                  000045e8    000001b0     rf_singleMode_cc13xxware.aem3 : RFCC26XX_singleMode.oem3 (.text:RF_postCmd)
                  00004798    000001a0     drivers_cc13xxware.aem3 : PowerCC26XX_calibrateRCOSC.oem3 (.text:PowerCC26XX_doCalibrate)
                  00004938    00000190     sysbios.aem3 : BIOS.obj (.text:xdc_runtime_Core_createObject__I)
                  00004ac8    0000018c                  : BIOS.obj (.text:ti_sysbios_knl_Semaphore_post__E)
                  00004c54    0000017c                  : BIOS.obj (.text:ti_sysbios_family_arm_m3_Hwi_excBusFault__I)
                  00004dd0    00000168                  : BIOS.obj (.text:ti_sysbios_family_arm_m3_Hwi_excUsageFault__I)
                  00004f38    0000015c     EasyLink.obj (.text:EasyLink_setRfPwr)
                  00005094    00000158     sysbios.aem3 : BIOS.obj (.text:ti_sysbios_family_arm_m3_Hwi_dispatchC__I)
                  000051ec    00000158                  : BIOS.obj (.text:xdc_runtime_Startup_startMods__I)
                  00005344    00000154                  : BIOS.obj (.text:ti_sysbios_family_arm_m3_Hwi_excMemFault__I)
                  00005498    00000150                  : BIOS.obj (.text:xdc_runtime_Error_policyDefault__E)
                  000055e8    0000014c     EasyLink.obj (.text:EasyLink_transmit)
                  00005734    00000148     sysbios.aem3 : BIOS.obj (.text:ti_sysbios_knl_Swi_run__I)
                  0000587c    00000144                  : BIOS.obj (.text:ti_sysbios_family_arm_m3_Hwi_excHandlerMax__I)
                  000059c0    00000138                  : BIOS.obj (.text:xdc_runtime_Core_constructObject__I)
                  00005af8    00000136     rtsv7M3_T_le_eabi.lib : fd_div_t2.obj (.text)
                  00005c2e    00000002     drivers_cc13xxware.aem3 : PowerCC26XX.oem3 (.text:emptyClockFunc)
                  00005c30    00000130     driverlib.lib : setup.obj (.text:NOROM_SetupAfterColdResetWakeupFromShutDownCfg3)
                  00005d60    0000012c     drivers_cc13xxware.aem3 : PowerCC26XX.oem3 (.text:Power_init)
                  00005e8c    00000128     rf_singleMode_cc13xxware.aem3 : RFCC26XX_singleMode.oem3 (.text:rf_init)
                  00005fb4    00000128     smartrf_settings.obj (.text:rf_patch_rfe_genfsk)
                  000060dc    00000128     smartrf_settings_predefined.obj (.text:rf_patch_rfe_genfsk)
                  00006204    00000118     rf_singleMode_cc13xxware.aem3 : RFCC26XX_singleMode.oem3 (.text:fsmSetupState)
                  0000631c    00000118                                   : RFCC26XX_singleMode.oem3 (.text:hwiFxnCpe0Active)
                  00006434    00000118     sysbios.aem3 : BIOS.obj (.text:ti_sysbios_knl_Clock_workFuncDynamic__E)
                  0000654c    00000108     rf_singleMode_cc13xxware.aem3 : RFCC26XX_singleMode.oem3 (.text:RF_close)
                  00006654    00000104     sysbios.aem3 : BIOS.obj (.text:ti_sysbios_knl_Clock_walkQueueDynamic__E)
                  00006758    000000fc     rtsv7M3_T_le_eabi.lib : fd_mul_t2.obj (.text)
                  00006854    000000fa                           : fs_add_t2.obj (.text)
                  0000694e    00000002     smartrf_settings.obj (.text:enterGenfskSysPatch)
                  00006950    000000f8     sysbios.aem3 : BIOS.obj (.text:ti_sysbios_knl_Task_schedule__I)
                  00006a48    000000f8                  : BIOS.obj (.text:ti_sysbios_knl_Task_startCore__E)
                  00006b40    000000f4                  : BIOS.obj (.text:ti_sysbios_knl_Semaphore_Instance_init__E)
                  00006c34    000000f4                  : BIOS.obj (.text:ti_sysbios_knl_Task_checkStacks__E)
                  00006d28    000000f0                  : BIOS.obj (.text:ti_sysbios_gates_GateMutex_enter__E)
                  00006e18    000000ec     driverlib.lib : setup.obj (.text:NOROM_SetupAfterColdResetWakeupFromShutDownCfg2)
                  00006f04    000000dc     EasyLink.obj (.text:EasyLink_setFrequency)
                  00006fe0    000000dc     sysbios.aem3 : BIOS.obj (.text:ti_sysbios_family_arm_m3_Hwi_excHardFault__I)
                  000070bc    000000dc                  : BIOS.obj (.text:ti_sysbios_knl_Clock_Instance_finalize__E)
                  00007198    000000da                  : BIOS.obj (.text:xdc_runtime_Text_putSite__E)
                  00007272    00000002     smartrf_settings_predefined.obj (.text:enterGenfskSysPatch)
                  00007274    000000d8     driverlib.lib : rfc.obj (.text:NOROM_RFCRTrim)
                  0000734c    000000d8     rf_singleMode_cc13xxware.aem3 : RFCC26XX_singleMode.oem3 (.text:fsmPowerUpState)
                  00007424    000000d4     driverlib.lib : rfc.obj (.text:NOROM_RFCRfTrimRead)
                  000074f8    000000d4     drivers_cc13xxware.aem3 : PowerCC26XX.oem3 (.text:Power_releaseDependency)
                  000075cc    000000d4     sysbios.aem3 : BIOS.obj (.text:xdc_runtime_Text_putMod__E)
                  000076a0    000000d0     drivers_cc13xxware.aem3 : PowerCC26XX.oem3 (.text:Power_setDependency)
                  00007770    000000cc     driverlib.lib : setup.obj (.text:TrimAfterColdResetWakeupFromShutDown)
                  0000783c    000000cc     sysbios.aem3 : BIOS.obj (.text:ti_sysbios_knl_Swi_post__E)
                  00007908    000000c8                  : BIOS.obj (.text:ti_sysbios_family_arm_m3_Hwi_Instance_init__E)
                  000079d0    000000c8                  : m3_Hwi_asm.obj (.text:ti_sysbios_family_arm_m3_Hwi_dispatch__I)
                  00007a98    000000c4     rf_singleMode_cc13xxware.aem3 : RFCC26XX_singleMode.oem3 (.text:RF_open)
                  00007b5c    000000c4     sysbios.aem3 : BIOS.obj (.text:ti_sysbios_family_arm_m3_Hwi_excDebugMon__I)
                  00007c20    000000c0     driverlib.lib : aux_adc.obj (.text:NOROM_AUXADCEnableSync)
                  00007ce0    000000c0     sysbios.aem3 : BIOS.obj (.text:ti_sysbios_knl_Task_blockI__E)
                  00007da0    000000bc     power_cc13xx_tirtos.aem3 : PowerCC26XX_tirtos.oem3 (.text:PowerCC26XX_standbyPolicy)
                  00007e5c    000000bc     sysbios.aem3 : BIOS.obj (.text:ti_sysbios_knl_Clock_startI__E)
                  00007f18    000000bc                  : BIOS.obj (.text:ti_sysbios_knl_Task_unblockI__E)
                  00007fd4    000000b8     drivers_cc13xxware.aem3 : PINCC26XX.oem3 (.text:PINCC26XX_setIoCfg)
                  0000808c    000000b5     sysbios.aem3 : BIOS.obj (.text:xdc_runtime_System_formatNum__I)
                  00008141    00000001     --HOLE-- [fill = 0]
                  00008142    00000002     smartrf_settings_predefined.obj (.text:enterLrmSysPatch)
                  00008144    000000b4     sysbios.aem3 : BIOS.obj (.text:ti_sysbios_family_arm_m3_Hwi_initNVIC__E)
                  000081f8    000000b0                  : BIOS.obj (.text:ti_sysbios_knl_Task_exit__E)
                  000082a8    000000ac                  : BIOS.obj (.text:ti_sysbios_knl_Task_postInit__I)
                  00008354    000000a8     rf_singleMode_cc13xxware.aem3 : RFCC26XX_singleMode.oem3 (.text:swiFxnHw)
                  000083fc    000000a4     drivers_cc13xxware.aem3 : ADCCC26XX.oem3 (.text:ADCCC26XX_open)
                  000084a0    000000a4     driverlib.lib : setup.obj (.text:NOROM_SetupTrimDevice)
                  00008544    000000a0                   : setup.obj (.text:NOROM_SetupAfterColdResetWakeupFromShutDownCfg1)
                  000085e4    000000a0     auto_init.aem3 : auto_init.oem3 (.text)
                  00008684    0000009c     rtsv7M3_T_le_eabi.lib : memcpy_t2.obj (.text)
                  00008720    0000009c     sysbios.aem3 : BIOS.obj (.text:ti_sysbios_knl_Swi_restoreHwi__E)
                  000087bc    00000098     quadcopterController.obj (.text:byteStuff)
                  00008854    00000094     driverlib.lib : aux_adc.obj (.text:NOROM_AUXADCDisable)
                  000088e8    00000094     drivers_cc13xxware.aem3 : PINCC26XX.oem3 (.text:PIN_open)
                  0000897c    00000090                             : PowerCC26XX.oem3 (.text:switchXOSCHFclockFunc)
                  00008a0c    00000090     sysbios.aem3 : BIOS.obj (.text:ti_sysbios_knl_Mailbox_Instance_finalize__E)
                  00008a9c    00000090                  : BIOS.obj (.text:ti_sysbios_knl_Mailbox_post__E)
                  00008b2c    00000090                  : BIOS.obj (.text:xdc_runtime_Text_visitRope2__I)
                  00008bbc    0000008c     drivers_cc13xxware.aem3 : PowerCC26XX.oem3 (.text:disableLFClockQualifiers)
                  00008c48    0000008c     quadcopterController.obj (.text:mapInputToOutput)
                  00008cd4    0000008b     sysbios.aem3 : BIOS.obj (.text:xdc_runtime_Text_putLab__E)
                  00008d5f    00000001     --HOLE-- [fill = 0]
                  00008d60    00000088     drivers_cc13xxware.aem3 : PowerCC26XX_calibrateRCOSC.oem3 (.text:calibrateRcoscHf2)
                  00008de8    00000086     rtsv7M3_T_le_eabi.lib : fd_cmp_t2.obj (.text:__aeabi_cdcmple)
                  00008e6e    00000086                           : fd_cmp_t2.obj (.text:__aeabi_cdrcmple)
                  00008ef4    00000084     sysbios.aem3 : BIOS.obj (.text:ti_sysbios_family_arm_m3_Hwi_postInit__I)
                  00008f78    00000082                  : BIOS.obj (.text:xdc_runtime_Core_assignParams__I)
                  00008ffa    00000002     rtsv7M3_T_le_eabi.lib : i_div0.obj (.text)
                  00008ffc    00000080     drivers_cc13xxware.aem3 : ADCCC26XX.oem3 (.text:ADCCC26XX_convert)
                  0000907c    00000080     rf_singleMode_cc13xxware.aem3 : RFCC26XX_singleMode.oem3 (.text:RF_pendCmd)
                  000090fc    00000080     quadcopterController.obj (.text:controllerFxn)
                  0000917c    00000080     sysbios.aem3 : BIOS.obj (.text:ti_sysbios_knl_Task_Module_startup__E)
                  000091fc    0000007e                  : BIOS.obj (.text:ti_sysbios_knl_Mailbox_pend__E)
                  0000927a    0000007e                  : BIOS.obj (.text:xdc_runtime_Core_deleteObject__I)
                  000092f8    0000007c                  : BIOS.obj (.text:xdc_runtime_Error_print__E)
                  00009374    0000007c                  : BIOS.obj (.text:xdc_runtime_Memory_alloc__E)
                  000093f0    0000007a     rtsv7M3_T_le_eabi.lib : fs_mul_t2.obj (.text)
                  0000946a    0000007a                           : memset_t2.obj (.text)
                  000094e4    00000078     sysbios.aem3 : BIOS.obj (.text:ti_sysbios_knl_Clock_start__E)
                  0000955c    00000074     drivers_cc13xxware.aem3 : PowerCC26XX_calibrateRCOSC.oem3 (.text:PowerCC26XX_auxISR)
                  000095d0    00000074     rf_singleMode_cc13xxware.aem3 : RFCC26XX_singleMode.oem3 (.text:fsmPowerDownState)
                  00009644    00000074     sysbios.aem3 : BIOS.obj (.text:ti_sysbios_family_arm_m3_Hwi_getStackInfo__E)
                  000096b8    00000074                  : BIOS.obj (.text:xdc_runtime_Startup_exec__E)
                  0000972c    00000070     driverlib.lib : chipinfo.obj (.text:NOROM_ChipInfo_GetHwRevision)
                  0000979c    00000070                   : setup.obj (.text:NOROM_SetupSetVddrLevel)
                  0000980c    00000070     sysbios.aem3 : BIOS.obj (.text:ti_sysbios_family_arm_cc26xx_Timer_start__E)
                  0000987c    00000070                  : BIOS.obj (.text:ti_sysbios_family_arm_m3_Hwi_disableInterrupt__E)
                  000098ec    00000070                  : BIOS.obj (.text:ti_sysbios_heaps_HeapMem_getStats__E)
                  0000995c    00000070                  : BIOS.obj (.text:ti_sysbios_knl_Mailbox_Module_startup__E)
                  000099cc    00000070                  : BIOS.obj (.text:ti_sysbios_knl_Swi_Module_startup__E)
                  00009a3c    00000070                  : BIOS.obj (.text:ti_sysbios_knl_Swi_schedule__I)
                  00009aac    0000006e     rtsv7M3_T_le_eabi.lib : fd_tos_t2.obj (.text)
                  00009b1a    00000002     sysbios.aem3 : BIOS.obj (.text:ti_sysbios_BIOS_linkedWithIncorrectBootLibrary__E)
                  00009b1c    0000006c     driverlib.lib : setup.obj (.text:NOROM_SetupGetTrimForAmpcompCtrl)
                  00009b88    0000006c     drivers_cc13xxware.aem3 : PowerCC26XX.oem3 (.text:PowerCC26XX_calibrate)
                  00009bf4    0000006c     sysbios.aem3 : BIOS.obj (.text:ti_sysbios_family_arm_m3_Hwi_enableInterrupt__E)
                  00009c60    0000006c                  : BIOS.obj (.text:ti_sysbios_knl_Clock_logTick__E)
                  00009ccc    0000006c                  : BIOS.obj (.text:ti_sysbios_knl_Swi_Instance_finalize__E)
                  00009d38    0000006c                  : BIOS.obj (.text:ti_sysbios_knl_Swi_runLoop__I)
                  00009da4    0000006a     rtsv7M3_T_le_eabi.lib : copy_decompress_rle.obj (.text)
                  00009e0e    0000006a     sysbios.aem3 : BIOS.obj (.text:ti_sysbios_family_arm_m3_TaskSupport_start__E)
                  00009e78    00000068     driverlib.lib : setup.obj (.text:NOROM_SetupGetTrimForAnabypassValue1)
                  00009ee0    00000068                   : sys_ctrl.obj (.text:NOROM_SysCtrl_DCDC_VoltageConditionalControl)
                  00009f48    00000068     rf_singleMode_cc13xxware.aem3 : RFCC26XX_singleMode.oem3 (.text:RF_getCurrentTime)
                  00009fb0    00000068     rtsv7M3_T_le_eabi.lib : trgmsg.obj (.text)
                  0000a018    00000064     driverlib.lib : osc.obj (.text:NOROM_OSCHF_AttemptToSwitchToXosc)
                  0000a07c    00000064     rf_singleMode_cc13xxware.aem3 : RFCC26XX_singleMode.oem3 (.text:decActiveClientCnt)
                  0000a0e0    00000064     sysbios.aem3 : BIOS.obj (.text:xdc_runtime_Assert_raise__I)
                  0000a144    00000060     driverlib.lib : osc.obj (.text:NOROM_OSCClockSourceSet)
                  0000a1a4    00000060     drivers_cc13xxware.aem3 : PowerCC26XX_calibrateRCOSC.oem3 (.text:PowerCC26XX_RCOSC_clockFunc)
                  0000a204    00000060     sysbios.aem3 : BIOS.obj (.text:ti_sysbios_family_arm_m3_Hwi_Module_startup__E)
                  0000a264    00000060     drivers_cc13xxware.aem3 : PowerCC26XX_calibrateRCOSC.oem3 (.text:updateSubSecInc)
                  0000a2c4    00000060     sysbios.aem3 : BIOS.obj (.text:xdc_runtime_Text_xprintf__I)
                  0000a324    0000005c     driverlib.lib : sys_ctrl.obj (.text:NOROM_SysCtrlAdjustRechargeAfterPowerDown)
                  0000a380    0000005c     drivers_cc13xxware.aem3 : PINCC26XX.oem3 (.text:PIN_remove)
                  0000a3dc    0000005c     smartrf_settings.obj (.text:configureGenfskPatch)
                  0000a438    0000005c     smartrf_settings_predefined.obj (.text:configureGenfskPatch)
                  0000a494    0000005c     smartrf_settings_predefined.obj (.text:configureLrmPatch)
                  0000a4f0    0000005c     sysbios.aem3 : BIOS.obj (.text:ti_sysbios_knl_Task_allBlockedFunction__I)
                  0000a54c    0000005c                  : BIOS.obj (.text:xdc_runtime_Error_setX__E)
                  0000a5a8    0000005a                  : BIOS.obj (.text:ti_sysbios_family_arm_cc26xx_Timer_getCurrentTick__E)
                  0000a602    0000005a                  : BIOS.obj (.text:ti_sysbios_family_arm_cc26xx_Timer_setNextTick__E)
                  0000a65c    00000058     drivers_cc13xxware.aem3 : PowerCC26XX_calibrateRCOSC.oem3 (.text:PowerCC26XX_initiateCalibration)
                  0000a6b4    00000058     rf_singleMode_cc13xxware.aem3 : RFCC26XX_singleMode.oem3 (.text:fsmXOSCState)
                  0000a70c    00000058     quadcopterController_pem3.oem3 (.text:ti_sysbios_family_arm_m3_Hwi_construct)
                  0000a764    00000058     quadcopterController_pem3.oem3 (.text:ti_sysbios_knl_Mailbox_construct)
                  0000a7bc    00000058     sysbios.aem3 : BIOS.obj (.text:ti_sysbios_knl_Mailbox_postInit__I)
                  0000a814    00000058                  : BIOS.obj (.text:xdc_runtime_Core_assignLabel__I)
                  0000a86c    00000058                  : BIOS.obj (.text:xdc_runtime_SysMin_flush__E)
                  0000a8c4    00000054     drivers_cc13xxware.aem3 : PowerCC26XX.oem3 (.text:configureXOSCHF)
                  0000a918    00000054     rf_singleMode_cc13xxware.aem3 : RFCC26XX_singleMode.oem3 (.text:dispatchOpWhen)
                  0000a96c    00000054                                   : RFCC26XX_singleMode.oem3 (.text:hwiFxnHw)
                  0000a9c0    00000054                                   : RFCC26XX_singleMode.oem3 (.text:ratChanFree)
                  0000aa14    00000054     sysbios.aem3 : BIOS.obj (.text:ti_sysbios_heaps_HeapMem_init__I)
                  0000aa68    00000054     quadcopterController_pem3.oem3 (.text:ti_sysbios_knl_Swi_construct)
                  0000aabc    00000054     quadcopterController_pem3.oem3 (.text:ti_sysbios_knl_Task_construct)
                  0000ab10    00000053     sysbios.aem3 : BIOS.obj (.text:xdc_runtime_Text_printVisFxn__I)
                  0000ab63    00000001     --HOLE-- [fill = 0]
                  0000ab64    00000050     driverlib.lib : setup.obj (.text:NOROM_SetupSetCacheModeAccordingToCcfgSetting)
                  0000abb4    00000050     rf_singleMode_cc13xxware.aem3 : RFCC26XX_singleMode.oem3 (.text:syncCb)
                  0000ac04    00000050     sysbios.aem3 : BIOS.obj (.text:ti_sysbios_family_arm_cc26xx_Timer_setThreshold__I)
                  0000ac54    00000050                  : BIOS.obj (.text:xdc_runtime_System_atexit__E)
                  0000aca4    0000004c     rf_singleMode_cc13xxware.aem3 : RFCC26XX_singleMode.oem3 (.text:applyRfCorePatch)
                  0000acf0    0000004c     rtsv7M3_T_le_eabi.lib : cpy_tbl.obj (.text)
                  0000ad3c    0000004c     sysbios.aem3 : BIOS.obj (.text:ti_sysbios_family_arm_m3_Hwi_excReserved__I)
                  0000ad88    0000004c                  : m3_TaskSupport_asm.obj (.text:ti_sysbios_family_arm_m3_TaskSupport_buildTaskStack)
                  0000add4    0000004c                  : BIOS.obj (.text:xdc_runtime_SysMin_putch__E)
                  0000ae20    00000048     driverlib.lib : chipinfo.obj (.text:NOROM_ChipInfo_GetChipFamily)
                  0000ae68    00000048     drivers_cc13xxware.aem3 : PINCC26XX.oem3 (.text:PIN_swi)
                  0000aeb0    00000048     rf_singleMode_cc13xxware.aem3 : RFCC26XX_singleMode.oem3 (.text:RF_runCmd)
                  0000aef8    00000048     drivers_cc13xxware.aem3 : PowerCC26XX.oem3 (.text:notify)
                  0000af40    00000048     rtsv7M3_T_le_eabi.lib : fd_toi_t2.obj (.text)
                  0000af88    00000048     sysbios.aem3 : BIOS.obj (.text:ti_sysbios_family_arm_cc26xx_Timer_getMaxTicks__E)
                  0000afd0    00000048                  : BIOS.obj (.text:ti_sysbios_family_arm_m3_Hwi_Instance_finalize__E)
                  0000b018    00000048                  : m3_Hwi_asm_switch.obj (.text:ti_sysbios_family_arm_m3_Hwi_initStacks__E)
                  0000b060    00000044     boot.aem3 : boot.oem3 (.text)
                  0000b0a4    00000044     rtsv7M3_T_le_eabi.lib : exit.obj (.text)
                  0000b0e8    00000044                           : fd_tou_t2.obj (.text)
                  0000b12c    00000044     sysbios.aem3 : BIOS.obj (.text:ti_sysbios_family_arm_m3_Hwi_excSvCall__I)
                  0000b170    00000044                  : BIOS.obj (.text:ti_sysbios_knl_Clock_getTicksUntilInterrupt__E)
                  0000b1b4    00000044                  : BIOS.obj (.text:xdc_runtime_Text_cordText__E)
                  0000b1f8    00000040     quadcopterController.obj (.text:buttonCallbackFxn)
                  0000b238    00000040     quadcopterController.obj (.text:isInRange)
                  0000b278    00000040     rtsv7M3_T_le_eabi.lib : u_divt2.obj (.text)
                  0000b2b8    00000040     sysbios.aem3 : BIOS.obj (.text:ti_sysbios_knl_Swi_restore__E)
                  0000b2f8    00000040                  : BIOS.obj (.text:xdc_runtime_System_putchar__I)
                  0000b338    0000003e                  : BIOS.obj (.text:ti_sysbios_knl_Clock_addI__E)
                  0000b376    0000003e                  : BIOS.obj (.text:ti_sysbios_knl_Semaphore_pendTimeout__I)
                  0000b3b4    0000003c     drivers_cc13xxware.aem3 : ADCCC26XX.oem3 (.text:ADCCC26XX_close)
                  0000b3f0    0000003c     sysbios.aem3 : BIOS.obj (.text:AONRTCChannelEnable$14)
                  0000b42c    0000003c                  : BIOS.obj (.text:AONRTCCompareValueSet$14)
                  0000b468    0000003c     driverlib.lib : osc.obj (.text:NOROM_OSC_HPOSCRelativeFrequencyOffsetGet)
                  0000b4a4    0000003c                   : rfc.obj (.text:NOROM_RFCSynthPowerDown)
                  0000b4e0    0000003c     drivers_cc13xxware.aem3 : PINCC26XX.oem3 (.text:PIN_setOutputValue)
                  0000b51c    0000003c     sysbios.aem3 : BIOS.obj (.text:ti_sysbios_family_arm_m3_Hwi_excNoIsr__I)
                  0000b558    0000003c                  : BIOS.obj (.text:ti_sysbios_family_arm_m3_Hwi_setPriority__E)
                  0000b594    0000003c                  : BIOS.obj (.text:ti_sysbios_knl_Task_processVitalTaskFlag__I)
                  0000b5d0    0000003c                  : BIOS.obj (.text:xdc_runtime_SysMin_abort__E)
                  0000b60c    0000003c                  : BIOS.obj (.text:xdc_runtime_System_processAtExit__E)
                  0000b648    0000003a                  : BIOS.obj (.text:ti_sysbios_knl_Queue_put__E)
                  0000b682    00000002     quadcopterController_pem3.oem3 (.text:ti_sysbios_BIOS_nullFunc__I)
                  0000b684    00000038     drivers_cc13xxware.aem3 : ADCCC26XX.oem3 (.text:ADCCC26XX_convertRawToMicroVolts)
                  0000b6bc    00000038                             : ADC.oem3 (.text:ADC_init)
                  0000b6f4    00000038     sysbios.aem3 : BIOS.obj (.text:AONRTCEventClear$14)
                  0000b72c    00000038     rtsv7M3_T_le_eabi.lib : fs_tod_t2.obj (.text)
                  0000b764    00000038                           : fs_toi_t2.obj (.text)
                  0000b79c    00000038                           : i_tofs_t2.obj (.text)
                  0000b7d4    00000038     sysbios.aem3 : BIOS.obj (.text:ti_sysbios_family_arm_m3_Hwi_excNmi__I)
                  0000b80c    00000038                  : BIOS.obj (.text:xdc_runtime_Registry_findById__E)
                  0000b844    00000036     rf_singleMode_cc13xxware.aem3 : RFCC26XX_singleMode.oem3 (.text:updateImplicitState)
                  0000b87a    00000002     sysbios.aem3 : BIOS.obj (.text:xdc_runtime_System_abortSpin__E)
                  0000b87c    00000034     driverlib.lib : aux_adc.obj (.text:NOROM_AUXADCDisableInputScaling)
                  0000b8b0    00000034                   : osc.obj (.text:NOROM_OSCHF_SwitchToRcOscTurnOffXosc)
                  0000b8e4    00000034     drivers_cc13xxware.aem3 : PINCC26XX.oem3 (.text:PIN_setConfig)
                  0000b918    00000034     rf_singleMode_cc13xxware.aem3 : RFCC26XX_singleMode.oem3 (.text:Q_push)
                  0000b94c    00000034     quadcopterController.obj (.text:gpioDebounceFxn0)
                  0000b980    00000034     sysbios.aem3 : BIOS.obj (.text:ti_sysbios_family_arm_cc26xx_Timer_initDevice__I)
                  0000b9b4    00000034     quadcopterController_pem3.oem3 (.text:ti_sysbios_knl_Clock_construct)
                  0000b9e8    00000034     sysbios.aem3 : BIOS.obj (.text:ti_sysbios_knl_Queue_get__E)
                  0000ba1c    00000034     quadcopterController_pem3.oem3 (.text:ti_sysbios_knl_Semaphore_create)
                  0000ba50    00000034     sysbios.aem3 : BIOS.obj (.text:xdc_runtime_Error_raiseX__E)
                  0000ba84    00000034                  : BIOS.obj (.text:xdc_runtime_Memory_valloc__E)
                  0000bab8    00000030     driverlib.lib : setup.obj (.text:NOROM_SetupSetAonRtcSubSecInc)
                  0000bae8    00000030     drivers_cc13xxware.aem3 : PowerCC26XX.oem3 (.text:Power_releaseConstraint)
                  0000bb18    00000030                             : PowerCC26XX.oem3 (.text:Power_setConstraint)
                  0000bb48    00000030     driverlib.lib : adi.obj (.text:SafeHapiAuxAdiSelect)
                  0000bb78    00000030     rf_singleMode_cc13xxware.aem3 : RFCC26XX_singleMode.oem3 (.text:clkPowerUpFxn)
                  0000bba8    00000030     quadcopterController.obj (.text:gpioDebounceFxn1)
                  0000bbd8    00000030     quadcopterController_pem3.oem3 (.text:ti_sysbios_BIOS_atExitFunc__I)
                  0000bc08    00000030     quadcopterController_pem3.oem3 (.text:ti_sysbios_BIOS_startFunc__I)
                  0000bc38    00000030     sysbios.aem3 : BIOS.obj (.text:ti_sysbios_family_arm_cc26xx_Timer_Module_startup__E)
                  0000bc68    00000030                  : BIOS.obj (.text:ti_sysbios_family_arm_cc26xx_Timer_startup__E)
                  0000bc98    00000030                  : BIOS.obj (.text:ti_sysbios_family_arm_m3_Hwi_excHandler__I)
                  0000bcc8    00000030     quadcopterController_pem3.oem3 (.text:ti_sysbios_gates_GateHwi_Object__create__S)
                  0000bcf8    00000030     quadcopterController_pem3.oem3 (.text:ti_sysbios_gates_GateMutex_Object__create__S)
                  0000bd28    00000030     quadcopterController_pem3.oem3 (.text:ti_sysbios_heaps_HeapMem_Object__create__S)
                  0000bd58    00000030     sysbios.aem3 : BIOS.obj (.text:ti_sysbios_knl_Idle_run__E)
                  0000bd88    00000030     quadcopterController_pem3.oem3 (.text:ti_sysbios_knl_Semaphore_construct)
                  0000bdb8    00000030     sysbios.aem3 : BIOS.obj (.text:ti_sysbios_knl_Task_restore__E)
                  0000bde8    0000002e     rtsv7M3_T_le_eabi.lib : i_tofd_t2.obj (.text)
                  0000be16    0000002e     sysbios.aem3 : BIOS.obj (.text:ti_sysbios_hal_Hwi_initStack)
                  0000be44    0000002e                  : BIOS.obj (.text:ti_sysbios_knl_Task_getMode__E)
                  0000be72    00000002     --HOLE-- [fill = 0]
                  0000be74    0000002c                  : BIOS.obj (.text:AONRTCCombinedEventConfig$14)
                  0000bea0    0000002c     driverlib.lib : ddi.obj (.text:NOROM_DDI32RegWrite)
                  0000becc    0000002c                   : osc.obj (.text:NOROM_OSCClockSourceGet)
                  0000bef8    0000002c                   : setup.obj (.text:NOROM_SetupGetTrimForRadcExtCfg)
                  0000bf24    0000002c     rf_singleMode_cc13xxware.aem3 : RFCC26XX_singleMode.oem3 (.text:getCmd)
                  0000bf50    0000002c     sysbios.aem3 : BIOS.obj (.text:ti_sysbios_family_arm_cc26xx_Timer_postInit__I)
                  0000bf7c    0000002c                  : BIOS.obj (.text:ti_sysbios_family_arm_m3_Hwi_getHandle__E)
                  0000bfa8    0000002c                  : BIOS.obj (.text:ti_sysbios_family_arm_m3_Hwi_plug__E)
                  0000bfd4    0000002c                  : BIOS.obj (.text:ti_sysbios_knl_Clock_getTicks__E)
                  0000c000    0000002c     quadcopterController_pem3.oem3 (.text:ti_sysbios_knl_Queue_construct)
                  0000c02c    0000002a     sysbios.aem3 : BIOS.obj (.text:ti_sysbios_knl_Queue_enqueue__E)
                  0000c056    0000002a                  : BIOS.obj (.text:ti_sysbios_knl_Swi_or__E)
                  0000c080    0000002a                  : BIOS.obj (.text:ti_sysbios_knl_Task_sleepTimeout__I)
                  0000c0aa    00000002     --HOLE-- [fill = 0]
                  0000c0ac    00000028     drivers_cc13xxware.aem3 : ADC.oem3 (.text:ADC_open)
                  0000c0d4    00000028     driverlib.lib : aon_batmon.obj (.text:NOROM_AONBatMonTemperatureGetDegC)
                  0000c0fc    00000028     rf_singleMode_cc13xxware.aem3 : RFCC26XX_singleMode.oem3 (.text:Q_end)
                  0000c124    00000028     driverlib.lib : adi.obj (.text:SafeHapiVoid)
                  0000c14c    00000028     sysbios.aem3 : BIOS.obj (.text:ti_sysbios_knl_Clock_stop__E)
                  0000c174    00000028                  : BIOS.obj (.text:xdc_runtime_SysMin_Module_startup__E)
                  0000c19c    00000028                  : BIOS.obj (.text:xdc_runtime_Text_ropeText__E)
                  0000c1c4    00000026                  : BIOS.obj (.text:xdc_runtime_System_avprintf__E)
                  0000c1ea    00000026                  : BIOS.obj (.text:xdc_runtime_System_vprintf__E)
                  0000c210    00000024     drivers_cc13xxware.aem3 : PINCC26XX.oem3 (.text:PINCC26XX_getPinCount)
                  0000c234    00000024                             : PowerCC26XX_calibrateRCOSC.oem3 (.text:getTdcSemaphore)
                  0000c258    00000024     rf_singleMode_cc13xxware.aem3 : RFCC26XX_singleMode.oem3 (.text:hwiFxnCpe0PowerFsm)
                  0000c27c    00000024     quadcopterController_pem3.oem3 (.text:ti_sysbios_BIOS_errorRaiseHook__I)
                  0000c2a0    00000024     quadcopterController_pem3.oem3 (.text:ti_sysbios_BIOS_registerRTSLock__I)
                  0000c2c4    00000024     quadcopterController_pem3.oem3 (.text:ti_sysbios_BIOS_removeRTSLock__I)
                  0000c2e8    00000024     sysbios.aem3 : BIOS.obj (.text:ti_sysbios_BIOS_setThreadType__E)
                  0000c30c    00000024                  : BIOS.obj (.text:ti_sysbios_gates_GateMutex_Instance_init__E)
                  0000c330    00000024     quadcopterController_pem3.oem3 (.text:ti_sysbios_gates_GateMutex_Object__delete__S)
                  0000c354    00000024     sysbios.aem3 : BIOS.obj (.text:ti_sysbios_heaps_HeapMem_restore__E)
                  0000c378    00000024                  : BIOS.obj (.text:ti_sysbios_knl_Clock_Module_startup__E)
                  0000c39c    00000024                  : BIOS.obj (.text:ti_sysbios_knl_Clock_scheduleNextTick__E)
                  0000c3c0    00000024                  : BIOS.obj (.text:ti_sysbios_knl_Queue_dequeue__E)
                  0000c3e4    00000024                  : BIOS.obj (.text:ti_sysbios_knl_Task_restoreHwi__E)
                  0000c408    00000024                  : BIOS.obj (.text:xdc_runtime_Error_check__E)
                  0000c42c    00000024                  : BIOS.obj (.text:xdc_runtime_Memory_free__E)
                  0000c450    00000022     driverlib.lib : aux_adc.obj (.text:NOROM_AUXADCAdjustValueForGainAndOffset)
                  0000c472    00000022     sysbios.aem3 : BIOS.obj (.text:xdc_runtime_Memory_calloc__E)
                  0000c494    00000022     quadcopterController_pem3.oem3 (.text:xdc_runtime_SysMin_output__I)
                  0000c4b6    00000022     sysbios.aem3 : BIOS.obj (.text:xdc_runtime_System_vsnprintf__E)
                  0000c4d8    00000020     driverlib.lib : rfc.obj (.text:NOROM_RFCAdi3VcoLdoVoltageMode)
                  0000c4f8    00000020                   : rfc.obj (.text:NOROM_RFCDoorbellSendTo)
                  0000c518    00000020                   : setup.obj (.text:NOROM_SetupGetTrimForXoscHfCtl)
                  0000c538    00000020     rf_singleMode_cc13xxware.aem3 : RFCC26XX_singleMode.oem3 (.text:allocCmd)
                  0000c558    00000020     quadcopterController_pem3.oem3 (.text:ti_sysbios_BIOS_rtsLock__I)
                  0000c578    00000020     sysbios.aem3 : BIOS.obj (.text:ti_sysbios_family_arm_cc26xx_Timer_dynamicStub__E)
                  0000c598    00000020                  : m3_Hwi_asm.obj (.text:ti_sysbios_family_arm_m3_Hwi_excHandlerAsm__I)
                  0000c5b8    00000020     quadcopterController_pem3.oem3 (.text:ti_sysbios_gates_GateHwi_Object__delete__S)
                  0000c5d8    00000020     sysbios.aem3 : BIOS.obj (.text:ti_sysbios_gates_GateMutex_leave__E)
                  0000c5f8    00000020     quadcopterController_pem3.oem3 (.text:ti_sysbios_heaps_HeapMem_Object__delete__S)
                  0000c618    00000020     quadcopterController_pem3.oem3 (.text:ti_sysbios_knl_Clock_Object__destruct__S)
                  0000c638    00000020     quadcopterController_pem3.oem3 (.text:ti_sysbios_knl_Semaphore_Object__destruct__S)
                  0000c658    00000020     sysbios.aem3 : BIOS.obj (.text:ti_sysbios_knl_Task_disable__E)
                  0000c678    00000020                  : BIOS.obj (.text:ti_sysbios_knl_Task_enter__I)
                  0000c698    00000020                  : BIOS.obj (.text:ti_sysbios_knl_Task_unblock__E)
                  0000c6b8    00000020                  : BIOS.obj (.text:xdc_runtime_SysMin_exit__E)
                  0000c6d8    0000001e     drivers_cc13xxware.aem3 : PINCC26XX.oem3 (.text:PIN_close)
                  0000c6f6    0000001e                             : PowerCC26XX.oem3 (.text:Power_getTransitionLatency)
                  0000c714    0000001e     sysbios.aem3 : m3_Hwi_asm_switch.obj (.text:ti_sysbios_family_xxx_Hwi_switchAndRunFunc)
                  0000c732    0000001e                  : BIOS.obj (.text:ti_sysbios_knl_Queue_remove__E)
                  0000c750    0000001c     driverlib.lib : aux_adc.obj (.text:NOROM_AUXADCGetAdjustmentGain)
                  0000c76c    0000001c                   : setup.obj (.text:NOROM_SetupGetTrimForAmpcompTh2)
                  0000c788    0000001c                   : setup.obj (.text:NOROM_SetupGetTrimForRcOscLfRtuneCtuneTrim)
                  0000c7a4    0000001c     drivers_cc13xxware.aem3 : PINCC26XX.oem3 (.text:PINCC26XX_setIoCfgMux)
                  0000c7c0    0000001c                             : PINCC26XX.oem3 (.text:PIN_hwi)
                  0000c7dc    0000001c     smartrf_settings.obj (.text:enterGenfskCpePatch)
                  0000c7f8    0000001c     smartrf_settings_predefined.obj (.text:enterGenfskCpePatch)
                  0000c814    0000001c     smartrf_settings_predefined.obj (.text:enterLrmCpePatch)
                  0000c830    0000001c     quadcopterController_pem3.oem3 (.text:ti_sysbios_family_arm_m3_Hwi_Object__destruct__S)
                  0000c84c    0000001c     sysbios.aem3 : BIOS.obj (.text:ti_sysbios_family_arm_m3_Hwi_post__E)
                  0000c868    0000001c     quadcopterController_pem3.oem3 (.text:ti_sysbios_knl_Queue_Object__destruct__S)
                  0000c884    0000001c     quadcopterController_pem3.oem3 (.text:ti_sysbios_knl_Swi_Object__destruct__S)
                  0000c8a0    0000001c     sysbios.aem3 : BIOS.obj (.text:ti_sysbios_knl_Swi_disable__E)
                  0000c8bc    0000001c                  : BIOS.obj (.text:ti_sysbios_knl_Task_enabled__E)
                  0000c8d8    0000001c                  : BIOS.obj (.text:xdc_runtime_System_abort__E)
                  0000c8f4    0000001a     quadcopterController_pem3.oem3 (.text:ti_sysbios_family_arm_m3_Hwi_Handle__label__S)
                  0000c90e    0000001a     sysbios.aem3 : m3_Hwi_asm.obj (.text:ti_sysbios_family_arm_m3_Hwi_pendSV__I)
                  0000c928    0000001a                  : BIOS.obj (.text:ti_sysbios_family_arm_m3_Hwi_setFunc__E)
                  0000c942    0000001a                  : BIOS.obj (.text:ti_sysbios_family_arm_m3_TaskSupport_checkStack__E)
                  0000c95c    0000001a     quadcopterController_pem3.oem3 (.text:ti_sysbios_gates_GateHwi_Handle__label__S)
                  0000c976    0000001a     quadcopterController_pem3.oem3 (.text:ti_sysbios_gates_GateMutex_Handle__label__S)
                  0000c990    0000001a     quadcopterController_pem3.oem3 (.text:ti_sysbios_heaps_HeapMem_Handle__label__S)
                  0000c9aa    0000001a     sysbios.aem3 : BIOS.obj (.text:ti_sysbios_knl_Semaphore_Instance_finalize__E)
                  0000c9c4    0000001a     quadcopterController_pem3.oem3 (.text:ti_sysbios_knl_Swi_Handle__label__S)
                  0000c9de    0000001a     quadcopterController_pem3.oem3 (.text:ti_sysbios_knl_Task_Handle__label__S)
                  0000c9f8    0000001a     quadcopterController_pem3.oem3 (.text:xdc_runtime_System_aprintf__E)
                  0000ca12    0000001a     quadcopterController_pem3.oem3 (.text:xdc_runtime_System_printf__E)
                  0000ca2c    00000018     driverlib.lib : aon_rtc.obj (.text:NOROM_AONRTCCurrentCompareValueGet)
                  0000ca44    00000018                   : aux_adc.obj (.text:NOROM_AUXADCGetAdjustmentOffset)
                  0000ca5c    00000018                   : chipinfo.obj (.text:NOROM_ChipInfo_GetPackageType)
                  0000ca74    00000018                   : osc.obj (.text:NOROM_OSCHF_TurnOnXosc)
                  0000ca8c    00000018                   : rfc.obj (.text:NOROM_RFCCpeIntGetAndClear)
                  0000caa4    00000018                   : setup.obj (.text:NOROM_SetupGetTrimForAdcShModeEn)
                  0000cabc    00000018                   : setup.obj (.text:NOROM_SetupGetTrimForAdcShVbufEn)
                  0000cad4    00000018                   : setup.obj (.text:NOROM_SetupGetTrimForAmpcompTh1)
                  0000caec    00000018                   : setup.obj (.text:NOROM_SetupGetTrimForDblrLoopFilterResetVoltage)
                  0000cb04    00000018                   : setup.obj (.text:NOROM_SetupGetTrimForRcOscLfIBiasTrim)
                  0000cb1c    00000018                   : setup.obj (.text:NOROM_SetupGetTrimForXoscLfRegulatorAndCmirrwrRatio)
                  0000cb34    00000018     drivers_cc13xxware.aem3 : PowerCC26XX.oem3 (.text:Power_idleFunc)
                  0000cb4c    00000018     rf_singleMode_cc13xxware.aem3 : RFCC26XX_singleMode.oem3 (.text:Q_pop)
                  0000cb64    00000018     drivers_cc13xxware.aem3 : PowerCC26XX.oem3 (.text:configureRFCoreClocks)
                  0000cb7c    00000018     rtsv7M3_T_le_eabi.lib : args_main.obj (.text)
                  0000cb94    00000018                           : ll_mul_t2.obj (.text)
                  0000cbac    00000018     rf_singleMode_cc13xxware.aem3 : RFCC26XX_singleMode.oem3 (.text:swiFxnFsm)
                  0000cbc4    00000018     quadcopterController_pem3.oem3 (.text:ti_sysbios_BIOS_rtsUnlock__I)
                  0000cbdc    00000018     quadcopterController_pem3.oem3 (.text:ti_sysbios_family_arm_cc26xx_Timer_Module__startupDone__F)
                  0000cbf4    00000018     quadcopterController_pem3.oem3 (.text:ti_sysbios_family_arm_m3_Hwi_Module__startupDone__F)
                  0000cc0c    00000018     sysbios.aem3 : BIOS.obj (.text:ti_sysbios_family_arm_m3_Hwi_switchFromBootStack__E)
                  0000cc24    00000018                  : BIOS.obj (.text:ti_sysbios_gates_GateMutex_Instance_State_sem$21)
                  0000cc3c    00000018                  : BIOS.obj (.text:ti_sysbios_gates_GateMutex_Instance_finalize__E)
                  0000cc54    00000018                  : BIOS.obj (.text:ti_sysbios_knl_Mailbox_Instance_State_dataQue$5)
                  0000cc6c    00000018                  : BIOS.obj (.text:ti_sysbios_knl_Mailbox_Instance_State_dataSem$5)
                  0000cc84    00000018                  : BIOS.obj (.text:ti_sysbios_knl_Mailbox_Instance_State_freeQue$5)
                  0000cc9c    00000018                  : BIOS.obj (.text:ti_sysbios_knl_Mailbox_Instance_State_freeSem$5)
                  0000ccb4    00000018                  : BIOS.obj (.text:ti_sysbios_knl_Queue_empty__E)
                  0000cccc    00000018                  : BIOS.obj (.text:ti_sysbios_knl_Semaphore_Instance_State_pendQ$7)
                  0000cce4    00000018                  : BIOS.obj (.text:xdc_runtime_System_exit__E)
                  0000ccfc    00000016     driverlib.lib : chipinfo.obj (.text:NOROM_ThisCodeIsBuiltForCC13xxHwRev20AndLater_HaltIfViolated)
                  0000cd12    00000016     rtsv7M3_T_le_eabi.lib : strcpy.obj (.text)
                  0000cd28    00000016     quadcopterController_pem3.oem3 (.text:ti_sysbios_BIOS_exitFunc__I)
                  0000cd3e    00000016     sysbios.aem3 : BIOS.obj (.text:ti_sysbios_family_arm_m3_Hwi_Handle_name$11)
                  0000cd54    00000016     quadcopterController.obj (.text:ti_sysbios_knl_Clock_Params_init)
                  0000cd6a    00000016     quadcopterController.obj (.text:ti_sysbios_knl_Mailbox_Params_init)
                  0000cd80    00000016     sysbios.aem3 : BIOS.obj (.text:ti_sysbios_knl_Queue_Instance_init__E)
                  0000cd96    00000016                  : BIOS.obj (.text:ti_sysbios_knl_Semaphore_Params_init$5)
                  0000cdac    00000016     EasyLink.obj (.text:ti_sysbios_knl_Semaphore_Params_init)
                  0000cdc2    00000016     quadcopterController.obj (.text:ti_sysbios_knl_Semaphore_Params_init)
                  0000cdd8    00000016     sysbios.aem3 : BIOS.obj (.text:ti_sysbios_knl_Swi_Handle_name$11)
                  0000cdee    00000016                  : BIOS.obj (.text:ti_sysbios_knl_Task_Handle_name$11)
                  0000ce04    00000016     quadcopterController.obj (.text:ti_sysbios_knl_Task_Params_init)
                  0000ce1a    00000002     --HOLE-- [fill = 0]
                  0000ce1c    00000014     driverlib.lib : aon_rtc.obj (.text:NOROM_AONRTCCurrent64BitValueGet)
                  0000ce30    00000014                   : aux_adc.obj (.text:NOROM_AUXADCValueToMicrovolts)
                  0000ce44    00000014     drivers_cc13xxware.aem3 : PINCC26XX.oem3 (.text:PINCC26XX_getInputValue)
                  0000ce58    00000014                             : PINCC26XX.oem3 (.text:PINCC26XX_getOutputValue)
                  0000ce6c    00000014     rf_singleMode_cc13xxware.aem3 : RFCC26XX_singleMode.oem3 (.text:RF_Params_init)
                  0000ce80    00000014     quadcopterController.obj (.text:periodicSampleFxn)
                  0000ce94    00000014     rtsv7M3_T_le_eabi.lib : _lock.obj (.text)
                  0000cea8    00000014                           : strlen.obj (.text)
                  0000cebc    00000014     sysbios.aem3 : BIOS.obj (.text:ti_sysbios_BIOS_exit__E)
                  0000ced0    00000014     quadcopterController_pem3.oem3 (.text:ti_sysbios_family_arm_m3_Hwi_Object__get__S)
                  0000cee4    00000014     sysbios.aem3 : BIOS.obj (.text:ti_sysbios_gates_GateHwi_enter__E)
                  0000cef8    00000014                  : BIOS.obj (.text:ti_sysbios_hal_Hwi_Module_startup__E)
                  0000cf0c    00000014                  : BIOS.obj (.text:ti_sysbios_hal_Hwi_getStackInfo__E)
                  0000cf20    00000014     quadcopterController_pem3.oem3 (.text:ti_sysbios_heaps_HeapMem_Object__get__S)
                  0000cf34    00000014     sysbios.aem3 : BIOS.obj (.text:ti_sysbios_knl_Clock_Module_State_clockQ$1)
                  0000cf48    00000014     quadcopterController_pem3.oem3 (.text:ti_sysbios_knl_Clock_doTick__I)
                  0000cf5c    00000014     sysbios.aem3 : BIOS.obj (.text:ti_sysbios_knl_Queue_elemClear__E)
                  0000cf70    00000014     quadcopterController_pem3.oem3 (.text:ti_sysbios_knl_Swi_Object__get__S)
                  0000cf84    00000014     sysbios.aem3 : BIOS.obj (.text:ti_sysbios_knl_Task_Module_State_inactiveQ$10)
                  0000cf98    00000014                  : BIOS.obj (.text:xdc_runtime_Error_init__E)
                  0000cfac    00000014                  : BIOS.obj (.text:xdc_runtime_Gate_leaveSystem__E)
                  0000cfc0    00000012                  : BIOS.obj (.text:ti_sysbios_family_arm_cc26xx_Timer_setPeriod__E)
                  0000cfd2    00000012                  : BIOS.obj (.text:ti_sysbios_gates_GateHwi_leave__E)
                  0000cfe4    00000012                  : BIOS.obj (.text:ti_sysbios_knl_Clock_setTimeout__E)
                  0000cff6    00000012     quadcopterController_pem3.oem3 (.text:xdc_runtime_Startup_exec__I)
                  0000d008    00000010     rf_singleMode_cc13xxware.aem3 : RFCC26XX_singleMode.oem3 (.text:FsmDispatch)
                  0000d018    00000010     driverlib.lib : aux_adc.obj (.text:NOROM_AUXADCFlushFifo)
                  0000d028    00000010                   : aux_adc.obj (.text:NOROM_AUXADCReadFifo)
                  0000d038    00000010                   : rfc.obj (.text:NOROM_RFCRfTrimSet)
                  0000d048    00000010                   : setup.obj (.text:NOROM_SetupGetTrimForXoscHfFastStart)
                  0000d058    00000010                   : setup.obj (.text:NOROM_SetupGetTrimForXoscHfIbiastherm)
                  0000d068    00000010     smartrf_settings.obj (.text:applyGenfskPatch)
                  0000d078    00000010     smartrf_settings_predefined.obj (.text:applyGenfskPatch)
                  0000d088    00000010     smartrf_settings_predefined.obj (.text:applyLrmPatch)
                  0000d098    00000010     sysbios.aem3 : BIOS.obj (.text:ti_sysbios_BIOS_getThreadType__E)
                  0000d0a8    00000010                  : BIOS.obj (.text:ti_sysbios_BIOS_start__E)
                  0000d0b8    00000010                  : BIOS.obj (.text:ti_sysbios_family_arm_m3_Hwi_Object_get$11)
                  0000d0c8    00000010                  : BIOS.obj (.text:ti_sysbios_family_arm_m3_Hwi_doSwiRestore__I)
                  0000d0d8    00000010                  : BIOS.obj (.text:ti_sysbios_family_arm_m3_Hwi_restoreFxn__E)
                  0000d0e8    00000010                  : m3_TaskSupport_asm.obj (.text:ti_sysbios_family_arm_m3_TaskSupport_glue)
                  0000d0f8    00000010                  : m3_TaskSupport_asm.obj (.text:ti_sysbios_family_arm_m3_TaskSupport_swap__E)
                  0000d108    00000010                  : BIOS.obj (.text:ti_sysbios_heaps_HeapMem_Object_get$22)
                  0000d118    00000010     quadcopterController_pem3.oem3 (.text:ti_sysbios_knl_Mailbox_Object__get__S)
                  0000d128    00000010     sysbios.aem3 : BIOS.obj (.text:ti_sysbios_knl_Mailbox_Object_get$5)
                  0000d138    00000010                  : BIOS.obj (.text:ti_sysbios_knl_Queue_Object_get$10)
                  0000d148    00000010                  : BIOS.obj (.text:ti_sysbios_knl_Queue_Object_get$8)
                  0000d158    00000010                  : BIOS.obj (.text:ti_sysbios_knl_Swi_Object_get$8)
                  0000d168    00000010                  : BIOS.obj (.text:ti_sysbios_knl_Swi_enabled__E)
                  0000d178    00000010     quadcopterController_pem3.oem3 (.text:ti_sysbios_knl_Task_Object__get__S)
                  0000d188    00000010     sysbios.aem3 : BIOS.obj (.text:ti_sysbios_knl_Task_Object_get$10)
                  0000d198    00000010                  : BIOS.obj (.text:xdc_runtime_Gate_enterSystem__E)
                  0000d1a8    00000010                  : BIOS.obj (.text:xdc_runtime_SysMin_ready__E)
                  0000d1b8    00000010                  : BIOS.obj (.text:xdc_runtime_System_aprintf_va__F)
                  0000d1c8    00000010                  : BIOS.obj (.text:xdc_runtime_System_printf_va__F)
                  0000d1d8    00000010     quadcopterController_pem3.oem3 (.text:xdc_runtime_Text_visitRope__I)
                  0000d1e8    0000000e     driverlib.lib : setup.obj (.text:NOROM_SetupSignExtendVddrTrimValue)
                  0000d1f6    0000000e                   : vims.obj (.text:NOROM_VIMSModeGet)
                  0000d204    0000000e     rtsv7M3_T_le_eabi.lib : copy_decompress_none.obj (.text:decompress:none)
                  0000d212    0000000e     sysbios.aem3 : BIOS.obj (.text:ti_sysbios_family_arm_m3_Hwi_doTaskRestore__I)
                  0000d220    0000000e                  : BIOS.obj (.text:ti_sysbios_knl_Queue_head__E)
                  0000d22e    0000000e                  : BIOS.obj (.text:ti_sysbios_knl_Queue_next__E)
                  0000d23c    0000000e                  : BIOS.obj (.text:ti_sysbios_knl_Swi_postInit__I)
                  0000d24a    0000000e                  : BIOS.obj (.text:xdc_runtime_Error_getSite__E)
                  0000d258    0000000e                  : BIOS.obj (.text:xdc_runtime_System_Module_startup__E)
                  0000d266    00000002     --HOLE-- [fill = 0]
                  0000d268    0000000c                  : BIOS.obj (.text:AONRTCDisable$14)
                  0000d274    0000000c                  : BIOS.obj (.text:AONRTCEnable$14)
                  0000d280    0000000c                  : BIOS.obj (.text:AONRTCReset$14)
                  0000d28c    0000000c     rf_singleMode_cc13xxware.aem3 : RFCC26XX_singleMode.oem3 (.text:FsmNextState)
                  0000d298    0000000c     driverlib.lib : cpu.obj (.text:NOROM_CPUcpsid)
                  0000d2a4    0000000c                   : cpu.obj (.text:NOROM_CPUcpsie)
                  0000d2b0    0000000c     drivers_cc13xxware.aem3 : PINCC26XX.oem3 (.text:PIN_registerIntCb)
                  0000d2bc    0000000c                             : PowerCC26XX.oem3 (.text:Power_getConstraintMask)
                  0000d2c8    0000000c                             : PowerCC26XX.oem3 (.text:Power_getDependencyCount)
                  0000d2d4    0000000c     rtsv7M3_T_le_eabi.lib : copy_zero_init.obj (.text:decompress:ZI)
                  0000d2e0    0000000c     quadcopterController_pem3.oem3 (.text:ti_sysbios_family_arm_m3_Hwi_Params__init__S)
                  0000d2ec    0000000c     sysbios.aem3 : BIOS.obj (.text:ti_sysbios_family_arm_m3_Hwi_disableFxn__E)
                  0000d2f8    0000000c                  : BIOS.obj (.text:ti_sysbios_family_arm_m3_TaskSupport_getStackAlignment__E)
                  0000d304    0000000c                  : BIOS.obj (.text:ti_sysbios_gates_GateHwi_Instance_init__E)
                  0000d310    0000000c                  : BIOS.obj (.text:ti_sysbios_gates_GateHwi_query__E)
                  0000d31c    0000000c                  : BIOS.obj (.text:ti_sysbios_gates_GateMutex_query__E)
                  0000d328    0000000c                  : BIOS.obj (.text:ti_sysbios_heaps_HeapMem_isBlocking__E)
                  0000d334    0000000c     quadcopterController_pem3.oem3 (.text:ti_sysbios_knl_Clock_Params__init__S)
                  0000d340    0000000c     sysbios.aem3 : BIOS.obj (.text:ti_sysbios_knl_Clock_handle$10)
                  0000d34c    0000000c                  : BIOS.obj (.text:ti_sysbios_knl_Clock_handle$7)
                  0000d358    0000000c     quadcopterController.obj (.text:ti_sysbios_knl_Clock_handle)
                  0000d364    0000000c     sysbios.aem3 : BIOS.obj (.text:ti_sysbios_knl_Clock_removeI__E)
                  0000d370    0000000c                  : BIOS.obj (.text:ti_sysbios_knl_Idle_loop__E)
                  0000d37c    0000000c     quadcopterController_pem3.oem3 (.text:ti_sysbios_knl_Mailbox_Params__init__S)
                  0000d388    0000000c     quadcopterController.obj (.text:ti_sysbios_knl_Mailbox_handle)
                  0000d394    0000000c     quadcopterController_pem3.oem3 (.text:ti_sysbios_knl_Queue_Object__get__S)
                  0000d3a0    0000000c     sysbios.aem3 : BIOS.obj (.text:ti_sysbios_knl_Queue_struct$5)
                  0000d3ac    0000000c                  : BIOS.obj (.text:ti_sysbios_knl_Queue_struct$7)
                  0000d3b8    0000000c     quadcopterController_pem3.oem3 (.text:ti_sysbios_knl_Semaphore_Params__init__S)
                  0000d3c4    0000000c     quadcopterController.obj (.text:ti_sysbios_knl_Semaphore_handle)
                  0000d3d0    0000000c     sysbios.aem3 : BIOS.obj (.text:ti_sysbios_knl_Semaphore_struct$21)
                  0000d3dc    0000000c                  : BIOS.obj (.text:ti_sysbios_knl_Semaphore_struct$5)
                  0000d3e8    0000000c     quadcopterController_pem3.oem3 (.text:ti_sysbios_knl_Swi_Params__init__S)
                  0000d3f4    0000000c     sysbios.aem3 : BIOS.obj (.text:ti_sysbios_knl_Swi_getTrigger__E)
                  0000d400    0000000c                  : BIOS.obj (.text:ti_sysbios_knl_Swi_self__E)
                  0000d40c    0000000c     quadcopterController_pem3.oem3 (.text:ti_sysbios_knl_Task_Params__init__S)
                  0000d418    0000000c     sysbios.aem3 : BIOS.obj (.text:ti_sysbios_knl_Task_handle$10)
                  0000d424    0000000c                  : BIOS.obj (.text:ti_sysbios_knl_Task_self__E)
                  0000d430    0000000c                  : BIOS.obj (.text:xdc_iargToPtr$36)
                  0000d43c    0000000c                  : BIOS.obj (.text:xdc_runtime_Memory_getMaxDefaultTypeAlign__E)
                  0000d448    0000000c                  : BIOS.obj (.text:xdc_runtime_Startup_rtsDone__E)
                  0000d454    0000000c                  : BIOS.obj (.text:xdc_runtime_System_exitStd__E)
                  0000d460    0000000c                  : BIOS.obj (.text:xdc_uargToPtr$10)
                  0000d46c    0000000c                  : BIOS.obj (.text:xdc_uargToPtr$22)
                  0000d478    0000000c                  : BIOS.obj (.text:xdc_uargToPtr$7)
                  0000d484    0000000a     drivers_cc13xxware.aem3 : ADC.oem3 (.text:ADC_convert)
                  0000d48e    0000000a                             : List.oem3 (.text:List_empty)
                  0000d498    0000000a     sysbios.aem3 : BIOS.obj (.text:ti_sysbios_family_arm_cc26xx_Timer_getCount64__E)
                  0000d4a2    0000000a                  : BIOS.obj (.text:ti_sysbios_knl_Clock_triggerFunc__I)
                  0000d4ac    0000000a                  : BIOS.obj (.text:ti_sysbios_knl_Swi_startup__E)
                  0000d4b6    0000000a                  : BIOS.obj (.text:ti_sysbios_knl_Task_startup__E)
                  0000d4c0    0000000a     quadcopterController_pem3.oem3 (.text:xdc_runtime_IHeap_alloc)
                  0000d4ca    0000000a     quadcopterController_pem3.oem3 (.text:xdc_runtime_IHeap_free)
                  0000d4d4    00000008     drivers_cc13xxware.aem3 : ADCCC26XX.oem3 (.text:ADCCC26XX_init)
                  0000d4dc    00000008     smartrf_settings.obj (.text:rf_patch_cpe_genfsk)
                  0000d4e4    00000008     smartrf_settings_predefined.obj (.text:rf_patch_cpe_genfsk)
                  0000d4ec    00000008     smartrf_settings_predefined.obj (.text:rf_patch_cpe_lrm)
                  0000d4f4    00000008     sysbios.aem3 : BIOS.obj (.text:ti_sysbios_family_arm_cc26xx_Boot_trimDevice)
                  0000d4fc    00000008                  : BIOS.obj (.text:ti_sysbios_family_arm_m3_Hwi_startup__E)
                  0000d504    00000008                  : BIOS.obj (.text:ti_sysbios_hal_Hwi_startup__E)
                  0000d50c    00000008                  : BIOS.obj (.text:ti_sysbios_hal_Hwi_switchFromBootStack__E)
                  0000d514    00000008                  : BIOS.obj (.text:xdc_runtime_System_abortStd__E)
                  0000d51c    00000008                  : BIOS.obj (.text:xdc_runtime_System_flush__E)
                  0000d524    00000006     drivers_cc13xxware.aem3 : ADCCC26XX.oem3 (.text:ADCCC26XX_control)
                  0000d52a    00000006                             : ADC.oem3 (.text:ADC_Params_init)
                  0000d530    00000006     sysbios.aem3 : BIOS.obj (.text:__xdc__init)
                  0000d536    00000006     rf_singleMode_cc13xxware.aem3 : RFCC26XX_singleMode.oem3 (.text:clkInactivityFxn)
                  0000d53c    00000006     rtsv7M3_T_le_eabi.lib : copy_decompress_rle.obj (.text:decompress:rle24)
                  0000d542    00000004     drivers_cc13xxware.aem3 : List.oem3 (.text:List_head)
                  0000d546    00000004                             : List.oem3 (.text:List_next)
                  0000d54a    00000004     rf_singleMode_cc13xxware.aem3 : RFCC26XX_singleMode.oem3 (.text:Q_peek)
                  0000d54e    00000004     drivers_cc13xxware.aem3 : PowerCC26XX.oem3 (.text:nopResourceHandler)
                  0000d552    00000004     quadcopterController_pem3.oem3 (.text:ti_sysbios_BIOS_RtsGateProxy_enter__E)
                  0000d556    00000004     quadcopterController_pem3.oem3 (.text:ti_sysbios_BIOS_RtsGateProxy_leave__E)
                  0000d55a    00000004     quadcopterController_pem3.oem3 (.text:ti_sysbios_family_arm_m3_Hwi_destruct)
                  0000d55e    00000004     quadcopterController_pem3.oem3 (.text:ti_sysbios_family_arm_m3_TaskSupport_Module__startupDone__S)
                  0000d562    00000004     quadcopterController_pem3.oem3 (.text:ti_sysbios_heaps_HeapMem_Module_GateProxy_enter__E)
                  0000d566    00000004     quadcopterController_pem3.oem3 (.text:ti_sysbios_heaps_HeapMem_Module_GateProxy_leave__E)
                  0000d56a    00000004     quadcopterController_pem3.oem3 (.text:ti_sysbios_knl_Clock_TimerProxy_getCurrentTick__E)
                  0000d56e    00000004     quadcopterController_pem3.oem3 (.text:ti_sysbios_knl_Clock_TimerProxy_getMaxTicks__E)
                  0000d572    00000004     quadcopterController_pem3.oem3 (.text:ti_sysbios_knl_Clock_TimerProxy_setNextTick__E)
                  0000d576    00000004     quadcopterController_pem3.oem3 (.text:ti_sysbios_knl_Clock_destruct)
                  0000d57a    00000004     quadcopterController_pem3.oem3 (.text:ti_sysbios_knl_Queue_destruct)
                  0000d57e    00000004     quadcopterController_pem3.oem3 (.text:ti_sysbios_knl_Semaphore_destruct)
                  0000d582    00000004     quadcopterController_pem3.oem3 (.text:ti_sysbios_knl_Swi_destruct)
                  0000d586    00000004     quadcopterController_pem3.oem3 (.text:xdc_runtime_System_Module_GateProxy_enter__E)
                  0000d58a    00000004     quadcopterController_pem3.oem3 (.text:xdc_runtime_System_Module_GateProxy_leave__E)

.const     0    0000d590    0000375d     
                  0000d590    000018a8     quadcopterController_pem3.oem3 (.const:xdc_runtime_Text_charTab__A)
                  0000ee38    000006b4     smartrf_settings.obj (.const:patchGenfskRfe)
                  0000f4ec    000006b4     smartrf_settings_predefined.obj (.const:patchGenfskRfe)
                  0000fba0    0000028c     smartrf_settings.obj (.const:patchImageGenfsk)
                  0000fe2c    0000028c     smartrf_settings_predefined.obj (.const:patchImageGenfsk)
                  000100b8    0000028c     smartrf_settings_predefined.obj (.const:patchImageLrm)
                  00010344    000000b8     quadcopterController_pem3.oem3 (.const:xdc_runtime_Text_nodeTab__A)
                  000103fc    00000090     quadcopterController.obj (.const:$P$T0$1)
                  0001048c    00000090     CC1350_LAUNCHXL.obj (.const:ADC_config)
                  0001051c    0000004c     drivers_cc13xxware.aem3 : PowerCC26XX.oem3 (.const:resourceDB)
                  00010568    00000048     quadcopterController_pem3.oem3 (.const:.string)
                  000105b0    00000042     CC1350_LAUNCHXL.obj (.const:adcCC26xxHWAttrs)
                  000105f2    00000040     EasyLink.obj (.const:outputPower)
                  00010632    00000002     quadcopterController_pem3.oem3 (.const:ti_sysbios_family_arm_m3_Hwi_Module__id__C)
                  00010634    0000003c     quadcopterController_pem3.oem3 (.const:ti_sysbios_knl_Task_Object__PARAMS__C)
                  00010670    00000034     CC1350_LAUNCHXL.obj (.const:BoardGpioInitTable)
                  000106a4    00000034     quadcopterController_pem3.oem3 (.const:ti_sysbios_knl_Mailbox_Object__PARAMS__C)
                  000106d8    00000030     quadcopterController_pem3.oem3 (.const:ti_sysbios_family_arm_m3_Hwi_Object__PARAMS__C)
                  00010708    00000028     quadcopterController_pem3.oem3 (.const:ti_sysbios_heaps_HeapMem_Module__FXNS__C)
                  00010730    00000028     quadcopterController_pem3.oem3 (.const:ti_sysbios_knl_Swi_Object__PARAMS__C)
                  00010758    00000024     quadcopterController_pem3.oem3 (.const:ti_sysbios_gates_GateHwi_Module__FXNS__C)
                  0001077c    00000024     quadcopterController_pem3.oem3 (.const:ti_sysbios_gates_GateMutex_Module__FXNS__C)
                  000107a0    00000024     quadcopterController_pem3.oem3 (.const:ti_sysbios_heaps_HeapMem_Object__PARAMS__C)
                  000107c4    00000024     quadcopterController_pem3.oem3 (.const:ti_sysbios_knl_Clock_Object__PARAMS__C)
                  000107e8    00000024     quadcopterController_pem3.oem3 (.const:ti_sysbios_knl_Semaphore_Object__PARAMS__C)
                  0001080c    00000024     quadcopterController_pem3.oem3 (.const:xdc_runtime_Startup_sfxnTab__A)
                  00010830    00000020     quadcopterController_pem3.oem3 (.const:ti_sysbios_family_arm_m3_Hwi_Object__DESC__C)
                  00010850    00000020     quadcopterController_pem3.oem3 (.const:ti_sysbios_gates_GateHwi_Object__DESC__C)
                  00010870    00000020     quadcopterController_pem3.oem3 (.const:ti_sysbios_gates_GateMutex_Object__DESC__C)
                  00010890    00000020     quadcopterController_pem3.oem3 (.const:ti_sysbios_heaps_HeapMem_Object__DESC__C)
                  000108b0    00000020     quadcopterController_pem3.oem3 (.const:ti_sysbios_knl_Clock_Object__DESC__C)
                  000108d0    00000020     quadcopterController_pem3.oem3 (.const:ti_sysbios_knl_Mailbox_Object__DESC__C)
                  000108f0    00000020     quadcopterController_pem3.oem3 (.const:ti_sysbios_knl_Queue_Object__DESC__C)
                  00010910    00000020     quadcopterController_pem3.oem3 (.const:ti_sysbios_knl_Semaphore_Object__DESC__C)
                  00010930    00000020     quadcopterController_pem3.oem3 (.const:ti_sysbios_knl_Swi_Object__DESC__C)
                  00010950    00000020     quadcopterController_pem3.oem3 (.const:ti_sysbios_knl_Task_Object__DESC__C)
                  00010970    0000001c     EasyLink.obj (.const)
                  0001098c    00000018     drivers_cc13xxware.aem3 : ADCCC26XX.oem3 (.const)
                  000109a4    00000018     quadcopterController_pem3.oem3 (.const:ti_sysbios_gates_GateHwi_Object__PARAMS__C)
                  000109bc    00000018     quadcopterController_pem3.oem3 (.const:ti_sysbios_gates_GateMutex_Object__PARAMS__C)
                  000109d4    00000018     quadcopterController_pem3.oem3 (.const:ti_sysbios_knl_Queue_Object__PARAMS__C)
                  000109ec    00000014     rf_singleMode_cc13xxware.aem3 : RFCC26XX_singleMode.oem3 (.const)
                  00010a00    00000012     quadcopterController_pem3.oem3 (.const:xdc_runtime_Startup_sfxnRts__A)
                  00010a12    00000002     quadcopterController_pem3.oem3 (.const:ti_sysbios_family_arm_m3_Hwi_Module__loggerDefined__C)
                  00010a14    00000010     CC1350_LAUNCHXL.obj (.const:PowerCC26XX_config)
                  00010a24    0000000c     quadcopterController_pem3.oem3 (.const:xdc_runtime_Startup_firstFxns__A)
                  00010a30    00000008     CC1350_LAUNCHXL.obj (.const:PINCC26XX_hwAttrs)
                  00010a38    00000008     quadcopterController_pem3.oem3 (.const:ti_sysbios_family_arm_m3_Hwi_excHookFuncs__A)
                  00010a40    00000008     quadcopterController_pem3.oem3 (.const:ti_sysbios_knl_Idle_funcList__C)
                  00010a48    00000008     quadcopterController_pem3.oem3 (.const:xdc_runtime_Startup_firstFxns__C)
                  00010a50    00000008     quadcopterController_pem3.oem3 (.const:xdc_runtime_Startup_lastFxns__C)
                  00010a58    00000004     CC1350_LAUNCHXL.obj (.const:RFCC26XX_hwAttrs)
                  00010a5c    00000004     quadcopterController_pem3.oem3 (.const:ti_sysbios_family_arm_cc26xx_Timer_startupNeeded__C)
                  00010a60    00000004     quadcopterController_pem3.oem3 (.const:ti_sysbios_family_arm_m3_Hwi_E_NMI__C)
                  00010a64    00000004     quadcopterController_pem3.oem3 (.const:ti_sysbios_family_arm_m3_Hwi_E_alreadyDefined__C)
                  00010a68    00000004     quadcopterController_pem3.oem3 (.const:ti_sysbios_family_arm_m3_Hwi_E_busFault__C)
                  00010a6c    00000004     quadcopterController_pem3.oem3 (.const:ti_sysbios_family_arm_m3_Hwi_E_debugMon__C)
                  00010a70    00000004     quadcopterController_pem3.oem3 (.const:ti_sysbios_family_arm_m3_Hwi_E_hardFault__C)
                  00010a74    00000004     quadcopterController_pem3.oem3 (.const:ti_sysbios_family_arm_m3_Hwi_E_memFault__C)
                  00010a78    00000004     quadcopterController_pem3.oem3 (.const:ti_sysbios_family_arm_m3_Hwi_E_noIsr__C)
                  00010a7c    00000004     quadcopterController_pem3.oem3 (.const:ti_sysbios_family_arm_m3_Hwi_E_reserved__C)
                  00010a80    00000004     quadcopterController_pem3.oem3 (.const:ti_sysbios_family_arm_m3_Hwi_E_svCall__C)
                  00010a84    00000004     quadcopterController_pem3.oem3 (.const:ti_sysbios_family_arm_m3_Hwi_E_usageFault__C)
                  00010a88    00000004     quadcopterController_pem3.oem3 (.const:ti_sysbios_family_arm_m3_Hwi_LD_end__C)
                  00010a8c    00000004     quadcopterController_pem3.oem3 (.const:ti_sysbios_family_arm_m3_Hwi_LM_begin__C)
                  00010a90    00000004     quadcopterController_pem3.oem3 (.const:ti_sysbios_family_arm_m3_Hwi_Module__diagsEnabled__C)
                  00010a94    00000004     quadcopterController_pem3.oem3 (.const:ti_sysbios_family_arm_m3_Hwi_Module__diagsIncluded__C)
                  00010a98    00000004     quadcopterController_pem3.oem3 (.const:ti_sysbios_family_arm_m3_Hwi_Module__diagsMask__C)
                  00010a9c    00000004     quadcopterController_pem3.oem3 (.const:ti_sysbios_family_arm_m3_Hwi_Module__loggerFxn1__C)
                  00010aa0    00000004     quadcopterController_pem3.oem3 (.const:ti_sysbios_family_arm_m3_Hwi_Module__loggerFxn8__C)
                  00010aa4    00000004     quadcopterController_pem3.oem3 (.const:ti_sysbios_family_arm_m3_Hwi_Module__loggerObj__C)
                  00010aa8    00000004     quadcopterController_pem3.oem3 (.const:ti_sysbios_family_arm_m3_Hwi_NUM_INTERRUPTS__C)
                  00010aac    00000004     quadcopterController_pem3.oem3 (.const:ti_sysbios_family_arm_m3_Hwi_Object__count__C)
                  00010ab0    00000004     quadcopterController_pem3.oem3 (.const:ti_sysbios_family_arm_m3_Hwi_ccr__C)
                  00010ab4    00000004     quadcopterController_pem3.oem3 (.const:ti_sysbios_family_arm_m3_Hwi_excHandlerFunc__C)
                  00010ab8    00000004     quadcopterController_pem3.oem3 (.const:ti_sysbios_family_arm_m3_Hwi_excHookFuncs__C)
                  00010abc    00000004     quadcopterController_pem3.oem3 (.const:ti_sysbios_family_arm_m3_Hwi_nullIsrFunc__C)
                  00010ac0    00000004     quadcopterController_pem3.oem3 (.const:ti_sysbios_family_arm_m3_Hwi_priGroup__C)
                  00010ac4    00000004     quadcopterController_pem3.oem3 (.const:ti_sysbios_family_arm_m3_TaskSupport_stackAlignment__C)
                  00010ac8    00000004     quadcopterController_pem3.oem3 (.const:ti_sysbios_gates_GateMutex_A_badContext__C)
                  00010acc    00000004     quadcopterController_pem3.oem3 (.const:ti_sysbios_gates_GateMutex_Instance_State_sem__O)
                  00010ad0    00000004     quadcopterController_pem3.oem3 (.const:ti_sysbios_gates_GateMutex_Module__diagsEnabled__C)
                  00010ad4    00000004     quadcopterController_pem3.oem3 (.const:ti_sysbios_gates_GateMutex_Module__diagsIncluded__C)
                  00010ad8    00000004     quadcopterController_pem3.oem3 (.const:ti_sysbios_gates_GateMutex_Module__diagsMask__C)
                  00010adc    00000004     quadcopterController_pem3.oem3 (.const:ti_sysbios_heaps_HeapMem_A_align__C)
                  00010ae0    00000004     quadcopterController_pem3.oem3 (.const:ti_sysbios_heaps_HeapMem_A_heapSize__C)
                  00010ae4    00000004     quadcopterController_pem3.oem3 (.const:ti_sysbios_heaps_HeapMem_A_invalidFree__C)
                  00010ae8    00000004     quadcopterController_pem3.oem3 (.const:ti_sysbios_heaps_HeapMem_A_zeroBlock__C)
                  00010aec    00000004     quadcopterController_pem3.oem3 (.const:ti_sysbios_heaps_HeapMem_E_memory__C)
                  00010af0    00000004     quadcopterController_pem3.oem3 (.const:ti_sysbios_heaps_HeapMem_Module__diagsEnabled__C)
                  00010af4    00000004     quadcopterController_pem3.oem3 (.const:ti_sysbios_heaps_HeapMem_Module__diagsIncluded__C)
                  00010af8    00000004     quadcopterController_pem3.oem3 (.const:ti_sysbios_heaps_HeapMem_Module__diagsMask__C)
                  00010afc    00000004     quadcopterController_pem3.oem3 (.const:ti_sysbios_heaps_HeapMem_Module__gateObj__C)
                  00010b00    00000004     quadcopterController_pem3.oem3 (.const:ti_sysbios_heaps_HeapMem_Object__count__C)
                  00010b04    00000004     quadcopterController_pem3.oem3 (.const:ti_sysbios_heaps_HeapMem_reqAlign__C)
                  00010b08    00000004     quadcopterController_pem3.oem3 (.const:ti_sysbios_knl_Clock_A_badThreadType__C)
                  00010b0c    00000004     quadcopterController_pem3.oem3 (.const:ti_sysbios_knl_Clock_A_clockDisabled__C)
                  00010b10    00000004     quadcopterController_pem3.oem3 (.const:ti_sysbios_knl_Clock_LM_begin__C)
                  00010b14    00000004     quadcopterController_pem3.oem3 (.const:ti_sysbios_knl_Clock_LM_tick__C)
                  00010b18    00000004     quadcopterController_pem3.oem3 (.const:ti_sysbios_knl_Clock_Module_State_clockQ__O)
                  00010b1c    00000004     quadcopterController_pem3.oem3 (.const:ti_sysbios_knl_Clock_Module__diagsEnabled__C)
                  00010b20    00000004     quadcopterController_pem3.oem3 (.const:ti_sysbios_knl_Clock_Module__diagsIncluded__C)
                  00010b24    00000004     quadcopterController_pem3.oem3 (.const:ti_sysbios_knl_Clock_Module__diagsMask__C)
                  00010b28    00000004     quadcopterController_pem3.oem3 (.const:ti_sysbios_knl_Clock_Module__loggerFxn1__C)
                  00010b2c    00000004     quadcopterController_pem3.oem3 (.const:ti_sysbios_knl_Clock_Module__loggerFxn2__C)
                  00010b30    00000004     quadcopterController_pem3.oem3 (.const:ti_sysbios_knl_Clock_Module__loggerObj__C)
                  00010b34    00000004     quadcopterController_pem3.oem3 (.const:ti_sysbios_knl_Clock_tickPeriod__C)
                  00010b38    00000004     quadcopterController_pem3.oem3 (.const:ti_sysbios_knl_Clock_triggerClock__C)
                  00010b3c    00000004     quadcopterController_pem3.oem3 (.const:ti_sysbios_knl_Idle_funcList__A)
                  00010b40    00000004     quadcopterController_pem3.oem3 (.const:ti_sysbios_knl_Mailbox_A_invalidBufSize__C)
                  00010b44    00000004     quadcopterController_pem3.oem3 (.const:ti_sysbios_knl_Mailbox_Instance_State_dataQue__O)
                  00010b48    00000004     quadcopterController_pem3.oem3 (.const:ti_sysbios_knl_Mailbox_Instance_State_dataSem__O)
                  00010b4c    00000004     quadcopterController_pem3.oem3 (.const:ti_sysbios_knl_Mailbox_Instance_State_freeQue__O)
                  00010b50    00000004     quadcopterController_pem3.oem3 (.const:ti_sysbios_knl_Mailbox_Instance_State_freeSem__O)
                  00010b54    00000004     quadcopterController_pem3.oem3 (.const:ti_sysbios_knl_Mailbox_Module__diagsEnabled__C)
                  00010b58    00000004     quadcopterController_pem3.oem3 (.const:ti_sysbios_knl_Mailbox_Module__diagsIncluded__C)
                  00010b5c    00000004     quadcopterController_pem3.oem3 (.const:ti_sysbios_knl_Mailbox_Module__diagsMask__C)
                  00010b60    00000004     quadcopterController_pem3.oem3 (.const:ti_sysbios_knl_Mailbox_Object__count__C)
                  00010b64    00000004     quadcopterController_pem3.oem3 (.const:ti_sysbios_knl_Mailbox_maxTypeAlign__C)
                  00010b68    00000004     quadcopterController_pem3.oem3 (.const:ti_sysbios_knl_Semaphore_A_badContext__C)
                  00010b6c    00000004     quadcopterController_pem3.oem3 (.const:ti_sysbios_knl_Semaphore_A_noEvents__C)
                  00010b70    00000004     quadcopterController_pem3.oem3 (.const:ti_sysbios_knl_Semaphore_A_overflow__C)
                  00010b74    00000004     quadcopterController_pem3.oem3 (.const:ti_sysbios_knl_Semaphore_A_pendTaskDisabled__C)
                  00010b78    00000004     quadcopterController_pem3.oem3 (.const:ti_sysbios_knl_Semaphore_Instance_State_pendQ__O)
                  00010b7c    00000004     quadcopterController_pem3.oem3 (.const:ti_sysbios_knl_Semaphore_LM_pend__C)
                  00010b80    00000004     quadcopterController_pem3.oem3 (.const:ti_sysbios_knl_Semaphore_LM_post__C)
                  00010b84    00000004     quadcopterController_pem3.oem3 (.const:ti_sysbios_knl_Semaphore_Module__diagsEnabled__C)
                  00010b88    00000004     quadcopterController_pem3.oem3 (.const:ti_sysbios_knl_Semaphore_Module__diagsIncluded__C)
                  00010b8c    00000004     quadcopterController_pem3.oem3 (.const:ti_sysbios_knl_Semaphore_Module__diagsMask__C)
                  00010b90    00000004     quadcopterController_pem3.oem3 (.const:ti_sysbios_knl_Semaphore_Module__loggerFxn2__C)
                  00010b94    00000004     quadcopterController_pem3.oem3 (.const:ti_sysbios_knl_Semaphore_Module__loggerFxn4__C)
                  00010b98    00000004     quadcopterController_pem3.oem3 (.const:ti_sysbios_knl_Semaphore_Module__loggerObj__C)
                  00010b9c    00000004     quadcopterController_pem3.oem3 (.const:ti_sysbios_knl_Swi_A_badPriority__C)
                  00010ba0    00000004     quadcopterController_pem3.oem3 (.const:ti_sysbios_knl_Swi_A_swiDisabled__C)
                  00010ba4    00000004     quadcopterController_pem3.oem3 (.const:ti_sysbios_knl_Swi_LD_end__C)
                  00010ba8    00000004     quadcopterController_pem3.oem3 (.const:ti_sysbios_knl_Swi_LM_begin__C)
                  00010bac    00000004     quadcopterController_pem3.oem3 (.const:ti_sysbios_knl_Swi_LM_post__C)
                  00010bb0    00000004     quadcopterController_pem3.oem3 (.const:ti_sysbios_knl_Swi_Module__diagsEnabled__C)
                  00010bb4    00000004     quadcopterController_pem3.oem3 (.const:ti_sysbios_knl_Swi_Module__diagsIncluded__C)
                  00010bb8    00000004     quadcopterController_pem3.oem3 (.const:ti_sysbios_knl_Swi_Module__diagsMask__C)
                  00010bbc    00000004     quadcopterController_pem3.oem3 (.const:ti_sysbios_knl_Swi_Module__loggerFxn1__C)
                  00010bc0    00000004     quadcopterController_pem3.oem3 (.const:ti_sysbios_knl_Swi_Module__loggerFxn4__C)
                  00010bc4    00000004     quadcopterController_pem3.oem3 (.const:ti_sysbios_knl_Swi_Module__loggerObj__C)
                  00010bc8    00000004     quadcopterController_pem3.oem3 (.const:ti_sysbios_knl_Swi_Object__count__C)
                  00010bcc    00000004     quadcopterController_pem3.oem3 (.const:ti_sysbios_knl_Swi_numConstructedSwis__C)
                  00010bd0    00000004     quadcopterController_pem3.oem3 (.const:ti_sysbios_knl_Task_A_badPriority__C)
                  00010bd4    00000004     quadcopterController_pem3.oem3 (.const:ti_sysbios_knl_Task_A_badTaskState__C)
                  00010bd8    00000004     quadcopterController_pem3.oem3 (.const:ti_sysbios_knl_Task_A_badThreadType__C)
                  00010bdc    00000004     quadcopterController_pem3.oem3 (.const:ti_sysbios_knl_Task_A_badTimeout__C)
                  00010be0    00000004     quadcopterController_pem3.oem3 (.const:ti_sysbios_knl_Task_A_noPendElem__C)
                  00010be4    00000004     quadcopterController_pem3.oem3 (.const:ti_sysbios_knl_Task_A_sleepTaskDisabled__C)
                  00010be8    00000004     quadcopterController_pem3.oem3 (.const:ti_sysbios_knl_Task_A_taskDisabled__C)
                  00010bec    00000004     quadcopterController_pem3.oem3 (.const:ti_sysbios_knl_Task_E_spOutOfBounds__C)
                  00010bf0    00000004     quadcopterController_pem3.oem3 (.const:ti_sysbios_knl_Task_E_stackOverflow__C)
                  00010bf4    00000004     quadcopterController_pem3.oem3 (.const:ti_sysbios_knl_Task_LD_block__C)
                  00010bf8    00000004     quadcopterController_pem3.oem3 (.const:ti_sysbios_knl_Task_LD_exit__C)
                  00010bfc    00000004     quadcopterController_pem3.oem3 (.const:ti_sysbios_knl_Task_LD_ready__C)
                  00010c00    00000004     quadcopterController_pem3.oem3 (.const:ti_sysbios_knl_Task_LM_sleep__C)
                  00010c04    00000004     quadcopterController_pem3.oem3 (.const:ti_sysbios_knl_Task_LM_switch__C)
                  00010c08    00000004     quadcopterController_pem3.oem3 (.const:ti_sysbios_knl_Task_Module_State_inactiveQ__O)
                  00010c0c    00000004     quadcopterController_pem3.oem3 (.const:ti_sysbios_knl_Task_Module__diagsEnabled__C)
                  00010c10    00000004     quadcopterController_pem3.oem3 (.const:ti_sysbios_knl_Task_Module__diagsIncluded__C)
                  00010c14    00000004     quadcopterController_pem3.oem3 (.const:ti_sysbios_knl_Task_Module__diagsMask__C)
                  00010c18    00000004     quadcopterController_pem3.oem3 (.const:ti_sysbios_knl_Task_Module__loggerFxn2__C)
                  00010c1c    00000004     quadcopterController_pem3.oem3 (.const:ti_sysbios_knl_Task_Module__loggerFxn4__C)
                  00010c20    00000004     quadcopterController_pem3.oem3 (.const:ti_sysbios_knl_Task_Module__loggerObj__C)
                  00010c24    00000004     quadcopterController_pem3.oem3 (.const:ti_sysbios_knl_Task_Object__count__C)
                  00010c28    00000004     quadcopterController_pem3.oem3 (.const:ti_sysbios_knl_Task_allBlockedFunc__C)
                  00010c2c    00000004     quadcopterController_pem3.oem3 (.const:ti_sysbios_knl_Task_defaultStackHeap__C)
                  00010c30    00000004     quadcopterController_pem3.oem3 (.const:ti_sysbios_knl_Task_defaultStackSize__C)
                  00010c34    00000004     quadcopterController_pem3.oem3 (.const:ti_sysbios_knl_Task_numConstructedTasks__C)
                  00010c38    00000004     quadcopterController_pem3.oem3 (.const:xdc_runtime_Assert_E_assertFailed__C)
                  00010c3c    00000004     quadcopterController_pem3.oem3 (.const:xdc_runtime_Core_A_initializedParams__C)
                  00010c40    00000004     quadcopterController_pem3.oem3 (.const:xdc_runtime_Core_Module__diagsEnabled__C)
                  00010c44    00000004     quadcopterController_pem3.oem3 (.const:xdc_runtime_Core_Module__diagsIncluded__C)
                  00010c48    00000004     quadcopterController_pem3.oem3 (.const:xdc_runtime_Core_Module__diagsMask__C)
                  00010c4c    00000004     quadcopterController_pem3.oem3 (.const:xdc_runtime_Error_E_memory__C)
                  00010c50    00000004     quadcopterController_pem3.oem3 (.const:xdc_runtime_Error_Module__diagsEnabled__C)
                  00010c54    00000004     quadcopterController_pem3.oem3 (.const:xdc_runtime_Error_Module__diagsIncluded__C)
                  00010c58    00000004     quadcopterController_pem3.oem3 (.const:xdc_runtime_Error_Module__diagsMask__C)
                  00010c5c    00000004     quadcopterController_pem3.oem3 (.const:xdc_runtime_Error_Module__loggerFxn8__C)
                  00010c60    00000004     quadcopterController_pem3.oem3 (.const:xdc_runtime_Error_Module__loggerObj__C)
                  00010c64    00000004     quadcopterController_pem3.oem3 (.const:xdc_runtime_Error_policyFxn__C)
                  00010c68    00000004     quadcopterController_pem3.oem3 (.const:xdc_runtime_Error_raiseHook__C)
                  00010c6c    00000004     quadcopterController_pem3.oem3 (.const:xdc_runtime_IGateProvider_Interface__BASE__C)
                  00010c70    00000004     quadcopterController_pem3.oem3 (.const:xdc_runtime_IHeap_Interface__BASE__C)
                  00010c74    00000004     quadcopterController_pem3.oem3 (.const:xdc_runtime_IModule_Interface__BASE__C)
                  00010c78    00000004     quadcopterController_pem3.oem3 (.const:xdc_runtime_Log_L_error__C)
                  00010c7c    00000004     quadcopterController_pem3.oem3 (.const:xdc_runtime_Memory_defaultHeapInstance__C)
                  00010c80    00000004     quadcopterController_pem3.oem3 (.const:xdc_runtime_Startup_execImpl__C)
                  00010c84    00000004     quadcopterController_pem3.oem3 (.const:xdc_runtime_Startup_maxPasses__C)
                  00010c88    00000004     quadcopterController_pem3.oem3 (.const:xdc_runtime_Startup_sfxnRts__C)
                  00010c8c    00000004     quadcopterController_pem3.oem3 (.const:xdc_runtime_Startup_sfxnTab__C)
                  00010c90    00000004     quadcopterController_pem3.oem3 (.const:xdc_runtime_SysMin_bufSize__C)
                  00010c94    00000004     quadcopterController_pem3.oem3 (.const:xdc_runtime_SysMin_outputFunc__C)
                  00010c98    00000004     quadcopterController_pem3.oem3 (.const:xdc_runtime_System_Module__gateObj__C)
                  00010c9c    00000004     quadcopterController_pem3.oem3 (.const:xdc_runtime_System_abortFxn__C)
                  00010ca0    00000004     quadcopterController_pem3.oem3 (.const:xdc_runtime_System_exitFxn__C)
                  00010ca4    00000004     quadcopterController_pem3.oem3 (.const:xdc_runtime_System_extendFxn__C)
                  00010ca8    00000004     quadcopterController_pem3.oem3 (.const:xdc_runtime_System_maxAtexitHandlers__C)
                  00010cac    00000004     quadcopterController_pem3.oem3 (.const:xdc_runtime_Text_charTab__C)
                  00010cb0    00000004     quadcopterController_pem3.oem3 (.const:xdc_runtime_Text_nameEmpty__C)
                  00010cb4    00000004     quadcopterController_pem3.oem3 (.const:xdc_runtime_Text_nameStatic__C)
                  00010cb8    00000004     quadcopterController_pem3.oem3 (.const:xdc_runtime_Text_nameUnknown__C)
                  00010cbc    00000004     quadcopterController_pem3.oem3 (.const:xdc_runtime_Text_nodeTab__C)
                  00010cc0    00000004     quadcopterController_pem3.oem3 (.const:xdc_runtime_Text_visitRopeFxn__C)
                  00010cc4    00000002     quadcopterController_pem3.oem3 (.const:ti_sysbios_gates_GateMutex_Module__id__C)
                  00010cc6    00000002     quadcopterController_pem3.oem3 (.const:ti_sysbios_heaps_HeapMem_Module__id__C)
                  00010cc8    00000002     quadcopterController_pem3.oem3 (.const:ti_sysbios_knl_Clock_Module__id__C)
                  00010cca    00000002     quadcopterController_pem3.oem3 (.const:ti_sysbios_knl_Clock_Module__loggerDefined__C)
                  00010ccc    00000002     quadcopterController_pem3.oem3 (.const:ti_sysbios_knl_Mailbox_Module__id__C)
                  00010cce    00000002     quadcopterController_pem3.oem3 (.const:ti_sysbios_knl_Semaphore_Module__id__C)
                  00010cd0    00000002     quadcopterController_pem3.oem3 (.const:ti_sysbios_knl_Semaphore_Module__loggerDefined__C)
                  00010cd2    00000002     quadcopterController_pem3.oem3 (.const:ti_sysbios_knl_Swi_Module__id__C)
                  00010cd4    00000002     quadcopterController_pem3.oem3 (.const:ti_sysbios_knl_Swi_Module__loggerDefined__C)
                  00010cd6    00000002     quadcopterController_pem3.oem3 (.const:ti_sysbios_knl_Task_Module__id__C)
                  00010cd8    00000002     quadcopterController_pem3.oem3 (.const:ti_sysbios_knl_Task_Module__loggerDefined__C)
                  00010cda    00000002     quadcopterController_pem3.oem3 (.const:xdc_runtime_Core_Module__id__C)
                  00010cdc    00000002     quadcopterController_pem3.oem3 (.const:xdc_runtime_Error_Module__loggerDefined__C)
                  00010cde    00000002     quadcopterController_pem3.oem3 (.const:xdc_runtime_Error_maxDepth__C)
                  00010ce0    00000002     quadcopterController_pem3.oem3 (.const:xdc_runtime_Memory_Module__id__C)
                  00010ce2    00000002     quadcopterController_pem3.oem3 (.const:xdc_runtime_SysMin_flushAtExit__C)
                  00010ce4    00000002     quadcopterController_pem3.oem3 (.const:xdc_runtime_Text_charCnt__C)
                  00010ce6    00000002     quadcopterController_pem3.oem3 (.const:xdc_runtime_Text_isLoaded__C)
                  00010ce8    00000002     quadcopterController_pem3.oem3 (.const:xdc_runtime_Text_registryModsLastId__C)
                  00010cea    00000002     quadcopterController_pem3.oem3 (.const:xdc_runtime_Text_unnamedModsLastId__C)
                  00010cec    00000001     quadcopterController_pem3.oem3 (.const:xdc_runtime_Error_policy__C)

.cinit     0    00010cf0    00000580     
                  00010cf0    00000545     (.cinit..data.load) [load image, compression = rle]
                  00011235    00000003     --HOLE-- [fill = 0]
                  00011238    0000000c     (__TI_handler_table)
                  00011244    00000004     --HOLE-- [fill = 0]
                  00011248    00000008     (.cinit..bss.load) [load image, compression = zero_init]
                  00011250    00000008     (.cinit..vecs.load) [load image, compression = zero_init]
                  00011258    00000018     (__TI_cinit_table)

.init_array 
*          0    00000000    00000000     UNINITIALIZED

.resetVecs 
*          0    00000000    0000003c     
                  00000000    0000003c     quadcopterController_pem3.oem3 (.resetVecs)

.ccfg      0    0001ffa8    00000058     
                  0001ffa8    00000058     ccfg.obj (.ccfg:retain)

.vecs      0    20000000    000000c8     UNINITIALIZED
                  20000000    000000c8     quadcopterController_pem3.oem3 (.vecs)

.bss       0    200000c8    00002d6f     UNINITIALIZED
                  200000c8    00001000     quadcopterController_pem3.oem3 (.bss:ti_sysbios_heaps_HeapMem_Instance_State_0_buf__A)
                  200010c8    00000400     quadcopterController.obj (.bss:task0Stack)
                  200014c8    00000400     quadcopterController.obj (.bss:task1Stack)
                  200018c8    00000400     quadcopterController.obj (.bss:task2Stack)
                  20001cc8    00000400     quadcopterController_pem3.oem3 (.bss:xdc_runtime_SysMin_Module_State_0_outbuf__A)
                  200020c8    00000200     quadcopterController_pem3.oem3 (.bss:taskStackSection)
                  200022c8    00000120     rtsv7M3_T_le_eabi.lib : trgmsg.obj (.bss:__CIOBUF_)
                  200023e8    00000110     quadcopterController.obj (.bss:mailboxBuf)
                  200024f8    00000100     rf_singleMode_cc13xxware.aem3 : RFCC26XX_singleMode.oem3 (.bss:aCmdPool)
                  200025f8    000000dc     CC1350_LAUNCHXL.obj (.bss:adcCC26xxObjects)
                  200026d4    000000c8     quadcopterController_pem3.oem3 (.bss:ti_sysbios_family_arm_m3_Hwi_dispatchTable)
                  2000279c    00000004     (.common:PIN_NumPins)
                  200027a0    00000098     EasyLink.obj (.bss:rfObject)
                  20002838    0000008c     EasyLink.obj (.bss:txBuffer)
                  200028c4    0000007c     drivers_cc13xxware.aem3 : PINCC26XX.oem3 (.bss:PIN_HandleTable)
                  20002940    0000006c     quadcopterController.obj (.bss:mbxStruct)
                  200029ac    00000050     quadcopterController.obj (.bss:task0Struct)
                  200029fc    00000050     quadcopterController.obj (.bss:task1Struct)
                  20002a4c    00000050     quadcopterController.obj (.bss:task2Struct)
                  20002a9c    00000034     drivers_cc13xxware.aem3 : PINCC26XX.oem3 (.bss:PinSwi)
                  20002ad0    00000034     rf_singleMode_cc13xxware.aem3 : RFCC26XX_singleMode.oem3 (.bss:swiFsm)
                  20002b04    00000034                                   : RFCC26XX_singleMode.oem3 (.bss:swiHw)
                  20002b38    00000028     EasyLink.obj (.bss:EasyLink_cmdPropRadioDivSetup)
                  20002b60    00000024     quadcopterController.obj (.bss:clk0Struct)
                  20002b84    00000024     quadcopterController.obj (.bss:clk1Struct)
                  20002ba8    00000024     quadcopterController.obj (.bss:clk2Struct)
                  20002bcc    00000024     rf_singleMode_cc13xxware.aem3 : RFCC26XX_singleMode.oem3 (.bss:clkPowerUp)
                  20002bf0    00000020     (.common:PinGpioConfigTable)
                  20002c10    00000020     (.common:cmdDirImm)
                  20002c30    0000001c     (.common:PinHwi)
                  20002c4c    0000001c     (.common:PinSem)
                  20002c68    0000001c     (.common:adcSemaphore)
                  20002c84    0000001c     (.common:calibStruct)
                  20002ca0    0000001c     (.common:hwiCpe0)
                  20002cbc    0000001c     (.common:hwiHw)
                  20002cd8    0000001c     (.common:rfRdyStruct)
                  20002cf4    0000001c     (.common:sampleStruct)
                  20002d10    00000018     (.common:EasyLink_cmdFs)
                  20002d28    00000014     driverlib.lib : osc.obj (.bss:oscHfGlobals)
                  20002d3c    00000014     (.common:cmdQ)
                  20002d50    00000014     (.common:opRatSync)
                  20002d64    00000014     (.common:rfParams)
                  20002d78    00000010     (.common:EasyLink_RF_prop)
                  20002d88    0000000c     (.common:buttonPinState)
                  20002d94    0000000c     (.common:ledPinState)
                  20002da0    0000000c     (.common:rxStatistics)
                  20002dac    00000008                   : sys_ctrl.obj (.bss:powerQualGlobals)
                  20002db4    00000008     (.common:dataQueue)
                  20002dbc    00000008     (.common:parmbuf)
                  20002dc4    00000004     (.common:activeTimeInUs)
                  20002dc8    00000004     (.common:busyMutex)
                  20002dcc    00000004     (.common:buttonPinHandle)
                  20002dd0    00000004     (.common:calibSem)
                  20002dd4    00000004     (.common:clk0Handle)
                  20002dd8    00000004     (.common:clk1Handle)
                  20002ddc    00000004     (.common:clk2Handle)
                  20002de0    00000004     (.common:dispatchInUs)
                  20002de4    00000004     (.common:hDisplaySerial)
                  20002de8    00000004     (.common:ledPinHandle)
                  20002dec    00000004     (.common:mbxHandle)
                  20002df0    00000004     (.common:nRtc1)
                  20002df4    00000004     (.common:nRtc2)
                  20002df8    00000004     (.common:nRtc3)
                  20002dfc    00000004     (.common:pCurrClient)
                  20002e00    00000004     (.common:pFsmState)
                  20002e04    00000004     (.common:pPinGpio)
                  20002e08    00000004     (.common:rfHandle)
                  20002e0c    00000004     (.common:rfRdySem)
                  20002e10    00000004     (.common:sampleSem)
                  20002e14    00000002     (.common:leftXAvg)
                  20002e16    00000002     (.common:leftXMax)
                  20002e18    00000002     (.common:leftXMin)
                  20002e1a    00000002     (.common:leftYAvg)
                  20002e1c    00000002     (.common:leftYMax)
                  20002e1e    00000002     (.common:leftYMin)
                  20002e20    00000002     (.common:rightXAvg)
                  20002e22    00000002     (.common:rightXMax)
                  20002e24    00000002     (.common:rightXMin)
                  20002e26    00000002     (.common:rightYAvg)
                  20002e28    00000002     (.common:rightYMax)
                  20002e2a    00000002     (.common:rightYMin)
                  20002e2c    00000001     (.common:bInitAvailRatCh)
                  20002e2d    00000001     (.common:bPowerDownActive)
                  20002e2e    00000001     (.common:bPowerUpActive)
                  20002e2f    00000001     (.common:bRadioActive)
                  20002e30    00000001     (.common:bRestart)
                  20002e31    00000001     (.common:bStart)
                  20002e32    00000001     (.common:bYieldPwrDnCalled)
                  20002e33    00000001     (.common:bYieldPwrDnCancel)
                  20002e34    00000001     (.common:driverlib_release_0_46593)
                  20002e35    00000001     (.common:nActiveClients)
                  20002e36    00000001     (.common:nClients)

.data      0    20002e38    00000808     UNINITIALIZED
                  20002e38    00000130     quadcopterController_pem3.oem3 (.data)
                  20002f68    00000110     drivers_cc13xxware.aem3 : PowerCC26XX.oem3 (.data:PowerCC26XX_module)
                  20003078    00000080     quadcopterController_pem3.oem3 (.data:ti_sysbios_knl_Swi_Module_State_0_readyQ__A)
                  200030f8    00000080     quadcopterController_pem3.oem3 (.data:ti_sysbios_knl_Task_Module_State_0_readyQ__A)
                  20003178    0000005c     EasyLink.obj (.data)
                  200031d4    0000005c     smartrf_settings.obj (.data:pOverrides)
                  20003230    0000005c     smartrf_settings_predefined.obj (.data:pOverrides_50kbps2gfsk)
                  2000328c    0000005c     smartrf_settings_predefined.obj (.data:pOverrides_625bpsLrm)
                  200032e8    00000050     smartrf_settings_predefined.obj (.data)
                  20003338    0000004c     quadcopterController_pem3.oem3 (.data:ti_sysbios_knl_Task_Object__table__V)
                  20003384    00000004     drivers_cc13xxware.aem3 : ADC.oem3 (.data)
                  20003388    00000048     quadcopterController_pem3.oem3 (.data:ti_sysbios_family_arm_cc26xx_Timer_Object__table__V)
                  200033d0    00000044     quadcopterController_pem3.oem3 (.data:ti_sysbios_knl_Task_Module__state__V)
                  20003414    00000040     smartrf_settings.obj (.data)
                  20003454    00000038     quadcopterController_pem3.oem3 (.data:ti_sysbios_gates_GateMutex_Object__table__V)
                  2000348c    00000034     quadcopterController_pem3.oem3 (.data:ti_sysbios_family_arm_m3_Hwi_Module__state__V)
                  200034c0    00000030     EasyLink.obj (.data:EasyLink_cmdPropRxAdv)
                  200034f0    00000030     quadcopterController_pem3.oem3 (.data:ti_sysbios_knl_Swi_Object__table__V)
                  20003520    0000002c     quadcopterController_pem3.oem3 (.data:ti_sysbios_knl_Clock_Module__state__V)
                  2000354c    00000028     smartrf_settings.obj (.data:RF_cmdPropRadioDivSetup)
                  20003574    00000028     smartrf_settings_predefined.obj (.data:RF_cmdPropRadioDivSetup_50kbps2gfsk)
                  2000359c    00000028     smartrf_settings_predefined.obj (.data:RF_cmdPropRadioDivSetup_625bpsLrm)
                  200035c4    00000024     smartrf_settings.obj (.data:RF_cmdPropRx)
                  200035e8    00000024     quadcopterController_pem3.oem3 (.data:ti_sysbios_BIOS_Module__state__V)
                  2000360c    0000001c     quadcopterController.obj (.data)
                  20003628    00000008     rtsv7M3_T_le_eabi.lib : _lock.obj (.data)
                  20003630    00000008                           : exit.obj (.data)
                  20003638    00000004                           : stkdepth_vars.obj (.data)
                  2000363c    00000002     drivers_cc13xxware.aem3 : ADCCC26XX.oem3 (.data)
                  2000363e    00000002     rf_singleMode_cc13xxware.aem3 : RFCC26XX_singleMode.oem3 (.data)

.stack     0    20004800    00000800     UNINITIALIZED
                  20004800    00000800     --HOLE--

.bootVecs 
*          0    00000000    00000008     DSECT
                  00000000    00000008     boot.aem3 : boot.oem3 (.bootVecs)

xdc.meta   0    00000000    000000f4     COPY SECTION
                  00000000    000000f4     quadcopterController_pem3.oem3 (xdc.meta)

.TI.noinit 
*          0    200000c8    00000000     UNINITIALIZED

.TI.persistent 
*          0    20002e38    00000000     UNINITIALIZED


LINKER GENERATED COPY TABLES

__TI_cinit_table @ 00011258 records: 3, size/record: 8, table size: 24
	.data: load addr=00010cf0, load size=00000545 bytes, run addr=20002e38, run size=00000808 bytes, compression=rle
	.bss: load addr=00011248, load size=00000008 bytes, run addr=200000c8, run size=00002d6f bytes, compression=zero_init
	.vecs: load addr=00011250, load size=00000008 bytes, run addr=20000000, run size=000000c8 bytes, compression=zero_init


LINKER GENERATED HANDLER TABLE

__TI_handler_table @ 00011238 records: 3, size/record: 4, table size: 12
	index: 0, handler: __TI_decompress_rle24
	index: 1, handler: __TI_decompress_none
	index: 2, handler: __TI_zero_init


GLOBAL SYMBOLS: SORTED ALPHABETICALLY BY Name 

address   name                                                        
-------   ----                                                        
0000b3b5  ADCCC26XX_close                                             
0000d525  ADCCC26XX_control                                           
00008ffd  ADCCC26XX_convert                                           
0000b685  ADCCC26XX_convertRawToMicroVolts                            
0001098c  ADCCC26XX_fxnTable                                          
0000d4d5  ADCCC26XX_init                                              
000083fd  ADCCC26XX_open                                              
0000d52b  ADC_Params_init                                             
0001048c  ADC_config                                                  
0000d485  ADC_convert                                                 
0000b6bd  ADC_init                                                    
0000c0ad  ADC_open                                                    
00010670  BoardGpioInitTable                                          
0000b0a5  C$$EXIT                                                     
00009fdf  C$$IO$$                                                     
20003184  EasyLink_cmdPropTx                                          
00002aad  EasyLink_init                                               
00006f05  EasyLink_setFrequency                                       
00004f39  EasyLink_setRfPwr                                           
000055e9  EasyLink_transmit                                           
00002a65  HOSTclock                                                   
00002a2d  HOSTclose                                                   
000029ef  HOSTgetenv                                                  
00002993  HOSTlseek                                                   
00002941  HOSTopen                                                    
000028f5  HOSTread                                                    
00002897  HOSTrename                                                  
0000285d  HOSTtime                                                    
00002825  HOSTunlink                                                  
000027d9  HOSTwrite                                                   
0000d0d9  HwiP_restore                                                
0000d48f  List_empty                                                  
0000d543  List_head                                                   
0000d547  List_next                                                   
0000c0d5  NOROM_AONBatMonTemperatureGetDegC                           
0000ce1d  NOROM_AONRTCCurrent64BitValueGet                            
0000ca2d  NOROM_AONRTCCurrentCompareValueGet                          
0000c451  NOROM_AUXADCAdjustValueForGainAndOffset                     
00008855  NOROM_AUXADCDisable                                         
0000b87d  NOROM_AUXADCDisableInputScaling                             
00007c21  NOROM_AUXADCEnableSync                                      
0000d019  NOROM_AUXADCFlushFifo                                       
0000c751  NOROM_AUXADCGetAdjustmentGain                               
0000ca45  NOROM_AUXADCGetAdjustmentOffset                             
0000d029  NOROM_AUXADCReadFifo                                        
0000ce31  NOROM_AUXADCValueToMicrovolts                               
0000d299  NOROM_CPUcpsid                                              
0000d2a5  NOROM_CPUcpsie                                              
0000ae21  NOROM_ChipInfo_GetChipFamily                                
0000972d  NOROM_ChipInfo_GetHwRevision                                
0000ca5d  NOROM_ChipInfo_GetPackageType                               
0000bea1  NOROM_DDI32RegWrite                                         
0000becd  NOROM_OSCClockSourceGet                                     
0000a145  NOROM_OSCClockSourceSet                                     
0000a019  NOROM_OSCHF_AttemptToSwitchToXosc                           
0000b8b1  NOROM_OSCHF_SwitchToRcOscTurnOffXosc                        
0000ca75  NOROM_OSCHF_TurnOnXosc                                      
0000b469  NOROM_OSC_HPOSCRelativeFrequencyOffsetGet                   
0000c4d9  NOROM_RFCAdi3VcoLdoVoltageMode                              
0000ca8d  NOROM_RFCCpeIntGetAndClear                                  
0000c4f9  NOROM_RFCDoorbellSendTo                                     
00007275  NOROM_RFCRTrim                                              
00007425  NOROM_RFCRfTrimRead                                         
0000d039  NOROM_RFCRfTrimSet                                          
0000b4a5  NOROM_RFCSynthPowerDown                                     
00008545  NOROM_SetupAfterColdResetWakeupFromShutDownCfg1             
00006e19  NOROM_SetupAfterColdResetWakeupFromShutDownCfg2             
00005c31  NOROM_SetupAfterColdResetWakeupFromShutDownCfg3             
0000caa5  NOROM_SetupGetTrimForAdcShModeEn                            
0000cabd  NOROM_SetupGetTrimForAdcShVbufEn                            
00009b1d  NOROM_SetupGetTrimForAmpcompCtrl                            
0000cad5  NOROM_SetupGetTrimForAmpcompTh1                             
0000c76d  NOROM_SetupGetTrimForAmpcompTh2                             
00009e79  NOROM_SetupGetTrimForAnabypassValue1                        
0000caed  NOROM_SetupGetTrimForDblrLoopFilterResetVoltage             
0000bef9  NOROM_SetupGetTrimForRadcExtCfg                             
0000cb05  NOROM_SetupGetTrimForRcOscLfIBiasTrim                       
0000c789  NOROM_SetupGetTrimForRcOscLfRtuneCtuneTrim                  
0000c519  NOROM_SetupGetTrimForXoscHfCtl                              
0000d049  NOROM_SetupGetTrimForXoscHfFastStart                        
0000d059  NOROM_SetupGetTrimForXoscHfIbiastherm                       
0000cb1d  NOROM_SetupGetTrimForXoscLfRegulatorAndCmirrwrRatio         
0000bab9  NOROM_SetupSetAonRtcSubSecInc                               
0000ab65  NOROM_SetupSetCacheModeAccordingToCcfgSetting               
0000979d  NOROM_SetupSetVddrLevel                                     
0000d1e9  NOROM_SetupSignExtendVddrTrimValue                          
000084a1  NOROM_SetupTrimDevice                                       
0000a325  NOROM_SysCtrlAdjustRechargeAfterPowerDown                   
00002f49  NOROM_SysCtrlSetRechargeBeforePowerDown                     
00009ee1  NOROM_SysCtrl_DCDC_VoltageConditionalControl                
0000ccfd  NOROM_ThisCodeIsBuiltForCC13xxHwRev20AndLater_HaltIfViolated
0000d1f7  NOROM_VIMSModeGet                                           
0000c211  PINCC26XX_getPinCount                                       
00010a30  PINCC26XX_hwAttrs                                           
200028c4  PIN_HandleTable                                             
2000279c  PIN_NumPins                                                 
0000c6d9  PIN_close                                                   
0000ce45  PIN_getInputValue                                           
0000ce59  PIN_getOutputValue                                          
00003d39  PIN_init                                                    
000088e9  PIN_open                                                    
0000d2b1  PIN_registerIntCb                                           
0000a381  PIN_remove                                                  
0000b8e5  PIN_setConfig                                               
0000b4e1  PIN_setOutputValue                                          
0000a1a5  PowerCC26XX_RCOSC_clockFunc                                 
0000955d  PowerCC26XX_auxISR                                          
00009b89  PowerCC26XX_calibrate                                       
00010a14  PowerCC26XX_config                                          
00004799  PowerCC26XX_doCalibrate                                     
0000a65d  PowerCC26XX_initiateCalibration                             
20002f68  PowerCC26XX_module                                          
00007da1  PowerCC26XX_standbyPolicy                                   
0000d2bd  Power_getConstraintMask                                     
0000d2c9  Power_getDependencyCount                                    
0000c6f7  Power_getTransitionLatency                                  
0000cb35  Power_idleFunc                                              
00005d61  Power_init                                                  
0000bae9  Power_releaseConstraint                                     
000074f9  Power_releaseDependency                                     
0000bb19  Power_setConstraint                                         
000076a1  Power_setDependency                                         
00003179  Power_sleep                                                 
00010a58  RFCC26XX_hwAttrs                                            
00000de9  RFTransmitFxn                                               
0000ce6d  RF_Params_init                                              
0000654d  RF_close                                                    
20003424  RF_cmdFs                                                    
200032f8  RF_cmdFs_50kbps2gfsk                                        
20003320  RF_cmdFs_625bpsLrm                                          
2000354c  RF_cmdPropRadioDivSetup                                     
20003574  RF_cmdPropRadioDivSetup_50kbps2gfsk                         
2000359c  RF_cmdPropRadioDivSetup_625bpsLrm                           
200035c4  RF_cmdPropRx                                                
2000343c  RF_cmdPropTx                                                
00009f49  RF_getCurrentTime                                           
00007a99  RF_open                                                     
0000907d  RF_pendCmd                                                  
000045e9  RF_postCmd                                                  
20003414  RF_prop                                                     
200032e8  RF_prop_50kbps2gfsk                                         
20003310  RF_prop_625bpsLrm                                           
0000aeb1  RF_runCmd                                                   
0000b061  ResetISR                                                    
UNDEFED   SHT$$INIT_ARRAY$$Base                                       
UNDEFED   SHT$$INIT_ARRAY$$Limit                                      
0000bb49  SafeHapiAuxAdiSelect                                        
0000c125  SafeHapiVoid                                                
00000000  __ASM__                                                     
200022c8  __CIOBUF_                                                   
0000006e  __ISA__                                                     
00000080  __PLAT__                                                    
20005000  __STACK_END                                                 
00000800  __STACK_SIZE                                                
000000a7  __TARG__                                                    
00011258  __TI_CINIT_Base                                             
00011270  __TI_CINIT_Limit                                            
00011238  __TI_Handler_Table_Base                                     
00011244  __TI_Handler_Table_Limit                                    
000085e5  __TI_auto_init                                              
20003630  __TI_cleanup_ptr                                            
0000d205  __TI_decompress_none                                        
0000d53d  __TI_decompress_rle24                                       
20003634  __TI_dtors_ptr                                              
00009fe3  __TI_readmsg                                                
00010cf0  __TI_static_base__                                          
00009fb1  __TI_writemsg                                               
0000d2d5  __TI_zero_init                                              
000000cc  __TRDR__                                                    
00008de9  __aeabi_cdcmpeq                                             
00008de9  __aeabi_cdcmple                                             
00008e6f  __aeabi_cdrcmple                                            
00009aad  __aeabi_d2f                                                 
0000af41  __aeabi_d2iz                                                
0000b0e9  __aeabi_d2uiz                                               
00004287  __aeabi_dadd                                                
00005af9  __aeabi_ddiv                                                
00006759  __aeabi_dmul                                                
0000427d  __aeabi_dsub                                                
0000b72d  __aeabi_f2d                                                 
0000b765  __aeabi_f2iz                                                
00006859  __aeabi_fadd                                                
000093f1  __aeabi_fmul                                                
00006855  __aeabi_fsub                                                
0000bde9  __aeabi_i2d                                                 
0000b79d  __aeabi_i2f                                                 
00008ffb  __aeabi_idiv0                                               
0000cb95  __aeabi_lmul                                                
0000946b  __aeabi_memclr                                              
0000946b  __aeabi_memclr4                                             
0000946b  __aeabi_memclr8                                             
00008685  __aeabi_memcpy                                              
00008685  __aeabi_memcpy4                                             
00008685  __aeabi_memcpy8                                             
0000946d  __aeabi_memset                                              
0000946d  __aeabi_memset4                                             
0000946d  __aeabi_memset8                                             
0000b279  __aeabi_uidiv                                               
0000b279  __aeabi_uidivmod                                            
000033a1  __aeabi_uldivmod                                            
ffffffff  __binit__                                                   
ffffffff  __c_args__                                                  
0001ffa8  __ccfg                                                      
20004800  __stack                                                     
0000d531  __xdc__init                                                 
20002f64  __xdc__init__addr                                           
0000cb7d  _args_main                                                  
0000b061  _c_int00                                                    
20003628  _lock                                                       
0000cea3  _nop                                                        
0000ce9b  _register_lock                                              
0000ce95  _register_unlock                                            
2000362c  _unlock                                                     
0000b0a9  abort                                                       
000105b0  adcCC26xxHWAttrs                                            
200025f8  adcCC26xxObjects                                            
ffffffff  binit                                                       
0000b1f9  buttonCallbackFxn                                           
2000361c  buttonPinTable                                              
2000360d  buttonPressed                                               
000087bd  byteStuff                                                   
20002dd0  calibSem                                                    
20002c84  calibStruct                                                 
00001f0d  calibrationFxn                                              
20002dd4  clk0Handle                                                  
20002b60  clk0Struct                                                  
20002dd8  clk1Handle                                                  
20002b84  clk1Struct                                                  
20002ddc  clk2Handle                                                  
20002ba8  clk2Struct                                                  
000090fd  controllerFxn                                               
0000acf1  copy_in                                                     
2000360c  currState                                                   
20002e34  driverlib_release_0_46593                                   
0000b0b1  exit                                                        
0000b94d  gpioDebounceFxn0                                            
0000bba9  gpioDebounceFxn1                                            
20002de4  hDisplaySerial                                              
0000b239  isInRange                                                   
20003610  ledPinTable                                                 
20002e14  leftXAvg                                                    
20002e16  leftXMax                                                    
20002e18  leftXMin                                                    
20002e1a  leftYAvg                                                    
20002e1c  leftYMax                                                    
20002e1e  leftYMin                                                    
200023e8  mailboxBuf                                                  
00002501  main                                                        
20003638  main_func_sp                                                
00008c49  mapInputToOutput                                            
20002dec  mbxHandle                                                   
20002940  mbxStruct                                                   
00008685  memcpy                                                      
00009473  memset                                                      
2000328c  pOverrides_625bpsLrm                                        
0000ce81  periodicSampleFxn                                           
0001051c  resourceDB                                                  
20002e0c  rfRdySem                                                    
20002cd8  rfRdyStruct                                                 
20002e20  rightXAvg                                                   
20002e22  rightXMax                                                   
20002e24  rightXMin                                                   
20002e26  rightYAvg                                                   
20002e28  rightYMax                                                   
20002e2a  rightYMin                                                   
20002e10  sampleSem                                                   
20002cf4  sampleStruct                                                
0000cd13  strcpy                                                      
0000cea9  strlen                                                      
200010c8  task0Stack                                                  
200029ac  task0Struct                                                 
200014c8  task1Stack                                                  
200029fc  task1Struct                                                 
200018c8  task2Stack                                                  
20002a4c  task2Struct                                                 
200035e8  ti_sysbios_BIOS_Module__state__V                            
0000c977  ti_sysbios_BIOS_RtsGateProxy_Handle__label__S               
0000c331  ti_sysbios_BIOS_RtsGateProxy_Object__delete__S              
0000d553  ti_sysbios_BIOS_RtsGateProxy_enter__E                       
0000d557  ti_sysbios_BIOS_RtsGateProxy_leave__E                       
0000d31d  ti_sysbios_BIOS_RtsGateProxy_query__E                       
0000bbd9  ti_sysbios_BIOS_atExitFunc__I                               
0000c27d  ti_sysbios_BIOS_errorRaiseHook__I                           
0000cd29  ti_sysbios_BIOS_exitFunc__I                                 
0000cebd  ti_sysbios_BIOS_exit__E                                     
0000d099  ti_sysbios_BIOS_getThreadType__E                            
00009b1b  ti_sysbios_BIOS_linkedWithIncorrectBootLibrary__E           
0000b683  ti_sysbios_BIOS_nullFunc__I                                 
0000c2a1  ti_sysbios_BIOS_registerRTSLock__I                          
0000c2c5  ti_sysbios_BIOS_removeRTSLock__I                            
0000c559  ti_sysbios_BIOS_rtsLock__I                                  
0000cbc5  ti_sysbios_BIOS_rtsUnlock__I                                
0000c2e9  ti_sysbios_BIOS_setThreadType__E                            
0000bc09  ti_sysbios_BIOS_startFunc__I                                
0000d0a9  ti_sysbios_BIOS_start__E                                    
0000d4f5  ti_sysbios_family_arm_cc26xx_Boot_trimDevice                
20002e38  ti_sysbios_family_arm_cc26xx_Timer_Module__root__V          
0000cbdd  ti_sysbios_family_arm_cc26xx_Timer_Module__startupDone__F   
0000cbdd  ti_sysbios_family_arm_cc26xx_Timer_Module__startupDone__S   
20002e40  ti_sysbios_family_arm_cc26xx_Timer_Module__state__V         
0000bc39  ti_sysbios_family_arm_cc26xx_Timer_Module_startup__E        
20003388  ti_sysbios_family_arm_cc26xx_Timer_Object__table__V         
0000c579  ti_sysbios_family_arm_cc26xx_Timer_dynamicStub__E           
0000d499  ti_sysbios_family_arm_cc26xx_Timer_getCount64__E            
0000a5a9  ti_sysbios_family_arm_cc26xx_Timer_getCurrentTick__E        
0000af89  ti_sysbios_family_arm_cc26xx_Timer_getMaxTicks__E           
0000b981  ti_sysbios_family_arm_cc26xx_Timer_initDevice__I            
0000bf51  ti_sysbios_family_arm_cc26xx_Timer_postInit__I              
0000a603  ti_sysbios_family_arm_cc26xx_Timer_setNextTick__E           
0000cfc1  ti_sysbios_family_arm_cc26xx_Timer_setPeriod__E             
0000ac05  ti_sysbios_family_arm_cc26xx_Timer_setThreshold__I          
0000980d  ti_sysbios_family_arm_cc26xx_Timer_start__E                 
00010a5c  ti_sysbios_family_arm_cc26xx_Timer_startupNeeded__C         
0000bc69  ti_sysbios_family_arm_cc26xx_Timer_startup__E               
00010a60  ti_sysbios_family_arm_m3_Hwi_E_NMI__C                       
00010a64  ti_sysbios_family_arm_m3_Hwi_E_alreadyDefined__C            
00010a68  ti_sysbios_family_arm_m3_Hwi_E_busFault__C                  
00010a6c  ti_sysbios_family_arm_m3_Hwi_E_debugMon__C                  
00010a70  ti_sysbios_family_arm_m3_Hwi_E_hardFault__C                 
00010a74  ti_sysbios_family_arm_m3_Hwi_E_memFault__C                  
00010a78  ti_sysbios_family_arm_m3_Hwi_E_noIsr__C                     
00010a7c  ti_sysbios_family_arm_m3_Hwi_E_reserved__C                  
00010a80  ti_sysbios_family_arm_m3_Hwi_E_svCall__C                    
00010a84  ti_sysbios_family_arm_m3_Hwi_E_usageFault__C                
0000c8f5  ti_sysbios_family_arm_m3_Hwi_Handle__label__S               
0000afd1  ti_sysbios_family_arm_m3_Hwi_Instance_finalize__E           
00007909  ti_sysbios_family_arm_m3_Hwi_Instance_init__E               
00010a88  ti_sysbios_family_arm_m3_Hwi_LD_end__C                      
00010a8c  ti_sysbios_family_arm_m3_Hwi_LM_begin__C                    
20002e68  ti_sysbios_family_arm_m3_Hwi_Module_State_0_excActive__A    
20002e6c  ti_sysbios_family_arm_m3_Hwi_Module_State_0_excContext__A   
20002e70  ti_sysbios_family_arm_m3_Hwi_Module_State_0_excStack__A     
00010a90  ti_sysbios_family_arm_m3_Hwi_Module__diagsEnabled__C        
00010a94  ti_sysbios_family_arm_m3_Hwi_Module__diagsIncluded__C       
00010a98  ti_sysbios_family_arm_m3_Hwi_Module__diagsMask__C           
00010632  ti_sysbios_family_arm_m3_Hwi_Module__id__C                  
00010a12  ti_sysbios_family_arm_m3_Hwi_Module__loggerDefined__C       
00010a9c  ti_sysbios_family_arm_m3_Hwi_Module__loggerFxn1__C          
00010aa0  ti_sysbios_family_arm_m3_Hwi_Module__loggerFxn8__C          
00010aa4  ti_sysbios_family_arm_m3_Hwi_Module__loggerObj__C           
20002e48  ti_sysbios_family_arm_m3_Hwi_Module__root__V                
0000cbf5  ti_sysbios_family_arm_m3_Hwi_Module__startupDone__F         
0000cbf5  ti_sysbios_family_arm_m3_Hwi_Module__startupDone__S         
2000348c  ti_sysbios_family_arm_m3_Hwi_Module__state__V               
0000a205  ti_sysbios_family_arm_m3_Hwi_Module_startup__E              
00010aa8  ti_sysbios_family_arm_m3_Hwi_NUM_INTERRUPTS__C              
00010830  ti_sysbios_family_arm_m3_Hwi_Object__DESC__C                
000106d8  ti_sysbios_family_arm_m3_Hwi_Object__PARAMS__C              
00010aac  ti_sysbios_family_arm_m3_Hwi_Object__count__C               
0000c831  ti_sysbios_family_arm_m3_Hwi_Object__destruct__S            
0000ced1  ti_sysbios_family_arm_m3_Hwi_Object__get__S                 
20002e50  ti_sysbios_family_arm_m3_Hwi_Object__table__V               
0000d2e1  ti_sysbios_family_arm_m3_Hwi_Params__init__S                
00010ab0  ti_sysbios_family_arm_m3_Hwi_ccr__C                         
0000a70d  ti_sysbios_family_arm_m3_Hwi_construct                      
0000d55b  ti_sysbios_family_arm_m3_Hwi_destruct                       
0000d2ed  ti_sysbios_family_arm_m3_Hwi_disableFxn__E                  
0000987d  ti_sysbios_family_arm_m3_Hwi_disableInterrupt__E            
00005095  ti_sysbios_family_arm_m3_Hwi_dispatchC__I                   
200026d4  ti_sysbios_family_arm_m3_Hwi_dispatchTable                  
000079d1  ti_sysbios_family_arm_m3_Hwi_dispatch__I                    
0000d0c9  ti_sysbios_family_arm_m3_Hwi_doSwiRestore__I                
0000d213  ti_sysbios_family_arm_m3_Hwi_doTaskRestore__I               
00009bf5  ti_sysbios_family_arm_m3_Hwi_enableInterrupt__E             
00004c55  ti_sysbios_family_arm_m3_Hwi_excBusFault__I                 
00007b5d  ti_sysbios_family_arm_m3_Hwi_excDebugMon__I                 
0000058d  ti_sysbios_family_arm_m3_Hwi_excDumpRegs__I                 
00003975  ti_sysbios_family_arm_m3_Hwi_excFillContext__I              
0000c599  ti_sysbios_family_arm_m3_Hwi_excHandlerAsm__I               
00010ab4  ti_sysbios_family_arm_m3_Hwi_excHandlerFunc__C              
0000587d  ti_sysbios_family_arm_m3_Hwi_excHandlerMax__I               
0000bc99  ti_sysbios_family_arm_m3_Hwi_excHandler__I                  
00006fe1  ti_sysbios_family_arm_m3_Hwi_excHardFault__I                
00010a38  ti_sysbios_family_arm_m3_Hwi_excHookFuncs__A                
00010ab8  ti_sysbios_family_arm_m3_Hwi_excHookFuncs__C                
00005345  ti_sysbios_family_arm_m3_Hwi_excMemFault__I                 
0000b7d5  ti_sysbios_family_arm_m3_Hwi_excNmi__I                      
0000b51d  ti_sysbios_family_arm_m3_Hwi_excNoIsr__I                    
0000ad3d  ti_sysbios_family_arm_m3_Hwi_excReserved__I                 
0000b12d  ti_sysbios_family_arm_m3_Hwi_excSvCall__I                   
00004dd1  ti_sysbios_family_arm_m3_Hwi_excUsageFault__I               
0000bf7d  ti_sysbios_family_arm_m3_Hwi_getHandle__E                   
00009645  ti_sysbios_family_arm_m3_Hwi_getStackInfo__E                
00008145  ti_sysbios_family_arm_m3_Hwi_initNVIC__E                    
0000b019  ti_sysbios_family_arm_m3_Hwi_initStacks__E                  
00010abc  ti_sysbios_family_arm_m3_Hwi_nullIsrFunc__C                 
e000e000  ti_sysbios_family_arm_m3_Hwi_nvic                           
0000c90f  ti_sysbios_family_arm_m3_Hwi_pendSV__I                      
0000bfa9  ti_sysbios_family_arm_m3_Hwi_plug__E                        
00008ef5  ti_sysbios_family_arm_m3_Hwi_postInit__I                    
0000c84d  ti_sysbios_family_arm_m3_Hwi_post__E                        
00010ac0  ti_sysbios_family_arm_m3_Hwi_priGroup__C                    
20000000  ti_sysbios_family_arm_m3_Hwi_ramVectors                     
00000000  ti_sysbios_family_arm_m3_Hwi_resetVectors                   
0000d0d9  ti_sysbios_family_arm_m3_Hwi_restoreFxn__E                  
0000c927  ti_sysbios_family_arm_m3_Hwi_return                         
0000c929  ti_sysbios_family_arm_m3_Hwi_setFunc__E                     
0000b559  ti_sysbios_family_arm_m3_Hwi_setPriority__E                 
0000d4fd  ti_sysbios_family_arm_m3_Hwi_startup__E                     
0000cc0d  ti_sysbios_family_arm_m3_Hwi_switchFromBootStack__E         
0000d55f  ti_sysbios_family_arm_m3_TaskSupport_Module__startupDone__S 
0000ad89  ti_sysbios_family_arm_m3_TaskSupport_buildTaskStack         
0000c943  ti_sysbios_family_arm_m3_TaskSupport_checkStack__E          
0000d2f9  ti_sysbios_family_arm_m3_TaskSupport_getStackAlignment__E   
0000d0e9  ti_sysbios_family_arm_m3_TaskSupport_glue                   
00010ac4  ti_sysbios_family_arm_m3_TaskSupport_stackAlignment__C      
00009e0f  ti_sysbios_family_arm_m3_TaskSupport_start__E               
0000d0f9  ti_sysbios_family_arm_m3_TaskSupport_swap__E                
0000c715  ti_sysbios_family_xxx_Hwi_switchAndRunFunc                  
0000c95d  ti_sysbios_gates_GateHwi_Handle__label__S                   
0000d305  ti_sysbios_gates_GateHwi_Instance_init__E                   
00010758  ti_sysbios_gates_GateHwi_Module__FXNS__C                    
20002e74  ti_sysbios_gates_GateHwi_Module__root__V                    
00010850  ti_sysbios_gates_GateHwi_Object__DESC__C                    
000109a4  ti_sysbios_gates_GateHwi_Object__PARAMS__C                  
0000bcc9  ti_sysbios_gates_GateHwi_Object__create__S                  
0000c5b9  ti_sysbios_gates_GateHwi_Object__delete__S                  
20002e7c  ti_sysbios_gates_GateHwi_Object__table__V                   
0000cee5  ti_sysbios_gates_GateHwi_enter__E                           
0000cfd3  ti_sysbios_gates_GateHwi_leave__E                           
0000d311  ti_sysbios_gates_GateHwi_query__E                           
00010ac8  ti_sysbios_gates_GateMutex_A_badContext__C                  
0000c977  ti_sysbios_gates_GateMutex_Handle__label__S                 
00010acc  ti_sysbios_gates_GateMutex_Instance_State_sem__O            
0000cc3d  ti_sysbios_gates_GateMutex_Instance_finalize__E             
0000c30d  ti_sysbios_gates_GateMutex_Instance_init__E                 
0001077c  ti_sysbios_gates_GateMutex_Module__FXNS__C                  
00010ad0  ti_sysbios_gates_GateMutex_Module__diagsEnabled__C          
00010ad4  ti_sysbios_gates_GateMutex_Module__diagsIncluded__C         
00010ad8  ti_sysbios_gates_GateMutex_Module__diagsMask__C             
00010cc4  ti_sysbios_gates_GateMutex_Module__id__C                    
20002e80  ti_sysbios_gates_GateMutex_Module__root__V                  
00010870  ti_sysbios_gates_GateMutex_Object__DESC__C                  
000109bc  ti_sysbios_gates_GateMutex_Object__PARAMS__C                
0000bcf9  ti_sysbios_gates_GateMutex_Object__create__S                
0000c331  ti_sysbios_gates_GateMutex_Object__delete__S                
20003454  ti_sysbios_gates_GateMutex_Object__table__V                 
00006d29  ti_sysbios_gates_GateMutex_enter__E                         
0000c5d9  ti_sysbios_gates_GateMutex_leave__E                         
0000d31d  ti_sysbios_gates_GateMutex_query__E                         
0000c8f5  ti_sysbios_hal_Hwi_HwiProxy_Handle__label__S                
0000cbf5  ti_sysbios_hal_Hwi_HwiProxy_Module__startupDone__S          
0000d2e1  ti_sysbios_hal_Hwi_HwiProxy_Params__init__S                 
0000987d  ti_sysbios_hal_Hwi_HwiProxy_disableInterrupt__E             
0000d2ed  ti_sysbios_hal_Hwi_HwiProxy_disable__E                      
00009bf5  ti_sysbios_hal_Hwi_HwiProxy_enableInterrupt__E              
00009645  ti_sysbios_hal_Hwi_HwiProxy_getStackInfo__E                 
0000c84d  ti_sysbios_hal_Hwi_HwiProxy_post__E                         
0000d0d9  ti_sysbios_hal_Hwi_HwiProxy_restore__E                      
0000d4fd  ti_sysbios_hal_Hwi_HwiProxy_startup__E                      
0000cc0d  ti_sysbios_hal_Hwi_HwiProxy_switchFromBootStack__E          
20002e88  ti_sysbios_hal_Hwi_Module__root__V                          
0000cef9  ti_sysbios_hal_Hwi_Module_startup__E                        
0000cf0d  ti_sysbios_hal_Hwi_getStackInfo__E                          
0000be17  ti_sysbios_hal_Hwi_initStack                                
0000d505  ti_sysbios_hal_Hwi_startup__E                               
0000d50d  ti_sysbios_hal_Hwi_switchFromBootStack__E                   
00010adc  ti_sysbios_heaps_HeapMem_A_align__C                         
00010ae0  ti_sysbios_heaps_HeapMem_A_heapSize__C                      
00010ae4  ti_sysbios_heaps_HeapMem_A_invalidFree__C                   
00010ae8  ti_sysbios_heaps_HeapMem_A_zeroBlock__C                     
00010aec  ti_sysbios_heaps_HeapMem_E_memory__C                        
0000c991  ti_sysbios_heaps_HeapMem_Handle__label__S                   
200000c8  ti_sysbios_heaps_HeapMem_Instance_State_0_buf__A            
00003595  ti_sysbios_heaps_HeapMem_Instance_init__E                   
0000c977  ti_sysbios_heaps_HeapMem_Module_GateProxy_Handle__label__S  
0000c331  ti_sysbios_heaps_HeapMem_Module_GateProxy_Object__delete__S 
0000d563  ti_sysbios_heaps_HeapMem_Module_GateProxy_enter__E          
0000d567  ti_sysbios_heaps_HeapMem_Module_GateProxy_leave__E          
0000d31d  ti_sysbios_heaps_HeapMem_Module_GateProxy_query__E          
00010708  ti_sysbios_heaps_HeapMem_Module__FXNS__C                    
00010af0  ti_sysbios_heaps_HeapMem_Module__diagsEnabled__C            
00010af4  ti_sysbios_heaps_HeapMem_Module__diagsIncluded__C           
00010af8  ti_sysbios_heaps_HeapMem_Module__diagsMask__C               
00010afc  ti_sysbios_heaps_HeapMem_Module__gateObj__C                 
00010cc6  ti_sysbios_heaps_HeapMem_Module__id__C                      
20002e90  ti_sysbios_heaps_HeapMem_Module__root__V                    
00010890  ti_sysbios_heaps_HeapMem_Object__DESC__C                    
000107a0  ti_sysbios_heaps_HeapMem_Object__PARAMS__C                  
00010b00  ti_sysbios_heaps_HeapMem_Object__count__C                   
0000bd29  ti_sysbios_heaps_HeapMem_Object__create__S                  
0000c5f9  ti_sysbios_heaps_HeapMem_Object__delete__S                  
0000cf21  ti_sysbios_heaps_HeapMem_Object__get__S                     
20002e98  ti_sysbios_heaps_HeapMem_Object__table__V                   
00001889  ti_sysbios_heaps_HeapMem_alloc__E                           
00000a31  ti_sysbios_heaps_HeapMem_free__E                            
000098ed  ti_sysbios_heaps_HeapMem_getStats__E                        
0000aa15  ti_sysbios_heaps_HeapMem_init__I                            
0000d329  ti_sysbios_heaps_HeapMem_isBlocking__E                      
00010b04  ti_sysbios_heaps_HeapMem_reqAlign__C                        
0000c355  ti_sysbios_heaps_HeapMem_restore__E                         
00010b08  ti_sysbios_knl_Clock_A_badThreadType__C                     
00010b0c  ti_sysbios_knl_Clock_A_clockDisabled__C                     
000070bd  ti_sysbios_knl_Clock_Instance_finalize__E                   
00003efd  ti_sysbios_knl_Clock_Instance_init__E                       
00010b10  ti_sysbios_knl_Clock_LM_begin__C                            
00010b14  ti_sysbios_knl_Clock_LM_tick__C                             
00010b18  ti_sysbios_knl_Clock_Module_State_clockQ__O                 
00010b1c  ti_sysbios_knl_Clock_Module__diagsEnabled__C                
00010b20  ti_sysbios_knl_Clock_Module__diagsIncluded__C               
00010b24  ti_sysbios_knl_Clock_Module__diagsMask__C                   
00010cc8  ti_sysbios_knl_Clock_Module__id__C                          
00010cca  ti_sysbios_knl_Clock_Module__loggerDefined__C               
00010b28  ti_sysbios_knl_Clock_Module__loggerFxn1__C                  
00010b2c  ti_sysbios_knl_Clock_Module__loggerFxn2__C                  
00010b30  ti_sysbios_knl_Clock_Module__loggerObj__C                   
20002eb0  ti_sysbios_knl_Clock_Module__root__V                        
20003520  ti_sysbios_knl_Clock_Module__state__V                       
0000c379  ti_sysbios_knl_Clock_Module_startup__E                      
000108b0  ti_sysbios_knl_Clock_Object__DESC__C                        
000107c4  ti_sysbios_knl_Clock_Object__PARAMS__C                      
0000c619  ti_sysbios_knl_Clock_Object__destruct__S                    
20002eb8  ti_sysbios_knl_Clock_Object__table__V                       
0000d335  ti_sysbios_knl_Clock_Params__init__S                        
0000cbdd  ti_sysbios_knl_Clock_TimerProxy_Module__startupDone__S      
0000d56b  ti_sysbios_knl_Clock_TimerProxy_getCurrentTick__E           
0000d56f  ti_sysbios_knl_Clock_TimerProxy_getMaxTicks__E              
0000d573  ti_sysbios_knl_Clock_TimerProxy_setNextTick__E              
0000bc69  ti_sysbios_knl_Clock_TimerProxy_startup__E                  
0000b339  ti_sysbios_knl_Clock_addI__E                                
0000b9b5  ti_sysbios_knl_Clock_construct                              
0000d577  ti_sysbios_knl_Clock_destruct                               
0000cf49  ti_sysbios_knl_Clock_doTick__I                              
0000b171  ti_sysbios_knl_Clock_getTicksUntilInterrupt__E              
0000bfd5  ti_sysbios_knl_Clock_getTicks__E                            
00009c61  ti_sysbios_knl_Clock_logTick__E                             
0000d365  ti_sysbios_knl_Clock_removeI__E                             
0000c39d  ti_sysbios_knl_Clock_scheduleNextTick__E                    
0000cfe5  ti_sysbios_knl_Clock_setTimeout__E                          
00007e5d  ti_sysbios_knl_Clock_startI__E                              
000094e5  ti_sysbios_knl_Clock_start__E                               
0000c14d  ti_sysbios_knl_Clock_stop__E                                
00010b34  ti_sysbios_knl_Clock_tickPeriod__C                          
00010b38  ti_sysbios_knl_Clock_triggerClock__C                        
0000d4a3  ti_sysbios_knl_Clock_triggerFunc__I                         
00006655  ti_sysbios_knl_Clock_walkQueueDynamic__E                    
00006435  ti_sysbios_knl_Clock_workFuncDynamic__E                     
20002ed8  ti_sysbios_knl_Event_Module__root__V                        
00010b3c  ti_sysbios_knl_Idle_funcList__A                             
00010a40  ti_sysbios_knl_Idle_funcList__C                             
0000d371  ti_sysbios_knl_Idle_loop__E                                 
0000bd59  ti_sysbios_knl_Idle_run__E                                  
00010b40  ti_sysbios_knl_Mailbox_A_invalidBufSize__C                  
00010b44  ti_sysbios_knl_Mailbox_Instance_State_dataQue__O            
00010b48  ti_sysbios_knl_Mailbox_Instance_State_dataSem__O            
00010b4c  ti_sysbios_knl_Mailbox_Instance_State_freeQue__O            
00010b50  ti_sysbios_knl_Mailbox_Instance_State_freeSem__O            
00008a0d  ti_sysbios_knl_Mailbox_Instance_finalize__E                 
000040c1  ti_sysbios_knl_Mailbox_Instance_init__E                     
00010b54  ti_sysbios_knl_Mailbox_Module__diagsEnabled__C              
00010b58  ti_sysbios_knl_Mailbox_Module__diagsIncluded__C             
00010b5c  ti_sysbios_knl_Mailbox_Module__diagsMask__C                 
00010ccc  ti_sysbios_knl_Mailbox_Module__id__C                        
20002ee0  ti_sysbios_knl_Mailbox_Module__root__V                      
0000995d  ti_sysbios_knl_Mailbox_Module_startup__E                    
000108d0  ti_sysbios_knl_Mailbox_Object__DESC__C                      
000106a4  ti_sysbios_knl_Mailbox_Object__PARAMS__C                    
00010b60  ti_sysbios_knl_Mailbox_Object__count__C                     
0000d119  ti_sysbios_knl_Mailbox_Object__get__S                       
0000d37d  ti_sysbios_knl_Mailbox_Params__init__S                      
0000a765  ti_sysbios_knl_Mailbox_construct                            
00010b64  ti_sysbios_knl_Mailbox_maxTypeAlign__C                      
000091fd  ti_sysbios_knl_Mailbox_pend__E                              
0000a7bd  ti_sysbios_knl_Mailbox_postInit__I                          
00008a9d  ti_sysbios_knl_Mailbox_post__E                              
0000cd81  ti_sysbios_knl_Queue_Instance_init__E                       
20002ee8  ti_sysbios_knl_Queue_Module__root__V                        
000108f0  ti_sysbios_knl_Queue_Object__DESC__C                        
000109d4  ti_sysbios_knl_Queue_Object__PARAMS__C                      
0000c869  ti_sysbios_knl_Queue_Object__destruct__S                    
0000d395  ti_sysbios_knl_Queue_Object__get__S                         
0000c001  ti_sysbios_knl_Queue_construct                              
0000c3c1  ti_sysbios_knl_Queue_dequeue__E                             
0000d57b  ti_sysbios_knl_Queue_destruct                               
0000cf5d  ti_sysbios_knl_Queue_elemClear__E                           
0000ccb5  ti_sysbios_knl_Queue_empty__E                               
0000c02d  ti_sysbios_knl_Queue_enqueue__E                             
0000b9e9  ti_sysbios_knl_Queue_get__E                                 
0000d221  ti_sysbios_knl_Queue_head__E                                
0000d22f  ti_sysbios_knl_Queue_next__E                                
0000b649  ti_sysbios_knl_Queue_put__E                                 
0000c733  ti_sysbios_knl_Queue_remove__E                              
00010b68  ti_sysbios_knl_Semaphore_A_badContext__C                    
00010b6c  ti_sysbios_knl_Semaphore_A_noEvents__C                      
00010b70  ti_sysbios_knl_Semaphore_A_overflow__C                      
00010b74  ti_sysbios_knl_Semaphore_A_pendTaskDisabled__C              
00010b78  ti_sysbios_knl_Semaphore_Instance_State_pendQ__O            
0000c9ab  ti_sysbios_knl_Semaphore_Instance_finalize__E               
00006b41  ti_sysbios_knl_Semaphore_Instance_init__E                   
00010b7c  ti_sysbios_knl_Semaphore_LM_pend__C                         
00010b80  ti_sysbios_knl_Semaphore_LM_post__C                         
00010b84  ti_sysbios_knl_Semaphore_Module__diagsEnabled__C            
00010b88  ti_sysbios_knl_Semaphore_Module__diagsIncluded__C           
00010b8c  ti_sysbios_knl_Semaphore_Module__diagsMask__C               
00010cce  ti_sysbios_knl_Semaphore_Module__id__C                      
00010cd0  ti_sysbios_knl_Semaphore_Module__loggerDefined__C           
00010b90  ti_sysbios_knl_Semaphore_Module__loggerFxn2__C              
00010b94  ti_sysbios_knl_Semaphore_Module__loggerFxn4__C              
00010b98  ti_sysbios_knl_Semaphore_Module__loggerObj__C               
20002ef0  ti_sysbios_knl_Semaphore_Module__root__V                    
00010910  ti_sysbios_knl_Semaphore_Object__DESC__C                    
000107e8  ti_sysbios_knl_Semaphore_Object__PARAMS__C                  
0000c639  ti_sysbios_knl_Semaphore_Object__destruct__S                
0000d3b9  ti_sysbios_knl_Semaphore_Params__init__S                    
0000bd89  ti_sysbios_knl_Semaphore_construct                          
0000ba1d  ti_sysbios_knl_Semaphore_create                             
0000d57f  ti_sysbios_knl_Semaphore_destruct                           
0000b377  ti_sysbios_knl_Semaphore_pendTimeout__I                     
00001515  ti_sysbios_knl_Semaphore_pend__E                            
00004ac9  ti_sysbios_knl_Semaphore_post__E                            
00010b9c  ti_sysbios_knl_Swi_A_badPriority__C                         
00010ba0  ti_sysbios_knl_Swi_A_swiDisabled__C                         
0000c9c5  ti_sysbios_knl_Swi_Handle__label__S                         
00009ccd  ti_sysbios_knl_Swi_Instance_finalize__E                     
00004435  ti_sysbios_knl_Swi_Instance_init__E                         
00010ba4  ti_sysbios_knl_Swi_LD_end__C                                
00010ba8  ti_sysbios_knl_Swi_LM_begin__C                              
00010bac  ti_sysbios_knl_Swi_LM_post__C                               
20003078  ti_sysbios_knl_Swi_Module_State_0_readyQ__A                 
00010bb0  ti_sysbios_knl_Swi_Module__diagsEnabled__C                  
00010bb4  ti_sysbios_knl_Swi_Module__diagsIncluded__C                 
00010bb8  ti_sysbios_knl_Swi_Module__diagsMask__C                     
00010cd2  ti_sysbios_knl_Swi_Module__id__C                            
00010cd4  ti_sysbios_knl_Swi_Module__loggerDefined__C                 
00010bbc  ti_sysbios_knl_Swi_Module__loggerFxn1__C                    
00010bc0  ti_sysbios_knl_Swi_Module__loggerFxn4__C                    
00010bc4  ti_sysbios_knl_Swi_Module__loggerObj__C                     
20002ef8  ti_sysbios_knl_Swi_Module__root__V                          
20002f00  ti_sysbios_knl_Swi_Module__state__V                         
000099cd  ti_sysbios_knl_Swi_Module_startup__E                        
00010930  ti_sysbios_knl_Swi_Object__DESC__C                          
00010730  ti_sysbios_knl_Swi_Object__PARAMS__C                        
00010bc8  ti_sysbios_knl_Swi_Object__count__C                         
0000c885  ti_sysbios_knl_Swi_Object__destruct__S                      
0000cf71  ti_sysbios_knl_Swi_Object__get__S                           
200034f0  ti_sysbios_knl_Swi_Object__table__V                         
0000d3e9  ti_sysbios_knl_Swi_Params__init__S                          
0000aa69  ti_sysbios_knl_Swi_construct                                
0000d583  ti_sysbios_knl_Swi_destruct                                 
0000c8a1  ti_sysbios_knl_Swi_disable__E                               
0000d169  ti_sysbios_knl_Swi_enabled__E                               
0000d3f5  ti_sysbios_knl_Swi_getTrigger__E                            
00010bcc  ti_sysbios_knl_Swi_numConstructedSwis__C                    
0000c057  ti_sysbios_knl_Swi_or__E                                    
0000d23d  ti_sysbios_knl_Swi_postInit__I                              
0000783d  ti_sysbios_knl_Swi_post__E                                  
00008721  ti_sysbios_knl_Swi_restoreHwi__E                            
0000b2b9  ti_sysbios_knl_Swi_restore__E                               
00009d39  ti_sysbios_knl_Swi_runLoop__I                               
00005735  ti_sysbios_knl_Swi_run__I                                   
00009a3d  ti_sysbios_knl_Swi_schedule__I                              
0000d401  ti_sysbios_knl_Swi_self__E                                  
0000d4ad  ti_sysbios_knl_Swi_startup__E                               
00010bd0  ti_sysbios_knl_Task_A_badPriority__C                        
00010bd4  ti_sysbios_knl_Task_A_badTaskState__C                       
00010bd8  ti_sysbios_knl_Task_A_badThreadType__C                      
00010bdc  ti_sysbios_knl_Task_A_badTimeout__C                         
00010be0  ti_sysbios_knl_Task_A_noPendElem__C                         
00010be4  ti_sysbios_knl_Task_A_sleepTaskDisabled__C                  
00010be8  ti_sysbios_knl_Task_A_taskDisabled__C                       
00010bec  ti_sysbios_knl_Task_E_spOutOfBounds__C                      
00010bf0  ti_sysbios_knl_Task_E_stackOverflow__C                      
0000c9df  ti_sysbios_knl_Task_Handle__label__S                        
200020c8  ti_sysbios_knl_Task_Instance_State_0_stack__A               
0000221d  ti_sysbios_knl_Task_Instance_finalize__E                    
00001be1  ti_sysbios_knl_Task_Instance_init__E                        
00010bf4  ti_sysbios_knl_Task_LD_block__C                             
00010bf8  ti_sysbios_knl_Task_LD_exit__C                              
00010bfc  ti_sysbios_knl_Task_LD_ready__C                             
00010c00  ti_sysbios_knl_Task_LM_sleep__C                             
00010c04  ti_sysbios_knl_Task_LM_switch__C                            
20002f24  ti_sysbios_knl_Task_Module_State_0_idleTask__A              
200030f8  ti_sysbios_knl_Task_Module_State_0_readyQ__A                
00010c08  ti_sysbios_knl_Task_Module_State_inactiveQ__O               
00010c0c  ti_sysbios_knl_Task_Module__diagsEnabled__C                 
00010c10  ti_sysbios_knl_Task_Module__diagsIncluded__C                
00010c14  ti_sysbios_knl_Task_Module__diagsMask__C                    
00010cd6  ti_sysbios_knl_Task_Module__id__C                           
00010cd8  ti_sysbios_knl_Task_Module__loggerDefined__C                
00010c18  ti_sysbios_knl_Task_Module__loggerFxn2__C                   
00010c1c  ti_sysbios_knl_Task_Module__loggerFxn4__C                   
00010c20  ti_sysbios_knl_Task_Module__loggerObj__C                    
20002f1c  ti_sysbios_knl_Task_Module__root__V                         
200033d0  ti_sysbios_knl_Task_Module__state__V                        
0000917d  ti_sysbios_knl_Task_Module_startup__E                       
00010950  ti_sysbios_knl_Task_Object__DESC__C                         
00010634  ti_sysbios_knl_Task_Object__PARAMS__C                       
00010c24  ti_sysbios_knl_Task_Object__count__C                        
0000d179  ti_sysbios_knl_Task_Object__get__S                          
20003338  ti_sysbios_knl_Task_Object__table__V                        
0000d40d  ti_sysbios_knl_Task_Params__init__S                         
0000d55f  ti_sysbios_knl_Task_SupportProxy_Module__startupDone__S     
0000c943  ti_sysbios_knl_Task_SupportProxy_checkStack__E              
0000d2f9  ti_sysbios_knl_Task_SupportProxy_getStackAlignment__E       
00009e0f  ti_sysbios_knl_Task_SupportProxy_start__E                   
0000d0f9  ti_sysbios_knl_Task_SupportProxy_swap__E                    
00010c28  ti_sysbios_knl_Task_allBlockedFunc__C                       
0000a4f1  ti_sysbios_knl_Task_allBlockedFunction__I                   
00007ce1  ti_sysbios_knl_Task_blockI__E                               
00006c35  ti_sysbios_knl_Task_checkStacks__E                          
0000aabd  ti_sysbios_knl_Task_construct                               
00010c2c  ti_sysbios_knl_Task_defaultStackHeap__C                     
00010c30  ti_sysbios_knl_Task_defaultStackSize__C                     
0000c659  ti_sysbios_knl_Task_disable__E                              
0000c8bd  ti_sysbios_knl_Task_enabled__E                              
0000c679  ti_sysbios_knl_Task_enter__I                                
000081f9  ti_sysbios_knl_Task_exit__E                                 
0000be45  ti_sysbios_knl_Task_getMode__E                              
00010c34  ti_sysbios_knl_Task_numConstructedTasks__C                  
000082a9  ti_sysbios_knl_Task_postInit__I                             
0000b595  ti_sysbios_knl_Task_processVitalTaskFlag__I                 
0000c3e5  ti_sysbios_knl_Task_restoreHwi__E                           
0000bdb9  ti_sysbios_knl_Task_restore__E                              
00006951  ti_sysbios_knl_Task_schedule__I                             
0000d425  ti_sysbios_knl_Task_self__E                                 
0000c081  ti_sysbios_knl_Task_sleepTimeout__I                         
00002d01  ti_sysbios_knl_Task_sleep__E                                
00006a49  ti_sysbios_knl_Task_startCore__E                            
0000d4b7  ti_sysbios_knl_Task_startup__E                              
0000d101  ti_sysbios_knl_Task_swapReturn                              
00007f19  ti_sysbios_knl_Task_unblockI__E                             
0000c699  ti_sysbios_knl_Task_unblock__E                              
00010c38  xdc_runtime_Assert_E_assertFailed__C                        
0000a0e1  xdc_runtime_Assert_raise__I                                 
00010c3c  xdc_runtime_Core_A_initializedParams__C                     
00010c40  xdc_runtime_Core_Module__diagsEnabled__C                    
00010c44  xdc_runtime_Core_Module__diagsIncluded__C                   
00010c48  xdc_runtime_Core_Module__diagsMask__C                       
00010cda  xdc_runtime_Core_Module__id__C                              
0000a815  xdc_runtime_Core_assignLabel__I                             
00008f79  xdc_runtime_Core_assignParams__I                            
000059c1  xdc_runtime_Core_constructObject__I                         
00004939  xdc_runtime_Core_createObject__I                            
0000927b  xdc_runtime_Core_deleteObject__I                            
00010c4c  xdc_runtime_Error_E_memory__C                               
00010c50  xdc_runtime_Error_Module__diagsEnabled__C                   
00010c54  xdc_runtime_Error_Module__diagsIncluded__C                  
00010c58  xdc_runtime_Error_Module__diagsMask__C                      
00010cdc  xdc_runtime_Error_Module__loggerDefined__C                  
00010c5c  xdc_runtime_Error_Module__loggerFxn8__C                     
00010c60  xdc_runtime_Error_Module__loggerObj__C                      
20002f28  xdc_runtime_Error_Module__state__V                          
0000c409  xdc_runtime_Error_check__E                                  
0000d24b  xdc_runtime_Error_getSite__E                                
0000cf99  xdc_runtime_Error_init__E                                   
00010cde  xdc_runtime_Error_maxDepth__C                               
00005499  xdc_runtime_Error_policyDefault__E                          
00010c64  xdc_runtime_Error_policyFxn__C                              
00010cec  xdc_runtime_Error_policy__C                                 
000092f9  xdc_runtime_Error_print__E                                  
00010c68  xdc_runtime_Error_raiseHook__C                              
0000ba51  xdc_runtime_Error_raiseX__E                                 
0000a54d  xdc_runtime_Error_setX__E                                   
0000d199  xdc_runtime_Gate_enterSystem__E                             
0000cfad  xdc_runtime_Gate_leaveSystem__E                             
00010c6c  xdc_runtime_IGateProvider_Interface__BASE__C                
00010c70  xdc_runtime_IHeap_Interface__BASE__C                        
00010c74  xdc_runtime_IModule_Interface__BASE__C                      
00010c78  xdc_runtime_Log_L_error__C                                  
0000c95d  xdc_runtime_Main_Module_GateProxy_Handle__label__S          
0000c5b9  xdc_runtime_Main_Module_GateProxy_Object__delete__S         
0000d311  xdc_runtime_Main_Module_GateProxy_query__E                  
0000c991  xdc_runtime_Memory_HeapProxy_Handle__label__S               
0000c5f9  xdc_runtime_Memory_HeapProxy_Object__delete__S              
0000d4c1  xdc_runtime_Memory_HeapProxy_alloc__E                       
0000d4cb  xdc_runtime_Memory_HeapProxy_free__E                        
00010ce0  xdc_runtime_Memory_Module__id__C                            
20002f2c  xdc_runtime_Memory_Module__state__V                         
00009375  xdc_runtime_Memory_alloc__E                                 
0000c473  xdc_runtime_Memory_calloc__E                                
00010c7c  xdc_runtime_Memory_defaultHeapInstance__C                   
0000c42d  xdc_runtime_Memory_free__E                                  
0000d43d  xdc_runtime_Memory_getMaxDefaultTypeAlign__E                
0000ba85  xdc_runtime_Memory_valloc__E                                
20002f30  xdc_runtime_Registry_Module__state__V                       
0000b80d  xdc_runtime_Registry_findById__E                            
20002f38  xdc_runtime_Startup_Module__state__V                        
00000001  xdc_runtime_Startup__EXECFXN__C                             
00000001  xdc_runtime_Startup__RESETFXN__C                            
00010c80  xdc_runtime_Startup_execImpl__C                             
000096b9  xdc_runtime_Startup_exec__E                                 
0000cff7  xdc_runtime_Startup_exec__I                                 
00010a24  xdc_runtime_Startup_firstFxns__A                            
00010a48  xdc_runtime_Startup_firstFxns__C                            
00010a50  xdc_runtime_Startup_lastFxns__C                             
00010c84  xdc_runtime_Startup_maxPasses__C                            
0000d4f5  xdc_runtime_Startup_reset__I                                
0000d449  xdc_runtime_Startup_rtsDone__E                              
00010a00  xdc_runtime_Startup_sfxnRts__A                              
00010c88  xdc_runtime_Startup_sfxnRts__C                              
0001080c  xdc_runtime_Startup_sfxnTab__A                              
00010c8c  xdc_runtime_Startup_sfxnTab__C                              
000051ed  xdc_runtime_Startup_startMods__I                            
20001cc8  xdc_runtime_SysMin_Module_State_0_outbuf__A                 
20002f40  xdc_runtime_SysMin_Module__state__V                         
0000c175  xdc_runtime_SysMin_Module_startup__E                        
0000b5d1  xdc_runtime_SysMin_abort__E                                 
00010c90  xdc_runtime_SysMin_bufSize__C                               
0000c6b9  xdc_runtime_SysMin_exit__E                                  
00010ce2  xdc_runtime_SysMin_flushAtExit__C                           
0000a86d  xdc_runtime_SysMin_flush__E                                 
00010c94  xdc_runtime_SysMin_outputFunc__C                            
0000c495  xdc_runtime_SysMin_output__I                                
0000add5  xdc_runtime_SysMin_putch__E                                 
0000d1a9  xdc_runtime_SysMin_ready__E                                 
0000c95d  xdc_runtime_System_Module_GateProxy_Handle__label__S        
0000c5b9  xdc_runtime_System_Module_GateProxy_Object__delete__S       
0000d587  xdc_runtime_System_Module_GateProxy_enter__E                
0000d58b  xdc_runtime_System_Module_GateProxy_leave__E                
0000d311  xdc_runtime_System_Module_GateProxy_query__E                
20002f4c  xdc_runtime_System_Module_State_0_atexitHandlers__A         
00010c98  xdc_runtime_System_Module__gateObj__C                       
20002f54  xdc_runtime_System_Module__state__V                         
0000d259  xdc_runtime_System_Module_startup__E                        
0000b5d1  xdc_runtime_System_SupportProxy_abort__E                    
0000c6b9  xdc_runtime_System_SupportProxy_exit__E                     
0000a86d  xdc_runtime_System_SupportProxy_flush__E                    
0000add5  xdc_runtime_System_SupportProxy_putch__E                    
0000d1a9  xdc_runtime_System_SupportProxy_ready__E                    
00010c9c  xdc_runtime_System_abortFxn__C                              
0000b87b  xdc_runtime_System_abortSpin__E                             
0000d515  xdc_runtime_System_abortStd__E                              
0000c8d9  xdc_runtime_System_abort__E                                 
0000c9f9  xdc_runtime_System_aprintf__E                               
0000d1b9  xdc_runtime_System_aprintf_va__F                            
0000ac55  xdc_runtime_System_atexit__E                                
0000c1c5  xdc_runtime_System_avprintf__E                              
0000003d  xdc_runtime_System_doPrint__I                               
00010ca0  xdc_runtime_System_exitFxn__C                               
0000d455  xdc_runtime_System_exitStd__E                               
0000cce5  xdc_runtime_System_exit__E                                  
00010ca4  xdc_runtime_System_extendFxn__C                             
0000d51d  xdc_runtime_System_flush__E                                 
0000808d  xdc_runtime_System_formatNum__I                             
00010ca8  xdc_runtime_System_maxAtexitHandlers__C                     
00003b5d  xdc_runtime_System_printfExtend__I                          
0000ca13  xdc_runtime_System_printf__E                                
0000d1c9  xdc_runtime_System_printf_va__F                             
0000b60d  xdc_runtime_System_processAtExit__E                         
0000b2f9  xdc_runtime_System_putchar__I                               
0000c1eb  xdc_runtime_System_vprintf__E                               
0000c4b7  xdc_runtime_System_vsnprintf__E                             
20002f5c  xdc_runtime_Text_Module__state__V                           
00010ce4  xdc_runtime_Text_charCnt__C                                 
0000d590  xdc_runtime_Text_charTab__A                                 
00010cac  xdc_runtime_Text_charTab__C                                 
0000b1b5  xdc_runtime_Text_cordText__E                                
00010ce6  xdc_runtime_Text_isLoaded__C                                
00010cb0  xdc_runtime_Text_nameEmpty__C                               
00010cb4  xdc_runtime_Text_nameStatic__C                              
00010cb8  xdc_runtime_Text_nameUnknown__C                             
00010344  xdc_runtime_Text_nodeTab__A                                 
00010cbc  xdc_runtime_Text_nodeTab__C                                 
0000ab11  xdc_runtime_Text_printVisFxn__I                             
00008cd5  xdc_runtime_Text_putLab__E                                  
000075cd  xdc_runtime_Text_putMod__E                                  
00007199  xdc_runtime_Text_putSite__E                                 
00010ce8  xdc_runtime_Text_registryModsLastId__C                      
0000c19d  xdc_runtime_Text_ropeText__E                                
00010cea  xdc_runtime_Text_unnamedModsLastId__C                       
00008b2d  xdc_runtime_Text_visitRope2__I                              
00010cc0  xdc_runtime_Text_visitRopeFxn__C                            
0000d1d9  xdc_runtime_Text_visitRope__I                               
0000a2c5  xdc_runtime_Text_xprintf__I                                 


GLOBAL SYMBOLS: SORTED BY Symbol Address 

address   name                                                        
-------   ----                                                        
00000000  __ASM__                                                     
00000000  ti_sysbios_family_arm_m3_Hwi_resetVectors                   
00000001  xdc_runtime_Startup__EXECFXN__C                             
00000001  xdc_runtime_Startup__RESETFXN__C                            
0000003d  xdc_runtime_System_doPrint__I                               
0000006e  __ISA__                                                     
00000080  __PLAT__                                                    
000000a7  __TARG__                                                    
000000cc  __TRDR__                                                    
0000058d  ti_sysbios_family_arm_m3_Hwi_excDumpRegs__I                 
00000800  __STACK_SIZE                                                
00000a31  ti_sysbios_heaps_HeapMem_free__E                            
00000de9  RFTransmitFxn                                               
00001515  ti_sysbios_knl_Semaphore_pend__E                            
00001889  ti_sysbios_heaps_HeapMem_alloc__E                           
00001be1  ti_sysbios_knl_Task_Instance_init__E                        
00001f0d  calibrationFxn                                              
0000221d  ti_sysbios_knl_Task_Instance_finalize__E                    
00002501  main                                                        
000027d9  HOSTwrite                                                   
00002825  HOSTunlink                                                  
0000285d  HOSTtime                                                    
00002897  HOSTrename                                                  
000028f5  HOSTread                                                    
00002941  HOSTopen                                                    
00002993  HOSTlseek                                                   
000029ef  HOSTgetenv                                                  
00002a2d  HOSTclose                                                   
00002a65  HOSTclock                                                   
00002aad  EasyLink_init                                               
00002d01  ti_sysbios_knl_Task_sleep__E                                
00002f49  NOROM_SysCtrlSetRechargeBeforePowerDown                     
00003179  Power_sleep                                                 
000033a1  __aeabi_uldivmod                                            
00003595  ti_sysbios_heaps_HeapMem_Instance_init__E                   
00003975  ti_sysbios_family_arm_m3_Hwi_excFillContext__I              
00003b5d  xdc_runtime_System_printfExtend__I                          
00003d39  PIN_init                                                    
00003efd  ti_sysbios_knl_Clock_Instance_init__E                       
000040c1  ti_sysbios_knl_Mailbox_Instance_init__E                     
0000427d  __aeabi_dsub                                                
00004287  __aeabi_dadd                                                
00004435  ti_sysbios_knl_Swi_Instance_init__E                         
000045e9  RF_postCmd                                                  
00004799  PowerCC26XX_doCalibrate                                     
00004939  xdc_runtime_Core_createObject__I                            
00004ac9  ti_sysbios_knl_Semaphore_post__E                            
00004c55  ti_sysbios_family_arm_m3_Hwi_excBusFault__I                 
00004dd1  ti_sysbios_family_arm_m3_Hwi_excUsageFault__I               
00004f39  EasyLink_setRfPwr                                           
00005095  ti_sysbios_family_arm_m3_Hwi_dispatchC__I                   
000051ed  xdc_runtime_Startup_startMods__I                            
00005345  ti_sysbios_family_arm_m3_Hwi_excMemFault__I                 
00005499  xdc_runtime_Error_policyDefault__E                          
000055e9  EasyLink_transmit                                           
00005735  ti_sysbios_knl_Swi_run__I                                   
0000587d  ti_sysbios_family_arm_m3_Hwi_excHandlerMax__I               
000059c1  xdc_runtime_Core_constructObject__I                         
00005af9  __aeabi_ddiv                                                
00005c31  NOROM_SetupAfterColdResetWakeupFromShutDownCfg3             
00005d61  Power_init                                                  
00006435  ti_sysbios_knl_Clock_workFuncDynamic__E                     
0000654d  RF_close                                                    
00006655  ti_sysbios_knl_Clock_walkQueueDynamic__E                    
00006759  __aeabi_dmul                                                
00006855  __aeabi_fsub                                                
00006859  __aeabi_fadd                                                
00006951  ti_sysbios_knl_Task_schedule__I                             
00006a49  ti_sysbios_knl_Task_startCore__E                            
00006b41  ti_sysbios_knl_Semaphore_Instance_init__E                   
00006c35  ti_sysbios_knl_Task_checkStacks__E                          
00006d29  ti_sysbios_gates_GateMutex_enter__E                         
00006e19  NOROM_SetupAfterColdResetWakeupFromShutDownCfg2             
00006f05  EasyLink_setFrequency                                       
00006fe1  ti_sysbios_family_arm_m3_Hwi_excHardFault__I                
000070bd  ti_sysbios_knl_Clock_Instance_finalize__E                   
00007199  xdc_runtime_Text_putSite__E                                 
00007275  NOROM_RFCRTrim                                              
00007425  NOROM_RFCRfTrimRead                                         
000074f9  Power_releaseDependency                                     
000075cd  xdc_runtime_Text_putMod__E                                  
000076a1  Power_setDependency                                         
0000783d  ti_sysbios_knl_Swi_post__E                                  
00007909  ti_sysbios_family_arm_m3_Hwi_Instance_init__E               
000079d1  ti_sysbios_family_arm_m3_Hwi_dispatch__I                    
00007a99  RF_open                                                     
00007b5d  ti_sysbios_family_arm_m3_Hwi_excDebugMon__I                 
00007c21  NOROM_AUXADCEnableSync                                      
00007ce1  ti_sysbios_knl_Task_blockI__E                               
00007da1  PowerCC26XX_standbyPolicy                                   
00007e5d  ti_sysbios_knl_Clock_startI__E                              
00007f19  ti_sysbios_knl_Task_unblockI__E                             
0000808d  xdc_runtime_System_formatNum__I                             
00008145  ti_sysbios_family_arm_m3_Hwi_initNVIC__E                    
000081f9  ti_sysbios_knl_Task_exit__E                                 
000082a9  ti_sysbios_knl_Task_postInit__I                             
000083fd  ADCCC26XX_open                                              
000084a1  NOROM_SetupTrimDevice                                       
00008545  NOROM_SetupAfterColdResetWakeupFromShutDownCfg1             
000085e5  __TI_auto_init                                              
00008685  __aeabi_memcpy                                              
00008685  __aeabi_memcpy4                                             
00008685  __aeabi_memcpy8                                             
00008685  memcpy                                                      
00008721  ti_sysbios_knl_Swi_restoreHwi__E                            
000087bd  byteStuff                                                   
00008855  NOROM_AUXADCDisable                                         
000088e9  PIN_open                                                    
00008a0d  ti_sysbios_knl_Mailbox_Instance_finalize__E                 
00008a9d  ti_sysbios_knl_Mailbox_post__E                              
00008b2d  xdc_runtime_Text_visitRope2__I                              
00008c49  mapInputToOutput                                            
00008cd5  xdc_runtime_Text_putLab__E                                  
00008de9  __aeabi_cdcmpeq                                             
00008de9  __aeabi_cdcmple                                             
00008e6f  __aeabi_cdrcmple                                            
00008ef5  ti_sysbios_family_arm_m3_Hwi_postInit__I                    
00008f79  xdc_runtime_Core_assignParams__I                            
00008ffb  __aeabi_idiv0                                               
00008ffd  ADCCC26XX_convert                                           
0000907d  RF_pendCmd                                                  
000090fd  controllerFxn                                               
0000917d  ti_sysbios_knl_Task_Module_startup__E                       
000091fd  ti_sysbios_knl_Mailbox_pend__E                              
0000927b  xdc_runtime_Core_deleteObject__I                            
000092f9  xdc_runtime_Error_print__E                                  
00009375  xdc_runtime_Memory_alloc__E                                 
000093f1  __aeabi_fmul                                                
0000946b  __aeabi_memclr                                              
0000946b  __aeabi_memclr4                                             
0000946b  __aeabi_memclr8                                             
0000946d  __aeabi_memset                                              
0000946d  __aeabi_memset4                                             
0000946d  __aeabi_memset8                                             
00009473  memset                                                      
000094e5  ti_sysbios_knl_Clock_start__E                               
0000955d  PowerCC26XX_auxISR                                          
00009645  ti_sysbios_family_arm_m3_Hwi_getStackInfo__E                
00009645  ti_sysbios_hal_Hwi_HwiProxy_getStackInfo__E                 
000096b9  xdc_runtime_Startup_exec__E                                 
0000972d  NOROM_ChipInfo_GetHwRevision                                
0000979d  NOROM_SetupSetVddrLevel                                     
0000980d  ti_sysbios_family_arm_cc26xx_Timer_start__E                 
0000987d  ti_sysbios_family_arm_m3_Hwi_disableInterrupt__E            
0000987d  ti_sysbios_hal_Hwi_HwiProxy_disableInterrupt__E             
000098ed  ti_sysbios_heaps_HeapMem_getStats__E                        
0000995d  ti_sysbios_knl_Mailbox_Module_startup__E                    
000099cd  ti_sysbios_knl_Swi_Module_startup__E                        
00009a3d  ti_sysbios_knl_Swi_schedule__I                              
00009aad  __aeabi_d2f                                                 
00009b1b  ti_sysbios_BIOS_linkedWithIncorrectBootLibrary__E           
00009b1d  NOROM_SetupGetTrimForAmpcompCtrl                            
00009b89  PowerCC26XX_calibrate                                       
00009bf5  ti_sysbios_family_arm_m3_Hwi_enableInterrupt__E             
00009bf5  ti_sysbios_hal_Hwi_HwiProxy_enableInterrupt__E              
00009c61  ti_sysbios_knl_Clock_logTick__E                             
00009ccd  ti_sysbios_knl_Swi_Instance_finalize__E                     
00009d39  ti_sysbios_knl_Swi_runLoop__I                               
00009e0f  ti_sysbios_family_arm_m3_TaskSupport_start__E               
00009e0f  ti_sysbios_knl_Task_SupportProxy_start__E                   
00009e79  NOROM_SetupGetTrimForAnabypassValue1                        
00009ee1  NOROM_SysCtrl_DCDC_VoltageConditionalControl                
00009f49  RF_getCurrentTime                                           
00009fb1  __TI_writemsg                                               
00009fdf  C$$IO$$                                                     
00009fe3  __TI_readmsg                                                
0000a019  NOROM_OSCHF_AttemptToSwitchToXosc                           
0000a0e1  xdc_runtime_Assert_raise__I                                 
0000a145  NOROM_OSCClockSourceSet                                     
0000a1a5  PowerCC26XX_RCOSC_clockFunc                                 
0000a205  ti_sysbios_family_arm_m3_Hwi_Module_startup__E              
0000a2c5  xdc_runtime_Text_xprintf__I                                 
0000a325  NOROM_SysCtrlAdjustRechargeAfterPowerDown                   
0000a381  PIN_remove                                                  
0000a4f1  ti_sysbios_knl_Task_allBlockedFunction__I                   
0000a54d  xdc_runtime_Error_setX__E                                   
0000a5a9  ti_sysbios_family_arm_cc26xx_Timer_getCurrentTick__E        
0000a603  ti_sysbios_family_arm_cc26xx_Timer_setNextTick__E           
0000a65d  PowerCC26XX_initiateCalibration                             
0000a70d  ti_sysbios_family_arm_m3_Hwi_construct                      
0000a765  ti_sysbios_knl_Mailbox_construct                            
0000a7bd  ti_sysbios_knl_Mailbox_postInit__I                          
0000a815  xdc_runtime_Core_assignLabel__I                             
0000a86d  xdc_runtime_SysMin_flush__E                                 
0000a86d  xdc_runtime_System_SupportProxy_flush__E                    
0000aa15  ti_sysbios_heaps_HeapMem_init__I                            
0000aa69  ti_sysbios_knl_Swi_construct                                
0000aabd  ti_sysbios_knl_Task_construct                               
0000ab11  xdc_runtime_Text_printVisFxn__I                             
0000ab65  NOROM_SetupSetCacheModeAccordingToCcfgSetting               
0000ac05  ti_sysbios_family_arm_cc26xx_Timer_setThreshold__I          
0000ac55  xdc_runtime_System_atexit__E                                
0000acf1  copy_in                                                     
0000ad3d  ti_sysbios_family_arm_m3_Hwi_excReserved__I                 
0000ad89  ti_sysbios_family_arm_m3_TaskSupport_buildTaskStack         
0000add5  xdc_runtime_SysMin_putch__E                                 
0000add5  xdc_runtime_System_SupportProxy_putch__E                    
0000ae21  NOROM_ChipInfo_GetChipFamily                                
0000aeb1  RF_runCmd                                                   
0000af41  __aeabi_d2iz                                                
0000af89  ti_sysbios_family_arm_cc26xx_Timer_getMaxTicks__E           
0000afd1  ti_sysbios_family_arm_m3_Hwi_Instance_finalize__E           
0000b019  ti_sysbios_family_arm_m3_Hwi_initStacks__E                  
0000b061  ResetISR                                                    
0000b061  _c_int00                                                    
0000b0a5  C$$EXIT                                                     
0000b0a9  abort                                                       
0000b0b1  exit                                                        
0000b0e9  __aeabi_d2uiz                                               
0000b12d  ti_sysbios_family_arm_m3_Hwi_excSvCall__I                   
0000b171  ti_sysbios_knl_Clock_getTicksUntilInterrupt__E              
0000b1b5  xdc_runtime_Text_cordText__E                                
0000b1f9  buttonCallbackFxn                                           
0000b239  isInRange                                                   
0000b279  __aeabi_uidiv                                               
0000b279  __aeabi_uidivmod                                            
0000b2b9  ti_sysbios_knl_Swi_restore__E                               
0000b2f9  xdc_runtime_System_putchar__I                               
0000b339  ti_sysbios_knl_Clock_addI__E                                
0000b377  ti_sysbios_knl_Semaphore_pendTimeout__I                     
0000b3b5  ADCCC26XX_close                                             
0000b469  NOROM_OSC_HPOSCRelativeFrequencyOffsetGet                   
0000b4a5  NOROM_RFCSynthPowerDown                                     
0000b4e1  PIN_setOutputValue                                          
0000b51d  ti_sysbios_family_arm_m3_Hwi_excNoIsr__I                    
0000b559  ti_sysbios_family_arm_m3_Hwi_setPriority__E                 
0000b595  ti_sysbios_knl_Task_processVitalTaskFlag__I                 
0000b5d1  xdc_runtime_SysMin_abort__E                                 
0000b5d1  xdc_runtime_System_SupportProxy_abort__E                    
0000b60d  xdc_runtime_System_processAtExit__E                         
0000b649  ti_sysbios_knl_Queue_put__E                                 
0000b683  ti_sysbios_BIOS_nullFunc__I                                 
0000b685  ADCCC26XX_convertRawToMicroVolts                            
0000b6bd  ADC_init                                                    
0000b72d  __aeabi_f2d                                                 
0000b765  __aeabi_f2iz                                                
0000b79d  __aeabi_i2f                                                 
0000b7d5  ti_sysbios_family_arm_m3_Hwi_excNmi__I                      
0000b80d  xdc_runtime_Registry_findById__E                            
0000b87b  xdc_runtime_System_abortSpin__E                             
0000b87d  NOROM_AUXADCDisableInputScaling                             
0000b8b1  NOROM_OSCHF_SwitchToRcOscTurnOffXosc                        
0000b8e5  PIN_setConfig                                               
0000b94d  gpioDebounceFxn0                                            
0000b981  ti_sysbios_family_arm_cc26xx_Timer_initDevice__I            
0000b9b5  ti_sysbios_knl_Clock_construct                              
0000b9e9  ti_sysbios_knl_Queue_get__E                                 
0000ba1d  ti_sysbios_knl_Semaphore_create                             
0000ba51  xdc_runtime_Error_raiseX__E                                 
0000ba85  xdc_runtime_Memory_valloc__E                                
0000bab9  NOROM_SetupSetAonRtcSubSecInc                               
0000bae9  Power_releaseConstraint                                     
0000bb19  Power_setConstraint                                         
0000bb49  SafeHapiAuxAdiSelect                                        
0000bba9  gpioDebounceFxn1                                            
0000bbd9  ti_sysbios_BIOS_atExitFunc__I                               
0000bc09  ti_sysbios_BIOS_startFunc__I                                
0000bc39  ti_sysbios_family_arm_cc26xx_Timer_Module_startup__E        
0000bc69  ti_sysbios_family_arm_cc26xx_Timer_startup__E               
0000bc69  ti_sysbios_knl_Clock_TimerProxy_startup__E                  
0000bc99  ti_sysbios_family_arm_m3_Hwi_excHandler__I                  
0000bcc9  ti_sysbios_gates_GateHwi_Object__create__S                  
0000bcf9  ti_sysbios_gates_GateMutex_Object__create__S                
0000bd29  ti_sysbios_heaps_HeapMem_Object__create__S                  
0000bd59  ti_sysbios_knl_Idle_run__E                                  
0000bd89  ti_sysbios_knl_Semaphore_construct                          
0000bdb9  ti_sysbios_knl_Task_restore__E                              
0000bde9  __aeabi_i2d                                                 
0000be17  ti_sysbios_hal_Hwi_initStack                                
0000be45  ti_sysbios_knl_Task_getMode__E                              
0000bea1  NOROM_DDI32RegWrite                                         
0000becd  NOROM_OSCClockSourceGet                                     
0000bef9  NOROM_SetupGetTrimForRadcExtCfg                             
0000bf51  ti_sysbios_family_arm_cc26xx_Timer_postInit__I              
0000bf7d  ti_sysbios_family_arm_m3_Hwi_getHandle__E                   
0000bfa9  ti_sysbios_family_arm_m3_Hwi_plug__E                        
0000bfd5  ti_sysbios_knl_Clock_getTicks__E                            
0000c001  ti_sysbios_knl_Queue_construct                              
0000c02d  ti_sysbios_knl_Queue_enqueue__E                             
0000c057  ti_sysbios_knl_Swi_or__E                                    
0000c081  ti_sysbios_knl_Task_sleepTimeout__I                         
0000c0ad  ADC_open                                                    
0000c0d5  NOROM_AONBatMonTemperatureGetDegC                           
0000c125  SafeHapiVoid                                                
0000c14d  ti_sysbios_knl_Clock_stop__E                                
0000c175  xdc_runtime_SysMin_Module_startup__E                        
0000c19d  xdc_runtime_Text_ropeText__E                                
0000c1c5  xdc_runtime_System_avprintf__E                              
0000c1eb  xdc_runtime_System_vprintf__E                               
0000c211  PINCC26XX_getPinCount                                       
0000c27d  ti_sysbios_BIOS_errorRaiseHook__I                           
0000c2a1  ti_sysbios_BIOS_registerRTSLock__I                          
0000c2c5  ti_sysbios_BIOS_removeRTSLock__I                            
0000c2e9  ti_sysbios_BIOS_setThreadType__E                            
0000c30d  ti_sysbios_gates_GateMutex_Instance_init__E                 
0000c331  ti_sysbios_BIOS_RtsGateProxy_Object__delete__S              
0000c331  ti_sysbios_gates_GateMutex_Object__delete__S                
0000c331  ti_sysbios_heaps_HeapMem_Module_GateProxy_Object__delete__S 
0000c355  ti_sysbios_heaps_HeapMem_restore__E                         
0000c379  ti_sysbios_knl_Clock_Module_startup__E                      
0000c39d  ti_sysbios_knl_Clock_scheduleNextTick__E                    
0000c3c1  ti_sysbios_knl_Queue_dequeue__E                             
0000c3e5  ti_sysbios_knl_Task_restoreHwi__E                           
0000c409  xdc_runtime_Error_check__E                                  
0000c42d  xdc_runtime_Memory_free__E                                  
0000c451  NOROM_AUXADCAdjustValueForGainAndOffset                     
0000c473  xdc_runtime_Memory_calloc__E                                
0000c495  xdc_runtime_SysMin_output__I                                
0000c4b7  xdc_runtime_System_vsnprintf__E                             
0000c4d9  NOROM_RFCAdi3VcoLdoVoltageMode                              
0000c4f9  NOROM_RFCDoorbellSendTo                                     
0000c519  NOROM_SetupGetTrimForXoscHfCtl                              
0000c559  ti_sysbios_BIOS_rtsLock__I                                  
0000c579  ti_sysbios_family_arm_cc26xx_Timer_dynamicStub__E           
0000c599  ti_sysbios_family_arm_m3_Hwi_excHandlerAsm__I               
0000c5b9  ti_sysbios_gates_GateHwi_Object__delete__S                  
0000c5b9  xdc_runtime_Main_Module_GateProxy_Object__delete__S         
0000c5b9  xdc_runtime_System_Module_GateProxy_Object__delete__S       
0000c5d9  ti_sysbios_gates_GateMutex_leave__E                         
0000c5f9  ti_sysbios_heaps_HeapMem_Object__delete__S                  
0000c5f9  xdc_runtime_Memory_HeapProxy_Object__delete__S              
0000c619  ti_sysbios_knl_Clock_Object__destruct__S                    
0000c639  ti_sysbios_knl_Semaphore_Object__destruct__S                
0000c659  ti_sysbios_knl_Task_disable__E                              
0000c679  ti_sysbios_knl_Task_enter__I                                
0000c699  ti_sysbios_knl_Task_unblock__E                              
0000c6b9  xdc_runtime_SysMin_exit__E                                  
0000c6b9  xdc_runtime_System_SupportProxy_exit__E                     
0000c6d9  PIN_close                                                   
0000c6f7  Power_getTransitionLatency                                  
0000c715  ti_sysbios_family_xxx_Hwi_switchAndRunFunc                  
0000c733  ti_sysbios_knl_Queue_remove__E                              
0000c751  NOROM_AUXADCGetAdjustmentGain                               
0000c76d  NOROM_SetupGetTrimForAmpcompTh2                             
0000c789  NOROM_SetupGetTrimForRcOscLfRtuneCtuneTrim                  
0000c831  ti_sysbios_family_arm_m3_Hwi_Object__destruct__S            
0000c84d  ti_sysbios_family_arm_m3_Hwi_post__E                        
0000c84d  ti_sysbios_hal_Hwi_HwiProxy_post__E                         
0000c869  ti_sysbios_knl_Queue_Object__destruct__S                    
0000c885  ti_sysbios_knl_Swi_Object__destruct__S                      
0000c8a1  ti_sysbios_knl_Swi_disable__E                               
0000c8bd  ti_sysbios_knl_Task_enabled__E                              
0000c8d9  xdc_runtime_System_abort__E                                 
0000c8f5  ti_sysbios_family_arm_m3_Hwi_Handle__label__S               
0000c8f5  ti_sysbios_hal_Hwi_HwiProxy_Handle__label__S                
0000c90f  ti_sysbios_family_arm_m3_Hwi_pendSV__I                      
0000c927  ti_sysbios_family_arm_m3_Hwi_return                         
0000c929  ti_sysbios_family_arm_m3_Hwi_setFunc__E                     
0000c943  ti_sysbios_family_arm_m3_TaskSupport_checkStack__E          
0000c943  ti_sysbios_knl_Task_SupportProxy_checkStack__E              
0000c95d  ti_sysbios_gates_GateHwi_Handle__label__S                   
0000c95d  xdc_runtime_Main_Module_GateProxy_Handle__label__S          
0000c95d  xdc_runtime_System_Module_GateProxy_Handle__label__S        
0000c977  ti_sysbios_BIOS_RtsGateProxy_Handle__label__S               
0000c977  ti_sysbios_gates_GateMutex_Handle__label__S                 
0000c977  ti_sysbios_heaps_HeapMem_Module_GateProxy_Handle__label__S  
0000c991  ti_sysbios_heaps_HeapMem_Handle__label__S                   
0000c991  xdc_runtime_Memory_HeapProxy_Handle__label__S               
0000c9ab  ti_sysbios_knl_Semaphore_Instance_finalize__E               
0000c9c5  ti_sysbios_knl_Swi_Handle__label__S                         
0000c9df  ti_sysbios_knl_Task_Handle__label__S                        
0000c9f9  xdc_runtime_System_aprintf__E                               
0000ca13  xdc_runtime_System_printf__E                                
0000ca2d  NOROM_AONRTCCurrentCompareValueGet                          
0000ca45  NOROM_AUXADCGetAdjustmentOffset                             
0000ca5d  NOROM_ChipInfo_GetPackageType                               
0000ca75  NOROM_OSCHF_TurnOnXosc                                      
0000ca8d  NOROM_RFCCpeIntGetAndClear                                  
0000caa5  NOROM_SetupGetTrimForAdcShModeEn                            
0000cabd  NOROM_SetupGetTrimForAdcShVbufEn                            
0000cad5  NOROM_SetupGetTrimForAmpcompTh1                             
0000caed  NOROM_SetupGetTrimForDblrLoopFilterResetVoltage             
0000cb05  NOROM_SetupGetTrimForRcOscLfIBiasTrim                       
0000cb1d  NOROM_SetupGetTrimForXoscLfRegulatorAndCmirrwrRatio         
0000cb35  Power_idleFunc                                              
0000cb7d  _args_main                                                  
0000cb95  __aeabi_lmul                                                
0000cbc5  ti_sysbios_BIOS_rtsUnlock__I                                
0000cbdd  ti_sysbios_family_arm_cc26xx_Timer_Module__startupDone__F   
0000cbdd  ti_sysbios_family_arm_cc26xx_Timer_Module__startupDone__S   
0000cbdd  ti_sysbios_knl_Clock_TimerProxy_Module__startupDone__S      
0000cbf5  ti_sysbios_family_arm_m3_Hwi_Module__startupDone__F         
0000cbf5  ti_sysbios_family_arm_m3_Hwi_Module__startupDone__S         
0000cbf5  ti_sysbios_hal_Hwi_HwiProxy_Module__startupDone__S          
0000cc0d  ti_sysbios_family_arm_m3_Hwi_switchFromBootStack__E         
0000cc0d  ti_sysbios_hal_Hwi_HwiProxy_switchFromBootStack__E          
0000cc3d  ti_sysbios_gates_GateMutex_Instance_finalize__E             
0000ccb5  ti_sysbios_knl_Queue_empty__E                               
0000cce5  xdc_runtime_System_exit__E                                  
0000ccfd  NOROM_ThisCodeIsBuiltForCC13xxHwRev20AndLater_HaltIfViolated
0000cd13  strcpy                                                      
0000cd29  ti_sysbios_BIOS_exitFunc__I                                 
0000cd81  ti_sysbios_knl_Queue_Instance_init__E                       
0000ce1d  NOROM_AONRTCCurrent64BitValueGet                            
0000ce31  NOROM_AUXADCValueToMicrovolts                               
0000ce45  PIN_getInputValue                                           
0000ce59  PIN_getOutputValue                                          
0000ce6d  RF_Params_init                                              
0000ce81  periodicSampleFxn                                           
0000ce95  _register_unlock                                            
0000ce9b  _register_lock                                              
0000cea3  _nop                                                        
0000cea9  strlen                                                      
0000cebd  ti_sysbios_BIOS_exit__E                                     
0000ced1  ti_sysbios_family_arm_m3_Hwi_Object__get__S                 
0000cee5  ti_sysbios_gates_GateHwi_enter__E                           
0000cef9  ti_sysbios_hal_Hwi_Module_startup__E                        
0000cf0d  ti_sysbios_hal_Hwi_getStackInfo__E                          
0000cf21  ti_sysbios_heaps_HeapMem_Object__get__S                     
0000cf49  ti_sysbios_knl_Clock_doTick__I                              
0000cf5d  ti_sysbios_knl_Queue_elemClear__E                           
0000cf71  ti_sysbios_knl_Swi_Object__get__S                           
0000cf99  xdc_runtime_Error_init__E                                   
0000cfad  xdc_runtime_Gate_leaveSystem__E                             
0000cfc1  ti_sysbios_family_arm_cc26xx_Timer_setPeriod__E             
0000cfd3  ti_sysbios_gates_GateHwi_leave__E                           
0000cfe5  ti_sysbios_knl_Clock_setTimeout__E                          
0000cff7  xdc_runtime_Startup_exec__I                                 
0000d019  NOROM_AUXADCFlushFifo                                       
0000d029  NOROM_AUXADCReadFifo                                        
0000d039  NOROM_RFCRfTrimSet                                          
0000d049  NOROM_SetupGetTrimForXoscHfFastStart                        
0000d059  NOROM_SetupGetTrimForXoscHfIbiastherm                       
0000d099  ti_sysbios_BIOS_getThreadType__E                            
0000d0a9  ti_sysbios_BIOS_start__E                                    
0000d0c9  ti_sysbios_family_arm_m3_Hwi_doSwiRestore__I                
0000d0d9  HwiP_restore                                                
0000d0d9  ti_sysbios_family_arm_m3_Hwi_restoreFxn__E                  
0000d0d9  ti_sysbios_hal_Hwi_HwiProxy_restore__E                      
0000d0e9  ti_sysbios_family_arm_m3_TaskSupport_glue                   
0000d0f9  ti_sysbios_family_arm_m3_TaskSupport_swap__E                
0000d0f9  ti_sysbios_knl_Task_SupportProxy_swap__E                    
0000d101  ti_sysbios_knl_Task_swapReturn                              
0000d119  ti_sysbios_knl_Mailbox_Object__get__S                       
0000d169  ti_sysbios_knl_Swi_enabled__E                               
0000d179  ti_sysbios_knl_Task_Object__get__S                          
0000d199  xdc_runtime_Gate_enterSystem__E                             
0000d1a9  xdc_runtime_SysMin_ready__E                                 
0000d1a9  xdc_runtime_System_SupportProxy_ready__E                    
0000d1b9  xdc_runtime_System_aprintf_va__F                            
0000d1c9  xdc_runtime_System_printf_va__F                             
0000d1d9  xdc_runtime_Text_visitRope__I                               
0000d1e9  NOROM_SetupSignExtendVddrTrimValue                          
0000d1f7  NOROM_VIMSModeGet                                           
0000d205  __TI_decompress_none                                        
0000d213  ti_sysbios_family_arm_m3_Hwi_doTaskRestore__I               
0000d221  ti_sysbios_knl_Queue_head__E                                
0000d22f  ti_sysbios_knl_Queue_next__E                                
0000d23d  ti_sysbios_knl_Swi_postInit__I                              
0000d24b  xdc_runtime_Error_getSite__E                                
0000d259  xdc_runtime_System_Module_startup__E                        
0000d299  NOROM_CPUcpsid                                              
0000d2a5  NOROM_CPUcpsie                                              
0000d2b1  PIN_registerIntCb                                           
0000d2bd  Power_getConstraintMask                                     
0000d2c9  Power_getDependencyCount                                    
0000d2d5  __TI_zero_init                                              
0000d2e1  ti_sysbios_family_arm_m3_Hwi_Params__init__S                
0000d2e1  ti_sysbios_hal_Hwi_HwiProxy_Params__init__S                 
0000d2ed  ti_sysbios_family_arm_m3_Hwi_disableFxn__E                  
0000d2ed  ti_sysbios_hal_Hwi_HwiProxy_disable__E                      
0000d2f9  ti_sysbios_family_arm_m3_TaskSupport_getStackAlignment__E   
0000d2f9  ti_sysbios_knl_Task_SupportProxy_getStackAlignment__E       
0000d305  ti_sysbios_gates_GateHwi_Instance_init__E                   
0000d311  ti_sysbios_gates_GateHwi_query__E                           
0000d311  xdc_runtime_Main_Module_GateProxy_query__E                  
0000d311  xdc_runtime_System_Module_GateProxy_query__E                
0000d31d  ti_sysbios_BIOS_RtsGateProxy_query__E                       
0000d31d  ti_sysbios_gates_GateMutex_query__E                         
0000d31d  ti_sysbios_heaps_HeapMem_Module_GateProxy_query__E          
0000d329  ti_sysbios_heaps_HeapMem_isBlocking__E                      
0000d335  ti_sysbios_knl_Clock_Params__init__S                        
0000d365  ti_sysbios_knl_Clock_removeI__E                             
0000d371  ti_sysbios_knl_Idle_loop__E                                 
0000d37d  ti_sysbios_knl_Mailbox_Params__init__S                      
0000d395  ti_sysbios_knl_Queue_Object__get__S                         
0000d3b9  ti_sysbios_knl_Semaphore_Params__init__S                    
0000d3e9  ti_sysbios_knl_Swi_Params__init__S                          
0000d3f5  ti_sysbios_knl_Swi_getTrigger__E                            
0000d401  ti_sysbios_knl_Swi_self__E                                  
0000d40d  ti_sysbios_knl_Task_Params__init__S                         
0000d425  ti_sysbios_knl_Task_self__E                                 
0000d43d  xdc_runtime_Memory_getMaxDefaultTypeAlign__E                
0000d449  xdc_runtime_Startup_rtsDone__E                              
0000d455  xdc_runtime_System_exitStd__E                               
0000d485  ADC_convert                                                 
0000d48f  List_empty                                                  
0000d499  ti_sysbios_family_arm_cc26xx_Timer_getCount64__E            
0000d4a3  ti_sysbios_knl_Clock_triggerFunc__I                         
0000d4ad  ti_sysbios_knl_Swi_startup__E                               
0000d4b7  ti_sysbios_knl_Task_startup__E                              
0000d4c1  xdc_runtime_Memory_HeapProxy_alloc__E                       
0000d4cb  xdc_runtime_Memory_HeapProxy_free__E                        
0000d4d5  ADCCC26XX_init                                              
0000d4f5  ti_sysbios_family_arm_cc26xx_Boot_trimDevice                
0000d4f5  xdc_runtime_Startup_reset__I                                
0000d4fd  ti_sysbios_family_arm_m3_Hwi_startup__E                     
0000d4fd  ti_sysbios_hal_Hwi_HwiProxy_startup__E                      
0000d505  ti_sysbios_hal_Hwi_startup__E                               
0000d50d  ti_sysbios_hal_Hwi_switchFromBootStack__E                   
0000d515  xdc_runtime_System_abortStd__E                              
0000d51d  xdc_runtime_System_flush__E                                 
0000d525  ADCCC26XX_control                                           
